{
  "contractName": "BatchLiquidator",
  "abi": [
    {
      "inputs": [
        {
          "internalType": "address",
          "name": "host",
          "type": "address"
        },
        {
          "internalType": "address",
          "name": "cfa",
          "type": "address"
        },
        {
          "internalType": "address",
          "name": "superToken",
          "type": "address"
        },
        {
          "internalType": "address[]",
          "name": "senders",
          "type": "address[]"
        },
        {
          "internalType": "address[]",
          "name": "receivers",
          "type": "address[]"
        }
      ],
      "name": "deleteFlows",
      "outputs": [],
      "stateMutability": "nonpayable",
      "type": "function"
    }
  ],
  "bytecode": "0x608060405234801561001057600080fd5b50610616806100206000396000f3fe608060405234801561001057600080fd5b506004361061002b5760003560e01c8063feb6bb6914610030575b600080fd5b610113600480360360a081101561004657600080fd5b6001600160a01b038235811692602081013582169260408201359092169181019060808101606082013564010000000081111561008257600080fd5b82018360208201111561009457600080fd5b803590602001918460208302840111640100000000831117156100b657600080fd5b9193909290916020810190356401000000008111156100d457600080fd5b8201836020820111156100e657600080fd5b8035906020019184602083028401116401000000008311171561010857600080fd5b509092509050610115565b005b828114610162576040805162461bcd60e51b815260206004820152601660248201527561727261797320646966666572656e742073697a657360501b604482015290519081900360640190fd5b60005b838110156104d05760006001600160a01b0389166339255d5b60e01b89635a5999e360e11b8a8a8a8881811061019757fe5b905060200201356001600160a01b03168989898181106101b357fe5b905060200201356001600160a01b0316600067ffffffffffffffff811180156101db57600080fd5b506040519080825280601f01601f191660200182016040528015610206576020820181803683370190505b5060405160240180856001600160a01b03168152602001846001600160a01b03168152602001836001600160a01b0316815260200180602001828103825283818151815260200191508051906020019080838360005b8381101561027457818101518382015260200161025c565b50505050905090810190601f1680156102a15780820380516001836020036101000a031916815260200191505b5060408051601f198184030181529190526020810180516001600160e01b03166001600160e01b03199099169890981790975250600094508493506102e592505050565b506040519080825280601f01601f191660200182016040528015610310576020820181803683370190505b5060405160240180846001600160a01b031681526020018060200180602001838103835285818151815260200191508051906020019080838360005b8381101561036457818101518382015260200161034c565b50505050905090810190601f1680156103915780820380516001836020036101000a031916815260200191505b50838103825284518152845160209182019186019080838360005b838110156103c45781810151838201526020016103ac565b50505050905090810190601f1680156103f15780820380516001836020036101000a031916815260200191505b5060408051601f198184030181529181526020820180516001600160e01b03166001600160e01b0319909a16999099178952518151919890975087965094509250829150849050835b602083106104595780518252601f19909201916020918201910161043a565b6001836020036101000a0380198251168184511680821785525050505050509050019150506000604051808303816000865af19150503d80600081146104bb576040519150601f19603f3d011682016040523d82523d6000602084013e6104c0565b606091505b5050600190920191506101659050565b506000856001600160a01b03166370a08231306040518263ffffffff1660e01b815260040180826001600160a01b0316815260200191505060206040518083038186803b15801561052057600080fd5b505afa158015610534573d6000803e3d6000fd5b505050506040513d602081101561054a57600080fd5b5051905080156105d657604080516323b872dd60e01b81523060048201523360248201526044810183905290516001600160a01b038816916323b872dd9160648083019260209291908290030181600087803b1580156105a957600080fd5b505af11580156105bd573d6000803e3d6000fd5b505050506040513d60208110156105d357600080fd5b50505b505050505050505056fea264697066735822122053563a26aac4135b481cf52e638768a3ea1955fded5bd89b2e758595f3a6745d64736f6c63430007060033",
  "immutableReferences": {},
  "source": "// SPDX-License-Identifier: AGPLv3\npragma solidity >= 0.7.0;\n\n\nimport { ISuperfluid, ISuperAgreement } from \"../interfaces/superfluid/ISuperfluid.sol\";\nimport { IConstantFlowAgreementV1 } from \"../interfaces/agreements/IConstantFlowAgreementV1.sol\";\nimport { ERC20 } from \"@openzeppelin/contracts/token/ERC20/ERC20.sol\";\n\n/**\n * @title Superfluid's batch liquidations\n *\n * @author Superfluid\n */\ncontract BatchLiquidator {\n\n    /**\n     * @dev Delete flows in batch\n     * @param host - The host contract address.\n     * @param cfa  - The cfa contract address.\n     * @param superToken - The super token the flows belong to.\n     * @param senders - List of senders.\n     * @param receivers - Corresponding list of receivers.\n     */\n    function deleteFlows(\n        address host,\n        address cfa,\n        address superToken,\n        address[] calldata senders, address[] calldata receivers\n    ) external {\n        require(senders.length == receivers.length, \"arrays different sizes\");\n\n        for (uint i = 0; i < senders.length; ++i) {\n            bool success;\n            // We tolerate any errors occured during liquidations.\n            // It could be due to flow had been liquidated by others.\n            // solhint-disable-next-line avoid-low-level-calls\n            (success, ) = address(host).call(\n                abi.encodeWithSelector(\n                    ISuperfluid.callAgreement.selector,\n                    cfa,\n                    abi.encodeWithSelector(\n                        IConstantFlowAgreementV1.deleteFlow.selector,\n                        superToken,\n                        senders[i],\n                        receivers[i],\n                        new bytes(0)\n                    ),\n                    new bytes(0)\n                )\n            );\n        }\n\n        // If the liquidation(s) resulted in any super token\n        // rewards, send them all to the sender instead of having them\n        // locked in the contract\n        {\n            uint256 balance = ERC20(superToken).balanceOf(address(this));\n            if(balance > 0) {\n                ERC20(superToken).transferFrom(address(this), msg.sender, balance);\n            }\n        }\n    }\n}\n\n",
  "sourcePath": "/home/runner/work/protocol-monorepo/protocol-monorepo/packages/ethereum-contracts/contracts/utils/BatchLiquidator.sol",
  "compiler": {
    "name": "solc",
    "version": "0.7.6+commit.7338295f.Emscripten.clang"
  },
  "schemaVersion": "3.4.4",
  "updatedAt": "2022-02-01T14:35:44.909Z",
  "devdoc": {
    "author": "Superfluid",
    "kind": "dev",
    "methods": {
      "deleteFlows(address,address,address,address[],address[])": {
        "details": "Delete flows in batch",
        "params": {
          "cfa": "- The cfa contract address.",
          "host": "- The host contract address.",
          "receivers": "- Corresponding list of receivers.",
          "senders": "- List of senders.",
          "superToken": "- The super token the flows belong to."
        }
      }
    },
    "title": "Superfluid's batch liquidations",
    "version": 1
  },
  "userdoc": {
    "kind": "user",
    "methods": {},
    "version": 1
  }
}