{
  "contractName": "ConstantFlowAgreementV1",
  "abi": [
    {
      "anonymous": false,
      "inputs": [
        {
          "indexed": false,
          "internalType": "bytes32",
          "name": "uuid",
          "type": "bytes32"
        },
        {
          "indexed": false,
          "internalType": "address",
          "name": "codeAddress",
          "type": "address"
        }
      ],
      "name": "CodeUpdated",
      "type": "event"
    },
    {
      "anonymous": false,
      "inputs": [
        {
          "indexed": true,
          "internalType": "contract ISuperfluidToken",
          "name": "token",
          "type": "address"
        },
        {
          "indexed": true,
          "internalType": "address",
          "name": "sender",
          "type": "address"
        },
        {
          "indexed": true,
          "internalType": "address",
          "name": "receiver",
          "type": "address"
        },
        {
          "indexed": false,
          "internalType": "int96",
          "name": "flowRate",
          "type": "int96"
        },
        {
          "indexed": false,
          "internalType": "int256",
          "name": "totalSenderFlowRate",
          "type": "int256"
        },
        {
          "indexed": false,
          "internalType": "int256",
          "name": "totalReceiverFlowRate",
          "type": "int256"
        },
        {
          "indexed": false,
          "internalType": "bytes",
          "name": "userData",
          "type": "bytes"
        }
      ],
      "name": "FlowUpdated",
      "type": "event"
    },
    {
      "inputs": [],
      "name": "agreementType",
      "outputs": [
        {
          "internalType": "bytes32",
          "name": "",
          "type": "bytes32"
        }
      ],
      "stateMutability": "pure",
      "type": "function"
    },
    {
      "inputs": [],
      "name": "getCodeAddress",
      "outputs": [
        {
          "internalType": "address",
          "name": "codeAddress",
          "type": "address"
        }
      ],
      "stateMutability": "view",
      "type": "function"
    },
    {
      "inputs": [],
      "name": "initialize",
      "outputs": [],
      "stateMutability": "nonpayable",
      "type": "function"
    },
    {
      "inputs": [],
      "name": "proxiableUUID",
      "outputs": [
        {
          "internalType": "bytes32",
          "name": "",
          "type": "bytes32"
        }
      ],
      "stateMutability": "view",
      "type": "function"
    },
    {
      "inputs": [
        {
          "internalType": "address",
          "name": "newAddress",
          "type": "address"
        }
      ],
      "name": "updateCode",
      "outputs": [],
      "stateMutability": "nonpayable",
      "type": "function"
    },
    {
      "inputs": [
        {
          "internalType": "contract ISuperfluidToken",
          "name": "token",
          "type": "address"
        },
        {
          "internalType": "address",
          "name": "account",
          "type": "address"
        },
        {
          "internalType": "uint256",
          "name": "time",
          "type": "uint256"
        }
      ],
      "name": "realtimeBalanceOf",
      "outputs": [
        {
          "internalType": "int256",
          "name": "dynamicBalance",
          "type": "int256"
        },
        {
          "internalType": "uint256",
          "name": "deposit",
          "type": "uint256"
        },
        {
          "internalType": "uint256",
          "name": "owedDeposit",
          "type": "uint256"
        }
      ],
      "stateMutability": "view",
      "type": "function"
    },
    {
      "inputs": [
        {
          "internalType": "contract ISuperfluidToken",
          "name": "token",
          "type": "address"
        },
        {
          "internalType": "uint256",
          "name": "deposit",
          "type": "uint256"
        }
      ],
      "name": "getMaximumFlowRateFromDeposit",
      "outputs": [
        {
          "internalType": "int96",
          "name": "flowRate",
          "type": "int96"
        }
      ],
      "stateMutability": "view",
      "type": "function"
    },
    {
      "inputs": [
        {
          "internalType": "contract ISuperfluidToken",
          "name": "token",
          "type": "address"
        },
        {
          "internalType": "int96",
          "name": "flowRate",
          "type": "int96"
        }
      ],
      "name": "getDepositRequiredForFlowRate",
      "outputs": [
        {
          "internalType": "uint256",
          "name": "deposit",
          "type": "uint256"
        }
      ],
      "stateMutability": "view",
      "type": "function"
    },
    {
      "inputs": [
        {
          "internalType": "contract ISuperfluidToken",
          "name": "token",
          "type": "address"
        },
        {
          "internalType": "address",
          "name": "receiver",
          "type": "address"
        },
        {
          "internalType": "int96",
          "name": "flowRate",
          "type": "int96"
        },
        {
          "internalType": "bytes",
          "name": "ctx",
          "type": "bytes"
        }
      ],
      "name": "createFlow",
      "outputs": [
        {
          "internalType": "bytes",
          "name": "newCtx",
          "type": "bytes"
        }
      ],
      "stateMutability": "nonpayable",
      "type": "function"
    },
    {
      "inputs": [
        {
          "internalType": "contract ISuperfluidToken",
          "name": "token",
          "type": "address"
        },
        {
          "internalType": "address",
          "name": "receiver",
          "type": "address"
        },
        {
          "internalType": "int96",
          "name": "flowRate",
          "type": "int96"
        },
        {
          "internalType": "bytes",
          "name": "ctx",
          "type": "bytes"
        }
      ],
      "name": "updateFlow",
      "outputs": [
        {
          "internalType": "bytes",
          "name": "newCtx",
          "type": "bytes"
        }
      ],
      "stateMutability": "nonpayable",
      "type": "function"
    },
    {
      "inputs": [
        {
          "internalType": "contract ISuperfluidToken",
          "name": "token",
          "type": "address"
        },
        {
          "internalType": "address",
          "name": "sender",
          "type": "address"
        },
        {
          "internalType": "address",
          "name": "receiver",
          "type": "address"
        },
        {
          "internalType": "bytes",
          "name": "ctx",
          "type": "bytes"
        }
      ],
      "name": "deleteFlow",
      "outputs": [
        {
          "internalType": "bytes",
          "name": "newCtx",
          "type": "bytes"
        }
      ],
      "stateMutability": "nonpayable",
      "type": "function"
    },
    {
      "inputs": [
        {
          "internalType": "contract ISuperfluidToken",
          "name": "token",
          "type": "address"
        },
        {
          "internalType": "address",
          "name": "sender",
          "type": "address"
        },
        {
          "internalType": "address",
          "name": "receiver",
          "type": "address"
        }
      ],
      "name": "getFlow",
      "outputs": [
        {
          "internalType": "uint256",
          "name": "timestamp",
          "type": "uint256"
        },
        {
          "internalType": "int96",
          "name": "flowRate",
          "type": "int96"
        },
        {
          "internalType": "uint256",
          "name": "deposit",
          "type": "uint256"
        },
        {
          "internalType": "uint256",
          "name": "owedDeposit",
          "type": "uint256"
        }
      ],
      "stateMutability": "view",
      "type": "function"
    },
    {
      "inputs": [
        {
          "internalType": "contract ISuperfluidToken",
          "name": "token",
          "type": "address"
        },
        {
          "internalType": "bytes32",
          "name": "flowId",
          "type": "bytes32"
        }
      ],
      "name": "getFlowByID",
      "outputs": [
        {
          "internalType": "uint256",
          "name": "timestamp",
          "type": "uint256"
        },
        {
          "internalType": "int96",
          "name": "flowRate",
          "type": "int96"
        },
        {
          "internalType": "uint256",
          "name": "deposit",
          "type": "uint256"
        },
        {
          "internalType": "uint256",
          "name": "owedDeposit",
          "type": "uint256"
        }
      ],
      "stateMutability": "view",
      "type": "function"
    },
    {
      "inputs": [
        {
          "internalType": "contract ISuperfluidToken",
          "name": "token",
          "type": "address"
        },
        {
          "internalType": "address",
          "name": "account",
          "type": "address"
        }
      ],
      "name": "getAccountFlowInfo",
      "outputs": [
        {
          "internalType": "uint256",
          "name": "timestamp",
          "type": "uint256"
        },
        {
          "internalType": "int96",
          "name": "flowRate",
          "type": "int96"
        },
        {
          "internalType": "uint256",
          "name": "deposit",
          "type": "uint256"
        },
        {
          "internalType": "uint256",
          "name": "owedDeposit",
          "type": "uint256"
        }
      ],
      "stateMutability": "view",
      "type": "function"
    },
    {
      "inputs": [
        {
          "internalType": "contract ISuperfluidToken",
          "name": "token",
          "type": "address"
        },
        {
          "internalType": "address",
          "name": "account",
          "type": "address"
        }
      ],
      "name": "getNetFlow",
      "outputs": [
        {
          "internalType": "int96",
          "name": "flowRate",
          "type": "int96"
        }
      ],
      "stateMutability": "view",
      "type": "function"
    }
  ],
  "bytecode": "0x608060405234801561001057600080fd5b50614b5a806100206000396000f3fe608060405234801561001057600080fd5b50600436106100f55760003560e01c80637730599e11610097578063aabd266811610066578063aabd266814610424578063b4b333c614610450578063e6a1e888146104df578063e8e7e2d114610517576100f5565b80637730599e146103915780638129fc1c146103995780638d997f6e146103a15780639b2e48bc146103d0576100f5565b806350209a62116100d357806350209a62146101bc57806350d75d25146102c257806352d1902d146102e657806362fc305e14610300576100f5565b80630602f7db146100fa5780630f1ac4951461013d5780634695195414610194575b600080fd5b6101266004803603604081101561011057600080fd5b506001600160a01b038135169060200135610545565b60408051600b9290920b8252519081900360200190f35b61016b6004803603604081101561015357600080fd5b506001600160a01b0381358116916020013516610748565b60408051948552600b9390930b6020850152838301919091526060830152519081900360800190f35b6101ba600480360360208110156101aa57600080fd5b50356001600160a01b031661077e565b005b61024d600480360360808110156101d257600080fd5b6001600160a01b0382358116926020810135909116916040820135600b0b9190810190608081016060820135600160201b81111561020f57600080fd5b82018360208201111561022157600080fd5b803590602001918460018302840111600160201b8311171561024257600080fd5b5090925090506107ef565b6040805160208082528351818301528351919283929083019185019080838360005b8381101561028757818101518382015260200161026f565b50505050905090810190601f1680156102b45780820380516001836020036101000a031916815260200191505b509250505060405180910390f35b6102ca610afc565b604080516001600160a01b039092168252519081900360200190f35b6102ee610b0b565b60408051918252519081900360200190f35b61024d6004803603608081101561031657600080fd5b6001600160a01b0382358116926020810135909116916040820135600b0b9190810190608081016060820135600160201b81111561035357600080fd5b82018360208201111561036557600080fd5b803590602001918460018302840111600160201b8311171561038657600080fd5b509092509050610b77565b6102ee610e22565b6101ba610e46565b6102ee600480360360408110156103b757600080fd5b506001600160a01b038135169060200135600b0b610f00565b610406600480360360608110156103e657600080fd5b506001600160a01b03813581169160208101359091169060400135611228565b60408051938452602084019290925282820152519081900360600190f35b61016b6004803603604081101561043a57600080fd5b506001600160a01b038135169060200135611280565b61024d6004803603608081101561046657600080fd5b6001600160a01b0382358116926020810135821692604082013590921691810190608081016060820135600160201b8111156104a157600080fd5b8201836020820111156104b357600080fd5b803590602001918460018302840111600160201b831117156104d457600080fd5b509092509050611292565b61016b600480360360608110156104f557600080fd5b506001600160a01b038135811691602081013582169160409091013516611b18565b6101266004803603604081101561052d57600080fd5b506001600160a01b0381358116916020013516611b58565b60006001605f1b821061059f576040805162461bcd60e51b815260206004820152601b60248201527f4346413a206465706f736974206e756d62657220746f6f206269670000000000604482015290519081900360640190fd5b6105a882611b72565b91506000836001600160a01b03166320bc44256040518163ffffffff1660e01b815260040160206040518083038186803b1580156105e557600080fd5b505afa1580156105f9573d6000803e3d6000fd5b505050506040513d602081101561060f57600080fd5b50516040805163289b3c0d60e01b815290519192506000916001600160a01b0384169163289b3c0d916004808301926020929190829003018186803b15801561065757600080fd5b505afa15801561066b573d6000803e3d6000fd5b505050506040513d602081101561068157600080fd5b50516040805163407b865d60e11b81526001600160a01b03858116600483015288811660248301527f1ca463a216b802472396d1b8a5b5b695d935b1d24311e89b020144e6613f15aa60448301529151929350600092918416916380f70cba91606480820192602092909190829003018186803b15801561070157600080fd5b505afa158015610715573d6000803e3d6000fd5b505050506040513d602081101561072b57600080fd5b50519050600061073b8683611b80565b9450505050505b92915050565b600080600080600061075a8787611be7565b805160208201516040830151606090930151919b909a509198509650945050505050565b6000546201000090046001600160a01b031633146107e3576040805162461bcd60e51b815260206004820152601960248201527f6f6e6c7920686f73742063616e2075706461746520636f646500000000000000604482015290519081900360640190fd5b6107ec81611d44565b50565b60606107f96143de565b6001600160a01b03861661084c576040805162461bcd60e51b81526020600482015260156024820152744346413a207265636569766572206973207a65726f60581b604482015290519081900360640190fd5b600061088e8886868080601f016020809104026020016040519081016040528093929190818152602001838380828437600092019190915250611ea792505050565b905061089e816060015188611fd7565b82526060808201516001600160a01b039081166020850181905290891660408501819052600b89810b900b9285019290925260a083015160808501521415610921576040805162461bcd60e51b81526020600482015260116024820152704346413a206e6f2073656c6620666c6f7760781b604482015290519081900360640190fd5b60008260600151600b0b13610976576040805162461bcd60e51b81526020600482015260166024820152754346413a20696e76616c696420666c6f77207261746560501b604482015290519081900360640190fd5b6000806109878a856000015161200f565b91509150816109d8576040805162461bcd60e51b815260206004820152601860248201527710d1904e88199b1bddc8191bd95cc81b9bdd08195e1a5cdd60421b604482015290519081900360640190fd5b60408051631e51d6a760e11b81526001600160a01b038b16600482015290513391633ca3ad4e916024808301926020929190829003018186803b158015610a1e57600080fd5b505afa158015610a32573d6000803e3d6000fd5b505050506040513d6020811015610a4857600080fd5b505115610a9e57610a97898b86848b8b8080601f0160208091040260200160405190810160405280939291908181526020018383808284376000920191909152508b9250600191506120709050565b9450610ae5565b610ae28a85838a8a8080601f0160208091040260200160405190810160405280939291908181526020018383808284376000920191909152508a92506129d7915050565b94505b610aef8a84612be0565b5050505095945050505050565b6000610b06612ce6565b905090565b6000306001600160a01b0316637730599e6040518163ffffffff1660e01b815260040160206040518083038186803b158015610b4657600080fd5b505afa158015610b5a573d6000803e3d6000fd5b505050506040513d6020811015610b7057600080fd5b5051905090565b6060610b816143de565b6001600160a01b038616610bd4576040805162461bcd60e51b81526020600482015260156024820152744346413a207265636569766572206973207a65726f60581b604482015290519081900360640190fd5b6000610c168886868080601f016020809104026020016040519081016040528093929190818152602001838380828437600092019190915250611ea792505050565b9050610c26816060015188611fd7565b82526060808201516001600160a01b039081166020850181905290891660408501819052600b89810b900b9285019290925260a083015160808501521415610ca9576040805162461bcd60e51b81526020600482015260116024820152704346413a206e6f2073656c6620666c6f7760781b604482015290519081900360640190fd5b60008260600151600b0b13610cfe576040805162461bcd60e51b81526020600482015260166024820152754346413a20696e76616c696420666c6f77207261746560501b604482015290519081900360640190fd5b600080610d0f8a856000015161200f565b915091508115610d66576040805162461bcd60e51b815260206004820152601760248201527f4346413a20666c6f7720616c7265616479206578697374000000000000000000604482015290519081900360640190fd5b60408051631e51d6a760e11b81526001600160a01b038b16600482015290513391633ca3ad4e916024808301926020929190829003018186803b158015610dac57600080fd5b505afa158015610dc0573d6000803e3d6000fd5b505050506040513d6020811015610dd657600080fd5b505115610a9e57610a97898b86848b8b8080601f01602080910402602001604051908101604052809392919081815260200183838082843760009201829052508c935091506120709050565b7fa9214cc96615e0085d3bb077758db69497dc2dce3b2b1e97bc93c3d18d83efd390565b600054610100900460ff1680610e5f5750610e5f612d0b565b80610e6d575060005460ff16155b610ea85760405162461bcd60e51b815260040180806020018281038252602e8152602001806149f5602e913960400191505060405180910390fd5b600054610100900460ff16158015610ed3576000805460ff1961ff0019909116610100171660011790555b6000805462010000600160b01b03191633620100000217905580156107ec576000805461ff001916905550565b60008082600b0b1215610f5a576040805162461bcd60e51b815260206004820152601f60248201527f4346413a206e6f7420666f72206e6567617469766520666c6f77207261746500604482015290519081900360640190fd5b6000836001600160a01b03166320bc44256040518163ffffffff1660e01b815260040160206040518083038186803b158015610f9557600080fd5b505afa158015610fa9573d6000803e3d6000fd5b505050506040513d6020811015610fbf57600080fd5b50516040805163289b3c0d60e01b815290519192506000916001600160a01b0384169163289b3c0d916004808301926020929190829003018186803b15801561100757600080fd5b505afa15801561101b573d6000803e3d6000fd5b505050506040513d602081101561103157600080fd5b50516040805163407b865d60e11b81526001600160a01b03858116600483015288811660248301527f1ca463a216b802472396d1b8a5b5b695d935b1d24311e89b020144e6613f15aa60448301529151929350600092918416916380f70cba91606480820192602092909190829003018186803b1580156110b157600080fd5b505afa1580156110c5573d6000803e3d6000fd5b505050506040513d60208110156110db57600080fd5b50516040805163407b865d60e11b81526001600160a01b03868116600483015289811660248301527feae305fa863b373417e615b1044222e2806cefc7788d169ce6748a443c3f6cc460448301529151929350600092918516916380f70cba91606480820192602092909190829003018186803b15801561115b57600080fd5b505afa15801561116f573d6000803e3d6000fd5b505050506040513d602081101561118557600080fd5b505190506b7fffffffffffffffffffffff6111a4600b88900b84612d1c565b11156111f0576040805162461bcd60e51b81526020600482015260166024820152754346413a20666c6f77207261746520746f6f2062696760501b604482015290519081900360640190fd5b60006111fc8784612d75565b905081811080156112105750600087600b0b135b61121a578061121c565b815b98975050505050505050565b600080600080600061123a8888611be7565b915091508115611275576020810151815161126491600b0b9061125e908990612df4565b90612e59565b945080604001519350806060015192505b505093509350939050565b600080600080600061075a878761200f565b606061129c6143de565b6001600160a01b0386166112ed576040805162461bcd60e51b81526020600482015260136024820152724346413a2073656e646572206973207a65726f60681b604482015290519081900360640190fd5b6001600160a01b038516611340576040805162461bcd60e51b81526020600482015260156024820152744346413a207265636569766572206973207a65726f60581b604482015290519081900360640190fd5b60006113828886868080601f016020809104026020016040519081016040528093929190818152602001838380828437600092019190915250611ea792505050565b905061138e8787611fd7565b8083526001600160a01b0380891660208501528716604084015260006060840181905260a083015160808501529081906113c9908b9061200f565b915091508161141a576040805162461bcd60e51b815260206004820152601860248201527710d1904e88199b1bddc8191bd95cc81b9bdd08195e1a5cdd60421b604482015290519081900360640190fd5b60008a6001600160a01b031663eb3537cc8b86604001516040518363ffffffff1660e01b815260040180836001600160a01b031681526020018281526020019250505060606040518083038186803b15801561147557600080fd5b505afa158015611489573d6000803e3d6000fd5b505050506040513d606081101561149f57600080fd5b505160608501519091506001600160a01b038b81169116148015906114da5750886001600160a01b031684606001516001600160a01b031614155b156116115760408051636b4f333560e01b81526001600160a01b038c16600482015290513391636b4f3335916024808301926020929190829003018186803b15801561152557600080fd5b505afa158015611539573d6000803e3d6000fd5b505050506040513d602081101561154f57600080fd5b50511580156115cd575060408051636b4f333560e01b81526001600160a01b038b16600482015290513391636b4f3335916024808301926020929190829003018186803b15801561159f57600080fd5b505afa1580156115b3573d6000803e3d6000fd5b505050506040513d60208110156115c957600080fd5b5051155b1561161157600081126116115760405162461bcd60e51b8152600401808060200182810382526023815260200180614b026023913960400191505060405180910390fd5b600081121561162b5761162b8b8287858860600151612f02565b87878080601f01602080910402602001604051908101604052809392919081815260200183838082843760009201919091525050505060608501519096506001600160a01b038b81169116141561171f5760408051631e51d6a760e11b81526001600160a01b038b16600482015290513391633ca3ad4e916024808301926020929190829003018186803b1580156116c257600080fd5b505afa1580156116d6573d6000803e3d6000fd5b505050506040513d60208110156116ec57600080fd5b50511561170a57611703898c87858a896002612070565b955061171a565b6117178b868489886129d7565b95505b611b0a565b886001600160a01b031684606001516001600160a01b0316141561184c5760408051631e51d6a760e11b81526001600160a01b038c16600482015290513391633ca3ad4e916024808301926020929190829003018186803b15801561178357600080fd5b505afa158015611797573d6000803e3d6000fd5b505050506040513d60208110156117ad57600080fd5b5051156117c4576117038a8c87858a896002612070565b60408051631e51d6a760e11b81526001600160a01b038b16600482015290513391633ca3ad4e916024808301926020929190829003018186803b15801561180a57600080fd5b505afa15801561181e573d6000803e3d6000fd5b505050506040513d602081101561183457600080fd5b50511561170a5761170360008c87858a896002612070565b60408051631e51d6a760e11b81526001600160a01b038c16600482015290513391633ca3ad4e916024808301926020929190829003018186803b15801561189257600080fd5b505afa1580156118a6573d6000803e3d6000fd5b505050506040513d60208110156118bc57600080fd5b505115611a7357336001600160a01b031663b724211e878c600b6040518463ffffffff1660e01b81526004018080602001846001600160a01b03168152602001838152602001828103825285818151815260200191508051906020019080838360005b8381101561193757818101518382015260200161191f565b50505050905090810190601f1680156119645780820380516001836020036101000a031916815260200191505b50945050505050600060405180830381600087803b15801561198557600080fd5b505af1158015611999573d6000803e3d6000fd5b505050506040513d6000823e601f3d908101601f1916820160405260208110156119c257600080fd5b8101908080516040519392919084600160201b8211156119e157600080fd5b9083019060208201858111156119f657600080fd5b8251600160201b811182820188101715611a0f57600080fd5b82525081516020918201929091019080838360005b83811015611a3c578181015183820152602001611a24565b50505050905090810190601f168015611a695780820380516001836020036101000a031916815260200191505b5060405250505095505b60408051631e51d6a760e11b81526001600160a01b038b16600482015290513391633ca3ad4e916024808301926020929190829003018186803b158015611ab957600080fd5b505afa158015611acd573d6000803e3d6000fd5b505050506040513d6020811015611ae357600080fd5b505115611afa57611717898c87858a896002612070565b611b078b868489886129d7565b95505b505050505095945050505050565b6000806000806000611b3388611b2e8989611fd7565b61200f565b805160208201516040830151606090930151919c909b50919950975095505050505050565b600080611b658484611be7565b6020015195945050505050565b63ffffffff1981165b919050565b6000808211611bd6576040805162461bcd60e51b815260206004820152601a60248201527f536166654d6174683a206469766973696f6e206279207a65726f000000000000604482015290519081900360640190fd5b818381611bdf57fe5b049392505050565b6000611bf161440e565b60408051634b61cc3360e01b81523060048201526001600160a01b03858116602483015260006044830181905260016064840152925190871691634b61cc339160848083019286929190829003018186803b158015611c4f57600080fd5b505afa158015611c63573d6000803e3d6000fd5b505050506040513d6000823e601f3d908101601f191682016040526020811015611c8c57600080fd5b8101908080516040519392919084600160201b821115611cab57600080fd5b908301906020820185811115611cc057600080fd5b82518660208202830111600160201b82111715611cdc57600080fd5b82525081516020918201928201910280838360005b83811015611d09578181015183820152602001611cf1565b505050509050016040525050509050611d3881600081518110611d2857fe5b602002602001015160001c6130cc565b92509250509250929050565b6000611d4e612ce6565b6001600160a01b03161415611daa576040805162461bcd60e51b815260206004820152601d60248201527f5555505350726f786961626c653a206e6f742075706772616461626c65000000604482015290519081900360640190fd5b806001600160a01b03166352d1902d6040518163ffffffff1660e01b815260040160206040518083038186803b158015611de357600080fd5b505afa158015611df7573d6000803e3d6000fd5b505050506040513d6020811015611e0d57600080fd5b5051611e17610b0b565b14611e535760405162461bcd60e51b81526004018080602001828103825260238152602001806149906023913960400191505060405180910390fd5b611e5c81613131565b7fe011bc04c286c344a8fcbb8de77f953da762c3e25d8cdea984147fc4168a5dcc611e85610b0b565b604080519182526001600160a01b03841660208301528051918290030190a150565b611eaf614439565b336001600160a01b0316836001600160a01b03166320bc44256040518163ffffffff1660e01b815260040160206040518083038186803b158015611ef257600080fd5b505afa158015611f06573d6000803e3d6000fd5b505050506040513d601f19601f82011682018060405250810190611f2a91906145a3565b6001600160a01b031614611f595760405162461bcd60e51b8152600401611f50906148e3565b60405180910390fd5b604051631fb6491d60e11b81523390633f6c923a90611f7c908590600401614761565b60006040518083038186803b158015611f9457600080fd5b505afa158015611fa8573d6000803e3d6000fd5b505050506040513d6000823e601f3d908101601f19168201604052611fd0919081019061462d565b9392505050565b604080516001600160a01b03938416602080830191909152929093168382015280518084038201815260609093019052815191012090565b600061201961440e565b60408051636c2d9f2f60e01b8152306004820152602481018590526001604482015290516000916001600160a01b03871691636c2d9f2f916064808201928692909190829003018186803b158015611c4f57600080fd5b82612079614494565b6001600160a01b038916156122095760006120db898b8a600001518b602001518c6040015160405160200180836001600160a01b03168152602001826001600160a01b0316815260200192505050604051602081830303815290604052613155565b905060008460028111156120eb57fe5b141561210057600160201b60c0820152612130565b600184600281111561210e57fe5b14156121245764040000000060c0820152612130565b64100000000060c08201525b61213a8187613183565b8252604085015161014086015161215491908b8b8b613359565b5060808301819052865161216e925060010160ff16612d1c565b60808201526060870151612181906138aa565b60a0820152600084600281111561219457fe5b14156121aa5764020000000060c08201526121da565b60018460028111156121b857fe5b14156121ce5764080000000060c08201526121da565b64200000000060c08201525b6121e9818360000151856138f2565b50604083015287516121fc908a9061200f565b6020840152506122279050565b61221f84604001518561014001518a8a8a613359565b602084015250505b60008160400151610100015113156122665761225b61225661225183604001516101000151613b8b565b613be2565b6138aa565b604082015161010001525b600061228861227888606001516138aa565b6040840151610100015190612df4565b90506122ad6122a8826122a28560200151604001516138aa565b90613c0c565b613b8b565b826020015160400181815250506122d26122a8826122a28560200151606001516138aa565b60208301805160600191909152885190516001600160a01b038b169163a1b2bf8b916122fd90613c71565b6040518363ffffffff1660e01b81526004018083815260200180602001828103825283818151815260200191508051906020019060200280838360005b8381101561235257818101518382015260200161233a565b505050509050019350505050600060405180830381600087803b15801561237857600080fd5b505af115801561238c573d6000803e3d6000fd5b505050506123a889896020015160008460008a60400151613ced565b506123c0898960400151600080858a60400151613ced565b506101408501516001600160a01b031615806123f25750886001600160a01b03168561014001516001600160a01b0316145b156125a557336001600160a01b0316630792f20a87846020015160400151846040518463ffffffff1660e01b81526004018080602001848152602001838152602001828103825285818151815260200191508051906020019080838360005b83811015612469578181015183820152602001612451565b50505050905090810190601f1680156124965780820380516001836020036101000a031916815260200191505b50945050505050600060405180830381600087803b1580156124b757600080fd5b505af11580156124cb573d6000803e3d6000fd5b505050506040513d6000823e601f3d908101601f1916820160405260208110156124f457600080fd5b8101908080516040519392919084600160201b82111561251357600080fd5b90830190602082018581111561252857600080fd5b8251600160201b81118282018810171561254157600080fd5b82525081516020918201929091019080838360005b8381101561256e578181015183820152602001612556565b50505050905090810190601f16801561259b5780820380516001836020036101000a031916815260200191505b5060405250505092505b336001600160a01b0316633ca3ad4e89604001516040518263ffffffff1660e01b815260040180826001600160a01b0316815260200191505060206040518083038186803b1580156125f657600080fd5b505afa15801561260a573d6000803e3d6000fd5b505050506040513d602081101561262057600080fd5b5051156129ca576000896001600160a01b031663eb3537cc8a6040015188604001516040518363ffffffff1660e01b815260040180836001600160a01b031681526020018281526020019250505060606040518083038186803b15801561268657600080fd5b505afa15801561269a573d6000803e3d6000fd5b505050506040513d60608110156126b057600080fd5b5051905060008112156129c85760028560028111156126cb57fe5b141561299157336001600160a01b031663b724211e858b60400151600c6040518463ffffffff1660e01b81526004018080602001846001600160a01b03168152602001838152602001828103825285818151815260200191508051906020019080838360005b83811015612749578181015183820152602001612731565b50505050905090810190601f1680156127765780820380516001836020036101000a031916815260200191505b50945050505050600060405180830381600087803b15801561279757600080fd5b505af11580156127ab573d6000803e3d6000fd5b505050506040513d6000823e601f3d908101601f1916820160405260208110156127d457600080fd5b8101908080516040519392919084600160201b8211156127f357600080fd5b90830190602082018581111561280857600080fd5b8251600160201b81118282018810171561282157600080fd5b82525081516020918201929091019080838360005b8381101561284e578181015183820152602001612836565b50505050905090810190601f16801561287b5780820380516001836020036101000a031916815260200191505b50604052505050935060006128a08260000361289b600086600003613eff565b613f15565b90508a6001600160a01b031663cf97256d8b60200151836000036040518363ffffffff1660e01b815260040180836001600160a01b0316815260200182815260200192505050600060405180830381600087803b15801561290057600080fd5b505af1158015612914573d6000803e3d6000fd5b505050508a6001600160a01b031663cf97256d8b60400151836040518363ffffffff1660e01b815260040180836001600160a01b0316815260200182815260200192505050600060405180830381600087803b15801561297357600080fd5b505af1158015612987573d6000803e3d6000fd5b50505050506129c8565b60405162461bcd60e51b815260040180806020018281038252602a815260200180614a65602a913960400191505060405180910390fd5b505b5050979650505050505050565b606083810151156129e457fe5b60006129ee61440e565b612a0484604001518561014001518a8a8a613359565b6101408701519294509250506001600160a01b0389811691161415612bd157336001600160a01b0316630792f20a868360400151856040518463ffffffff1660e01b81526004018080602001848152602001838152602001828103825285818151815260200191508051906020019080838360005b83811015612a91578181015183820152602001612a79565b50505050905090810190601f168015612abe5780820380516001836020036101000a031916815260200191505b50945050505050600060405180830381600087803b158015612adf57600080fd5b505af1158015612af3573d6000803e3d6000fd5b505050506040513d6000823e601f3d908101601f191682016040526020811015612b1c57600080fd5b8101908080516040519392919084600160201b821115612b3b57600080fd5b908301906020820185811115612b5057600080fd5b8251600160201b811182820188101715612b6957600080fd5b82525081516020918201929091019080838360005b83811015612b96578181015183820152602001612b7e565b50505050905090810190601f168015612bc35780820380516001836020036101000a031916815260200191505b506040525050509250612bd5565b8492505b505095945050505050565b602081015160ff166003141580612c0e5750816001600160a01b03168161014001516001600160a01b031614155b15612ce2576000826001600160a01b031663eb3537cc836060015184604001516040518363ffffffff1660e01b815260040180836001600160a01b031681526020018281526020019250505060606040518083038186803b158015612c7257600080fd5b505afa158015612c86573d6000803e3d6000fd5b505050506040513d6060811015612c9c57600080fd5b505190506000811215612ce05760405162461bcd60e51b81526004018080602001828103825260218152602001806149b36021913960400191505060405180910390fd5b505b5050565b7f360894a13ba1a3210667c828492db98dca3e2076cc3735a920a3ca505d382bbc5490565b6000612d1630613f2a565b15905090565b600082612d2b57506000610742565b82820282848281612d3857fe5b0414611fd05760405162461bcd60e51b8152600401808060200182810382526021815260200180614a446021913960400191505060405180910390fd5b600082600b0b60001415612d8b57506000610742565b6b7fffffffffffffffffffffff821115612da157fe5b612de682604051806040016040528060158152602001744346413a206465706f736974206f766572666c6f7760581b81525085600b0b613f309092919063ffffffff16565b600b0b9050611fd081613be2565b6000818303818312801590612e095750838113155b80612e1e5750600083128015612e1e57508381135b611fd05760405162461bcd60e51b8152600401808060200182810382526024815260200180614ade6024913960400191505060405180910390fd5b600082612e6857506000610742565b82600019148015612e7c5750600160ff1b82145b15612eb85760405162461bcd60e51b8152600401808060200182810382526027815260200180614a8f6027913960400191505060405180910390fd5b82820282848281612ec557fe5b0514611fd05760405162461bcd60e51b8152600401808060200182810382526027815260200180614a8f6027913960400191505060405180910390fd5b6000612f12868560200151611be7565b9150506000612f2484604001516138aa565b90506000612f3583604001516138aa565b90506000612f438883613c0c565b90506000811261300c576000612f6383612f5d8685612e59565b9061406b565b9050896001600160a01b0316638ddd1c0f8960000151888b60200151612f8886613b8b565b60006040518663ffffffff1660e01b815260040180868152602001856001600160a01b03168152602001846001600160a01b0316815260200183815260200182815260200195505050505050600060405180830381600087803b158015612fee57600080fd5b505af1158015613002573d6000803e3d6000fd5b50505050506130c1565b6000839050896001600160a01b0316638ddd1c0f8960000151888b6020015161303486613b8b565b6130436122a889600019612e59565b6040518663ffffffff1660e01b815260040180868152602001856001600160a01b03168152602001846001600160a01b0316815260200183815260200182815260200195505050505050600060405180830381600087803b1580156130a757600080fd5b505af11580156130bb573d6000803e3d6000fd5b50505050505b505050505050505050565b60006130d661440e565b82158015925061312c5760e083901c8152608083901c6bffffffffffffffffffffffff16600b90810b900b6020808301919091526bffffffffffffffff0000000084821c811660408401529084901b1660608201525b915091565b7f360894a13ba1a3210667c828492db98dca3e2076cc3735a920a3ca505d382bbc55565b61315d6144c0565b6001600160a01b0394851681529290931660208301526040820152606081019190915290565b60606000806000336001600160a01b031663f9f522f487602001516040518263ffffffff1660e01b81526004016131ba91906147db565b60606040518083038186803b1580156131d257600080fd5b505afa1580156131e6573d6000803e3d6000fd5b505050506040513d601f19601f8201168201806040525081019061320a91906145bf565b9194509250905082801561321c575081155b1561335057600061322d8688614123565b90508660c0015182166000141561334257600061324d8860c001516141b0565b88516040808b015160608c01518251600081526020810190935261327993923092919060448101614838565b60408051601f19818403018152918152602080830180516001600160e01b03166001600160e01b031990951694909417909352918a015160c08b01519251633a020f0160e11b815291935033926374041e02926132e892918691641000000000919091149088906004016147ef565b600060405180830381600087803b15801561330257600080fd5b505af1158015613316573d6000803e3d6000fd5b505050506040513d6000823e601f3d908101601f1916820160405261333e91908101906145fa565b9550505b61334d866000614246565b50505b50505092915050565b60008061336461440e565b6000806000336001600160a01b031663289b3c0d6040518163ffffffff1660e01b815260040160206040518083038186803b1580156133a257600080fd5b505afa1580156133b6573d6000803e3d6000fd5b505050506040513d60208110156133cc57600080fd5b50516040805163407b865d60e11b81523360048201526001600160a01b038c811660248301527f1ca463a216b802472396d1b8a5b5b695d935b1d24311e89b020144e6613f15aa60448301529151929350600092918416916380f70cba91606480820192602092909190829003018186803b15801561344a57600080fd5b505afa15801561345e573d6000803e3d6000fd5b505050506040513d602081101561347457600080fd5b50516040805163407b865d60e11b81523360048201526001600160a01b038d811660248301527feae305fa863b373417e615b1044222e2806cefc7788d169ce6748a443c3f6cc460448301529151929350908416916380f70cba91606480820192602092909190829003018186803b1580156134ef57600080fd5b505afa158015613503573d6000803e3d6000fd5b505050506040513d602081101561351957600080fd5b505160608a015190945061352d9082612d75565b9550505061356061354187606001516138aa565b6122a261355189604001516138aa565b61355a886138aa565b90612df4565b94506135766122a8866122a289604001516138aa565b9050818110801561358e575060008760600151600b0b135b156135c2576135bc6135a387606001516138aa565b6122a26135b389604001516138aa565b61355a866138aa565b94508190505b6001600160a01b038916158015906135ec5750876001600160a01b0316896001600160a01b031614155b156135f657600093505b604051806080016040528060008960600151600b0b13613617576000613619565b8b5b81526020018860600151600b0b815260200182815260200187606001518152509250876001600160a01b031663a1b2bf8b886000015161365886613c71565b6040518363ffffffff1660e01b81526004018083815260200180602001828103825283818151815260200191508051906020019060200280838360005b838110156136ad578181015183820152602001613695565b505050509050019350505050600060405180830381600087803b1580156136d357600080fd5b505af11580156136e7573d6000803e3d6000fd5b505050505050600061374f8787602001516137468960600151604051806040016040528060168152602001754346413a20666c6f7772617465206f766572666c6f7760501b8152508a60200151600b0b61426e9092919063ffffffff16565b8760008e613ced565b905060006137b38888604001516137aa8960200151604051806040016040528060168152602001754346413a20666c6f7772617465206f766572666c6f7760501b8152508c60600151600b0b61426e9092919063ffffffff16565b6000808f613ced565b905086604001516001600160a01b031687602001516001600160a01b0316896001600160a01b03167f57269d2ebcccecdcc0d9d2c0a0b80ead95f344e28ec20f50f709811f209d4e0e8a6060015186868d608001516040518085600b0b815260200184600b0b815260200183600b0b815260200180602001828103825283818151815260200191508051906020019080838360005b83811015613860578181015183820152602001613848565b50505050905090810190601f16801561388d5780820380516001836020036101000a031916815260200191505b509550505050505060405180910390a45050955095509592505050565b6000600160ff1b82106138ee5760405162461bcd60e51b8152600401808060200182810382526028815260200180614ab66028913960400191505060405180910390fd5b5090565b6138fa614439565b60606000806000336001600160a01b031663f9f522f489602001516040518263ffffffff1660e01b815260040161393191906147db565b60606040518083038186803b15801561394957600080fd5b505afa15801561395d573d6000803e3d6000fd5b505050506040513d601f19601f8201168201806040525081019061398191906145bf565b91945092509050828015613993575081155b15613b80576139a28689614123565b93508760c00151811660001415613b6e5760006139c28960c001516141b0565b89516040808c015160608d0151825160008152602081019093526139f09392309291908e906044810161487d565b60408051601f19818403018152918152602080830180516001600160e01b03166001600160e01b031990951694909417909352918b015160c08c0151925163079b42a160e21b81529193503392631e6d0a8492613a5f9291869164200000000091909114908b906004016147ef565b600060405180830381600087803b158015613a7957600080fd5b505af1158015613a8d573d6000803e3d6000fd5b505050506040513d6000823e601f3d908101601f19168201604052613ab591908101906145fa565b604051631fb6491d60e11b81529095503390633f6c923a90613adb908890600401614761565b60006040518083038186803b158015613af357600080fd5b505afa158015613b07573d6000803e3d6000fd5b505050506040513d6000823e601f3d908101601f19168201604052613b2f919081019061462d565b9550613b666000613b61613b468c608001516138aa565b61289b613b568b60e001516138aa565b8b6101000151613eff565b613eff565b610100870152505b613b7d86866101000151614246565b93505b505050935093915050565b6000808212156138ee576040805162461bcd60e51b815260206004820181905260248201527f53616665436173743a2076616c7565206d75737420626520706f736974697665604482015290519081900360640190fd5b60008063ffffffff8316613bf7576000613bfa565b60015b60ff16602093841c0190921b92915050565b6000828201818312801590613c215750838112155b80613c365750600083128015613c3657508381125b611fd05760405162461bcd60e51b81526004018080602001828103825260218152602001806149d46021913960400191505060405180910390fd5b6040805160018082528183019092526060916020808301908036833701905050905060208260600151901c604060208460400151901c901b608084602001516bffffffffffffffffffffffff16901b60e08560000151901b17171760001b81600081518110613cdc57fe5b602002602001018181525050919050565b600080613cfa8888611be7565b9150506000613d248260200151600b0b61125e6122568560000151886142f890919063ffffffff16565b90508015613d9c57886001600160a01b031663cf97256d89836040518363ffffffff1660e01b815260040180836001600160a01b0316815260200182815260200192505050600060405180830381600087803b158015613d8357600080fd5b505af1158015613d97573d6000803e3d6000fd5b505050505b613de687604051806040016040528060168152602001754346413a20666c6f7772617465206f766572666c6f7760501b8152508460200151600b0b6143559092919063ffffffff16565b600b90810b900b60208301528382526040820151613e0d906122a89088906122a2906138aa565b826040018181525050613e2a6122a8866122a285606001516138aa565b60608301526001600160a01b03891663090c415e896000613e4a86613c71565b6040518463ffffffff1660e01b815260040180846001600160a01b0316815260200183815260200180602001828103825283818151815260200191508051906020019060200280838360005b83811015613eae578181015183820152602001613e96565b50505050905001945050505050600060405180830381600087803b158015613ed557600080fd5b505af1158015613ee9573d6000803e3d6000fd5b5050506020909201519998505050505050505050565b6000818313613f0e5781611fd0565b5090919050565b6000818313613f245782611fd0565b50919050565b3b151590565b600083600b0b60001415613f4657506000611fd0565b83600b0b600019148015613f6a5750600b83900b6b7fffffffffffffffffffffff19145b158290613ff55760405162461bcd60e51b81526004018080602001828103825283818151815260200191508051906020019080838360005b83811015613fba578181015183820152602001613fa2565b50505050905090810190601f168015613fe75780820380516001836020036101000a031916815260200191505b509250505060405180910390fd5b506000838502905083600b0b85600b0b82600b0b8161401057fe5b05600b0b1483906140625760405162461bcd60e51b8152602060048201818152835160248401528351909283926044909101919085019080838360008315613fba578181015183820152602001613fa2565b50949350505050565b6000816140bf576040805162461bcd60e51b815260206004820181905260248201527f5369676e6564536166654d6174683a206469766973696f6e206279207a65726f604482015290519081900360640190fd5b816000191480156140d35750600160ff1b83145b1561410f5760405162461bcd60e51b8152600401808060200182810382526021815260200180614a236021913960400191505060405180910390fd5b600082848161411a57fe5b05949350505050565b6020810151608082015160a08301518351604051630768fabb60e41b8152606094339463768fabb09461415a948a94600401614774565b600060405180830381600087803b15801561417457600080fd5b505af1158015614188573d6000803e3d6000fd5b505050506040513d6000823e601f3d908101601f19168201604052611fd091908101906145fa565b6000600160201b8214156141cc57506330d9c91560e01b611b7b565b6404000000008214156141e75750630221347d60e61b611b7b565b6410000000008214156142025750635f9e7d7760e01b611b7b565b64020000000082141561421d575063d86ed3e560e01b611b7b565b640800000000821415614238575063230dbd2960e01b611b7b565b506353c11f9960e01b611b7b565b604051634c4d861f60e11b8152606090339063989b0c3e9061415a90869086906004016147b9565b6000828403600b84900b821380159061428d575084600b0b81600b0b13155b806142ab5750600084600b0b1280156142ab575084600b0b81600b0b135b83906140625760405162461bcd60e51b8152602060048201818152835160248401528351909283926044909101919085019080838360008315613fba578181015183820152602001613fa2565b60008282111561434f576040805162461bcd60e51b815260206004820152601e60248201527f536166654d6174683a207375627472616374696f6e206f766572666c6f770000604482015290519081900360640190fd5b50900390565b6000838301600b84900b8213801590614374575084600b0b81600b0b12155b806142ab5750600084600b0b1280156142ab575084600b0b81600b0b1283906140625760405162461bcd60e51b8152602060048201818152835160248401528351909283926044909101919085019080838360008315613fba578181015183820152602001613fa2565b6040805160a081018252600080825260208201819052918101829052606080820192909252608081019190915290565b6040518060800160405280600081526020016000600b0b815260200160008152602001600081525090565b604080516101608101825260008082526020820181905291810182905260608082018390526080820183905260a082015260c0810182905260e081018290526101008101829052610120810182905261014081019190915290565b6040518060600160405280606081526020016144ae61440e565b81526020016144bb614439565b905290565b6040805160e0810182526000808252602082018190529181018290526060808201526080810182905260a0810182905260c081019190915290565b8051611b7b8161497a565b80518015158114611b7b57600080fd5b80516001600160e01b031981168114611b7b57600080fd5b600082601f83011261453e578081fd5b815167ffffffffffffffff81111561455257fe5b614565601f8201601f1916602001614926565b818152846020838601011115614579578283fd5b61458a82602083016020870161494a565b949350505050565b805160ff81168114611b7b57600080fd5b6000602082840312156145b4578081fd5b8151611fd08161497a565b6000806000606084860312156145d3578182fd5b6145dc84614506565b92506145ea60208501614506565b9150604084015190509250925092565b60006020828403121561460b578081fd5b815167ffffffffffffffff811115614621578182fd5b61458a8482850161452e565b60006020828403121561463e578081fd5b815167ffffffffffffffff80821115614655578283fd5b818401915061016080838703121561466b578384fd5b61467481614926565b905061467f83614592565b815261468d60208401614592565b6020820152604083015160408201526146a8606084016144fb565b60608201526146b960808401614516565b608082015260a0830151828111156146cf578485fd5b6146db8782860161452e565b60a08301525060c083015160c082015260e083015160e08201526101009150818301518282015261012091506147128284016144fb565b8282015261014091506147268284016144fb565b91810191909152949350505050565b6000815180845261474d81602086016020860161494a565b601f01601f19169290920160200192915050565b600060208252611fd06020830184614735565b600060a0825261478760a0830188614735565b6001600160a01b0396871660208401526040830195909552506060810192909252909216608090920191909152919050565b6000604082526147cc6040830185614735565b90508260208301529392505050565b6001600160a01b0391909116815260200190565b6001600160a01b038516815260806020820181905260009061481390830186614735565b8415156040840152828103606084015261482d8185614735565b979650505050505050565b6001600160a01b038681168252851660208201526040810184905260a06060820181905260009061486b90830185614735565b828103608084015261121c8185614735565b6001600160a01b038781168252861660208201526040810185905260c0606082018190526000906148b090830186614735565b82810360808401526148c28186614735565b905082810360a08401526148d68185614735565b9998505050505050505050565b60208082526023908201527f41677265656d656e744c6962726172793a20756e61757468726f697a656420686040820152621bdcdd60ea1b606082015260800190565b60405181810167ffffffffffffffff8111828210171561494257fe5b604052919050565b60005b8381101561496557818101518382015260200161494d565b83811115614974576000848401525b50505050565b6001600160a01b03811681146107ec57600080fdfe5555505350726f786961626c653a206e6f7420636f6d70617469626c65206c6f6769634346413a206e6f7420656e6f75676820617661696c61626c652062616c616e63655369676e6564536166654d6174683a206164646974696f6e206f766572666c6f77496e697469616c697a61626c653a20636f6e747261637420697320616c726561647920696e697469616c697a65645369676e6564536166654d6174683a206469766973696f6e206f766572666c6f77536166654d6174683a206d756c7469706c69636174696f6e206f766572666c6f774346413a204150505f52554c455f4e4f5f435249544943414c5f52454345495645525f4143434f554e545369676e6564536166654d6174683a206d756c7469706c69636174696f6e206f766572666c6f7753616665436173743a2076616c756520646f65736e27742066697420696e20616e20696e743235365369676e6564536166654d6174683a207375627472616374696f6e206f766572666c6f774346413a2073656e646572206163636f756e74206973206e6f7420637269746963616ca2646970667358221220e5658ecfee7bc5bd79e379786466227504f5e8d7e49dec606fae6faea6b970b464736f6c63430007060033",
  "immutableReferences": {},
  "source": "// SPDX-License-Identifier: AGPLv3\npragma solidity 0.7.6;\n\nimport {\n    IConstantFlowAgreementV1,\n    ISuperfluidToken\n} from \"../interfaces/agreements/IConstantFlowAgreementV1.sol\";\nimport {\n    ISuperfluid,\n    ISuperfluidGovernance,\n    ISuperApp,\n    SuperAppDefinitions,\n    ContextDefinitions\n} from \"../interfaces/superfluid/ISuperfluid.sol\";\nimport { AgreementBase } from \"./AgreementBase.sol\";\n\nimport { SignedSafeMath } from \"@openzeppelin/contracts/math/SignedSafeMath.sol\";\nimport { SafeMath } from \"@openzeppelin/contracts/math/SafeMath.sol\";\nimport { SafeCast } from \"@openzeppelin/contracts/utils/SafeCast.sol\";\nimport { Int96SafeMath } from \"../libs/Int96SafeMath.sol\";\nimport { AgreementLibrary } from \"./AgreementLibrary.sol\";\n\n\ncontract ConstantFlowAgreementV1 is\n    AgreementBase,\n    IConstantFlowAgreementV1\n{\n\n    bytes32 private constant _LIQUIDATION_PERIOD_CONFIG_KEY =\n        keccak256(\"org.superfluid-finance.agreements.ConstantFlowAgreement.v1.liquidationPeriod\");\n\n    bytes32 private constant _SUPERTOKEN_MINIMUM_DEPOSIT_KEY =\n        keccak256(\"org.superfluid-finance.superfluid.superTokenMinimumDeposit\");\n\n    using SafeMath for uint256;\n    using SafeCast for uint256;\n    using SignedSafeMath for int256;\n    using SafeCast for int256;\n    using Int96SafeMath for int96;\n\n    struct FlowData {\n        uint256 timestamp; // stored as uint32\n        int96 flowRate; // stored also as int96\n        uint256 deposit; // stored as int96 with lower 32 bits clipped to 0\n        uint256 owedDeposit; // stored as int96 with lower 32 bits clipped to 0\n    }\n\n    struct FlowParams {\n        bytes32 flowId;\n        address sender;\n        address receiver;\n        int96 flowRate;\n        bytes userData;\n    }\n\n    /**************************************************************************\n     * ISuperAgreement interface\n     *************************************************************************/\n\n    /// @dev ISuperAgreement.realtimeBalanceOf implementation\n    function realtimeBalanceOf(\n        ISuperfluidToken token,\n        address account,\n        uint256 time\n    )\n        external\n        view\n        override\n        returns (int256 dynamicBalance, uint256 deposit, uint256 owedDeposit)\n    {\n        (bool exist, FlowData memory state) = _getAccountFlowState(token, account);\n        if(exist) {\n            dynamicBalance = ((int256(time).sub(int256(state.timestamp))).mul(state.flowRate));\n            deposit = state.deposit;\n            owedDeposit = state.owedDeposit;\n        }\n    }\n\n    /**************************************************************************\n     * IConstantFlowAgreementV1 interface\n     *************************************************************************/\n\n    /// @dev IConstantFlowAgreementV1.createFlow implementation\n    function getMaximumFlowRateFromDeposit(\n        ISuperfluidToken token,\n        uint256 deposit)\n        external view override\n        returns (int96 flowRate)\n    {\n        require(deposit < 2**95, \"CFA: deposit number too big\");\n        deposit = _clipDepositNumberRoundingDown(deposit);\n        ISuperfluid host = ISuperfluid(token.getHost());\n        ISuperfluidGovernance gov = ISuperfluidGovernance(host.getGovernance());\n        uint256 liquidationPeriod = gov.getConfigAsUint256(host, token, _LIQUIDATION_PERIOD_CONFIG_KEY);\n        uint256 flowrate1 = deposit.div(liquidationPeriod);\n        return int96(flowrate1);\n    }\n\n    function getDepositRequiredForFlowRate(\n        ISuperfluidToken token,\n        int96 flowRate)\n        external view override\n        returns (uint256 deposit)\n    {\n        require(flowRate >= 0, \"CFA: not for negative flow rate\");\n        ISuperfluid host = ISuperfluid(token.getHost());\n        ISuperfluidGovernance gov = ISuperfluidGovernance(host.getGovernance());\n        uint256 liquidationPeriod = gov.getConfigAsUint256(host, token, _LIQUIDATION_PERIOD_CONFIG_KEY);\n        uint256 minimumDeposit = gov.getConfigAsUint256(host, token, _SUPERTOKEN_MINIMUM_DEPOSIT_KEY);\n        require(uint256(flowRate).mul(liquidationPeriod) <= uint256(type(int96).max), \"CFA: flow rate too big\");\n        uint256 calculatedDeposit = _calculateDeposit(flowRate, liquidationPeriod);\n        return calculatedDeposit < minimumDeposit && flowRate > 0 ? minimumDeposit : calculatedDeposit;\n    }\n\n    /// @dev IConstantFlowAgreementV1.createFlow implementation\n    function createFlow(\n        ISuperfluidToken token,\n        address receiver,\n        int96 flowRate,\n        bytes calldata ctx\n    )\n        external\n        override\n        returns(bytes memory newCtx)\n    {\n        FlowParams memory flowParams;\n        require(receiver != address(0), \"CFA: receiver is zero\");\n        ISuperfluid.Context memory currentContext = AgreementLibrary.authorizeTokenAccess(token, ctx);\n        flowParams.flowId = _generateFlowId(currentContext.msgSender, receiver);\n        flowParams.sender = currentContext.msgSender;\n        flowParams.receiver = receiver;\n        flowParams.flowRate = flowRate;\n        flowParams.userData = currentContext.userData;\n        require(flowParams.sender != flowParams.receiver, \"CFA: no self flow\");\n        require(flowParams.flowRate > 0, \"CFA: invalid flow rate\");\n        (bool exist, FlowData memory oldFlowData) = _getAgreementData(token, flowParams.flowId);\n        require(!exist, \"CFA: flow already exist\");\n\n        if (ISuperfluid(msg.sender).isApp(ISuperApp(receiver)))\n        {\n            newCtx = _changeFlowToApp(\n                receiver,\n                token, flowParams, oldFlowData,\n                ctx, currentContext, FlowChangeType.CREATE_FLOW);\n        } else {\n            newCtx = _changeFlowToNonApp(\n                token, flowParams, oldFlowData,\n                ctx, currentContext);\n        }\n\n        _requireAvailableBalance(token, currentContext);\n    }\n\n    /// @dev IConstantFlowAgreementV1.updateFlow implementation\n    function updateFlow(\n        ISuperfluidToken token,\n        address receiver,\n        int96 flowRate,\n        bytes calldata ctx\n    )\n        external\n        override\n        returns(bytes memory newCtx)\n    {\n        FlowParams memory flowParams;\n        require(receiver != address(0), \"CFA: receiver is zero\");\n        ISuperfluid.Context memory currentContext = AgreementLibrary.authorizeTokenAccess(token, ctx);\n        flowParams.flowId = _generateFlowId(currentContext.msgSender, receiver);\n        flowParams.sender = currentContext.msgSender;\n        flowParams.receiver = receiver;\n        flowParams.flowRate = flowRate;\n        flowParams.userData = currentContext.userData;\n        require(flowParams.sender != flowParams.receiver, \"CFA: no self flow\");\n        require(flowParams.flowRate > 0, \"CFA: invalid flow rate\");\n        (bool exist, FlowData memory oldFlowData) = _getAgreementData(token, flowParams.flowId);\n        require(exist, \"CFA: flow does not exist\");\n\n        if (ISuperfluid(msg.sender).isApp(ISuperApp(receiver))) {\n            newCtx = _changeFlowToApp(\n                receiver,\n                token, flowParams, oldFlowData,\n                ctx, currentContext, FlowChangeType.UPDATE_FLOW);\n        } else {\n            newCtx = _changeFlowToNonApp(\n                token, flowParams, oldFlowData,\n                ctx, currentContext);\n        }\n\n        _requireAvailableBalance(token, currentContext);\n    }\n\n    /// @dev IConstantFlowAgreementV1.deleteFlow implementation\n    function deleteFlow(\n        ISuperfluidToken token,\n        address sender,\n        address receiver,\n        bytes calldata ctx\n    )\n        external\n        override\n        returns(bytes memory newCtx)\n    {\n        FlowParams memory flowParams;\n        require(sender != address(0), \"CFA: sender is zero\");\n        require(receiver != address(0), \"CFA: receiver is zero\");\n        ISuperfluid.Context memory currentContext = AgreementLibrary.authorizeTokenAccess(token, ctx);\n        flowParams.flowId = _generateFlowId(sender, receiver);\n        flowParams.sender = sender;\n        flowParams.receiver = receiver;\n        flowParams.flowRate = 0;\n        flowParams.userData = currentContext.userData;\n        (bool exist, FlowData memory oldFlowData) = _getAgreementData(token, flowParams.flowId);\n        require(exist, \"CFA: flow does not exist\");\n\n        int256 availableBalance;\n        (availableBalance,,) = token.realtimeBalanceOf(sender, currentContext.timestamp);\n\n        // delete should only be called by sender or receiver\n        // unless it is a liquidation (availale balance < 0)\n        if (currentContext.msgSender != sender && currentContext.msgSender != receiver) {\n            // liquidation should only for sender that is critical, unless sender or receiver is a jailed app\n            if (!ISuperfluid(msg.sender).isAppJailed(ISuperApp(sender)) &&\n                !ISuperfluid(msg.sender).isAppJailed(ISuperApp(receiver))) {\n                require(availableBalance < 0, \"CFA: sender account is not critical\");\n            }\n        }\n\n        if (availableBalance < 0) {\n            _makeLiquidationPayouts(\n                token,\n                availableBalance,\n                flowParams,\n                oldFlowData,\n                currentContext.msgSender);\n        }\n\n        newCtx = ctx;\n        if (currentContext.msgSender == sender) {\n            if (ISuperfluid(msg.sender).isApp(ISuperApp(receiver))) {\n                newCtx = _changeFlowToApp(\n                    receiver,\n                    token, flowParams, oldFlowData,\n                    newCtx, currentContext, FlowChangeType.DELETE_FLOW);\n            } else {\n                newCtx = _changeFlowToNonApp(\n                    token, flowParams, oldFlowData,\n                    newCtx, currentContext);\n            }\n        } else if (currentContext.msgSender == receiver) {\n            if (ISuperfluid(msg.sender).isApp(ISuperApp(sender))) {\n                newCtx = _changeFlowToApp(\n                    sender,\n                    token, flowParams, oldFlowData,\n                    newCtx, currentContext, FlowChangeType.DELETE_FLOW);\n            } else if (ISuperfluid(msg.sender).isApp(ISuperApp(receiver))) {\n                newCtx = _changeFlowToApp(\n                    address(0),\n                    token, flowParams, oldFlowData,\n                    newCtx, currentContext, FlowChangeType.DELETE_FLOW);\n            } else {\n                newCtx = _changeFlowToNonApp(\n                    token, flowParams, oldFlowData,\n                    newCtx, currentContext);\n            }\n        } else /* liquidations */ {\n            // if the sender is an app, and becomes critical\n            if (ISuperfluid(msg.sender).isApp(ISuperApp(sender))) {\n                newCtx = ISuperfluid(msg.sender).jailApp(\n                    newCtx,\n                    ISuperApp(sender),\n                    SuperAppDefinitions.APP_RULE_NO_CRITICAL_SENDER_ACCOUNT);\n            }\n            // always attempt to call receiver callback\n            if (ISuperfluid(msg.sender).isApp(ISuperApp(receiver))) {\n                newCtx = _changeFlowToApp(\n                    receiver,\n                    token, flowParams, oldFlowData,\n                    newCtx, currentContext, FlowChangeType.DELETE_FLOW);\n            } else {\n                newCtx = _changeFlowToNonApp(\n                    token, flowParams, oldFlowData,\n                    newCtx, currentContext);\n            }\n        }\n    }\n\n    /// @dev IConstantFlowAgreementV1.getFlow implementation\n    function getFlow(\n        ISuperfluidToken token,\n        address sender,\n        address receiver\n    )\n        external\n        view\n        override\n        returns (\n            uint256 timestamp,\n            int96 flowRate,\n            uint256 deposit,\n            uint256 owedDeposit\n        )\n    {\n        (, FlowData memory data) = _getAgreementData(\n            token,\n            _generateFlowId(sender, receiver));\n\n        return(\n            data.timestamp,\n            data.flowRate,\n            data.deposit,\n            data.owedDeposit\n        );\n    }\n\n    /// @dev IConstantFlowAgreementV1.getFlow implementation\n    function getFlowByID(\n        ISuperfluidToken token,\n        bytes32 flowId\n    )\n        external\n        view\n        override\n        returns(\n            uint256 timestamp,\n            int96 flowRate,\n            uint256 deposit,\n            uint256 owedDeposit\n        )\n    {\n        (, FlowData memory data) = _getAgreementData(\n            token,\n            flowId\n        );\n\n        return (\n            data.timestamp,\n            data.flowRate,\n            data.deposit,\n            data.owedDeposit\n        );\n    }\n\n    /// @dev IConstantFlowAgreementV1.getAccountFlowInfo implementation\n    function getAccountFlowInfo(\n        ISuperfluidToken token,\n        address account\n    )\n        external view override\n        returns (\n            uint256 timestamp,\n            int96 flowRate,\n            uint256 deposit,\n            uint256 owedDeposit)\n    {\n        (, FlowData memory state) = _getAccountFlowState(token, account);\n        return (\n            state.timestamp,\n            state.flowRate,\n            state.deposit,\n            state.owedDeposit\n        );\n    }\n\n    /// @dev IConstantFlowAgreementV1.getNetFlow implementation\n    function getNetFlow(\n        ISuperfluidToken token,\n        address account\n    )\n        external view override\n        returns (int96 flowRate)\n    {\n        (, FlowData memory state) = _getAccountFlowState(token, account);\n        return state.flowRate;\n    }\n\n    /**************************************************************************\n     * Internal State Functions\n     *************************************************************************/\n\n    enum FlowChangeType {\n        CREATE_FLOW,\n        UPDATE_FLOW,\n        DELETE_FLOW\n    }\n\n    function _getAccountFlowState\n    (\n        ISuperfluidToken token,\n        address account\n    )\n        private view\n        returns(bool exist, FlowData memory)\n    {\n        bytes32[] memory data = token.getAgreementStateSlot(address(this), account, 0 /* slotId */, 1 /* length */);\n        return _decodeFlowData(uint256(data[0]));\n    }\n\n    function _getAgreementData\n    (\n        ISuperfluidToken token,\n        bytes32 dId\n    )\n        private view\n        returns (bool exist, FlowData memory)\n    {\n        bytes32[] memory data = token.getAgreementData(address(this), dId, 1);\n        return _decodeFlowData(uint256(data[0]));\n    }\n\n    function _updateAccountFlowState(\n        ISuperfluidToken token,\n        address account,\n        int96 flowRateDelta,\n        int256 depositDelta,\n        int256 owedDepositDelta,\n        uint256 currentTimestamp\n    )\n        private\n        returns (int96 newNetFlowRate)\n    {\n        (, FlowData memory state) = _getAccountFlowState(token, account);\n        int256 dynamicBalance = currentTimestamp.sub(state.timestamp).toInt256()\n            .mul(int256(state.flowRate));\n        if (dynamicBalance != 0) {\n            token.settleBalance(account, dynamicBalance);\n        }\n        state.flowRate = state.flowRate.add(flowRateDelta, \"CFA: flowrate overflow\");\n        state.timestamp = currentTimestamp;\n        state.deposit = state.deposit.toInt256().add(depositDelta).toUint256();\n        state.owedDeposit = state.owedDeposit.toInt256().add(owedDepositDelta).toUint256();\n\n        token.updateAgreementStateSlot(account, 0 /* slot id */, _encodeFlowData(state));\n\n        return state.flowRate;\n    }\n\n    /**\n     * @dev update a flow to a non-app receiver\n     */\n    function _changeFlowToNonApp(\n        ISuperfluidToken token,\n        FlowParams memory flowParams,\n        FlowData memory oldFlowData,\n        bytes memory ctx,\n        ISuperfluid.Context memory currentContext\n    )\n        private\n        returns (bytes memory newCtx)\n    {\n        // owed deposit should have been always zero, since an app should never become a non app\n        assert(oldFlowData.owedDeposit == 0);\n\n        // STEP 1: update the flow\n        int256 depositDelta;\n        FlowData memory newFlowData;\n        (depositDelta,,newFlowData) = _changeFlow(\n            currentContext.timestamp,\n            currentContext.appAllowanceToken,\n            token, flowParams, oldFlowData);\n\n        // STEP 2: update app allowance used\n        if (currentContext.appAllowanceToken == token) {\n            newCtx = ISuperfluid(msg.sender).ctxUseAllowance(\n                ctx,\n                newFlowData.deposit, // allowanceWantedMore\n                depositDelta // allowanceUsedDelta\n            );\n        } else {\n            newCtx = ctx;\n        }\n    }\n\n    /**\n     * @dev change a flow to a app receiver\n     */\n\n    // Stack variables for updateFlowApp function, to avoid stack too deep issue\n    // solhint-disable-next-line contract-name-camelcase\n    struct _StackVars_changeFlowToApp {\n        bytes cbdata;\n        FlowData newFlowData;\n        ISuperfluid.Context appContext;\n    }\n    function _changeFlowToApp(\n        address appToCallback,\n        ISuperfluidToken token,\n        FlowParams memory flowParams,\n        FlowData memory oldFlowData,\n        bytes memory ctx,\n        ISuperfluid.Context memory currentContext,\n        FlowChangeType optype\n    )\n        private\n        returns (bytes memory newCtx)\n    {\n        newCtx = ctx;\n        // apply callbacks\n        _StackVars_changeFlowToApp memory vars;\n\n        // call callback\n        if (appToCallback != address(0)) {\n            AgreementLibrary.CallbackInputs memory cbStates = AgreementLibrary.createCallbackInputs(\n                token,\n                appToCallback,\n                flowParams.flowId,\n                abi.encode(flowParams.sender, flowParams.receiver)\n            );\n\n            // call the before callback\n            if (optype == FlowChangeType.CREATE_FLOW) {\n                cbStates.noopBit = SuperAppDefinitions.BEFORE_AGREEMENT_CREATED_NOOP;\n            } else if (optype == FlowChangeType.UPDATE_FLOW) {\n                cbStates.noopBit = SuperAppDefinitions.BEFORE_AGREEMENT_UPDATED_NOOP;\n            } else /* if (optype == FlowChangeType.DELETE_FLOW) */ {\n                cbStates.noopBit = SuperAppDefinitions.BEFORE_AGREEMENT_TERMINATED_NOOP;\n            }\n            vars.cbdata = AgreementLibrary.callAppBeforeCallback(cbStates, ctx);\n\n            (,cbStates.appAllowanceGranted,) = _changeFlow(\n                    currentContext.timestamp,\n                    currentContext.appAllowanceToken,\n                    token, flowParams, oldFlowData);\n            cbStates.appAllowanceGranted = cbStates.appAllowanceGranted.mul(uint256(currentContext.appLevel + 1));\n            cbStates.appAllowanceUsed = oldFlowData.owedDeposit.toInt256();\n            // - each app level can at least \"relay\" the same amount of input flow rate to others\n            // - each app level get a same amount of allowance\n\n            if (optype == FlowChangeType.CREATE_FLOW) {\n                cbStates.noopBit = SuperAppDefinitions.AFTER_AGREEMENT_CREATED_NOOP;\n            } else if (optype == FlowChangeType.UPDATE_FLOW) {\n                cbStates.noopBit = SuperAppDefinitions.AFTER_AGREEMENT_UPDATED_NOOP;\n            } else /* if (optype == FlowChangeType.DELETE_FLOW) */ {\n                cbStates.noopBit = SuperAppDefinitions.AFTER_AGREEMENT_TERMINATED_NOOP;\n            }\n            (vars.appContext,) = AgreementLibrary.callAppAfterCallback(cbStates, vars.cbdata, newCtx);\n\n            // NB: the callback might update the same flow!!\n            // reload the flow data\n            (, vars.newFlowData) = _getAgreementData(token, flowParams.flowId);\n        } else {\n            (,,vars.newFlowData) = _changeFlow(\n                    currentContext.timestamp,\n                    currentContext.appAllowanceToken,\n                    token, flowParams, oldFlowData);\n        }\n\n        // REVIEW the re-entrace assumptions from this point on\n\n        // NOTE: vars.appContext.appAllowanceUsed will be adjusted by callAppAfterCallback\n        // and its range will be [0, currentContext.appAllowance]\n        {\n            // clipping the allowance used amount before storing\n            if (vars.appContext.appAllowanceUsed > 0) {\n                // give more to the app\n                vars.appContext.appAllowanceUsed =\n                    _clipDepositNumber(vars.appContext.appAllowanceUsed.toUint256()).toInt256();\n            }\n\n            int256 appAllowanceDelta = vars.appContext.appAllowanceUsed\n                .sub(oldFlowData.owedDeposit.toInt256());\n\n            // update flow data and account state with the allowance delta\n            {\n                vars.newFlowData.deposit = vars.newFlowData.deposit.toInt256()\n                        .add(appAllowanceDelta)\n                        .toUint256();\n                vars.newFlowData.owedDeposit = vars.newFlowData.owedDeposit.toInt256()\n                        .add(appAllowanceDelta)\n                        .toUint256();\n                token.updateAgreementData(flowParams.flowId, _encodeFlowData(vars.newFlowData));\n                // update sender and receiver deposit (for sender) and owed deposit (for receiver)\n                _updateAccountFlowState(\n                    token,\n                    flowParams.sender,\n                    0, // flow rate delta\n                    appAllowanceDelta, // deposit delta\n                    0, // owed deposit delta\n                    currentContext.timestamp\n                );\n                _updateAccountFlowState(\n                    token,\n                    flowParams.receiver,\n                    0, // flow rate delta\n                    0, // deposit delta\n                    appAllowanceDelta, // owed deposit delta\n                    currentContext.timestamp\n                );\n            }\n\n            if (address(currentContext.appAllowanceToken) == address(0) ||\n                currentContext.appAllowanceToken == token)\n            {\n                newCtx = ISuperfluid(msg.sender).ctxUseAllowance(\n                    ctx,\n                    vars.newFlowData.deposit, // allowanceWantedMore\n                    appAllowanceDelta // allowanceUsedDelta\n                );\n            }\n\n            // if receiver super app doesn't have enough available balance to give back app allowance\n            // revert (non termination callbacks),\n            // or take it from the sender and jail the app\n            if (ISuperfluid(msg.sender).isApp(ISuperApp(flowParams.receiver))) {\n                int256 availableBalance;\n                (availableBalance,,) = token.realtimeBalanceOf(flowParams.receiver, currentContext.timestamp);\n                if (availableBalance < 0) {\n                    // app goes broke, send the app to jail\n                    if (optype == FlowChangeType.DELETE_FLOW) {\n                        newCtx = ISuperfluid(msg.sender).jailApp(\n                            newCtx,\n                            ISuperApp(flowParams.receiver),\n                            SuperAppDefinitions.APP_RULE_NO_CRITICAL_RECEIVER_ACCOUNT);\n                        // calculate user's damage\n                        int256 userDamageAmount = AgreementLibrary.min(\n                            // user will take the damage if the app is broke,\n                            -availableBalance,\n                            // but user's damage is limited to the amount of app allowance it gives to the app\n                            AgreementLibrary.max(0, -appAllowanceDelta));\n                        token.settleBalance(\n                            flowParams.sender,\n                            -userDamageAmount\n                        );\n                        token.settleBalance(\n                            flowParams.receiver,\n                            userDamageAmount\n                        );\n                    } else {\n                        revert(\"CFA: APP_RULE_NO_CRITICAL_RECEIVER_ACCOUNT\");\n                    }\n                }\n            }\n        }\n    }\n\n    /**\n     * @dev change flow between sender and receiver with new flow rate\n     *\n     * NOTE:\n     * - leaving owed deposit unchanged for later adjustment\n     * - depositDelta output is always clipped (see _clipDepositNumber)\n     */\n    function _changeFlow(\n        uint256 currentTimestamp,\n        ISuperfluidToken appAllowanceToken,\n        ISuperfluidToken token,\n        FlowParams memory flowParams,\n        FlowData memory oldFlowData\n    )\n        private\n        returns (\n            int256 depositDelta,\n            uint256 appAllowanceBase,\n            FlowData memory newFlowData\n        )\n    {\n        { // enclosed block to avoid stack too deep error\n            uint256 minimumDeposit;\n            uint256 newDeposit;\n            // STEP 1: calculate deposit required for the flow\n            {\n                ISuperfluidGovernance gov = ISuperfluidGovernance(ISuperfluid(msg.sender).getGovernance());\n                uint256 liquidationPeriod = gov.getConfigAsUint256(\n                    ISuperfluid(msg.sender), token, _LIQUIDATION_PERIOD_CONFIG_KEY);\n                minimumDeposit = gov.getConfigAsUint256(\n                    ISuperfluid(msg.sender), token, _SUPERTOKEN_MINIMUM_DEPOSIT_KEY);\n                // rounding up the number for app allowance too\n                // CAVEAT:\n                // - Now app could create a flow rate that is slightly higher than the incoming flow rate.\n                // - The app may be jailed due to negative balance if it does this without its own balance.\n                // Rule of thumbs:\n                // - App can use app allowance to create a flow that has the same incoming flow rate\n                // - But due to deposit clipping, there is no guarantee that the sum of the out going flow\n                //   deposit can be covered by the allowance always.\n                // - It is advisable for the app to check the allowance usages carefully, and if possible\n                //   Always have some its own balances to cover the deposits.\n\n                // preliminary calc of new deposit required, may be changed later in step 2.\n                // used as a variable holding the new deposit amount in the meantime\n                appAllowanceBase = _calculateDeposit(flowParams.flowRate, liquidationPeriod);\n            }\n\n            // STEP 2: apply minimum deposit rule and calculate deposit delta\n            // preliminary calc depositDelta (minimum deposit rule not yet applied)\n            depositDelta = appAllowanceBase.toInt256()\n                .sub(oldFlowData.deposit.toInt256())\n                .add(oldFlowData.owedDeposit.toInt256());\n\n            // preliminary calc newDeposit (minimum deposit rule not yet applied)\n            newDeposit = oldFlowData.deposit.toInt256().add(depositDelta).toUint256();\n\n            // calc depositDelta and newDeposit with minimum deposit rule applied\n            if (newDeposit < minimumDeposit && flowParams.flowRate > 0) {\n                depositDelta = minimumDeposit.toInt256()\n                    .sub(oldFlowData.deposit.toInt256())\n                    .add(oldFlowData.owedDeposit.toInt256());\n                newDeposit = minimumDeposit;\n            }\n\n            // allowance should be of the same token\n            if (address(appAllowanceToken) != address(0) &&\n                appAllowanceToken != token)\n            {\n                appAllowanceBase = 0;\n            }\n\n            // STEP 3: update current flow info\n            newFlowData = FlowData(\n                flowParams.flowRate > 0 ? currentTimestamp : 0,\n                flowParams.flowRate,\n                newDeposit,\n                oldFlowData.owedDeposit // leaving it unchanged for later adjustment\n            );\n            token.updateAgreementData(flowParams.flowId, _encodeFlowData(newFlowData));\n        }\n\n        // STEP 4: update sender and receiver account flow state with the deltas\n        int96 totalSenderFlowRate = _updateAccountFlowState(\n            token,\n            flowParams.sender,\n            oldFlowData.flowRate.sub(flowParams.flowRate, \"CFA: flowrate overflow\"),\n            depositDelta,\n            0,\n            currentTimestamp\n        );\n        int96 totalReceiverFlowRate = _updateAccountFlowState(\n            token,\n            flowParams.receiver,\n            flowParams.flowRate.sub(oldFlowData.flowRate, \"CFA: flowrate overflow\"),\n            0,\n            0, // leaving owed deposit unchanged for later adjustment\n            currentTimestamp\n        );\n\n        // STEP 5: emit the FlowUpdated Event\n        emit FlowUpdated(\n            token,\n            flowParams.sender,\n            flowParams.receiver,\n            flowParams.flowRate,\n            totalSenderFlowRate,\n            totalReceiverFlowRate,\n            flowParams.userData);\n    }\n\n    function _requireAvailableBalance(\n        ISuperfluidToken token,\n        ISuperfluid.Context memory currentContext\n    )\n        private view\n    {\n        // do not enforce balance checks during callbacks for the appAllowanceToken\n        if (currentContext.callType != ContextDefinitions.CALL_INFO_CALL_TYPE_APP_CALLBACK ||\n            currentContext.appAllowanceToken != token) {\n            (int256 availableBalance,,) = token.realtimeBalanceOf(currentContext.msgSender, currentContext.timestamp);\n            require(availableBalance >= 0, \"CFA: not enough available balance\");\n        }\n    }\n\n    function _makeLiquidationPayouts(\n        ISuperfluidToken token,\n        int256 availableBalance,\n        FlowParams memory flowParams,\n        FlowData memory flowData,\n        address liquidator\n    )\n        private\n    {\n        (,FlowData memory senderAccountState) = _getAccountFlowState(token, flowParams.sender);\n\n        int256 signedSingleDeposit = flowData.deposit.toInt256();\n        int256 signedTotalDeposit = senderAccountState.deposit.toInt256();\n\n        // Liquidation rules:\n        //    - let Available Balance = AB (is negative)\n        //    -     Agreement Single Deposit = SD\n        //    -     Agreement Total Deposit = TD\n        //    -     Total Reward Left = RL = AB + TD\n        // #1 Can the total account deposit can still cover the available balance deficit?\n        int256 totalRewardLeft = availableBalance.add(signedTotalDeposit);\n        if (totalRewardLeft >= 0) {\n            // #1.a.1 yes: then reward = (SD / TD) * RL\n            int256 rewardAmount = signedSingleDeposit.mul(totalRewardLeft).div(signedTotalDeposit);\n            token.makeLiquidationPayouts(\n                flowParams.flowId,\n                liquidator,\n                flowParams.sender,\n                rewardAmount.toUint256(),\n                0\n            );\n        } else {\n            // #1.b.1 no: then the liquidator takes full amount of the single deposit\n            int256 rewardAmount = signedSingleDeposit;\n            token.makeLiquidationPayouts(\n                flowParams.flowId,\n                liquidator,\n                flowParams.sender,\n                rewardAmount.toUint256() /* rewardAmount */,\n                totalRewardLeft.mul(-1).toUint256() /* bailoutAmount */\n            );\n        }\n    }\n\n    /**************************************************************************\n     * Deposit Calculation Pure Functions\n     *************************************************************************/\n\n    function _clipDepositNumberRoundingDown(uint256 deposit)\n        internal pure\n        returns(uint256)\n    {\n        return ((deposit >> 32)) << 32;\n    }\n\n    function _clipDepositNumber(uint256 deposit)\n        internal pure\n        returns(uint256)\n    {\n        // clipping the value, rounding up\n        uint256 rounding = (deposit & type(uint32).max) > 0 ? 1 : 0;\n        return ((deposit >> 32) + rounding) << 32;\n    }\n\n    function _calculateDeposit(\n        int96 flowRate,\n        uint256 liquidationPeriod\n    )\n        internal pure\n        returns(uint256 deposit)\n    {\n        if (flowRate == 0) return 0;\n        assert(liquidationPeriod <= uint256(type(int96).max));\n        deposit = uint256(flowRate.mul(int96(uint96(liquidationPeriod)), \"CFA: deposit overflow\"));\n        return _clipDepositNumber(deposit);\n    }\n\n    /**************************************************************************\n     * Flow Data Pure Functions\n     *************************************************************************/\n\n    function _generateFlowId(address sender, address receiver) private pure returns(bytes32 id) {\n        return keccak256(abi.encode(sender, receiver));\n    }\n\n    //\n    // Data packing:\n    //\n    // WORD A: | timestamp  | flowRate | deposit | owedDeposit |\n    //         | 32b        | 96b      | 64      | 64          |\n    //\n    // NOTE:\n    // - flowRate has 96 bits length\n    // - deposit has 96 bits length too, but 32 bits are clipped-off when storing\n\n    function _encodeFlowData\n    (\n        FlowData memory flowData\n    )\n        internal pure\n        returns(bytes32[] memory data)\n    {\n        // enable these for debugging\n        // assert(flowData.deposit & type(uint32).max == 0);\n        // assert(flowData.owedDeposit & type(uint32).max == 0);\n        data = new bytes32[](1);\n        data[0] = bytes32(\n            ((uint256(flowData.timestamp)) << 224) |\n            ((uint256(uint96(flowData.flowRate)) << 128)) |\n            (uint256(flowData.deposit) >> 32 << 64) |\n            (uint256(flowData.owedDeposit) >> 32)\n        );\n    }\n\n    function _decodeFlowData\n    (\n        uint256 wordA\n    )\n        internal pure\n        returns(bool exist, FlowData memory flowData)\n    {\n        exist = wordA > 0;\n        if (exist) {\n            flowData.timestamp = uint32(wordA >> 224);\n            flowData.flowRate = int96((wordA >> 128) & uint256(type(uint96).max));\n            flowData.deposit = ((wordA >> 64) & uint256(type(uint64).max)) << 32 /* recover clipped bits*/;\n            flowData.owedDeposit = (wordA & uint256(type(uint64).max)) << 32 /* recover clipped bits*/;\n        }\n    }\n\n}\n",
  "sourcePath": "/home/runner/work/protocol-monorepo/protocol-monorepo/packages/ethereum-contracts/contracts/agreements/ConstantFlowAgreementV1.sol",
  "compiler": {
    "name": "solc",
    "version": "0.7.6+commit.7338295f.Emscripten.clang"
  },
  "schemaVersion": "3.4.4",
  "updatedAt": "2022-02-01T14:35:44.225Z",
  "devdoc": {
    "kind": "dev",
    "methods": {
      "agreementType()": {
        "details": "ISuperAgreement.agreementType implementation"
      },
      "createFlow(address,address,int96,bytes)": {
        "details": "IConstantFlowAgreementV1.createFlow implementation"
      },
      "deleteFlow(address,address,address,bytes)": {
        "details": "IConstantFlowAgreementV1.deleteFlow implementation"
      },
      "getAccountFlowInfo(address,address)": {
        "details": "IConstantFlowAgreementV1.getAccountFlowInfo implementation"
      },
      "getCodeAddress()": {
        "details": "Get current implementation code address."
      },
      "getDepositRequiredForFlowRate(address,int96)": {
        "details": "Get the deposit required for creating the flow",
        "params": {
          "flowRate": "Flow rate to be tested  NOTE:  - if calculated deposit (flowRate * liquidationPeriod) is less   than the minimum deposit, we use the minimum deposit otherwise   we use the calculated deposit"
        }
      },
      "getFlow(address,address,address)": {
        "details": "IConstantFlowAgreementV1.getFlow implementation"
      },
      "getFlowByID(address,bytes32)": {
        "details": "IConstantFlowAgreementV1.getFlow implementation"
      },
      "getMaximumFlowRateFromDeposit(address,uint256)": {
        "details": "IConstantFlowAgreementV1.createFlow implementation"
      },
      "getNetFlow(address,address)": {
        "details": "IConstantFlowAgreementV1.getNetFlow implementation"
      },
      "initialize()": {
        "details": "Initialize the agreement contract"
      },
      "proxiableUUID()": {
        "details": "Proxiable UUID marker function.      This would help to avoid wrong logic contract to be used for upgrading."
      },
      "realtimeBalanceOf(address,address,uint256)": {
        "details": "ISuperAgreement.realtimeBalanceOf implementation"
      },
      "updateFlow(address,address,int96,bytes)": {
        "details": "IConstantFlowAgreementV1.updateFlow implementation"
      }
    },
    "version": 1
  },
  "userdoc": {
    "kind": "user",
    "methods": {},
    "version": 1
  }
}