{
  "contractName": "ERC777RecipientDrainingGas",
  "abi": [
    {
      "anonymous": false,
      "inputs": [
        {
          "indexed": false,
          "internalType": "uint256",
          "name": "allowance",
          "type": "uint256"
        },
        {
          "indexed": false,
          "internalType": "uint256",
          "name": "burned",
          "type": "uint256"
        }
      ],
      "name": "DrainedGas",
      "type": "event"
    },
    {
      "inputs": [
        {
          "internalType": "address",
          "name": "",
          "type": "address"
        },
        {
          "internalType": "address",
          "name": "",
          "type": "address"
        },
        {
          "internalType": "address",
          "name": "",
          "type": "address"
        },
        {
          "internalType": "uint256",
          "name": "",
          "type": "uint256"
        },
        {
          "internalType": "bytes",
          "name": "",
          "type": "bytes"
        },
        {
          "internalType": "bytes",
          "name": "",
          "type": "bytes"
        }
      ],
      "name": "tokensReceived",
      "outputs": [],
      "stateMutability": "nonpayable",
      "type": "function"
    },
    {
      "inputs": [
        {
          "internalType": "bytes32",
          "name": "interfaceHash",
          "type": "bytes32"
        },
        {
          "internalType": "address",
          "name": "",
          "type": "address"
        }
      ],
      "name": "canImplementInterfaceForAddress",
      "outputs": [
        {
          "internalType": "bytes32",
          "name": "",
          "type": "bytes32"
        }
      ],
      "stateMutability": "pure",
      "type": "function"
    }
  ],
  "bytecode": "0x6080604052600160005534801561001557600080fd5b50610274806100256000396000f3fe608060405234801561001057600080fd5b50600436106100355760003560e01c806223de291461003a578063249cb3fa14610126575b600080fd5b610124600480360360c081101561005057600080fd5b6001600160a01b03823581169260208101358216926040820135909216916060820135919081019060a08101608082013564010000000081111561009357600080fd5b8201836020820111156100a557600080fd5b803590602001918460018302840111640100000000831117156100c757600080fd5b9193909290916020810190356401000000008111156100e557600080fd5b8201836020820111156100f757600080fd5b8035906020019184600183028401116401000000008311171561011957600080fd5b509092509050610164565b005b6101526004803603604081101561013c57600080fd5b50803590602001356001600160a01b03166101c8565b60408051918252519081900360200190f35b60005a90505b6175305a11156101825760008054600101905561016a565b7fe69a071efa597f7995dc49d165ad809dd15393f0b95e75d7089498028bb673d9815a6040805192835260208301919091528051918290030190a1505050505050505050565b60007fb281fc8c12954d22544db45de3159a39272895b169a852b314f9cc762e44c53b83146101f8576000610237565b604051602001808073455243313832305f4143434550545f4d4147494360601b8152506014019050604051602081830303815290604052805190602001205b939250505056fea2646970667358221220fbe764a0d98963a5d508eac0f94d02bfd38a2e29dd6af2a215d269bc1cf3fbb164736f6c63430007060033",
  "immutableReferences": {},
  "source": "// SPDX-License-Identifier: AGPLv3\npragma solidity 0.7.6;\n\nimport \"@openzeppelin/contracts/GSN/Context.sol\";\nimport \"@openzeppelin/contracts/token/ERC20/IERC20.sol\";\nimport \"@openzeppelin/contracts/token/ERC777/IERC777.sol\";\nimport \"@openzeppelin/contracts/token/ERC777/IERC777Sender.sol\";\nimport \"@openzeppelin/contracts/token/ERC777/IERC777Recipient.sol\";\nimport \"@openzeppelin/contracts/introspection/IERC1820Registry.sol\";\nimport \"@openzeppelin/contracts/introspection/ERC1820Implementer.sol\";\n\nimport {\n    ISuperToken\n} from \"../superfluid/SuperToken.sol\";\n\n\ncontract ERC777SenderRecipientMock is Context, IERC777Sender, IERC777Recipient, ERC1820Implementer {\n    event TokensToSendCalled(\n        address operator,\n        address from,\n        address to,\n        uint256 amount,\n        bytes data,\n        bytes operatorData,\n        address token,\n        uint256 fromBalance,\n        uint256 toBalance\n    );\n\n    event TokensReceivedCalled(\n        address operator,\n        address from,\n        address to,\n        uint256 amount,\n        bytes data,\n        bytes operatorData,\n        address token,\n        uint256 fromBalance,\n        uint256 toBalance\n    );\n\n    bool private _shouldRevertSend;\n    bool private _shouldRevertReceive;\n\n    IERC1820Registry private _erc1820 = IERC1820Registry(0x1820a4B7618BdE71Dce8cdc73aAB6C95905faD24);\n\n    bytes32 constant private _TOKENS_SENDER_INTERFACE_HASH = keccak256(\"ERC777TokensSender\");\n    bytes32 constant private _TOKENS_RECIPIENT_INTERFACE_HASH = keccak256(\"ERC777TokensRecipient\");\n\n    function tokensToSend(\n        address operator,\n        address from,\n        address to,\n        uint256 amount,\n        bytes calldata userData,\n        bytes calldata operatorData\n    ) external override {\n        if (_shouldRevertSend) {\n            revert(\"_shouldRevertSend\");\n        }\n\n        IERC777 token = IERC777(_msgSender());\n\n        uint256 fromBalance = token.balanceOf(from);\n        // when called due to burn, to will be the zero address, which will have a balance of 0\n        uint256 toBalance = token.balanceOf(to);\n\n        emit TokensToSendCalled(\n            operator,\n            from,\n            to,\n            amount,\n            userData,\n            operatorData,\n            address(token),\n            fromBalance,\n            toBalance\n        );\n    }\n\n    function tokensReceived(\n        address operator,\n        address from,\n        address to,\n        uint256 amount,\n        bytes calldata userData,\n        bytes calldata operatorData\n    ) external override {\n        if (_shouldRevertReceive) {\n            revert(\"_shouldRevertReceive\");\n        }\n\n        IERC777 token = IERC777(_msgSender());\n\n        uint256 fromBalance = token.balanceOf(from);\n        // when called due to burn, to will be the zero address, which will have a balance of 0\n        uint256 toBalance = token.balanceOf(to);\n\n        emit TokensReceivedCalled(\n            operator,\n            from,\n            to,\n            amount,\n            userData,\n            operatorData,\n            address(token),\n            fromBalance,\n            toBalance\n        );\n    }\n\n    function senderFor(address account) public {\n        _registerInterfaceForAddress(_TOKENS_SENDER_INTERFACE_HASH, account);\n\n        address self = address(this);\n        if (account == self) {\n            registerSender(self);\n        }\n    }\n\n    function registerSender(address sender) public {\n        _erc1820.setInterfaceImplementer(address(this), _TOKENS_SENDER_INTERFACE_HASH, sender);\n    }\n\n    function recipientFor(address account) public {\n        _registerInterfaceForAddress(_TOKENS_RECIPIENT_INTERFACE_HASH, account);\n\n        address self = address(this);\n        if (account == self) {\n            registerRecipient(self);\n        }\n    }\n\n    function registerRecipient(address recipient) public {\n        _erc1820.setInterfaceImplementer(address(this), _TOKENS_RECIPIENT_INTERFACE_HASH, recipient);\n    }\n\n    function setShouldRevertSend(bool shouldRevert) public {\n        _shouldRevertSend = shouldRevert;\n    }\n\n    function setShouldRevertReceive(bool shouldRevert) public {\n        _shouldRevertReceive = shouldRevert;\n    }\n\n    function send(IERC777 token, address to, uint256 amount, bytes memory data) public {\n        // This is 777's send function, not the Solidity send function\n        token.send(to, amount, data); // solhint-disable-line check-send-result\n    }\n\n    function burn(IERC777 token, uint256 amount, bytes memory data) public {\n        token.burn(amount, data);\n    }\n\n    function upgradeAll(ISuperToken token) public {\n        IERC20 underlying = IERC20(token.getUnderlyingToken());\n        uint256 amount = underlying.balanceOf(address(this));\n        underlying.approve(address(token), amount);\n        token.upgrade(amount);\n    }\n\n    function upgradeAllToSelf(ISuperToken token) public {\n        IERC20 underlying = IERC20(token.getUnderlyingToken());\n        uint256 amount = underlying.balanceOf(address(this));\n        underlying.approve(address(token), amount);\n        token.upgradeTo(address(this), amount, \"\");\n    }\n}\n\ncontract ERC777RecipientReverting is IERC777Recipient, IERC1820Implementer {\n    bytes32 constant private _TOKENS_RECIPIENT_INTERFACE_HASH = keccak256(\"ERC777TokensRecipient\");\n\n    // allow to use the hook for this contract itself\n    constructor() {\n        IERC1820Registry erc1820 = IERC1820Registry(0x1820a4B7618BdE71Dce8cdc73aAB6C95905faD24);\n        erc1820.setInterfaceImplementer(address(this), keccak256(\"ERC777TokensRecipient\"), address(this));\n    }\n\n    function tokensReceived(\n        address /*operator*/,\n        address /*from*/,\n        address /*to*/,\n        uint256 /*amount*/,\n        bytes calldata /*userData*/,\n        bytes calldata /*operatorData*/\n    ) external pure override {\n        revert(\"they shall not pass\");\n    }\n\n    // allow anybody to use the hook\n    function canImplementInterfaceForAddress(bytes32 interfaceHash, address /*addr*/)\n        external pure override\n        returns(bytes32)\n    {\n        return\n            interfaceHash == _TOKENS_RECIPIENT_INTERFACE_HASH ?\n            keccak256(abi.encodePacked(\"ERC1820_ACCEPT_MAGIC\")) :\n            bytes32(0x00);\n    }\n}\n\n/*\n* ERC777Recipient which drains all gas it gets, trying to make the caller run out of gas\n*/\ncontract ERC777RecipientDrainingGas is IERC777Recipient, IERC1820Implementer {\n    bytes32 constant private _TOKENS_RECIPIENT_INTERFACE_HASH = keccak256(\"ERC777TokensRecipient\");\n    uint256 internal _uselessVar = 1;\n\n    event DrainedGas(uint256 allowance, uint256 burned);\n\n    function tokensReceived(\n        address /*operator*/,\n        address /*from*/,\n        address /*to*/,\n        uint256 /*amount*/,\n        bytes calldata /*userData*/,\n        bytes calldata /*operatorData*/\n    ) external override {\n        uint256 initialGas = gasleft();\n        while (gasleft() > 30000) { // need to leave enough for the send() itself to not fail\n            _uselessVar++; // SSTORE drains much faster than an empty loop\n        }\n        emit DrainedGas(initialGas, gasleft());\n    }\n\n    // allow anybody to use the hook\n    function canImplementInterfaceForAddress(bytes32 interfaceHash, address /*addr*/)\n        external pure override\n        returns(bytes32)\n    {\n        return\n            interfaceHash == _TOKENS_RECIPIENT_INTERFACE_HASH ?\n            keccak256(abi.encodePacked(\"ERC1820_ACCEPT_MAGIC\")) :\n            bytes32(0x00);\n    }\n}\n\n\n",
  "sourcePath": "/home/runner/work/protocol-monorepo/protocol-monorepo/packages/ethereum-contracts/contracts/mocks/ERC777SenderRecipientMock.sol",
  "compiler": {
    "name": "solc",
    "version": "0.7.6+commit.7338295f.Emscripten.clang"
  },
  "schemaVersion": "3.4.4",
  "updatedAt": "2022-02-01T14:35:44.537Z",
  "devdoc": {
    "kind": "dev",
    "methods": {},
    "version": 1
  },
  "userdoc": {
    "kind": "user",
    "methods": {},
    "version": 1
  }
}