{
  "contractName": "ExclusiveInflowTestApp",
  "abi": [
    {
      "inputs": [
        {
          "internalType": "contract IConstantFlowAgreementV1",
          "name": "cfa",
          "type": "address"
        },
        {
          "internalType": "contract ISuperfluid",
          "name": "superfluid",
          "type": "address"
        }
      ],
      "stateMutability": "nonpayable",
      "type": "constructor"
    },
    {
      "inputs": [
        {
          "internalType": "contract ISuperToken",
          "name": "",
          "type": "address"
        },
        {
          "internalType": "address",
          "name": "",
          "type": "address"
        },
        {
          "internalType": "bytes32",
          "name": "",
          "type": "bytes32"
        },
        {
          "internalType": "bytes",
          "name": "",
          "type": "bytes"
        },
        {
          "internalType": "bytes",
          "name": "",
          "type": "bytes"
        },
        {
          "internalType": "bytes",
          "name": "",
          "type": "bytes"
        }
      ],
      "name": "afterAgreementUpdated",
      "outputs": [
        {
          "internalType": "bytes",
          "name": "",
          "type": "bytes"
        }
      ],
      "stateMutability": "nonpayable",
      "type": "function"
    },
    {
      "inputs": [
        {
          "internalType": "contract ISuperToken",
          "name": "",
          "type": "address"
        },
        {
          "internalType": "address",
          "name": "",
          "type": "address"
        },
        {
          "internalType": "bytes32",
          "name": "",
          "type": "bytes32"
        },
        {
          "internalType": "bytes",
          "name": "",
          "type": "bytes"
        },
        {
          "internalType": "bytes",
          "name": "",
          "type": "bytes"
        }
      ],
      "name": "beforeAgreementCreated",
      "outputs": [
        {
          "internalType": "bytes",
          "name": "",
          "type": "bytes"
        }
      ],
      "stateMutability": "view",
      "type": "function"
    },
    {
      "inputs": [
        {
          "internalType": "contract ISuperToken",
          "name": "",
          "type": "address"
        },
        {
          "internalType": "address",
          "name": "",
          "type": "address"
        },
        {
          "internalType": "bytes32",
          "name": "",
          "type": "bytes32"
        },
        {
          "internalType": "bytes",
          "name": "",
          "type": "bytes"
        },
        {
          "internalType": "bytes",
          "name": "",
          "type": "bytes"
        }
      ],
      "name": "beforeAgreementTerminated",
      "outputs": [
        {
          "internalType": "bytes",
          "name": "",
          "type": "bytes"
        }
      ],
      "stateMutability": "view",
      "type": "function"
    },
    {
      "inputs": [
        {
          "internalType": "contract ISuperToken",
          "name": "",
          "type": "address"
        },
        {
          "internalType": "address",
          "name": "",
          "type": "address"
        },
        {
          "internalType": "bytes32",
          "name": "",
          "type": "bytes32"
        },
        {
          "internalType": "bytes",
          "name": "",
          "type": "bytes"
        },
        {
          "internalType": "bytes",
          "name": "",
          "type": "bytes"
        }
      ],
      "name": "beforeAgreementUpdated",
      "outputs": [
        {
          "internalType": "bytes",
          "name": "",
          "type": "bytes"
        }
      ],
      "stateMutability": "view",
      "type": "function"
    },
    {
      "inputs": [
        {
          "internalType": "contract ISuperToken",
          "name": "superToken",
          "type": "address"
        },
        {
          "internalType": "address",
          "name": "",
          "type": "address"
        },
        {
          "internalType": "bytes32",
          "name": "",
          "type": "bytes32"
        },
        {
          "internalType": "bytes",
          "name": "",
          "type": "bytes"
        },
        {
          "internalType": "bytes",
          "name": "",
          "type": "bytes"
        },
        {
          "internalType": "bytes",
          "name": "ctx",
          "type": "bytes"
        }
      ],
      "name": "afterAgreementCreated",
      "outputs": [
        {
          "internalType": "bytes",
          "name": "newCtx",
          "type": "bytes"
        }
      ],
      "stateMutability": "nonpayable",
      "type": "function"
    },
    {
      "inputs": [
        {
          "internalType": "contract ISuperToken",
          "name": "",
          "type": "address"
        },
        {
          "internalType": "address",
          "name": "",
          "type": "address"
        },
        {
          "internalType": "bytes32",
          "name": "",
          "type": "bytes32"
        },
        {
          "internalType": "bytes",
          "name": "agreementData",
          "type": "bytes"
        },
        {
          "internalType": "bytes",
          "name": "",
          "type": "bytes"
        },
        {
          "internalType": "bytes",
          "name": "ctx",
          "type": "bytes"
        }
      ],
      "name": "afterAgreementTerminated",
      "outputs": [
        {
          "internalType": "bytes",
          "name": "newCtx",
          "type": "bytes"
        }
      ],
      "stateMutability": "nonpayable",
      "type": "function"
    }
  ],
  "bytecode": "0x608060405234801561001057600080fd5b50604051610c08380380610c0883398101604081905261002f916100e6565b6001600160a01b03821661003f57fe5b6001600160a01b03811661004f57fe5b600080546001600160a01b038085166001600160a01b03199283161790925560018054848416921691909117908190556040516315a722b960e31b8152641d0000000192919091169063ad3915c8906100ac90849060040161011f565b600060405180830381600087803b1580156100c657600080fd5b505af11580156100da573d6000803e3d6000fd5b50505050505050610140565b600080604083850312156100f8578182fd5b825161010381610128565b602084015190925061011481610128565b809150509250929050565b90815260200190565b6001600160a01b038116811461013d57600080fd5b50565b610ab98061014f6000396000f3fe608060405234801561001057600080fd5b50600436106100625760003560e01c8063230dbd291461006757806330d9c9151461009057806353c11f99146100a35780635f9e7d77146100b6578063884d1f40146100c9578063d86ed3e5146100dc575b600080fd5b61007a610075366004610681565b6100ef565b60405161008791906108ab565b60405180910390f35b61007a61009e3660046105e5565b610128565b61007a6100b1366004610681565b610161565b61007a6100c43660046105e5565b6101e0565b61007a6100d73660046105e5565b610219565b61007a6100ea366004610681565b610252565b606060405162461bcd60e51b815260040180806020018281038252602e815260200180610a27602e913960400191505060405180910390fd5b606060405162461bcd60e51b815260040180806020018281038252602f815260200180610a55602f913960400191505060405180910390fd5b606060006101718789018961054c565b506002549091506001600160a01b0380831691161461018c57fe5b600280546001600160a01b0319169055604080516020601f8601819004810282018101909252848152908590859081908401838280828437600092019190915250929e9d5050505050505050505050505050565b606060405162461bcd60e51b81526004018080602001828103825260338152602001806109c56033913960400191505060405180910390fd5b606060405162461bcd60e51b815260040180806020018281038252602f8152602001806109f8602f913960400191505060405180910390fd5b606082828080601f0160208091040260200160405190810160405280939291908181526020018383808284376000920182905250600154604051631fb6491d60e11b815295965090946001600160a01b039091169350633f6c923a92506102c091508790879060040161087c565b60006040518083038186803b1580156102d857600080fd5b505afa1580156102ec573d6000803e3d6000fd5b505050506040513d6000823e601f3d908101601f191682016040526103149190810190610748565b6002549091506001600160a01b03161561043857600254604080516000808252602082019092529091635a5999e360e11b91610363918f916001600160a01b039091169030906044810161091a565b60408051601f19818403018152918152602080830180516001600160e01b03166001600160e01b0319959095169490941790935260015460008054835191825294810192839052634329d29360e01b9092529193506001600160a01b0391821692634329d293926103dd92911690859088602482016108c5565b600060405180830381600087803b1580156103f757600080fd5b505af115801561040b573d6000803e3d6000fd5b505050506040513d6000823e601f3d908101601f191682016040526104339190810190610584565b509250505b60600151600280546001600160a01b0319166001600160a01b039092169190911790559998505050505050505050565b8051610473816109ac565b919050565b80516001600160e01b03198116811461047357600080fd5b60008083601f8401126104a1578182fd5b50813567ffffffffffffffff8111156104b8578182fd5b6020830191508360208285010111156104d057600080fd5b9250929050565b600082601f8301126104e7578081fd5b815167ffffffffffffffff8111156104fb57fe5b61050e601f8201601f1916602001610958565b818152846020838601011115610522578283fd5b61053382602083016020870161097c565b949350505050565b805160ff8116811461047357600080fd5b6000806040838503121561055e578182fd5b8235610569816109ac565b91506020830135610579816109ac565b809150509250929050565b60008060408385031215610596578182fd5b825167ffffffffffffffff808211156105ad578384fd5b6105b9868387016104d7565b935060208501519150808211156105ce578283fd5b506105db858286016104d7565b9150509250929050565b600080600080600080600060a0888a0312156105ff578283fd5b873561060a816109ac565b9650602088013561061a816109ac565b955060408801359450606088013567ffffffffffffffff8082111561063d578485fd5b6106498b838c01610490565b909650945060808a0135915080821115610661578384fd5b5061066e8a828b01610490565b989b979a50959850939692959293505050565b600080600080600080600080600060c08a8c03121561069e578182fd5b89356106a9816109ac565b985060208a01356106b9816109ac565b975060408a0135965060608a013567ffffffffffffffff808211156106dc578384fd5b6106e88d838e01610490565b909850965060808c0135915080821115610700578384fd5b61070c8d838e01610490565b909650945060a08c0135915080821115610724578384fd5b506107318c828d01610490565b915080935050809150509295985092959850929598565b600060208284031215610759578081fd5b815167ffffffffffffffff80821115610770578283fd5b8184019150610160808387031215610786578384fd5b61078f81610958565b905061079a8361053b565b81526107a86020840161053b565b6020820152604083015160408201526107c360608401610468565b60608201526107d460808401610478565b608082015260a0830151828111156107ea578485fd5b6107f6878286016104d7565b60a08301525060c083015160c082015260e083015160e082015261010091508183015182820152610120915061082d828401610468565b828201526101409150610841828401610468565b91810191909152949350505050565b6000815180845261086881602086016020860161097c565b601f01601f19169290920160200192915050565b60006020825282602083015282846040840137818301604090810191909152601f909201601f19160101919050565b6000602082526108be6020830184610850565b9392505050565b6001600160a01b03851681526080602082018190526000906108e990830186610850565b82810360408401526108fb8186610850565b9050828103606084015261090f8185610850565b979650505050505050565b6001600160a01b03858116825284811660208301528316604082015260806060820181905260009061094e90830184610850565b9695505050505050565b60405181810167ffffffffffffffff8111828210171561097457fe5b604052919050565b60005b8381101561099757818101518382015260200161097f565b838111156109a6576000848401525b50505050565b6001600160a01b03811681146109c157600080fd5b5056fe556e737570706f727465642063616c6c6261636b202d20204265666f72652041677265656d656e74205465726d696e61746564556e737570706f727465642063616c6c6261636b202d204265666f72652041677265656d656e742075706461746564556e737570706f727465642063616c6c6261636b202d2041667465722041677265656d656e742055706461746564556e737570706f727465642063616c6c6261636b202d204265666f72652041677265656d656e742043726561746564a26469706673582212205b9f3f0258c0677b34e96d37c9771426ea8c03fa02506b7ffd1779713fe3f82064736f6c63430007060033",
  "immutableReferences": {},
  "source": "// SPDX-License-Identifier: AGPLv3\npragma solidity 0.7.6;\npragma abicoder v2;\n\n\nimport {\n    ISuperfluid,\n    ISuperToken,\n    SuperAppBase,\n    SuperAppDefinitions\n} from \"../apps/SuperAppBase.sol\";\nimport { IConstantFlowAgreementV1 } from \"../interfaces/agreements/IConstantFlowAgreementV1.sol\";\n\n\n/**\n * @dev This is CFA SuperApp that maintains at most one inflw from a sender at any moment.\n *\n * This can test the deposit allowance logic in the deleteFlow as a recipient.\n */\ncontract ExclusiveInflowTestApp is SuperAppBase {\n\n    IConstantFlowAgreementV1 private _cfa;\n    ISuperfluid private _host;\n    address private _currentSender;\n\n    constructor(IConstantFlowAgreementV1 cfa, ISuperfluid superfluid) {\n        assert(address(cfa) != address(0));\n        assert(address(superfluid) != address(0));\n        _cfa = cfa;\n        _host = superfluid;\n\n        uint256 configWord =\n            SuperAppDefinitions.APP_LEVEL_FINAL\n            | SuperAppDefinitions.BEFORE_AGREEMENT_CREATED_NOOP\n            // | SuperAppDefinitions.AFTER_AGREEMENT_CREATED_NOOP\n            | SuperAppDefinitions.BEFORE_AGREEMENT_UPDATED_NOOP\n            | SuperAppDefinitions.AFTER_AGREEMENT_UPDATED_NOOP\n            | SuperAppDefinitions.BEFORE_AGREEMENT_TERMINATED_NOOP\n            // | SuperAppDefinitions.AFTER_AGREEMENT_TERMINATED_NOOP\n            ;\n\n        _host.registerApp(configWord);\n    }\n\n    function afterAgreementCreated(\n        ISuperToken superToken,\n        address /*agreementClass*/,\n        bytes32 /*agreementId*/,\n        bytes calldata /*agreementData*/,\n        bytes calldata /*cbdata*/,\n        bytes calldata ctx\n    )\n        external override\n        returns(bytes memory newCtx)\n    {\n        newCtx = ctx;\n        ISuperfluid.Context memory context = _host.decodeCtx(ctx);\n        if (_currentSender != address(0)) {\n            bytes memory callData = abi.encodeWithSelector(\n                _cfa.deleteFlow.selector,\n                superToken,\n                _currentSender,\n                address(this),\n                new bytes(0)\n            );\n            (newCtx, ) = _host.callAgreementWithContext(\n                _cfa,\n                callData,\n                new bytes(0), // user data\n                newCtx\n            );\n        }\n        _currentSender = context.msgSender;\n    }\n\n    function afterAgreementTerminated(\n        ISuperToken /*superToken*/,\n        address /*agreementClass*/,\n        bytes32 /*agreementId*/,\n        bytes calldata agreementData,\n        bytes calldata /*cbdata*/,\n        bytes calldata ctx\n    )\n        external override\n        returns(bytes memory newCtx)\n    {\n        (address flowSender, ) = abi.decode(agreementData, (address, address));\n        assert(flowSender == _currentSender);\n        _currentSender = address(0);\n        return ctx;\n    }\n\n}\n\n/**\n * @dev This is CFA SuperApp that refuses to close its outflow by its receiver.\n *\n * This test the logic that the app re-opens the same stream in the termination callback.\n * In reality, the app would have to fund the app with enough tokens to not to be jailed due\n * to low balance.\n */\ncontract NonClosableOutflowTestApp is SuperAppBase {\n\n    IConstantFlowAgreementV1 private _cfa;\n    ISuperfluid private _host;\n    address private _receiver;\n    int96 private _flowRate;\n\n    constructor(IConstantFlowAgreementV1 cfa, ISuperfluid superfluid) {\n        assert(address(cfa) != address(0));\n        assert(address(superfluid) != address(0));\n        _cfa = cfa;\n        _host = superfluid;\n\n        uint256 configWord =\n            SuperAppDefinitions.APP_LEVEL_FINAL\n            | SuperAppDefinitions.BEFORE_AGREEMENT_CREATED_NOOP\n            | SuperAppDefinitions.AFTER_AGREEMENT_CREATED_NOOP\n            | SuperAppDefinitions.BEFORE_AGREEMENT_UPDATED_NOOP\n            | SuperAppDefinitions.AFTER_AGREEMENT_UPDATED_NOOP\n            | SuperAppDefinitions.BEFORE_AGREEMENT_TERMINATED_NOOP\n            // | SuperAppDefinitions.AFTER_AGREEMENT_TERMINATED_NOOP\n            ;\n\n        _host.registerApp(configWord);\n    }\n\n    function setupOutflow(\n        ISuperToken superToken,\n        address receiver,\n        int96 flowRate\n    )\n        external\n    {\n        _receiver = receiver;\n        _flowRate = flowRate;\n        _host.callAgreement(\n            _cfa,\n            abi.encodeWithSelector(\n                _cfa.createFlow.selector,\n                superToken,\n                receiver,\n                flowRate,\n                new bytes(0)\n            ),\n            new bytes(0) // user data\n        );\n    }\n\n    function afterAgreementTerminated(\n        ISuperToken superToken,\n        address /*agreementClass*/,\n        bytes32 /*agreementId*/,\n        bytes calldata agreementData,\n        bytes calldata /*cbdata*/,\n        bytes calldata ctx\n    )\n        external override\n        returns(bytes memory newCtx)\n    {\n        (address flowSender, address flowReceiver) = abi.decode(agreementData, (address, address));\n        assert(flowSender == address(this));\n        assert(flowReceiver == _receiver);\n        // recreate the flow\n        (newCtx, ) = _host.callAgreementWithContext(\n            _cfa,\n            abi.encodeWithSelector(\n                _cfa.createFlow.selector,\n                superToken,\n                flowReceiver,\n                _flowRate,\n                new bytes(0)\n            ),\n            \"0x\",\n            ctx\n        );\n    }\n}\n\n/**\n * @dev This is CFA SuperApp that refuses to accept any opening flow without reverting them.\n */\ncontract SelfDeletingFlowTestApp is SuperAppBase {\n\n    IConstantFlowAgreementV1 private _cfa;\n    ISuperfluid private _host;\n    address private _receiver;\n    int96 private _flowRate;\n\n    constructor(IConstantFlowAgreementV1 cfa, ISuperfluid superfluid) {\n        assert(address(cfa) != address(0));\n        assert(address(superfluid) != address(0));\n        _cfa = cfa;\n        _host = superfluid;\n\n        uint256 configWord =\n            SuperAppDefinitions.APP_LEVEL_FINAL\n            | SuperAppDefinitions.BEFORE_AGREEMENT_CREATED_NOOP\n            // | SuperAppDefinitions.AFTER_AGREEMENT_CREATED_NOOP\n            | SuperAppDefinitions.BEFORE_AGREEMENT_UPDATED_NOOP\n            | SuperAppDefinitions.AFTER_AGREEMENT_UPDATED_NOOP\n            | SuperAppDefinitions.BEFORE_AGREEMENT_TERMINATED_NOOP\n            | SuperAppDefinitions.AFTER_AGREEMENT_TERMINATED_NOOP\n            ;\n\n        _host.registerApp(configWord);\n    }\n\n    function afterAgreementCreated(\n        ISuperToken superToken,\n        address /*agreementClass*/,\n        bytes32 /*agreementId*/,\n        bytes calldata /*agreementData*/,\n        bytes calldata /*cbdata*/,\n        bytes calldata ctx\n    )\n        external override\n        returns(bytes memory newCtx)\n    {\n        newCtx = ctx;\n        ISuperfluid.Context memory context = _host.decodeCtx(ctx);\n        (newCtx, ) = _host.callAgreementWithContext(\n            _cfa,\n            abi.encodeWithSelector(\n                _cfa.deleteFlow.selector,\n                superToken,\n                context.msgSender,\n                address(this),\n                new bytes(0)\n            ),\n            new bytes(0), // user data\n            newCtx\n        );\n    }\n}\n\n/**\n * @dev This is CFA SuperApp that closes an updated flow.\n */\ncontract ClosingOnUpdateFlowTestApp is SuperAppBase {\n\n    IConstantFlowAgreementV1 private _cfa;\n    ISuperfluid private _host;\n\n    constructor(IConstantFlowAgreementV1 cfa, ISuperfluid superfluid) {\n        assert(address(cfa) != address(0));\n        assert(address(superfluid) != address(0));\n        _cfa = cfa;\n        _host = superfluid;\n\n        uint256 configWord =\n            SuperAppDefinitions.APP_LEVEL_FINAL\n            | SuperAppDefinitions.BEFORE_AGREEMENT_CREATED_NOOP\n            | SuperAppDefinitions.AFTER_AGREEMENT_CREATED_NOOP\n            | SuperAppDefinitions.BEFORE_AGREEMENT_UPDATED_NOOP\n            // | SuperAppDefinitions.AFTER_AGREEMENT_UPDATED_NOOP\n            | SuperAppDefinitions.BEFORE_AGREEMENT_TERMINATED_NOOP\n            | SuperAppDefinitions.AFTER_AGREEMENT_TERMINATED_NOOP\n            ;\n\n        _host.registerApp(configWord);\n    }\n\n    function afterAgreementUpdated(\n        ISuperToken superToken,\n        address /*agreementClass*/,\n        bytes32 /*agreementId*/,\n        bytes calldata /*agreementData*/,\n        bytes calldata /*cbdata*/,\n        bytes calldata ctx\n    )\n        external override\n        returns(bytes memory newCtx)\n    {\n        newCtx = ctx;\n        ISuperfluid.Context memory context = _host.decodeCtx(ctx);\n        (newCtx, ) = _host.callAgreementWithContext(\n            _cfa,\n            abi.encodeWithSelector(\n                _cfa.deleteFlow.selector,\n                superToken,\n                context.msgSender,\n                address(this),\n                new bytes(0)\n            ),\n            new bytes(0), // user data\n            newCtx\n        );\n    }\n}\n\ncontract FlowExchangeTestApp is SuperAppBase {\n\n    IConstantFlowAgreementV1 private _cfa;\n    ISuperfluid private _host;\n    ISuperToken private _targetToken;\n\n    constructor(\n        IConstantFlowAgreementV1 cfa,\n        ISuperfluid superfluid,\n        ISuperToken targetToken) {\n        assert(address(cfa) != address(0));\n        assert(address(superfluid) != address(0));\n        _cfa = cfa;\n        _host = superfluid;\n        _targetToken = targetToken;\n\n        uint256 configWord =\n            SuperAppDefinitions.APP_LEVEL_FINAL\n            | SuperAppDefinitions.BEFORE_AGREEMENT_CREATED_NOOP\n            // | SuperAppDefinitions.AFTER_AGREEMENT_CREATED_NOOP\n            | SuperAppDefinitions.BEFORE_AGREEMENT_UPDATED_NOOP\n            | SuperAppDefinitions.AFTER_AGREEMENT_UPDATED_NOOP\n            | SuperAppDefinitions.BEFORE_AGREEMENT_TERMINATED_NOOP\n            | SuperAppDefinitions.AFTER_AGREEMENT_TERMINATED_NOOP\n            ;\n\n        _host.registerApp(configWord);\n    }\n\n    function afterAgreementCreated(\n        ISuperToken superToken,\n        address /*agreementClass*/,\n        bytes32 /*agreementId*/,\n        bytes calldata /*agreementData*/,\n        bytes calldata /*cbdata*/,\n        bytes calldata ctx\n    )\n        external override\n        returns(bytes memory newCtx)\n    {\n        newCtx = ctx;\n        ISuperfluid.Context memory context = _host.decodeCtx(ctx);\n        (,int96 flowRate,,) = _cfa.getFlow(superToken, context.msgSender, address(this));\n        (newCtx, ) = _host.callAgreementWithContext(\n            _cfa,\n            abi.encodeWithSelector(\n                _cfa.createFlow.selector,\n                _targetToken,\n                context.msgSender,\n                flowRate,\n                new bytes(0)\n            ),\n            new bytes(0), // user data\n            newCtx\n        );\n    }\n}\n",
  "sourcePath": "/home/runner/work/protocol-monorepo/protocol-monorepo/packages/ethereum-contracts/contracts/mocks/CFAAppMocks.sol",
  "compiler": {
    "name": "solc",
    "version": "0.7.6+commit.7338295f.Emscripten.clang"
  },
  "schemaVersion": "3.4.4",
  "updatedAt": "2022-02-01T14:35:44.426Z",
  "devdoc": {
    "details": "This is CFA SuperApp that maintains at most one inflw from a sender at any moment. This can test the deposit allowance logic in the deleteFlow as a recipient.",
    "kind": "dev",
    "methods": {},
    "version": 1
  },
  "userdoc": {
    "kind": "user",
    "methods": {},
    "version": 1
  }
}