{
  "contractName": "IOTNFT",
  "abi": [
    {
      "inputs": [
        {
          "internalType": "address",
          "name": "tokenAddress",
          "type": "address"
        }
      ],
      "stateMutability": "nonpayable",
      "type": "constructor"
    },
    {
      "anonymous": false,
      "inputs": [
        {
          "indexed": true,
          "internalType": "address",
          "name": "previousOwner",
          "type": "address"
        },
        {
          "indexed": true,
          "internalType": "address",
          "name": "newOwner",
          "type": "address"
        }
      ],
      "name": "OwnershipTransferred",
      "type": "event"
    },
    {
      "anonymous": false,
      "inputs": [
        {
          "indexed": true,
          "internalType": "string",
          "name": "paused",
          "type": "string"
        }
      ],
      "name": "Pause",
      "type": "event"
    },
    {
      "anonymous": false,
      "inputs": [
        {
          "indexed": true,
          "internalType": "string",
          "name": "unpaused",
          "type": "string"
        }
      ],
      "name": "Unpause",
      "type": "event"
    },
    {
      "anonymous": false,
      "inputs": [
        {
          "indexed": true,
          "internalType": "uint256",
          "name": "date",
          "type": "uint256"
        },
        {
          "indexed": true,
          "internalType": "uint256",
          "name": "amount",
          "type": "uint256"
        }
      ],
      "name": "adminFeeCollection",
      "type": "event"
    },
    {
      "anonymous": false,
      "inputs": [
        {
          "indexed": true,
          "internalType": "uint256",
          "name": "tokenId",
          "type": "uint256"
        }
      ],
      "name": "delegatedToken",
      "type": "event"
    },
    {
      "anonymous": false,
      "inputs": [
        {
          "indexed": true,
          "internalType": "address",
          "name": "owner",
          "type": "address"
        },
        {
          "indexed": true,
          "internalType": "uint256",
          "name": "tokenId",
          "type": "uint256"
        },
        {
          "indexed": true,
          "internalType": "uint256",
          "name": "tokenPrice",
          "type": "uint256"
        }
      ],
      "name": "newTokenMinted",
      "type": "event"
    },
    {
      "anonymous": false,
      "inputs": [
        {
          "indexed": true,
          "internalType": "uint256",
          "name": "tokenId",
          "type": "uint256"
        }
      ],
      "name": "revokedDelegatedToken",
      "type": "event"
    },
    {
      "anonymous": false,
      "inputs": [
        {
          "indexed": true,
          "internalType": "address",
          "name": "owner",
          "type": "address"
        },
        {
          "indexed": true,
          "internalType": "address",
          "name": "previousOwner",
          "type": "address"
        },
        {
          "indexed": false,
          "internalType": "uint256",
          "name": "cost",
          "type": "uint256"
        },
        {
          "indexed": false,
          "internalType": "uint256",
          "name": "tokenIndex",
          "type": "uint256"
        },
        {
          "indexed": false,
          "internalType": "uint256",
          "name": "contractCut",
          "type": "uint256"
        }
      ],
      "name": "transferTokenOwnerShip",
      "type": "event"
    },
    {
      "inputs": [],
      "name": "contractCut",
      "outputs": [
        {
          "internalType": "uint256",
          "name": "",
          "type": "uint256"
        }
      ],
      "stateMutability": "view",
      "type": "function",
      "constant": true
    },
    {
      "inputs": [],
      "name": "minMintCost",
      "outputs": [
        {
          "internalType": "uint256",
          "name": "",
          "type": "uint256"
        }
      ],
      "stateMutability": "view",
      "type": "function",
      "constant": true
    },
    {
      "inputs": [],
      "name": "owner",
      "outputs": [
        {
          "internalType": "address",
          "name": "",
          "type": "address"
        }
      ],
      "stateMutability": "view",
      "type": "function",
      "constant": true
    },
    {
      "inputs": [],
      "name": "pause",
      "outputs": [],
      "stateMutability": "nonpayable",
      "type": "function"
    },
    {
      "inputs": [],
      "name": "paused",
      "outputs": [
        {
          "internalType": "bool",
          "name": "",
          "type": "bool"
        }
      ],
      "stateMutability": "view",
      "type": "function",
      "constant": true
    },
    {
      "inputs": [],
      "name": "renounceOwnership",
      "outputs": [],
      "stateMutability": "nonpayable",
      "type": "function"
    },
    {
      "inputs": [],
      "name": "transactionFees",
      "outputs": [
        {
          "internalType": "uint256",
          "name": "",
          "type": "uint256"
        }
      ],
      "stateMutability": "view",
      "type": "function",
      "constant": true
    },
    {
      "inputs": [
        {
          "internalType": "address",
          "name": "newOwner",
          "type": "address"
        }
      ],
      "name": "transferOwnership",
      "outputs": [],
      "stateMutability": "nonpayable",
      "type": "function"
    },
    {
      "inputs": [],
      "name": "unpause",
      "outputs": [],
      "stateMutability": "nonpayable",
      "type": "function"
    },
    {
      "inputs": [],
      "name": "withdrawFees",
      "outputs": [],
      "stateMutability": "payable",
      "type": "function",
      "payable": true
    },
    {
      "inputs": [
        {
          "internalType": "string",
          "name": "tokenURI",
          "type": "string"
        },
        {
          "internalType": "uint256",
          "name": "tokenPrice",
          "type": "uint256"
        },
        {
          "internalType": "bool",
          "name": "delegate",
          "type": "bool"
        }
      ],
      "name": "mintToken",
      "outputs": [],
      "stateMutability": "nonpayable",
      "type": "function"
    },
    {
      "inputs": [
        {
          "internalType": "uint256",
          "name": "tokenId",
          "type": "uint256"
        }
      ],
      "name": "buyToken",
      "outputs": [],
      "stateMutability": "payable",
      "type": "function",
      "payable": true
    },
    {
      "inputs": [
        {
          "internalType": "uint256",
          "name": "tokenId",
          "type": "uint256"
        }
      ],
      "name": "revokeDelegatedNFT",
      "outputs": [],
      "stateMutability": "nonpayable",
      "type": "function"
    },
    {
      "inputs": [
        {
          "internalType": "uint256",
          "name": "tokenId",
          "type": "uint256"
        }
      ],
      "name": "delegateNFT",
      "outputs": [],
      "stateMutability": "nonpayable",
      "type": "function"
    },
    {
      "inputs": [
        {
          "internalType": "address",
          "name": "id",
          "type": "address"
        }
      ],
      "name": "getMinterDetails",
      "outputs": [
        {
          "internalType": "uint256",
          "name": "",
          "type": "uint256"
        },
        {
          "internalType": "bool",
          "name": "",
          "type": "bool"
        }
      ],
      "stateMutability": "view",
      "type": "function",
      "constant": true
    },
    {
      "inputs": [],
      "name": "getMinterKeys",
      "outputs": [
        {
          "internalType": "address[]",
          "name": "",
          "type": "address[]"
        }
      ],
      "stateMutability": "view",
      "type": "function",
      "constant": true
    },
    {
      "inputs": [],
      "name": "getTokenIndexes",
      "outputs": [
        {
          "internalType": "uint256[]",
          "name": "",
          "type": "uint256[]"
        }
      ],
      "stateMutability": "view",
      "type": "function",
      "constant": true
    },
    {
      "inputs": [
        {
          "internalType": "uint256",
          "name": "tokenId",
          "type": "uint256"
        }
      ],
      "name": "getTokenDetails",
      "outputs": [
        {
          "internalType": "address",
          "name": "",
          "type": "address"
        },
        {
          "internalType": "uint256",
          "name": "",
          "type": "uint256"
        },
        {
          "internalType": "uint256",
          "name": "",
          "type": "uint256"
        },
        {
          "internalType": "bool",
          "name": "",
          "type": "bool"
        },
        {
          "internalType": "bool",
          "name": "",
          "type": "bool"
        }
      ],
      "stateMutability": "nonpayable",
      "type": "function"
    },
    {
      "inputs": [
        {
          "internalType": "uint256",
          "name": "tokenId",
          "type": "uint256"
        }
      ],
      "name": "burnToken",
      "outputs": [],
      "stateMutability": "nonpayable",
      "type": "function"
    }
  ],
  "bytecode": "0x60806040526000603560006101000a81548160ff0219169083151502179055506000603655662386f26fc10000603755610dac6038553480156200004257600080fd5b506040516200396138038062003961833981810160405260208110156200006857600080fd5b810190808051906020019092919050505060006200008b6200040e60201b60201c565b905080603360006101000a81548173ffffffffffffffffffffffffffffffffffffffff021916908373ffffffffffffffffffffffffffffffffffffffff1602179055508073ffffffffffffffffffffffffffffffffffffffff16600073ffffffffffffffffffffffffffffffffffffffff167f8be0079c531659141344cd1fd0a4f28419497f9722a3daafe3b4186f6b6457e060405160405180910390a3506001603481905550600060019054906101000a900460ff16806200015a5750620001596200041660201b60201c565b5b806200017257506000809054906101000a900460ff16155b620001c9576040517f08c379a000000000000000000000000000000000000000000000000000000000815260040180806020018281038252602e81526020018062003933602e913960400191505060405180910390fd5b60008060019054906101000a900460ff1615905080156200021a576001600060016101000a81548160ff02191690831515021790555060016000806101000a81548160ff0219169083151502179055505b600073ffffffffffffffffffffffffffffffffffffffff168273ffffffffffffffffffffffffffffffffffffffff161415620002be576040517f08c379a00000000000000000000000000000000000000000000000000000000081526004018080602001828103825260158152602001807f496e76616c696420746f6b656e2061646472657373000000000000000000000081525060200191505060405180910390fd5b600073ffffffffffffffffffffffffffffffffffffffff163373ffffffffffffffffffffffffffffffffffffffff16141562000362576040517f08c379a00000000000000000000000000000000000000000000000000000000081526004018080602001828103825260168152602001807f496e76616c69642073656e64657220616464726573730000000000000000000081525060200191505060405180910390fd5b81603a60006101000a81548173ffffffffffffffffffffffffffffffffffffffff021916908373ffffffffffffffffffffffffffffffffffffffff16021790555033603960006101000a81548173ffffffffffffffffffffffffffffffffffffffff021916908373ffffffffffffffffffffffffffffffffffffffff1602179055508015620004065760008060016101000a81548160ff0219169083151502179055505b50506200042d565b600033905090565b6000803090506000813b9050600081149250505090565b6134f6806200043d6000396000f3fe6080604052600436106101145760003560e01c8063715018a6116100a0578063b37be8e411610064578063b37be8e4146104a2578063c1e03728146104cd578063c92bcffd1461056c578063f2fde38b146105d8578063fffdbde31461062957610114565b8063715018a6146103725780637b47ec1a146103895780638456cb59146103c45780638da5cb5b146103db578063b0d3685a1461043257610114565b80633f4ba83a116100e75780633f4ba83a1461027b57806345905e4614610292578063476343ee146102cd57806349051275146102d75780635c975abb1461034357610114565b806316511c83146101195780631d2054d8146101445780632d296bf11461016f578063318261fd1461019d575b600080fd5b34801561012557600080fd5b5061012e610664565b6040518082815260200191505060405180910390f35b34801561015057600080fd5b5061015961066a565b6040518082815260200191505060405180910390f35b61019b6004803603602081101561018557600080fd5b8101908080359060200190929190505050610670565b005b3480156101a957600080fd5b50610279600480360360608110156101c057600080fd5b81019080803590602001906401000000008111156101dd57600080fd5b8201836020820111156101ef57600080fd5b8035906020019184600183028401116401000000008311171561021157600080fd5b91908080601f016020809104026020016040519081016040528093929190818152602001838380828437600081840152601f19601f8201169050808301925050505050505091929192908035906020019092919080351515906020019092919050505061115c565b005b34801561028757600080fd5b506102906119fb565b005b34801561029e57600080fd5b506102cb600480360360208110156102b557600080fd5b8101908080359060200190929190505050611bab565b005b6102d56120d1565b005b3480156102e357600080fd5b506102ec61238a565b6040518080602001828103825283818151815260200191508051906020019060200280838360005b8381101561032f578082015181840152602081019050610314565b505050509050019250505060405180910390f35b34801561034f57600080fd5b50610358612418565b604051808215151515815260200191505060405180910390f35b34801561037e57600080fd5b5061038761242b565b005b34801561039557600080fd5b506103c2600480360360208110156103ac57600080fd5b810190808035906020019092919050505061259b565b005b3480156103d057600080fd5b506103d96126d2565b005b3480156103e757600080fd5b506103f0612883565b604051808273ffffffffffffffffffffffffffffffffffffffff1673ffffffffffffffffffffffffffffffffffffffff16815260200191505060405180910390f35b34801561043e57600080fd5b506104816004803603602081101561045557600080fd5b81019080803573ffffffffffffffffffffffffffffffffffffffff1690602001909291905050506128ad565b60405180838152602001821515151581526020019250505060405180910390f35b3480156104ae57600080fd5b506104b761294c565b6040518082815260200191505060405180910390f35b3480156104d957600080fd5b50610506600480360360208110156104f057600080fd5b8101908080359060200190929190505050612952565b604051808673ffffffffffffffffffffffffffffffffffffffff1673ffffffffffffffffffffffffffffffffffffffff16815260200185815260200184815260200183151515158152602001821515151581526020019550505050505060405180910390f35b34801561057857600080fd5b50610581612a1d565b6040518080602001828103825283818151815260200191508051906020019060200280838360005b838110156105c45780820151818401526020810190506105a9565b505050509050019250505060405180910390f35b3480156105e457600080fd5b50610627600480360360208110156105fb57600080fd5b81019080803573ffffffffffffffffffffffffffffffffffffffff169060200190929190505050612a75565b005b34801561063557600080fd5b506106626004803603602081101561064c57600080fd5b8101908080359060200190929190505050612c6a565b005b60375481565b60385481565b600260345414156106e9576040517f08c379a000000000000000000000000000000000000000000000000000000000815260040180806020018281038252601f8152602001807f5265656e7472616e637947756172643a207265656e7472616e742063616c6c0081525060200191505060405180910390fd5b6002603481905550603560009054906101000a900460ff1615610774576040517f08c379a000000000000000000000000000000000000000000000000000000000815260040180806020018281038252600f8152602001807f436f6e747261637420706175736564000000000000000000000000000000000081525060200191505060405180910390fd5b603d600082815260200190815260200160002060010160149054906101000a900460ff1661080a576040517f08c379a00000000000000000000000000000000000000000000000000000000081526004018080602001828103825260138152602001807f546f6b656e206e6f742064656c6567617465640000000000000000000000000081525060200191505060405180910390fd5b600073ffffffffffffffffffffffffffffffffffffffff163373ffffffffffffffffffffffffffffffffffffffff1614156108ad576040517f08c379a000000000000000000000000000000000000000000000000000000000815260040180806020018281038252600e8152602001807f496e76616c69642073656e64657200000000000000000000000000000000000081525060200191505060405180910390fd5b603a60009054906101000a900473ffffffffffffffffffffffffffffffffffffffff1673ffffffffffffffffffffffffffffffffffffffff1662923f9e826040518263ffffffff1660e01b81526004018082815260200191505060206040518083038186803b15801561091f57600080fd5b505afa158015610933573d6000803e3d6000fd5b505050506040513d602081101561094957600080fd5b810190808051906020019092919050505080156109865750603d600082815260200190815260200160002060040160009054906101000a900460ff165b6109db576040517f08c379a000000000000000000000000000000000000000000000000000000000815260040180806020018281038252602281526020018061347e6022913960400191505060405180910390fd5b603d600082815260200190815260200160002060010160009054906101000a900473ffffffffffffffffffffffffffffffffffffffff1673ffffffffffffffffffffffffffffffffffffffff163373ffffffffffffffffffffffffffffffffffffffff1614158015610b2657503373ffffffffffffffffffffffffffffffffffffffff16603a60009054906101000a900473ffffffffffffffffffffffffffffffffffffffff1673ffffffffffffffffffffffffffffffffffffffff16636352211e836040518263ffffffff1660e01b81526004018082815260200191505060206040518083038186803b158015610ad257600080fd5b505afa158015610ae6573d6000803e3d6000fd5b505050506040513d6020811015610afc57600080fd5b810190808051906020019092919050505073ffffffffffffffffffffffffffffffffffffffff1614155b610b98576040517f08c379a00000000000000000000000000000000000000000000000000000000081526004018080602001828103825260208152602001807f4f776e6572206e6f7420616c6c6f77656420746f20627579206f776e206e667481525060200191505060405180910390fd5b603d6000828152602001908152602001600020600201543411610c23576040517f08c379a00000000000000000000000000000000000000000000000000000000081526004018080602001828103825260148152602001807f496e76616c696420627579696e6720707269636500000000000000000000000081525060200191505060405180910390fd5b603d600082815260200190815260200160002060010160149054906101000a900460ff16610cb9576040517f08c379a00000000000000000000000000000000000000000000000000000000081526004018080602001828103825260138152602001807f746f6b656e206e6f742064656c6567617465640000000000000000000000000081525060200191505060405180910390fd5b60003490506000610cf1610cec603d6000868152602001908152602001600020600201543461309c90919063ffffffff16565b6130e6565b9050610d088160365461313690919063ffffffff16565b6036819055506000610d23823461309c90919063ffffffff16565b9050603d600085815260200190815260200160002060010160009054906101000a900473ffffffffffffffffffffffffffffffffffffffff1673ffffffffffffffffffffffffffffffffffffffff166108fc829081150290604051600060405180830381858888f19350505050610e02576040517f08c379a00000000000000000000000000000000000000000000000000000000081526004018080602001828103825260128152602001807f496e73756666696369656e742066756e6473000000000000000000000000000081525060200191505060405180910390fd5b82603d600086815260200190815260200160002060020181905550610ea881603e6000603d600089815260200190815260200160002060010160009054906101000a900473ffffffffffffffffffffffffffffffffffffffff1673ffffffffffffffffffffffffffffffffffffffff1673ffffffffffffffffffffffffffffffffffffffff1681526020019081526020016000206001015461313690919063ffffffff16565b603e6000603d600088815260200190815260200160002060010160009054906101000a900473ffffffffffffffffffffffffffffffffffffffff1673ffffffffffffffffffffffffffffffffffffffff1673ffffffffffffffffffffffffffffffffffffffff168152602001908152602001600020600101819055506000603d600086815260200190815260200160002060010160009054906101000a900473ffffffffffffffffffffffffffffffffffffffff16905033603d600087815260200190815260200160002060010160006101000a81548173ffffffffffffffffffffffffffffffffffffffff021916908373ffffffffffffffffffffffffffffffffffffffff1602179055506000603d600087815260200190815260200160002060010160146101000a81548160ff021916908315150217905550603a60009054906101000a900473ffffffffffffffffffffffffffffffffffffffff1673ffffffffffffffffffffffffffffffffffffffff166323b872dd3033886040518463ffffffff1660e01b8152600401808473ffffffffffffffffffffffffffffffffffffffff1673ffffffffffffffffffffffffffffffffffffffff1681526020018373ffffffffffffffffffffffffffffffffffffffff1673ffffffffffffffffffffffffffffffffffffffff1681526020018281526020019350505050600060405180830381600087803b1580156110c057600080fd5b505af11580156110d4573d6000803e3d6000fd5b505050508073ffffffffffffffffffffffffffffffffffffffff163373ffffffffffffffffffffffffffffffffffffffff167f5af7a5b9fdf33798dd0cd51e78c9800e9aa1ff697bafa752e4575a793f74861334888760405180848152602001838152602001828152602001935050505060405180910390a350505050600160348190555050565b603560009054906101000a900460ff16156111df576040517f08c379a000000000000000000000000000000000000000000000000000000000815260040180806020018281038252600f8152602001807f436f6e747261637420706175736564000000000000000000000000000000000081525060200191505060405180910390fd5b600073ffffffffffffffffffffffffffffffffffffffff163373ffffffffffffffffffffffffffffffffffffffff161415611282576040517f08c379a000000000000000000000000000000000000000000000000000000000815260040180806020018281038252600e8152602001807f496e76616c69642073656e64657200000000000000000000000000000000000081525060200191505060405180910390fd5b600082116112f8576040517f08c379a00000000000000000000000000000000000000000000000000000000081526004018080602001828103825260138152602001807f496e76616c696420746f6b656e2070726963650000000000000000000000000081525060200191505060405180910390fd5b603e60003373ffffffffffffffffffffffffffffffffffffffff1673ffffffffffffffffffffffffffffffffffffffff16815260200190815260200160002060020160009054906101000a900460ff166114d45733603e60003373ffffffffffffffffffffffffffffffffffffffff1673ffffffffffffffffffffffffffffffffffffffff16815260200190815260200160002060000160006101000a81548173ffffffffffffffffffffffffffffffffffffffff021916908373ffffffffffffffffffffffffffffffffffffffff1602179055506000603e60003373ffffffffffffffffffffffffffffffffffffffff1673ffffffffffffffffffffffffffffffffffffffff168152602001908152602001600020600101819055506001603e60003373ffffffffffffffffffffffffffffffffffffffff1673ffffffffffffffffffffffffffffffffffffffff16815260200190815260200160002060020160006101000a81548160ff021916908315150217905550603b339080600181540180825580915050600190039060005260206000200160009091909190916101000a81548173ffffffffffffffffffffffffffffffffffffffff021916908373ffffffffffffffffffffffffffffffffffffffff1602179055505b6000811561162c57603a60009054906101000a900473ffffffffffffffffffffffffffffffffffffffff1673ffffffffffffffffffffffffffffffffffffffff16633d02d0c930866040518363ffffffff1660e01b8152600401808373ffffffffffffffffffffffffffffffffffffffff1673ffffffffffffffffffffffffffffffffffffffff16815260200180602001828103825283818151815260200191508051906020019080838360005b8381101561159d578082015181840152602081019050611582565b50505050905090810190601f1680156115ca5780820380516001836020036101000a031916815260200191505b509350505050602060405180830381600087803b1580156115ea57600080fd5b505af11580156115fe573d6000803e3d6000fd5b505050506040513d602081101561161457600080fd5b81019080805190602001909291905050509050611778565b603a60009054906101000a900473ffffffffffffffffffffffffffffffffffffffff1673ffffffffffffffffffffffffffffffffffffffff16633d02d0c933866040518363ffffffff1660e01b8152600401808373ffffffffffffffffffffffffffffffffffffffff1673ffffffffffffffffffffffffffffffffffffffff16815260200180602001828103825283818151815260200191508051906020019080838360005b838110156116ed5780820151818401526020810190506116d2565b50505050905090810190601f16801561171a5780820380516001836020036101000a031916815260200191505b509350505050602060405180830381600087803b15801561173a57600080fd5b505af115801561174e573d6000803e3d6000fd5b505050506040513d602081101561176457600080fd5b810190808051906020019092919050505090505b603a60009054906101000a900473ffffffffffffffffffffffffffffffffffffffff1673ffffffffffffffffffffffffffffffffffffffff1662923f9e826040518263ffffffff1660e01b81526004018082815260200191505060206040518083038186803b1580156117ea57600080fd5b505afa1580156117fe573d6000803e3d6000fd5b505050506040513d602081101561181457600080fd5b8101908080519060200190929190505050611897576040517f08c379a00000000000000000000000000000000000000000000000000000000081526004018080602001828103825260108152602001807f546f6b656e206e6f74206d696e7465640000000000000000000000000000000081525060200191505060405180910390fd5b81603d600083815260200190815260200160002060010160146101000a81548160ff02191690831515021790555080603d60008381526020019081526020016000206000018190555082603d60008381526020019081526020016000206003018190555082603d6000838152602001908152602001600020600201819055506001603d600083815260200190815260200160002060040160006101000a81548160ff02191690831515021790555033603d600083815260200190815260200160002060010160006101000a81548173ffffffffffffffffffffffffffffffffffffffff021916908373ffffffffffffffffffffffffffffffffffffffff160217905550603d600082815260200190815260200160002060020154813373ffffffffffffffffffffffffffffffffffffffff167f07d40241f4975376edfb3697b835d9e59d7d197e7f64af48f283f0a6a8e6634b60405160405180910390a450505050565b611a036131be565b73ffffffffffffffffffffffffffffffffffffffff16611a21612883565b73ffffffffffffffffffffffffffffffffffffffff1614611aaa576040517f08c379a00000000000000000000000000000000000000000000000000000000081526004018080602001828103825260208152602001807f4f776e61626c653a2063616c6c6572206973206e6f7420746865206f776e657281525060200191505060405180910390fd5b603560009054906101000a900460ff16611b2c576040517f08c379a00000000000000000000000000000000000000000000000000000000081526004018080602001828103825260138152602001807f436f6e7472616374206e6f74207061757365640000000000000000000000000081525060200191505060405180910390fd5b6000603560006101000a81548160ff02191690831515021790555060405180807f436f6e747261637420756e706175736564000000000000000000000000000000815250601101905060405180910390207fab8f771d320c36af1f739e78861e82b4a21f97b123153ce1657e6904c8645da160405160405180910390a2565b600073ffffffffffffffffffffffffffffffffffffffff163373ffffffffffffffffffffffffffffffffffffffff161415611c4e576040517f08c379a00000000000000000000000000000000000000000000000000000000081526004018080602001828103825260168152602001807f496e76616c69642073656e64657220616464726573730000000000000000000081525060200191505060405180910390fd5b603d600082815260200190815260200160002060040160009054906101000a900460ff168015611d275750603a60009054906101000a900473ffffffffffffffffffffffffffffffffffffffff1673ffffffffffffffffffffffffffffffffffffffff1662923f9e826040518263ffffffff1660e01b81526004018082815260200191505060206040518083038186803b158015611ceb57600080fd5b505afa158015611cff573d6000803e3d6000fd5b505050506040513d6020811015611d1557600080fd5b81019080805190602001909291905050505b611d99576040517f08c379a000000000000000000000000000000000000000000000000000000000815260040180806020018281038252601a8152602001807f546f6b656e206e6f74206c6973746564206f722065786973747300000000000081525060200191505060405180910390fd5b3073ffffffffffffffffffffffffffffffffffffffff16603a60009054906101000a900473ffffffffffffffffffffffffffffffffffffffff1673ffffffffffffffffffffffffffffffffffffffff16636352211e836040518263ffffffff1660e01b81526004018082815260200191505060206040518083038186803b158015611e2357600080fd5b505afa158015611e37573d6000803e3d6000fd5b505050506040513d6020811015611e4d57600080fd5b810190808051906020019092919050505073ffffffffffffffffffffffffffffffffffffffff1614611ee7576040517f08c379a00000000000000000000000000000000000000000000000000000000081526004018080602001828103825260128152602001807f436f6e7472616374204e6f74204f776e6572000000000000000000000000000081525060200191505060405180910390fd5b603d600082815260200190815260200160002060010160149054906101000a900460ff16611f7d576040517f08c379a00000000000000000000000000000000000000000000000000000000081526004018080602001828103825260138152602001807f546f6b656e206e6f742064656c6567617465640000000000000000000000000081525060200191505060405180910390fd5b603a60009054906101000a900473ffffffffffffffffffffffffffffffffffffffff1673ffffffffffffffffffffffffffffffffffffffff166323b872dd3033846040518463ffffffff1660e01b8152600401808473ffffffffffffffffffffffffffffffffffffffff1673ffffffffffffffffffffffffffffffffffffffff1681526020018373ffffffffffffffffffffffffffffffffffffffff1673ffffffffffffffffffffffffffffffffffffffff1681526020018281526020019350505050600060405180830381600087803b15801561205a57600080fd5b505af115801561206e573d6000803e3d6000fd5b505050506000603d600083815260200190815260200160002060010160146101000a81548160ff021916908315150217905550807f601d085d499ab83ceb83cdcc5fbbc55388e2bce0fb39251e04cd82c6c5b0016860405160405180910390a250565b6120d96131be565b73ffffffffffffffffffffffffffffffffffffffff166120f7612883565b73ffffffffffffffffffffffffffffffffffffffff1614612180576040517f08c379a00000000000000000000000000000000000000000000000000000000081526004018080602001828103825260208152602001807f4f776e61626c653a2063616c6c6572206973206e6f7420746865206f776e657281525060200191505060405180910390fd5b600260345414156121f9576040517f08c379a000000000000000000000000000000000000000000000000000000000815260040180806020018281038252601f8152602001807f5265656e7472616e637947756172643a207265656e7472616e742063616c6c0081525060200191505060405180910390fd5b6002603481905550600060365411612279576040517f08c379a00000000000000000000000000000000000000000000000000000000081526004018080602001828103825260138152602001807f4e6f7468696e6720746f2077697468647261770000000000000000000000000081525060200191505060405180910390fd5b600060365490506000603681905550603960009054906101000a900473ffffffffffffffffffffffffffffffffffffffff1673ffffffffffffffffffffffffffffffffffffffff166108fc829081150290604051600060405180830381858888f19350505050612351576040517f08c379a00000000000000000000000000000000000000000000000000000000081526004018080602001828103825260128152602001807f496e73756666696369656e742066756e6473000000000000000000000000000081525060200191505060405180910390fd5b80427f600ded888969719a7badde4c4148aa1e044448fa493a26ac50149d0f17b5a41860405160405180910390a3506001603481905550565b6060603b80548060200260200160405190810160405280929190818152602001828054801561240e57602002820191906000526020600020905b8160009054906101000a900473ffffffffffffffffffffffffffffffffffffffff1673ffffffffffffffffffffffffffffffffffffffff16815260200190600101908083116123c4575b5050505050905090565b603560009054906101000a900460ff1681565b6124336131be565b73ffffffffffffffffffffffffffffffffffffffff16612451612883565b73ffffffffffffffffffffffffffffffffffffffff16146124da576040517f08c379a00000000000000000000000000000000000000000000000000000000081526004018080602001828103825260208152602001807f4f776e61626c653a2063616c6c6572206973206e6f7420746865206f776e657281525060200191505060405180910390fd5b600073ffffffffffffffffffffffffffffffffffffffff16603360009054906101000a900473ffffffffffffffffffffffffffffffffffffffff1673ffffffffffffffffffffffffffffffffffffffff167f8be0079c531659141344cd1fd0a4f28419497f9722a3daafe3b4186f6b6457e060405160405180910390a36000603360006101000a81548173ffffffffffffffffffffffffffffffffffffffff021916908373ffffffffffffffffffffffffffffffffffffffff160217905550565b603560009054906101000a900460ff161561261e576040517f08c379a000000000000000000000000000000000000000000000000000000000815260040180806020018281038252600f8152602001807f436f6e747261637420706175736564000000000000000000000000000000000081525060200191505060405180910390fd5b603a60009054906101000a900473ffffffffffffffffffffffffffffffffffffffff1673ffffffffffffffffffffffffffffffffffffffff16637b47ec1a826040518263ffffffff1660e01b815260040180828152602001915050602060405180830381600087803b15801561269357600080fd5b505af11580156126a7573d6000803e3d6000fd5b505050506040513d60208110156126bd57600080fd5b81019080805190602001909291905050505050565b6126da6131be565b73ffffffffffffffffffffffffffffffffffffffff166126f8612883565b73ffffffffffffffffffffffffffffffffffffffff1614612781576040517f08c379a00000000000000000000000000000000000000000000000000000000081526004018080602001828103825260208152602001807f4f776e61626c653a2063616c6c6572206973206e6f7420746865206f776e657281525060200191505060405180910390fd5b603560009054906101000a900460ff1615612804576040517f08c379a000000000000000000000000000000000000000000000000000000000815260040180806020018281038252600f8152602001807f436f6e747261637420706175736564000000000000000000000000000000000081525060200191505060405180910390fd5b6001603560006101000a81548160ff02191690831515021790555060405180807f436f6e7472616374207061757365640000000000000000000000000000000000815250600f01905060405180910390207f46f81aedb227deef794d5c737014a5414db3c678220a521b747734688cc6a9fe60405160405180910390a2565b6000603360009054906101000a900473ffffffffffffffffffffffffffffffffffffffff16905090565b600080603e60008473ffffffffffffffffffffffffffffffffffffffff1673ffffffffffffffffffffffffffffffffffffffff16815260200190815260200160002060010154603e60008573ffffffffffffffffffffffffffffffffffffffff1673ffffffffffffffffffffffffffffffffffffffff16815260200190815260200160002060020160009054906101000a900460ff1691509150915091565b60365481565b6000806000806000603d600087815260200190815260200160002060010160009054906101000a900473ffffffffffffffffffffffffffffffffffffffff16603d600088815260200190815260200160002060020154603d600089815260200190815260200160002060030154603d60008a815260200190815260200160002060040160009054906101000a900460ff16603d60008b815260200190815260200160002060010160149054906101000a900460ff168494509450945094509450945091939590929450565b6060603c805480602002602001604051908101604052809291908181526020018280548015612a6b57602002820191906000526020600020905b815481526020019060010190808311612a57575b5050505050905090565b612a7d6131be565b73ffffffffffffffffffffffffffffffffffffffff16612a9b612883565b73ffffffffffffffffffffffffffffffffffffffff1614612b24576040517f08c379a00000000000000000000000000000000000000000000000000000000081526004018080602001828103825260208152602001807f4f776e61626c653a2063616c6c6572206973206e6f7420746865206f776e657281525060200191505060405180910390fd5b600073ffffffffffffffffffffffffffffffffffffffff168173ffffffffffffffffffffffffffffffffffffffff161415612baa576040517f08c379a00000000000000000000000000000000000000000000000000000000081526004018080602001828103825260268152602001806134586026913960400191505060405180910390fd5b8073ffffffffffffffffffffffffffffffffffffffff16603360009054906101000a900473ffffffffffffffffffffffffffffffffffffffff1673ffffffffffffffffffffffffffffffffffffffff167f8be0079c531659141344cd1fd0a4f28419497f9722a3daafe3b4186f6b6457e060405160405180910390a380603360006101000a81548173ffffffffffffffffffffffffffffffffffffffff021916908373ffffffffffffffffffffffffffffffffffffffff16021790555050565b600073ffffffffffffffffffffffffffffffffffffffff163373ffffffffffffffffffffffffffffffffffffffff161415612d0d576040517f08c379a00000000000000000000000000000000000000000000000000000000081526004018080602001828103825260168152602001807f496e76616c69642073656e64657220616464726573730000000000000000000081525060200191505060405180910390fd5b603d600082815260200190815260200160002060040160009054906101000a900460ff168015612de65750603a60009054906101000a900473ffffffffffffffffffffffffffffffffffffffff1673ffffffffffffffffffffffffffffffffffffffff1662923f9e826040518263ffffffff1660e01b81526004018082815260200191505060206040518083038186803b158015612daa57600080fd5b505afa158015612dbe573d6000803e3d6000fd5b505050506040513d6020811015612dd457600080fd5b81019080805190602001909291905050505b612e58576040517f08c379a000000000000000000000000000000000000000000000000000000000815260040180806020018281038252601a8152602001807f546f6b656e206e6f74206c6973746564206f722065786973747300000000000081525060200191505060405180910390fd5b3073ffffffffffffffffffffffffffffffffffffffff16603a60009054906101000a900473ffffffffffffffffffffffffffffffffffffffff1673ffffffffffffffffffffffffffffffffffffffff16636352211e836040518263ffffffff1660e01b81526004018082815260200191505060206040518083038186803b158015612ee257600080fd5b505afa158015612ef6573d6000803e3d6000fd5b505050506040513d6020811015612f0c57600080fd5b810190808051906020019092919050505073ffffffffffffffffffffffffffffffffffffffff1614612fa6576040517f08c379a00000000000000000000000000000000000000000000000000000000081526004018080602001828103825260128152602001807f436f6e7472616374204e6f74204f776e6572000000000000000000000000000081525060200191505060405180910390fd5b603d600082815260200190815260200160002060010160149054906101000a900460ff161561303d576040517f08c379a00000000000000000000000000000000000000000000000000000000081526004018080602001828103825260178152602001807f546f6b656e20616c72656164792064656c65676174656400000000000000000081525060200191505060405180910390fd5b6001603d600083815260200190815260200160002060010160146101000a81548160ff021916908315150217905550807f7fa7aabd45478c691127451d52f0b0efdb1fcf170de533aaa3e6c99e093db8e060405160405180910390a250565b60006130de83836040518060400160405280601e81526020017f536166654d6174683a207375627472616374696f6e206f766572666c6f7700008152506131c6565b905092915050565b6000806130fd60648461328690919063ffffffff16565b9050600061312a61271061311c603854856132c190919063ffffffff16565b61334790919063ffffffff16565b90508092505050919050565b6000808284019050838110156131b4576040517f08c379a000000000000000000000000000000000000000000000000000000000815260040180806020018281038252601b8152602001807f536166654d6174683a206164646974696f6e206f766572666c6f77000000000081525060200191505060405180910390fd5b8091505092915050565b600033905090565b6000838311158290613273576040517f08c379a00000000000000000000000000000000000000000000000000000000081526004018080602001828103825283818151815260200191508051906020019080838360005b8381101561323857808201518184015260208101905061321d565b50505050905090810190601f1680156132655780820380516001836020036101000a031916815260200191505b509250505060405180910390fd5b5060008385039050809150509392505050565b6000806132938484613136565b905060006132a282600161309c565b90506132b76132b18286613347565b856132c1565b9250505092915050565b6000808314156132d45760009050613341565b60008284029050828482816132e557fe5b041461333c576040517f08c379a00000000000000000000000000000000000000000000000000000000081526004018080602001828103825260218152602001806134a06021913960400191505060405180910390fd5b809150505b92915050565b600061338983836040518060400160405280601a81526020017f536166654d6174683a206469766973696f6e206279207a65726f000000000000815250613391565b905092915050565b6000808311829061343d576040517f08c379a00000000000000000000000000000000000000000000000000000000081526004018080602001828103825283818151815260200191508051906020019080838360005b838110156134025780820151818401526020810190506133e7565b50505050905090810190601f16801561342f5780820380516001836020036101000a031916815260200191505b509250505060405180910390fd5b50600083858161344957fe5b04905080915050939250505056fe4f776e61626c653a206e6577206f776e657220697320746865207a65726f2061646472657373546f6b656e206e6f74206d696e74656420796574206f72206e6f7420616374697665536166654d6174683a206d756c7469706c69636174696f6e206f766572666c6f77a2646970667358221220af204af431d428f7a4544062eb366b4ed95d3d7c61898df5956ed838e00b65f464736f6c63430006020033436f6e747261637420696e7374616e63652068617320616c7265616479206265656e20696e697469616c697a6564",
  "source": "pragma solidity >=0.6.2;\nimport \"@openzeppelin/upgrades/contracts/Initializable.sol\";\nimport \"./interfaces/IOTNFTInterface.sol\";\nimport \"./TokenContract.sol\";\nimport \"./SafeMathV2.sol\";\nimport \"@openzeppelin/contracts/access/Ownable.sol\";\nimport \"./ReentrancyGuard.sol\";\n\nimport \"./Pausable.sol\";\n\n//\"SPDX-License-Identifier: UNLICENSED\"\n\n/**\n*@dev contract represents the functionality required by OneCanvas \n*@notice mostly likey not optimised for gas will fix as i develop\n*@notice implements the IOneCanvas interface \n\n */\ncontract IOTNFT is\n    IOTNFTInterface,\n    Initializable,\n    Ownable,\n    ReentrancyGuard,\n    Pausable\n{\n    using SafeMathV2 for uint256;\n\n    /*==========================================================Modifier definition start==========================================================*/\n\n    /*==========================================================Event definition start==========================================================*/\n    /*==========================================================Variable definition start==========================================================*/\n    uint256 public transactionFees = 0;\n    uint256 public minMintCost = 0.01 ether;\n    uint256 public contractCut = 3500;\n    address payable contractOwner;\n    TokenContract ionft;\n    address[] mintersIds;\n    uint256[] tokenIndexes;\n    mapping(uint256 => IOTNFT) currentIONFTs;\n    mapping(address => Minter) minters;\n\n    /*==========================================================Function definition start==========================================================*/\n    constructor(address tokenAddress) public initializer {\n        require(tokenAddress != address(0), \"Invalid token address\");\n        require(msg.sender != address(0), \"Invalid sender address\");\n        ionft = TokenContract(tokenAddress);\n        contractOwner = msg.sender;\n    }\n\n    function withdrawFees() public payable override onlyOwner nonReentrant {\n        require(transactionFees > 0, \"Nothing to withdraw\");\n        uint256 fees = transactionFees;\n        transactionFees = 0;\n        require(contractOwner.send(fees), \"Insufficient funds\");\n        emit adminFeeCollection(block.timestamp, fees);\n    }\n\n    function mintToken(\n        string memory tokenURI,\n        uint256 tokenPrice,\n        bool delegate\n    ) public override whenNotPaused {\n        require(msg.sender != address(0), \"Invalid sender\");\n        require(tokenPrice > 0, \"Invalid token price\");\n        if (!minters[msg.sender].active) {\n            minters[msg.sender].id = msg.sender;\n            minters[msg.sender].totalStaked = 0;\n            minters[msg.sender].active = true;\n            mintersIds.push(msg.sender);\n        }\n        uint256 tokenId;\n        if (delegate) {\n            tokenId = ionft.mintToken(address(this), tokenURI);\n        } else {\n            tokenId = ionft.mintToken(msg.sender, tokenURI);\n        }\n        require(ionft.tokenExists(tokenId), \"Token not minted\");\n        currentIONFTs[tokenId].delegated = delegate;\n        currentIONFTs[tokenId].tokenId = tokenId;\n        currentIONFTs[tokenId].originalPrice = tokenPrice;\n        currentIONFTs[tokenId].price = tokenPrice;\n        currentIONFTs[tokenId].exists = true;\n        currentIONFTs[tokenId].owner = msg.sender;\n        emit newTokenMinted(msg.sender, tokenId, currentIONFTs[tokenId].price);\n    }\n\n    function buyToken(uint256 tokenId)\n        public\n        payable\n        override\n        nonReentrant\n        whenNotPaused\n    {\n        require(currentIONFTs[tokenId].delegated, \"Token not delegated\");\n        require(msg.sender != address(0), \"Invalid sender\");\n        require(\n            ionft.tokenExists(tokenId) && currentIONFTs[tokenId].exists,\n            \"Token not minted yet or not active\"\n        );\n        require(\n            msg.sender != currentIONFTs[tokenId].owner &&\n                ionft.ownerOf(tokenId) != msg.sender,\n            \"Owner not allowed to buy own nft\"\n        );\n        require(\n            msg.value > currentIONFTs[tokenId].price,\n            \"Invalid buying price\"\n        );\n        require(currentIONFTs[tokenId].delegated, \"token not delegated\");\n        uint256 soldPrice = msg.value;\n        uint256 tempPrice = getContractCut(\n            msg.value.sub(currentIONFTs[tokenId].price)\n        );\n        transactionFees = transactionFees.add(tempPrice);\n        uint256 remaining = msg.value.sub(tempPrice);\n        require(\n            currentIONFTs[tokenId].owner.send(remaining),\n            \"Insufficient funds\"\n        );\n        currentIONFTs[tokenId].price = soldPrice;\n        minters[currentIONFTs[tokenId].owner].totalStaked = minters[\n            currentIONFTs[tokenId].owner\n        ].totalStaked.add(remaining);\n        address previousOwner = currentIONFTs[tokenId].owner;\n        currentIONFTs[tokenId].owner = msg.sender;\n        currentIONFTs[tokenId].delegated = false;\n        ionft.transferFrom(address(this), msg.sender, tokenId);\n        emit transferTokenOwnerShip(\n            msg.sender,\n            previousOwner,\n            msg.value,\n            tokenId,\n            tempPrice\n        );\n    }\n\n    function revokeDelegatedNFT(uint256 tokenId) public override {\n        require(msg.sender != address(0), \"Invalid sender address\");\n        require(\n            currentIONFTs[tokenId].exists && ionft.tokenExists(tokenId),\n            \"Token not listed or exists\"\n        );\n        require(ionft.ownerOf(tokenId) == address(this), \"Contract Not Owner\");\n        require(currentIONFTs[tokenId].delegated, \"Token not delegated\");\n        ionft.transferFrom(address(this), msg.sender, tokenId);\n        currentIONFTs[tokenId].delegated = false;\n        emit revokedDelegatedToken(tokenId);\n    }\n\n    function delegateNFT(uint256 tokenId) public override {\n        require(msg.sender != address(0), \"Invalid sender address\");\n        require(\n            currentIONFTs[tokenId].exists && ionft.tokenExists(tokenId),\n            \"Token not listed or exists\"\n        );\n        require(ionft.ownerOf(tokenId) == address(this), \"Contract Not Owner\");\n        require(!currentIONFTs[tokenId].delegated, \"Token already delegated\");\n        currentIONFTs[tokenId].delegated = true;\n        emit delegatedToken(tokenId);\n    }\n\n    function getMinterDetails(address id)\n        public\n        view\n        override\n        returns (uint256, bool)\n    {\n        return (minters[id].totalStaked, minters[id].active);\n    }\n\n    function getMinterKeys() public view override returns (address[] memory) {\n        return mintersIds;\n    }\n\n    function getTokenIndexes() public view override returns (uint256[] memory) {\n        return tokenIndexes;\n    }\n\n    function getTokenDetails(uint256 tokenId)\n        public\n        override\n        returns (\n            address,\n            uint256,\n            uint256,\n            bool,\n            bool\n        )\n    {\n        return (\n            currentIONFTs[tokenId].owner,\n            currentIONFTs[tokenId].price,\n            currentIONFTs[tokenId].originalPrice,\n            currentIONFTs[tokenId].exists,\n            currentIONFTs[tokenId].delegated\n        );\n    }\n\n    function burnToken(uint256 tokenId) public whenNotPaused {\n        ionft.burnToken(tokenId);\n    }\n\n    function getContractCut(uint256 value) internal view returns (uint256) {\n        uint256 roundValue = value.ceil(100);\n        uint256 cut = roundValue.mul(contractCut).div(10000);\n        return cut;\n    }\n}\n",
  "sourcePath": "/Users/siphamandlamjoli/Documents/GitHub/iotnft/contracts/contracts/IOTNFT.sol",
  "compiler": {
    "name": "solc",
    "version": "0.6.2+commit.bacdbe57.Emscripten.clang"
  },
  "schemaVersion": "3.4.4",
  "updatedAt": "2022-02-03T22:51:21.372Z",
  "networkType": "ethereum",
  "devdoc": {
    "methods": {
      "owner()": {
        "details": "Returns the address of the current owner."
      },
      "pause()": {
        "details": "called by the owner to pause, triggers stopped state"
      },
      "renounceOwnership()": {
        "details": "Leaves the contract without owner. It will not be possible to call `onlyOwner` functions anymore. Can only be called by the current owner.     * NOTE: Renouncing ownership will leave the contract without an owner, thereby removing any functionality that is only available to the owner."
      },
      "transferOwnership(address)": {
        "details": "Transfers ownership of the contract to a new account (`newOwner`). Can only be called by the current owner."
      },
      "unpause()": {
        "details": "called by the owner to unpause, returns to normal state"
      }
    }
  },
  "userdoc": {
    "methods": {},
    "notice": "dev contract represents the functionality required by OneCanvas  notice mostly likey not optimised for gas will fix as i develop notice implements the IOneCanvas interface "
  }
}