{
  "contractName": "IOTNFT",
  "abi": [
    {
      "inputs": [
        {
          "internalType": "address",
          "name": "tokenAddress",
          "type": "address"
        }
      ],
      "stateMutability": "nonpayable",
      "type": "constructor"
    },
    {
      "anonymous": false,
      "inputs": [
        {
          "indexed": true,
          "internalType": "address",
          "name": "previousOwner",
          "type": "address"
        },
        {
          "indexed": true,
          "internalType": "address",
          "name": "newOwner",
          "type": "address"
        }
      ],
      "name": "OwnershipTransferred",
      "type": "event"
    },
    {
      "anonymous": false,
      "inputs": [
        {
          "indexed": true,
          "internalType": "string",
          "name": "paused",
          "type": "string"
        }
      ],
      "name": "Pause",
      "type": "event"
    },
    {
      "anonymous": false,
      "inputs": [
        {
          "indexed": true,
          "internalType": "string",
          "name": "unpaused",
          "type": "string"
        }
      ],
      "name": "Unpause",
      "type": "event"
    },
    {
      "anonymous": false,
      "inputs": [
        {
          "indexed": true,
          "internalType": "uint256",
          "name": "date",
          "type": "uint256"
        },
        {
          "indexed": true,
          "internalType": "uint256",
          "name": "amount",
          "type": "uint256"
        }
      ],
      "name": "adminFeeCollection",
      "type": "event"
    },
    {
      "anonymous": false,
      "inputs": [
        {
          "indexed": true,
          "internalType": "uint256",
          "name": "tokenId",
          "type": "uint256"
        },
        {
          "indexed": true,
          "internalType": "address",
          "name": "previousOwner",
          "type": "address"
        },
        {
          "indexed": true,
          "internalType": "bool",
          "name": "delegated",
          "type": "bool"
        }
      ],
      "name": "delegatedToken",
      "type": "event"
    },
    {
      "anonymous": false,
      "inputs": [
        {
          "indexed": true,
          "internalType": "address",
          "name": "owner",
          "type": "address"
        },
        {
          "indexed": true,
          "internalType": "uint256",
          "name": "tokenId",
          "type": "uint256"
        },
        {
          "indexed": true,
          "internalType": "uint256",
          "name": "tokenPrice",
          "type": "uint256"
        }
      ],
      "name": "newTokenMinted",
      "type": "event"
    },
    {
      "anonymous": false,
      "inputs": [
        {
          "indexed": true,
          "internalType": "address",
          "name": "owner",
          "type": "address"
        },
        {
          "indexed": true,
          "internalType": "address",
          "name": "previousOwner",
          "type": "address"
        },
        {
          "indexed": false,
          "internalType": "uint256",
          "name": "cost",
          "type": "uint256"
        },
        {
          "indexed": false,
          "internalType": "uint256",
          "name": "tokenIndex",
          "type": "uint256"
        },
        {
          "indexed": false,
          "internalType": "uint256",
          "name": "contractCut",
          "type": "uint256"
        }
      ],
      "name": "transferTokenOwnerShip",
      "type": "event"
    },
    {
      "inputs": [],
      "name": "contractCut",
      "outputs": [
        {
          "internalType": "uint256",
          "name": "",
          "type": "uint256"
        }
      ],
      "stateMutability": "view",
      "type": "function",
      "constant": true
    },
    {
      "inputs": [],
      "name": "minMintCost",
      "outputs": [
        {
          "internalType": "uint256",
          "name": "",
          "type": "uint256"
        }
      ],
      "stateMutability": "view",
      "type": "function",
      "constant": true
    },
    {
      "inputs": [],
      "name": "owner",
      "outputs": [
        {
          "internalType": "address",
          "name": "",
          "type": "address"
        }
      ],
      "stateMutability": "view",
      "type": "function",
      "constant": true
    },
    {
      "inputs": [],
      "name": "pause",
      "outputs": [],
      "stateMutability": "nonpayable",
      "type": "function"
    },
    {
      "inputs": [],
      "name": "paused",
      "outputs": [
        {
          "internalType": "bool",
          "name": "",
          "type": "bool"
        }
      ],
      "stateMutability": "view",
      "type": "function",
      "constant": true
    },
    {
      "inputs": [],
      "name": "renounceOwnership",
      "outputs": [],
      "stateMutability": "nonpayable",
      "type": "function"
    },
    {
      "inputs": [],
      "name": "transactionFees",
      "outputs": [
        {
          "internalType": "uint256",
          "name": "",
          "type": "uint256"
        }
      ],
      "stateMutability": "view",
      "type": "function",
      "constant": true
    },
    {
      "inputs": [
        {
          "internalType": "address",
          "name": "newOwner",
          "type": "address"
        }
      ],
      "name": "transferOwnership",
      "outputs": [],
      "stateMutability": "nonpayable",
      "type": "function"
    },
    {
      "inputs": [],
      "name": "unpause",
      "outputs": [],
      "stateMutability": "nonpayable",
      "type": "function"
    },
    {
      "inputs": [],
      "name": "withdrawFees",
      "outputs": [],
      "stateMutability": "payable",
      "type": "function",
      "payable": true
    },
    {
      "inputs": [
        {
          "internalType": "string",
          "name": "tokenURI",
          "type": "string"
        },
        {
          "internalType": "uint256",
          "name": "tokenPrice",
          "type": "uint256"
        },
        {
          "internalType": "bool",
          "name": "delegate",
          "type": "bool"
        }
      ],
      "name": "mintToken",
      "outputs": [],
      "stateMutability": "nonpayable",
      "type": "function"
    },
    {
      "inputs": [
        {
          "internalType": "uint256",
          "name": "tokenId",
          "type": "uint256"
        }
      ],
      "name": "buyToken",
      "outputs": [],
      "stateMutability": "payable",
      "type": "function",
      "payable": true
    },
    {
      "inputs": [
        {
          "internalType": "uint256",
          "name": "tokenId",
          "type": "uint256"
        },
        {
          "internalType": "bool",
          "name": "delegate",
          "type": "bool"
        }
      ],
      "name": "delegateNFT",
      "outputs": [],
      "stateMutability": "nonpayable",
      "type": "function"
    },
    {
      "inputs": [
        {
          "internalType": "address",
          "name": "id",
          "type": "address"
        }
      ],
      "name": "getMinterDetails",
      "outputs": [
        {
          "internalType": "uint256",
          "name": "",
          "type": "uint256"
        },
        {
          "internalType": "bool",
          "name": "",
          "type": "bool"
        }
      ],
      "stateMutability": "view",
      "type": "function",
      "constant": true
    },
    {
      "inputs": [],
      "name": "getMinterKeys",
      "outputs": [
        {
          "internalType": "address[]",
          "name": "",
          "type": "address[]"
        }
      ],
      "stateMutability": "view",
      "type": "function",
      "constant": true
    },
    {
      "inputs": [],
      "name": "getTokenIndexes",
      "outputs": [
        {
          "internalType": "uint256[]",
          "name": "",
          "type": "uint256[]"
        }
      ],
      "stateMutability": "view",
      "type": "function",
      "constant": true
    },
    {
      "inputs": [
        {
          "internalType": "uint256",
          "name": "tokenId",
          "type": "uint256"
        }
      ],
      "name": "getTokenDetails",
      "outputs": [
        {
          "internalType": "address",
          "name": "",
          "type": "address"
        },
        {
          "internalType": "uint256",
          "name": "",
          "type": "uint256"
        },
        {
          "internalType": "uint256",
          "name": "",
          "type": "uint256"
        },
        {
          "internalType": "bool",
          "name": "",
          "type": "bool"
        },
        {
          "internalType": "bool",
          "name": "",
          "type": "bool"
        }
      ],
      "stateMutability": "nonpayable",
      "type": "function"
    },
    {
      "inputs": [
        {
          "internalType": "uint256",
          "name": "tokenId",
          "type": "uint256"
        }
      ],
      "name": "burnToken",
      "outputs": [],
      "stateMutability": "nonpayable",
      "type": "function"
    }
  ],
  "bytecode": "0x60806040526000603560006101000a81548160ff0219169083151502179055506000603655662386f26fc10000603755610dac6038553480156200004257600080fd5b50604051620033ce380380620033ce833981810160405260208110156200006857600080fd5b810190808051906020019092919050505060006200008b6200040e60201b60201c565b905080603360006101000a81548173ffffffffffffffffffffffffffffffffffffffff021916908373ffffffffffffffffffffffffffffffffffffffff1602179055508073ffffffffffffffffffffffffffffffffffffffff16600073ffffffffffffffffffffffffffffffffffffffff167f8be0079c531659141344cd1fd0a4f28419497f9722a3daafe3b4186f6b6457e060405160405180910390a3506001603481905550600060019054906101000a900460ff16806200015a5750620001596200041660201b60201c565b5b806200017257506000809054906101000a900460ff16155b620001c9576040517f08c379a000000000000000000000000000000000000000000000000000000000815260040180806020018281038252602e815260200180620033a0602e913960400191505060405180910390fd5b60008060019054906101000a900460ff1615905080156200021a576001600060016101000a81548160ff02191690831515021790555060016000806101000a81548160ff0219169083151502179055505b600073ffffffffffffffffffffffffffffffffffffffff168273ffffffffffffffffffffffffffffffffffffffff161415620002be576040517f08c379a00000000000000000000000000000000000000000000000000000000081526004018080602001828103825260158152602001807f496e76616c696420746f6b656e2061646472657373000000000000000000000081525060200191505060405180910390fd5b600073ffffffffffffffffffffffffffffffffffffffff163373ffffffffffffffffffffffffffffffffffffffff16141562000362576040517f08c379a00000000000000000000000000000000000000000000000000000000081526004018080602001828103825260168152602001807f496e76616c69642073656e64657220616464726573730000000000000000000081525060200191505060405180910390fd5b81603a60006101000a81548173ffffffffffffffffffffffffffffffffffffffff021916908373ffffffffffffffffffffffffffffffffffffffff16021790555033603960006101000a81548173ffffffffffffffffffffffffffffffffffffffff021916908373ffffffffffffffffffffffffffffffffffffffff1602179055508015620004065760008060016101000a81548160ff0219169083151502179055505b50506200042d565b600033905090565b6000803090506000813b9050600081149250505090565b612f63806200043d6000396000f3fe6080604052600436106101095760003560e01c80637b47ec1a11610095578063b0d3685a11610064578063b0d3685a14610433578063b37be8e4146104a3578063c1e03728146104ce578063c92bcffd1461056d578063f2fde38b146105d957610109565b80637b47ec1a146103435780637d0d64171461037e5780638456cb59146103c55780638da5cb5b146103dc57610109565b80633f4ba83a116100dc5780633f4ba83a14610270578063476343ee1461028757806349051275146102915780635c975abb146102fd578063715018a61461032c57610109565b806316511c831461010e5780631d2054d8146101395780632d296bf114610164578063318261fd14610192575b600080fd5b34801561011a57600080fd5b5061012361062a565b6040518082815260200191505060405180910390f35b34801561014557600080fd5b5061014e610630565b6040518082815260200191505060405180910390f35b6101906004803603602081101561017a57600080fd5b8101908080359060200190929190505050610636565b005b34801561019e57600080fd5b5061026e600480360360608110156101b557600080fd5b81019080803590602001906401000000008111156101d257600080fd5b8201836020820111156101e457600080fd5b8035906020019184600183028401116401000000008311171561020657600080fd5b91908080601f016020809104026020016040519081016040528093929190818152602001838380828437600081840152601f19601f82011690508083019250505050505050919291929080359060200190929190803515159060200190929190505050611122565b005b34801561027c57600080fd5b506102856118a2565b005b61028f611a52565b005b34801561029d57600080fd5b506102a6611d0b565b6040518080602001828103825283818151815260200191508051906020019060200280838360005b838110156102e95780820151818401526020810190506102ce565b505050509050019250505060405180910390f35b34801561030957600080fd5b50610312611d99565b604051808215151515815260200191505060405180910390f35b34801561033857600080fd5b50610341611dac565b005b34801561034f57600080fd5b5061037c6004803603602081101561036657600080fd5b8101908080359060200190929190505050611f1c565b005b34801561038a57600080fd5b506103c3600480360360408110156103a157600080fd5b8101908080359060200190929190803515159060200190929190505050612053565b005b3480156103d157600080fd5b506103da612571565b005b3480156103e857600080fd5b506103f1612722565b604051808273ffffffffffffffffffffffffffffffffffffffff1673ffffffffffffffffffffffffffffffffffffffff16815260200191505060405180910390f35b34801561043f57600080fd5b506104826004803603602081101561045657600080fd5b81019080803573ffffffffffffffffffffffffffffffffffffffff16906020019092919050505061274c565b60405180838152602001821515151581526020019250505060405180910390f35b3480156104af57600080fd5b506104b86127eb565b6040518082815260200191505060405180910390f35b3480156104da57600080fd5b50610507600480360360208110156104f157600080fd5b81019080803590602001909291905050506127f1565b604051808673ffffffffffffffffffffffffffffffffffffffff1673ffffffffffffffffffffffffffffffffffffffff16815260200185815260200184815260200183151515158152602001821515151581526020019550505050505060405180910390f35b34801561057957600080fd5b506105826128bc565b6040518080602001828103825283818151815260200191508051906020019060200280838360005b838110156105c55780820151818401526020810190506105aa565b505050509050019250505060405180910390f35b3480156105e557600080fd5b50610628600480360360208110156105fc57600080fd5b81019080803573ffffffffffffffffffffffffffffffffffffffff169060200190929190505050612914565b005b60375481565b60385481565b600260345414156106af576040517f08c379a000000000000000000000000000000000000000000000000000000000815260040180806020018281038252601f8152602001807f5265656e7472616e637947756172643a207265656e7472616e742063616c6c0081525060200191505060405180910390fd5b6002603481905550603560009054906101000a900460ff161561073a576040517f08c379a000000000000000000000000000000000000000000000000000000000815260040180806020018281038252600f8152602001807f436f6e747261637420706175736564000000000000000000000000000000000081525060200191505060405180910390fd5b603d600082815260200190815260200160002060010160149054906101000a900460ff166107d0576040517f08c379a00000000000000000000000000000000000000000000000000000000081526004018080602001828103825260138152602001807f546f6b656e206e6f742064656c6567617465640000000000000000000000000081525060200191505060405180910390fd5b600073ffffffffffffffffffffffffffffffffffffffff163373ffffffffffffffffffffffffffffffffffffffff161415610873576040517f08c379a000000000000000000000000000000000000000000000000000000000815260040180806020018281038252600e8152602001807f496e76616c69642073656e64657200000000000000000000000000000000000081525060200191505060405180910390fd5b603a60009054906101000a900473ffffffffffffffffffffffffffffffffffffffff1673ffffffffffffffffffffffffffffffffffffffff1662923f9e826040518263ffffffff1660e01b81526004018082815260200191505060206040518083038186803b1580156108e557600080fd5b505afa1580156108f9573d6000803e3d6000fd5b505050506040513d602081101561090f57600080fd5b8101908080519060200190929190505050801561094c5750603d600082815260200190815260200160002060040160009054906101000a900460ff165b6109a1576040517f08c379a0000000000000000000000000000000000000000000000000000000008152600401808060200182810382526022815260200180612eeb6022913960400191505060405180910390fd5b603d600082815260200190815260200160002060010160009054906101000a900473ffffffffffffffffffffffffffffffffffffffff1673ffffffffffffffffffffffffffffffffffffffff163373ffffffffffffffffffffffffffffffffffffffff1614158015610aec57503373ffffffffffffffffffffffffffffffffffffffff16603a60009054906101000a900473ffffffffffffffffffffffffffffffffffffffff1673ffffffffffffffffffffffffffffffffffffffff16636352211e836040518263ffffffff1660e01b81526004018082815260200191505060206040518083038186803b158015610a9857600080fd5b505afa158015610aac573d6000803e3d6000fd5b505050506040513d6020811015610ac257600080fd5b810190808051906020019092919050505073ffffffffffffffffffffffffffffffffffffffff1614155b610b5e576040517f08c379a00000000000000000000000000000000000000000000000000000000081526004018080602001828103825260208152602001807f4f776e6572206e6f7420616c6c6f77656420746f20627579206f776e206e667481525060200191505060405180910390fd5b603d6000828152602001908152602001600020600201543411610be9576040517f08c379a00000000000000000000000000000000000000000000000000000000081526004018080602001828103825260148152602001807f496e76616c696420627579696e6720707269636500000000000000000000000081525060200191505060405180910390fd5b603d600082815260200190815260200160002060010160149054906101000a900460ff16610c7f576040517f08c379a00000000000000000000000000000000000000000000000000000000081526004018080602001828103825260138152602001807f746f6b656e206e6f742064656c6567617465640000000000000000000000000081525060200191505060405180910390fd5b60003490506000610cb7610cb2603d60008681526020019081526020016000206002015434612b0990919063ffffffff16565b612b53565b9050610cce81603654612ba390919063ffffffff16565b6036819055506000610ce98234612b0990919063ffffffff16565b9050603d600085815260200190815260200160002060010160009054906101000a900473ffffffffffffffffffffffffffffffffffffffff1673ffffffffffffffffffffffffffffffffffffffff166108fc829081150290604051600060405180830381858888f19350505050610dc8576040517f08c379a00000000000000000000000000000000000000000000000000000000081526004018080602001828103825260128152602001807f496e73756666696369656e742066756e6473000000000000000000000000000081525060200191505060405180910390fd5b82603d600086815260200190815260200160002060020181905550610e6e81603e6000603d600089815260200190815260200160002060010160009054906101000a900473ffffffffffffffffffffffffffffffffffffffff1673ffffffffffffffffffffffffffffffffffffffff1673ffffffffffffffffffffffffffffffffffffffff16815260200190815260200160002060010154612ba390919063ffffffff16565b603e6000603d600088815260200190815260200160002060010160009054906101000a900473ffffffffffffffffffffffffffffffffffffffff1673ffffffffffffffffffffffffffffffffffffffff1673ffffffffffffffffffffffffffffffffffffffff168152602001908152602001600020600101819055506000603d600086815260200190815260200160002060010160009054906101000a900473ffffffffffffffffffffffffffffffffffffffff16905033603d600087815260200190815260200160002060010160006101000a81548173ffffffffffffffffffffffffffffffffffffffff021916908373ffffffffffffffffffffffffffffffffffffffff1602179055506000603d600087815260200190815260200160002060010160146101000a81548160ff021916908315150217905550603a60009054906101000a900473ffffffffffffffffffffffffffffffffffffffff1673ffffffffffffffffffffffffffffffffffffffff166323b872dd3033886040518463ffffffff1660e01b8152600401808473ffffffffffffffffffffffffffffffffffffffff1673ffffffffffffffffffffffffffffffffffffffff1681526020018373ffffffffffffffffffffffffffffffffffffffff1673ffffffffffffffffffffffffffffffffffffffff1681526020018281526020019350505050600060405180830381600087803b15801561108657600080fd5b505af115801561109a573d6000803e3d6000fd5b505050508073ffffffffffffffffffffffffffffffffffffffff163373ffffffffffffffffffffffffffffffffffffffff167f5af7a5b9fdf33798dd0cd51e78c9800e9aa1ff697bafa752e4575a793f74861334888760405180848152602001838152602001828152602001935050505060405180910390a350505050600160348190555050565b603560009054906101000a900460ff16156111a5576040517f08c379a000000000000000000000000000000000000000000000000000000000815260040180806020018281038252600f8152602001807f436f6e747261637420706175736564000000000000000000000000000000000081525060200191505060405180910390fd5b600073ffffffffffffffffffffffffffffffffffffffff163373ffffffffffffffffffffffffffffffffffffffff161415611248576040517f08c379a000000000000000000000000000000000000000000000000000000000815260040180806020018281038252600e8152602001807f496e76616c69642073656e64657200000000000000000000000000000000000081525060200191505060405180910390fd5b600082116112be576040517f08c379a00000000000000000000000000000000000000000000000000000000081526004018080602001828103825260138152602001807f496e76616c696420746f6b656e2070726963650000000000000000000000000081525060200191505060405180910390fd5b603e60003373ffffffffffffffffffffffffffffffffffffffff1673ffffffffffffffffffffffffffffffffffffffff16815260200190815260200160002060020160009054906101000a900460ff1661149a5733603e60003373ffffffffffffffffffffffffffffffffffffffff1673ffffffffffffffffffffffffffffffffffffffff16815260200190815260200160002060000160006101000a81548173ffffffffffffffffffffffffffffffffffffffff021916908373ffffffffffffffffffffffffffffffffffffffff1602179055506000603e60003373ffffffffffffffffffffffffffffffffffffffff1673ffffffffffffffffffffffffffffffffffffffff168152602001908152602001600020600101819055506001603e60003373ffffffffffffffffffffffffffffffffffffffff1673ffffffffffffffffffffffffffffffffffffffff16815260200190815260200160002060020160006101000a81548160ff021916908315150217905550603b339080600181540180825580915050600190039060005260206000200160009091909190916101000a81548173ffffffffffffffffffffffffffffffffffffffff021916908373ffffffffffffffffffffffffffffffffffffffff1602179055505b600081156115f257603a60009054906101000a900473ffffffffffffffffffffffffffffffffffffffff1673ffffffffffffffffffffffffffffffffffffffff16633d02d0c930866040518363ffffffff1660e01b8152600401808373ffffffffffffffffffffffffffffffffffffffff1673ffffffffffffffffffffffffffffffffffffffff16815260200180602001828103825283818151815260200191508051906020019080838360005b83811015611563578082015181840152602081019050611548565b50505050905090810190601f1680156115905780820380516001836020036101000a031916815260200191505b509350505050602060405180830381600087803b1580156115b057600080fd5b505af11580156115c4573d6000803e3d6000fd5b505050506040513d60208110156115da57600080fd5b8101908080519060200190929190505050905061173e565b603a60009054906101000a900473ffffffffffffffffffffffffffffffffffffffff1673ffffffffffffffffffffffffffffffffffffffff16633d02d0c933866040518363ffffffff1660e01b8152600401808373ffffffffffffffffffffffffffffffffffffffff1673ffffffffffffffffffffffffffffffffffffffff16815260200180602001828103825283818151815260200191508051906020019080838360005b838110156116b3578082015181840152602081019050611698565b50505050905090810190601f1680156116e05780820380516001836020036101000a031916815260200191505b509350505050602060405180830381600087803b15801561170057600080fd5b505af1158015611714573d6000803e3d6000fd5b505050506040513d602081101561172a57600080fd5b810190808051906020019092919050505090505b81603d600083815260200190815260200160002060010160146101000a81548160ff02191690831515021790555080603d60008381526020019081526020016000206000018190555082603d60008381526020019081526020016000206003018190555082603d6000838152602001908152602001600020600201819055506001603d600083815260200190815260200160002060040160006101000a81548160ff02191690831515021790555033603d600083815260200190815260200160002060010160006101000a81548173ffffffffffffffffffffffffffffffffffffffff021916908373ffffffffffffffffffffffffffffffffffffffff160217905550603d600082815260200190815260200160002060020154813373ffffffffffffffffffffffffffffffffffffffff167f07d40241f4975376edfb3697b835d9e59d7d197e7f64af48f283f0a6a8e6634b60405160405180910390a450505050565b6118aa612c2b565b73ffffffffffffffffffffffffffffffffffffffff166118c8612722565b73ffffffffffffffffffffffffffffffffffffffff1614611951576040517f08c379a00000000000000000000000000000000000000000000000000000000081526004018080602001828103825260208152602001807f4f776e61626c653a2063616c6c6572206973206e6f7420746865206f776e657281525060200191505060405180910390fd5b603560009054906101000a900460ff166119d3576040517f08c379a00000000000000000000000000000000000000000000000000000000081526004018080602001828103825260138152602001807f436f6e7472616374206e6f74207061757365640000000000000000000000000081525060200191505060405180910390fd5b6000603560006101000a81548160ff02191690831515021790555060405180807f436f6e747261637420756e706175736564000000000000000000000000000000815250601101905060405180910390207fab8f771d320c36af1f739e78861e82b4a21f97b123153ce1657e6904c8645da160405160405180910390a2565b611a5a612c2b565b73ffffffffffffffffffffffffffffffffffffffff16611a78612722565b73ffffffffffffffffffffffffffffffffffffffff1614611b01576040517f08c379a00000000000000000000000000000000000000000000000000000000081526004018080602001828103825260208152602001807f4f776e61626c653a2063616c6c6572206973206e6f7420746865206f776e657281525060200191505060405180910390fd5b60026034541415611b7a576040517f08c379a000000000000000000000000000000000000000000000000000000000815260040180806020018281038252601f8152602001807f5265656e7472616e637947756172643a207265656e7472616e742063616c6c0081525060200191505060405180910390fd5b6002603481905550600060365411611bfa576040517f08c379a00000000000000000000000000000000000000000000000000000000081526004018080602001828103825260138152602001807f4e6f7468696e6720746f2077697468647261770000000000000000000000000081525060200191505060405180910390fd5b600060365490506000603681905550603960009054906101000a900473ffffffffffffffffffffffffffffffffffffffff1673ffffffffffffffffffffffffffffffffffffffff166108fc829081150290604051600060405180830381858888f19350505050611cd2576040517f08c379a00000000000000000000000000000000000000000000000000000000081526004018080602001828103825260128152602001807f496e73756666696369656e742066756e6473000000000000000000000000000081525060200191505060405180910390fd5b80427f600ded888969719a7badde4c4148aa1e044448fa493a26ac50149d0f17b5a41860405160405180910390a3506001603481905550565b6060603b805480602002602001604051908101604052809291908181526020018280548015611d8f57602002820191906000526020600020905b8160009054906101000a900473ffffffffffffffffffffffffffffffffffffffff1673ffffffffffffffffffffffffffffffffffffffff1681526020019060010190808311611d45575b5050505050905090565b603560009054906101000a900460ff1681565b611db4612c2b565b73ffffffffffffffffffffffffffffffffffffffff16611dd2612722565b73ffffffffffffffffffffffffffffffffffffffff1614611e5b576040517f08c379a00000000000000000000000000000000000000000000000000000000081526004018080602001828103825260208152602001807f4f776e61626c653a2063616c6c6572206973206e6f7420746865206f776e657281525060200191505060405180910390fd5b600073ffffffffffffffffffffffffffffffffffffffff16603360009054906101000a900473ffffffffffffffffffffffffffffffffffffffff1673ffffffffffffffffffffffffffffffffffffffff167f8be0079c531659141344cd1fd0a4f28419497f9722a3daafe3b4186f6b6457e060405160405180910390a36000603360006101000a81548173ffffffffffffffffffffffffffffffffffffffff021916908373ffffffffffffffffffffffffffffffffffffffff160217905550565b603560009054906101000a900460ff1615611f9f576040517f08c379a000000000000000000000000000000000000000000000000000000000815260040180806020018281038252600f8152602001807f436f6e747261637420706175736564000000000000000000000000000000000081525060200191505060405180910390fd5b603a60009054906101000a900473ffffffffffffffffffffffffffffffffffffffff1673ffffffffffffffffffffffffffffffffffffffff16637b47ec1a826040518263ffffffff1660e01b815260040180828152602001915050602060405180830381600087803b15801561201457600080fd5b505af1158015612028573d6000803e3d6000fd5b505050506040513d602081101561203e57600080fd5b81019080805190602001909291905050505050565b600073ffffffffffffffffffffffffffffffffffffffff163373ffffffffffffffffffffffffffffffffffffffff1614156120f6576040517f08c379a00000000000000000000000000000000000000000000000000000000081526004018080602001828103825260168152602001807f496e76616c69642073656e64657220616464726573730000000000000000000081525060200191505060405180910390fd5b603d600083815260200190815260200160002060040160009054906101000a900460ff1680156121cf5750603a60009054906101000a900473ffffffffffffffffffffffffffffffffffffffff1673ffffffffffffffffffffffffffffffffffffffff1662923f9e836040518263ffffffff1660e01b81526004018082815260200191505060206040518083038186803b15801561219357600080fd5b505afa1580156121a7573d6000803e3d6000fd5b505050506040513d60208110156121bd57600080fd5b81019080805190602001909291905050505b612241576040517f08c379a000000000000000000000000000000000000000000000000000000000815260040180806020018281038252601a8152602001807f546f6b656e206e6f74206c6973746564206f722065786973747300000000000081525060200191505060405180910390fd5b3073ffffffffffffffffffffffffffffffffffffffff16603a60009054906101000a900473ffffffffffffffffffffffffffffffffffffffff1673ffffffffffffffffffffffffffffffffffffffff16636352211e846040518263ffffffff1660e01b81526004018082815260200191505060206040518083038186803b1580156122cb57600080fd5b505afa1580156122df573d6000803e3d6000fd5b505050506040513d60208110156122f557600080fd5b810190808051906020019092919050505073ffffffffffffffffffffffffffffffffffffffff161461238f576040517f08c379a00000000000000000000000000000000000000000000000000000000081526004018080602001828103825260098152602001807f4e6f74204f776e6572000000000000000000000000000000000000000000000081525060200191505060405180910390fd5b801561246057603d600083815260200190815260200160002060010160149054906101000a900460ff161561242c576040517f08c379a00000000000000000000000000000000000000000000000000000000081526004018080602001828103825260178152602001807f546f6b656e20616c72656164792064656c65676174656400000000000000000081525060200191505060405180910390fd5b6001603d600084815260200190815260200160002060010160146101000a81548160ff021916908315150217905550612526565b603d600083815260200190815260200160002060010160149054906101000a900460ff166124f6576040517f08c379a00000000000000000000000000000000000000000000000000000000081526004018080602001828103825260138152602001807f546f6b656e206e6f742064656c6567617465640000000000000000000000000081525060200191505060405180910390fd5b6000603d600084815260200190815260200160002060010160146101000a81548160ff0219169083151502179055505b8015153373ffffffffffffffffffffffffffffffffffffffff16837f177fc593512c9e06579ae83747e3c2b8fc5f3c76cef5968d27af2a040fb6825860405160405180910390a45050565b612579612c2b565b73ffffffffffffffffffffffffffffffffffffffff16612597612722565b73ffffffffffffffffffffffffffffffffffffffff1614612620576040517f08c379a00000000000000000000000000000000000000000000000000000000081526004018080602001828103825260208152602001807f4f776e61626c653a2063616c6c6572206973206e6f7420746865206f776e657281525060200191505060405180910390fd5b603560009054906101000a900460ff16156126a3576040517f08c379a000000000000000000000000000000000000000000000000000000000815260040180806020018281038252600f8152602001807f436f6e747261637420706175736564000000000000000000000000000000000081525060200191505060405180910390fd5b6001603560006101000a81548160ff02191690831515021790555060405180807f436f6e7472616374207061757365640000000000000000000000000000000000815250600f01905060405180910390207f46f81aedb227deef794d5c737014a5414db3c678220a521b747734688cc6a9fe60405160405180910390a2565b6000603360009054906101000a900473ffffffffffffffffffffffffffffffffffffffff16905090565b600080603e60008473ffffffffffffffffffffffffffffffffffffffff1673ffffffffffffffffffffffffffffffffffffffff16815260200190815260200160002060010154603e60008573ffffffffffffffffffffffffffffffffffffffff1673ffffffffffffffffffffffffffffffffffffffff16815260200190815260200160002060020160009054906101000a900460ff1691509150915091565b60365481565b6000806000806000603d600087815260200190815260200160002060010160009054906101000a900473ffffffffffffffffffffffffffffffffffffffff16603d600088815260200190815260200160002060020154603d600089815260200190815260200160002060030154603d60008a815260200190815260200160002060040160009054906101000a900460ff16603d60008b815260200190815260200160002060010160149054906101000a900460ff168494509450945094509450945091939590929450565b6060603c80548060200260200160405190810160405280929190818152602001828054801561290a57602002820191906000526020600020905b8154815260200190600101908083116128f6575b5050505050905090565b61291c612c2b565b73ffffffffffffffffffffffffffffffffffffffff1661293a612722565b73ffffffffffffffffffffffffffffffffffffffff16146129c3576040517f08c379a00000000000000000000000000000000000000000000000000000000081526004018080602001828103825260208152602001807f4f776e61626c653a2063616c6c6572206973206e6f7420746865206f776e657281525060200191505060405180910390fd5b600073ffffffffffffffffffffffffffffffffffffffff168173ffffffffffffffffffffffffffffffffffffffff161415612a49576040517f08c379a0000000000000000000000000000000000000000000000000000000008152600401808060200182810382526026815260200180612ec56026913960400191505060405180910390fd5b8073ffffffffffffffffffffffffffffffffffffffff16603360009054906101000a900473ffffffffffffffffffffffffffffffffffffffff1673ffffffffffffffffffffffffffffffffffffffff167f8be0079c531659141344cd1fd0a4f28419497f9722a3daafe3b4186f6b6457e060405160405180910390a380603360006101000a81548173ffffffffffffffffffffffffffffffffffffffff021916908373ffffffffffffffffffffffffffffffffffffffff16021790555050565b6000612b4b83836040518060400160405280601e81526020017f536166654d6174683a207375627472616374696f6e206f766572666c6f770000815250612c33565b905092915050565b600080612b6a606484612cf390919063ffffffff16565b90506000612b97612710612b8960385485612d2e90919063ffffffff16565b612db490919063ffffffff16565b90508092505050919050565b600080828401905083811015612c21576040517f08c379a000000000000000000000000000000000000000000000000000000000815260040180806020018281038252601b8152602001807f536166654d6174683a206164646974696f6e206f766572666c6f77000000000081525060200191505060405180910390fd5b8091505092915050565b600033905090565b6000838311158290612ce0576040517f08c379a00000000000000000000000000000000000000000000000000000000081526004018080602001828103825283818151815260200191508051906020019080838360005b83811015612ca5578082015181840152602081019050612c8a565b50505050905090810190601f168015612cd25780820380516001836020036101000a031916815260200191505b509250505060405180910390fd5b5060008385039050809150509392505050565b600080612d008484612ba3565b90506000612d0f826001612b09565b9050612d24612d1e8286612db4565b85612d2e565b9250505092915050565b600080831415612d415760009050612dae565b6000828402905082848281612d5257fe5b0414612da9576040517f08c379a0000000000000000000000000000000000000000000000000000000008152600401808060200182810382526021815260200180612f0d6021913960400191505060405180910390fd5b809150505b92915050565b6000612df683836040518060400160405280601a81526020017f536166654d6174683a206469766973696f6e206279207a65726f000000000000815250612dfe565b905092915050565b60008083118290612eaa576040517f08c379a00000000000000000000000000000000000000000000000000000000081526004018080602001828103825283818151815260200191508051906020019080838360005b83811015612e6f578082015181840152602081019050612e54565b50505050905090810190601f168015612e9c5780820380516001836020036101000a031916815260200191505b509250505060405180910390fd5b506000838581612eb657fe5b04905080915050939250505056fe4f776e61626c653a206e6577206f776e657220697320746865207a65726f2061646472657373546f6b656e206e6f74206d696e74656420796574206f72206e6f7420616374697665536166654d6174683a206d756c7469706c69636174696f6e206f766572666c6f77a264697066735822122083d47e03f52785bc8394c367d0689fc0bf68deb540ac4a725e1fdc59b0d8d5de64736f6c63430006020033436f6e747261637420696e7374616e63652068617320616c7265616479206265656e20696e697469616c697a6564",
  "source": "pragma solidity >=0.6.2;\nimport \"@openzeppelin/upgrades/contracts/Initializable.sol\";\nimport \"./interfaces/IOTNFTInterface.sol\";\nimport \"./TokenContract.sol\";\nimport \"./SafeMathV2.sol\";\nimport \"@openzeppelin/contracts/access/Ownable.sol\";\nimport \"./ReentrancyGuard.sol\";\n\nimport \"./Pausable.sol\";\n\n//\"SPDX-License-Identifier: UNLICENSED\"\n\n/**\n*@dev contract represents the functionality required by OneCanvas \n*@notice mostly likey not optimised for gas will fix as i develop\n*@notice implements the IOneCanvas interface \n\n */\ncontract IOTNFT is\n    IOTNFTInterface,\n    Initializable,\n    Ownable,\n    ReentrancyGuard,\n    Pausable\n{\n    using SafeMathV2 for uint256;\n\n    /*==========================================================Modifier definition start==========================================================*/\n\n    /*==========================================================Event definition start==========================================================*/\n    /*==========================================================Variable definition start==========================================================*/\n    uint256 public transactionFees = 0;\n    uint256 public minMintCost = 0.01 ether;\n    uint256 public contractCut = 3500;\n    address payable contractOwner;\n    TokenContract ionft;\n    address[] mintersIds;\n    uint256[] tokenIndexes;\n    mapping(uint256 => IOTNFT) currentIONFTs;\n    mapping(address => Minter) minters;\n\n    /*==========================================================Function definition start==========================================================*/\n    constructor(address tokenAddress) public initializer {\n        require(tokenAddress != address(0), \"Invalid token address\");\n        require(msg.sender != address(0), \"Invalid sender address\");\n        ionft = TokenContract(tokenAddress);\n        contractOwner = msg.sender;\n    }\n\n    function withdrawFees() public payable override onlyOwner nonReentrant {\n        require(transactionFees > 0, \"Nothing to withdraw\");\n        uint256 fees = transactionFees;\n        transactionFees = 0;\n        require(contractOwner.send(fees), \"Insufficient funds\");\n        emit adminFeeCollection(block.timestamp, fees);\n    }\n\n    function mintToken(\n        string memory tokenURI,\n        uint256 tokenPrice,\n        bool delegate\n    ) public override whenNotPaused {\n        require(msg.sender != address(0), \"Invalid sender\");\n        require(tokenPrice > 0, \"Invalid token price\");\n        if (!minters[msg.sender].active) {\n            minters[msg.sender].id = msg.sender;\n            minters[msg.sender].totalStaked = 0;\n            minters[msg.sender].active = true;\n            mintersIds.push(msg.sender);\n        }\n        uint256 tokenId;\n        if (delegate) {\n            tokenId = ionft.mintToken(address(this), tokenURI);\n        } else {\n            tokenId = ionft.mintToken(msg.sender, tokenURI);\n        }\n        //  require(ionft.tokenExists(tokenId),\"Token not minted\");\n        currentIONFTs[tokenId].delegated = delegate;\n        currentIONFTs[tokenId].tokenId = tokenId;\n        currentIONFTs[tokenId].originalPrice = tokenPrice;\n        currentIONFTs[tokenId].price = tokenPrice;\n        currentIONFTs[tokenId].exists = true;\n        currentIONFTs[tokenId].owner = msg.sender;\n        emit newTokenMinted(msg.sender, tokenId, currentIONFTs[tokenId].price);\n    }\n\n    function buyToken(uint256 tokenId)\n        public\n        payable\n        override\n        nonReentrant\n        whenNotPaused\n    {\n        require(currentIONFTs[tokenId].delegated, \"Token not delegated\");\n        require(msg.sender != address(0), \"Invalid sender\");\n        require(\n            ionft.tokenExists(tokenId) && currentIONFTs[tokenId].exists,\n            \"Token not minted yet or not active\"\n        );\n        require(\n            msg.sender != currentIONFTs[tokenId].owner &&\n                ionft.ownerOf(tokenId) != msg.sender,\n            \"Owner not allowed to buy own nft\"\n        );\n        require(\n            msg.value > currentIONFTs[tokenId].price,\n            \"Invalid buying price\"\n        );\n        require(currentIONFTs[tokenId].delegated, \"token not delegated\");\n        uint256 soldPrice = msg.value;\n        uint256 tempPrice = getContractCut(\n            msg.value.sub(currentIONFTs[tokenId].price)\n        );\n        transactionFees = transactionFees.add(tempPrice);\n        uint256 remaining = msg.value.sub(tempPrice);\n        require(\n            currentIONFTs[tokenId].owner.send(remaining),\n            \"Insufficient funds\"\n        );\n        currentIONFTs[tokenId].price = soldPrice;\n        minters[currentIONFTs[tokenId].owner].totalStaked = minters[\n            currentIONFTs[tokenId].owner\n        ].totalStaked.add(remaining);\n        address previousOwner = currentIONFTs[tokenId].owner;\n        currentIONFTs[tokenId].owner = msg.sender;\n        currentIONFTs[tokenId].delegated = false;\n        ionft.transferFrom(address(this), msg.sender, tokenId);\n        emit transferTokenOwnerShip(\n            msg.sender,\n            previousOwner,\n            msg.value,\n            tokenId,\n            tempPrice\n        );\n    }\n\n    function delegateNFT(uint256 tokenId, bool delegate) public override {\n        require(msg.sender != address(0), \"Invalid sender address\");\n        require(\n            currentIONFTs[tokenId].exists && ionft.tokenExists(tokenId),\n            \"Token not listed or exists\"\n        );\n        require(ionft.ownerOf(tokenId) == address(this), \"Not Owner\");\n\n        if (delegate) {\n            require(\n                !currentIONFTs[tokenId].delegated,\n                \"Token already delegated\"\n            );\n            currentIONFTs[tokenId].delegated = true;\n        } else {\n            require(currentIONFTs[tokenId].delegated, \"Token not delegated\");\n            currentIONFTs[tokenId].delegated = false;\n        }\n\n        emit delegatedToken(tokenId, msg.sender, delegate);\n    }\n\n    function getMinterDetails(address id)\n        public\n        view\n        override\n        returns (uint256, bool)\n    {\n        return (minters[id].totalStaked, minters[id].active);\n    }\n\n    function getMinterKeys() public view override returns (address[] memory) {\n        return mintersIds;\n    }\n\n    function getTokenIndexes() public view override returns (uint256[] memory) {\n        return tokenIndexes;\n    }\n\n    function getTokenDetails(uint256 tokenId)\n        public\n        override\n        returns (\n            address,\n            uint256,\n            uint256,\n            bool,\n            bool\n        )\n    {\n        return (\n            currentIONFTs[tokenId].owner,\n            currentIONFTs[tokenId].price,\n            currentIONFTs[tokenId].originalPrice,\n            currentIONFTs[tokenId].exists,\n            currentIONFTs[tokenId].delegated\n        );\n    }\n\n    function burnToken(uint256 tokenId) public whenNotPaused {\n        ionft.burnToken(tokenId);\n    }\n\n    function getContractCut(uint256 value) internal view returns (uint256) {\n        uint256 roundValue = value.ceil(100);\n        uint256 cut = roundValue.mul(contractCut).div(10000);\n        return cut;\n    }\n}\n",
  "sourcePath": "/Users/siphamandlamjoli/Documents/GitHub/iotnft/contracts/contracts/IOTNFT.sol",
  "compiler": {
    "name": "solc",
    "version": "0.6.2+commit.bacdbe57.Emscripten.clang"
  },
  "schemaVersion": "3.4.4",
  "updatedAt": "2022-01-27T23:09:31.649Z",
  "networkType": "ethereum",
  "devdoc": {
    "methods": {
      "owner()": {
        "details": "Returns the address of the current owner."
      },
      "pause()": {
        "details": "called by the owner to pause, triggers stopped state"
      },
      "renounceOwnership()": {
        "details": "Leaves the contract without owner. It will not be possible to call `onlyOwner` functions anymore. Can only be called by the current owner.     * NOTE: Renouncing ownership will leave the contract without an owner, thereby removing any functionality that is only available to the owner."
      },
      "transferOwnership(address)": {
        "details": "Transfers ownership of the contract to a new account (`newOwner`). Can only be called by the current owner."
      },
      "unpause()": {
        "details": "called by the owner to unpause, returns to normal state"
      }
    }
  },
  "userdoc": {
    "methods": {},
    "notice": "dev contract represents the functionality required by OneCanvas  notice mostly likey not optimised for gas will fix as i develop notice implements the IOneCanvas interface "
  }
}