{
  "contractName": "MaticBridgedNativeSuperTokenProxy",
  "abi": [
    {
      "inputs": [
        {
          "internalType": "address",
          "name": "childChainManager_",
          "type": "address"
        }
      ],
      "stateMutability": "nonpayable",
      "type": "constructor"
    },
    {
      "anonymous": false,
      "inputs": [
        {
          "indexed": false,
          "internalType": "address",
          "name": "newAddress",
          "type": "address"
        }
      ],
      "name": "ChildChainManagerChanged",
      "type": "event"
    },
    {
      "stateMutability": "payable",
      "type": "fallback"
    },
    {
      "inputs": [],
      "name": "childChainManager",
      "outputs": [
        {
          "internalType": "address",
          "name": "",
          "type": "address"
        }
      ],
      "stateMutability": "view",
      "type": "function"
    },
    {
      "inputs": [
        {
          "internalType": "address",
          "name": "initialAddress",
          "type": "address"
        }
      ],
      "name": "initializeProxy",
      "outputs": [],
      "stateMutability": "nonpayable",
      "type": "function"
    },
    {
      "stateMutability": "payable",
      "type": "receive"
    },
    {
      "inputs": [
        {
          "internalType": "address",
          "name": "user",
          "type": "address"
        },
        {
          "internalType": "bytes",
          "name": "depositData",
          "type": "bytes"
        }
      ],
      "name": "deposit",
      "outputs": [],
      "stateMutability": "nonpayable",
      "type": "function"
    },
    {
      "inputs": [
        {
          "internalType": "uint256",
          "name": "amount",
          "type": "uint256"
        }
      ],
      "name": "withdraw",
      "outputs": [],
      "stateMutability": "nonpayable",
      "type": "function"
    },
    {
      "inputs": [
        {
          "internalType": "address",
          "name": "newChildChainManager",
          "type": "address"
        }
      ],
      "name": "updateChildChainManager",
      "outputs": [],
      "stateMutability": "nonpayable",
      "type": "function"
    }
  ],
  "bytecode": "0x608060405234801561001057600080fd5b506040516107a23803806107a28339818101604052602081101561003357600080fd5b5051602080546001600160a01b0319166001600160a01b0390921691909117905561073f806100636000396000f3fe60806040526004361061004e5760003560e01c80632e1a7d4d14610065578063445a67971461008f5780634a0687ef146100c2578063c8291d84146100f5578063cf2c52cb146101265761005d565b3661005d5761005b6101b3565b005b61005b6101b3565b34801561007157600080fd5b5061005b6004803603602081101561008857600080fd5b50356101cd565b34801561009b57600080fd5b5061005b600480360360208110156100b257600080fd5b50356001600160a01b03166102a6565b3480156100ce57600080fd5b5061005b600480360360208110156100e557600080fd5b50356001600160a01b031661041d565b34801561010157600080fd5b5061010a6104e9565b604080516001600160a01b039092168252519081900360200190f35b34801561013257600080fd5b5061005b6004803603604081101561014957600080fd5b6001600160a01b03823516919081019060408101602082013564010000000081111561017457600080fd5b82018360208201111561018657600080fd5b803590602001918460018302840111640100000000831117156101a857600080fd5b5090925090506104f8565b6101bb6101cb565b6101cb6101c6610640565b61064f565b565b6040805160008082526020820192839052639d87674160e01b83523360248301818152604484018690526060606485019081528451608486018190523096639d876741969495899594939260a4860192918190849084905b8381101561023d578181015183820152602001610225565b50505050905090810190601f16801561026a5780820380516001836020036101000a031916815260200191505b50945050505050600060405180830381600087803b15801561028b57600080fd5b505af115801561029f573d6000803e3d6000fd5b5050505050565b6000306001600160a01b03166320bc44256040518163ffffffff1660e01b815260040160206040518083038186803b1580156102e157600080fd5b505afa1580156102f5573d6000803e3d6000fd5b505050506040513d602081101561030b57600080fd5b50516040805163289b3c0d60e01b815290519192506000916001600160a01b0384169163289b3c0d916004808301926020929190829003018186803b15801561035357600080fd5b505afa158015610367573d6000803e3d6000fd5b505050506040513d602081101561037d57600080fd5b50519050336001600160a01b038216146103c85760405162461bcd60e51b81526004018080602001828103825260268152602001806106e46026913960400191505060405180910390fd5b602080546001600160a01b0319166001600160a01b038516908117825560408051918252517f88ba5221dde9ab86adbd4dee937ed51febc94c1052c203da3aabe4034a9273f5929181900390910190a1505050565b6001600160a01b038116610478576040805162461bcd60e51b815260206004820152601760248201527f5555505350726f78793a207a65726f2061646472657373000000000000000000604482015290519081900360640190fd5b6000610482610673565b6001600160a01b0316146104dd576040805162461bcd60e51b815260206004820152601e60248201527f5555505350726f78793a20616c726561647920696e697469616c697a65640000604482015290519081900360640190fd5b6104e681610698565b50565b6020546001600160a01b031681565b6020546001600160a01b031633146105415760405162461bcd60e51b81526004018080602001828103825260278152602001806106bd6027913960400191505060405180910390fd5b60008282602081101561055357600080fd5b50604080516000808252602082019283905263c68d428360e01b83526001600160a01b03881660248301908152933560448301819052606060648401908152835160848501819052919650309563c68d4283958b958995909492939260a4860192918190849084905b838110156105d45781810151838201526020016105bc565b50505050905090810190601f1680156106015780820380516001836020036101000a031916815260200191505b50945050505050600060405180830381600087803b15801561062257600080fd5b505af1158015610636573d6000803e3d6000fd5b5050505050505050565b600061064a610673565b905090565b3660008037600080366000845af43d6000803e80801561066e573d6000f35b3d6000fd5b7f360894a13ba1a3210667c828492db98dca3e2076cc3735a920a3ca505d382bbc5490565b7f360894a13ba1a3210667c828492db98dca3e2076cc3735a920a3ca505d382bbc5556fe4d424e5375706572546f6b656e3a206e6f207065726d697373696f6e20746f206465706f7369744d424e5375706572546f6b656e3a206f6e6c7920676f7665726e616e636520616c6c6f776564a26469706673582212204422d19dfa40aa098b8d9a7d0ac8508469e555b98058e51a3b1290f2a586635664736f6c63430007060033",
  "immutableReferences": {},
  "source": "// SPDX-License-Identifier: AGPLv3\npragma solidity 0.7.6;\n\nimport {\n    ISuperToken,\n    CustomSuperTokenBase\n}\nfrom \"../interfaces/superfluid/CustomSuperTokenBase.sol\";\nimport { IMaticBridgedNativeSuperTokenCustom } from \"../interfaces/tokens/IMaticBridgedNativeSuperToken.sol\";\nimport { UUPSProxy } from \"../upgradability/UUPSProxy.sol\";\n\nimport { ISuperfluid } from \"../interfaces/superfluid/ISuperfluid.sol\";\n\n\n/**\n * @dev Native SuperToken with interfaces for the Matic POS bridge to mint and burn.\n * See https://docs.polygon.technology/docs/develop/ethereum-matic/pos/mapping-assets/\n *\n * @author Superfluid\n */\ncontract MaticBridgedNativeSuperTokenProxy is IMaticBridgedNativeSuperTokenCustom, CustomSuperTokenBase, UUPSProxy {\n    address public childChainManager;\n\n    constructor(address childChainManager_) {\n        childChainManager = childChainManager_;\n    }\n\n    function deposit(address user, bytes calldata depositData) external override {\n        require(msg.sender == childChainManager, \"MBNSuperToken: no permission to deposit\");\n        uint256 amount = abi.decode(depositData, (uint256));\n        ISuperToken(address(this)).selfMint(user, amount, new bytes(0));\n    }\n\n    function withdraw(uint256 amount) external override {\n        ISuperToken(address(this)).selfBurn(msg.sender, amount, new bytes(0));\n    }\n\n    function updateChildChainManager(address newChildChainManager) external override {\n        address host = ISuperToken(address(this)).getHost();\n        address gov = address(ISuperfluid(host).getGovernance());\n        require(msg.sender == gov, \"MBNSuperToken: only governance allowed\");\n\n        childChainManager = newChildChainManager;\n        emit ChildChainManagerChanged(newChildChainManager);\n    }\n}\n",
  "sourcePath": "/home/runner/work/protocol-monorepo/protocol-monorepo/packages/ethereum-contracts/contracts/tokens/MaticBridgedNativeSuperToken.sol",
  "compiler": {
    "name": "solc",
    "version": "0.7.6+commit.7338295f.Emscripten.clang"
  },
  "schemaVersion": "3.4.4",
  "updatedAt": "2022-02-01T14:35:44.889Z",
  "devdoc": {
    "author": "Superfluid",
    "details": "Native SuperToken with interfaces for the Matic POS bridge to mint and burn. See https://docs.polygon.technology/docs/develop/ethereum-matic/pos/mapping-assets/",
    "kind": "dev",
    "methods": {
      "deposit(address,bytes)": {
        "details": "triggers minting of tokens to the given user, called by the child chain manager"
      },
      "initializeProxy(address)": {
        "details": "Proxy initialization function.      This should only be called once and it is permission-less.",
        "params": {
          "initialAddress": "Initial logic contract code address to be used."
        }
      },
      "updateChildChainManager(address)": {
        "details": "governance can change the child chain manager"
      },
      "withdraw(uint256)": {
        "details": "triggers burning of tokens on the child chain and unlocking on L1"
      }
    },
    "version": 1
  },
  "userdoc": {
    "kind": "user",
    "methods": {},
    "version": 1
  }
}