{
  "contractName": "MultiFlowApp",
  "abi": [
    {
      "inputs": [
        {
          "internalType": "contract IConstantFlowAgreementV1",
          "name": "cfa",
          "type": "address"
        },
        {
          "internalType": "contract ISuperfluid",
          "name": "superfluid",
          "type": "address"
        }
      ],
      "stateMutability": "nonpayable",
      "type": "constructor"
    },
    {
      "inputs": [
        {
          "internalType": "contract ISuperToken",
          "name": "",
          "type": "address"
        },
        {
          "internalType": "address",
          "name": "",
          "type": "address"
        },
        {
          "internalType": "bytes32",
          "name": "",
          "type": "bytes32"
        },
        {
          "internalType": "bytes",
          "name": "",
          "type": "bytes"
        },
        {
          "internalType": "bytes",
          "name": "",
          "type": "bytes"
        }
      ],
      "name": "beforeAgreementCreated",
      "outputs": [
        {
          "internalType": "bytes",
          "name": "",
          "type": "bytes"
        }
      ],
      "stateMutability": "view",
      "type": "function"
    },
    {
      "inputs": [
        {
          "internalType": "contract ISuperToken",
          "name": "",
          "type": "address"
        },
        {
          "internalType": "address",
          "name": "",
          "type": "address"
        },
        {
          "internalType": "bytes32",
          "name": "",
          "type": "bytes32"
        },
        {
          "internalType": "bytes",
          "name": "",
          "type": "bytes"
        },
        {
          "internalType": "bytes",
          "name": "",
          "type": "bytes"
        }
      ],
      "name": "beforeAgreementTerminated",
      "outputs": [
        {
          "internalType": "bytes",
          "name": "",
          "type": "bytes"
        }
      ],
      "stateMutability": "view",
      "type": "function"
    },
    {
      "inputs": [
        {
          "internalType": "contract ISuperToken",
          "name": "superToken",
          "type": "address"
        },
        {
          "internalType": "address",
          "name": "receiver",
          "type": "address"
        },
        {
          "internalType": "int96",
          "name": "flowRate",
          "type": "int96"
        },
        {
          "internalType": "bytes",
          "name": "ctx",
          "type": "bytes"
        }
      ],
      "name": "createFlow",
      "outputs": [
        {
          "internalType": "bytes",
          "name": "newCtx",
          "type": "bytes"
        }
      ],
      "stateMutability": "nonpayable",
      "type": "function"
    },
    {
      "inputs": [
        {
          "internalType": "contract ISuperToken",
          "name": "superToken",
          "type": "address"
        },
        {
          "internalType": "address",
          "name": "agreementClass",
          "type": "address"
        },
        {
          "internalType": "bytes32",
          "name": "agreementId",
          "type": "bytes32"
        },
        {
          "internalType": "bytes",
          "name": "agreementData",
          "type": "bytes"
        },
        {
          "internalType": "bytes",
          "name": "",
          "type": "bytes"
        },
        {
          "internalType": "bytes",
          "name": "ctx",
          "type": "bytes"
        }
      ],
      "name": "afterAgreementCreated",
      "outputs": [
        {
          "internalType": "bytes",
          "name": "newCtx",
          "type": "bytes"
        }
      ],
      "stateMutability": "nonpayable",
      "type": "function"
    },
    {
      "inputs": [
        {
          "internalType": "contract ISuperToken",
          "name": "superToken",
          "type": "address"
        },
        {
          "internalType": "address",
          "name": "agreementClass",
          "type": "address"
        },
        {
          "internalType": "bytes32",
          "name": "agreementId",
          "type": "bytes32"
        },
        {
          "internalType": "bytes",
          "name": "",
          "type": "bytes"
        },
        {
          "internalType": "bytes",
          "name": "",
          "type": "bytes"
        }
      ],
      "name": "beforeAgreementUpdated",
      "outputs": [
        {
          "internalType": "bytes",
          "name": "cbdata",
          "type": "bytes"
        }
      ],
      "stateMutability": "view",
      "type": "function"
    },
    {
      "inputs": [
        {
          "internalType": "contract ISuperToken",
          "name": "superToken",
          "type": "address"
        },
        {
          "internalType": "address",
          "name": "agreementClass",
          "type": "address"
        },
        {
          "internalType": "bytes32",
          "name": "agreementId",
          "type": "bytes32"
        },
        {
          "internalType": "bytes",
          "name": "agreementData",
          "type": "bytes"
        },
        {
          "internalType": "bytes",
          "name": "",
          "type": "bytes"
        },
        {
          "internalType": "bytes",
          "name": "ctx",
          "type": "bytes"
        }
      ],
      "name": "afterAgreementUpdated",
      "outputs": [
        {
          "internalType": "bytes",
          "name": "newCtx",
          "type": "bytes"
        }
      ],
      "stateMutability": "nonpayable",
      "type": "function"
    },
    {
      "inputs": [
        {
          "internalType": "contract ISuperToken",
          "name": "superToken",
          "type": "address"
        },
        {
          "internalType": "address",
          "name": "agreementClass",
          "type": "address"
        },
        {
          "internalType": "bytes32",
          "name": "",
          "type": "bytes32"
        },
        {
          "internalType": "bytes",
          "name": "agreementData",
          "type": "bytes"
        },
        {
          "internalType": "bytes",
          "name": "",
          "type": "bytes"
        },
        {
          "internalType": "bytes",
          "name": "ctx",
          "type": "bytes"
        }
      ],
      "name": "afterAgreementTerminated",
      "outputs": [
        {
          "internalType": "bytes",
          "name": "newCtx",
          "type": "bytes"
        }
      ],
      "stateMutability": "nonpayable",
      "type": "function"
    }
  ],
  "bytecode": "0x60806040523480156200001157600080fd5b5060405162001cef38038062001cef8339810160408190526200003491620000f2565b6001600160a01b0382166200004557fe5b6001600160a01b0381166200005657fe5b600080546001600160a01b038085166001600160a01b03199283161790925560018054848416921691909117908190556040516315a722b960e31b815264110000000192919091169063ad3915c890620000b590849060040162000130565b600060405180830381600087803b158015620000d057600080fd5b505af1158015620000e5573d6000803e3d6000fd5b5050505050505062000152565b6000806040838503121562000105578182fd5b8251620001128162000139565b6020840151909250620001258162000139565b809150509250929050565b90815260200190565b6001600160a01b03811681146200014f57600080fd5b50565b611b8d80620001626000396000f3fe608060405234801561001057600080fd5b506004361061007d5760003560e01c80635f9e7d771161005b5780635f9e7d77146100d157806362fc305e146100e4578063884d1f40146100f7578063d86ed3e51461010a5761007d565b8063230dbd291461008257806330d9c915146100ab57806353c11f99146100be575b600080fd5b6100956100903660046115c0565b61011d565b6040516100a291906118eb565b60405180910390f35b6100956100b9366004611524565b610310565b6100956100cc3660046115c0565b610349565b6100956100df366004611524565b610881565b6100956100f2366004611687565b6108ba565b610095610105366004611524565b6109c7565b6100956101183660046115c0565b610aae565b6001546060906001600160a01b0316331461013457fe5b6000546001600160a01b038a811691161461014b57fe5b610153611190565b600154604051631fb6491d60e11b81526001600160a01b0390911690633f6c923a9061018590879087906004016118d7565b60006040518083038186803b15801561019d57600080fd5b505afa1580156101b1573d6000803e3d6000fd5b505050506040513d6000823e601f3d908101601f191682016040526101d99190810190611724565b80825260a001516101e990610c91565b60408301526001600160a01b03166020820152610208878901896113a5565b6001600160a01b0390811660808401529081166060808401829052835101519091161461023157fe5b60808101516001600160a01b0316301461024757fe5b805160c0015161025357fe5b60008054604051631557a4cd60e31b81526001600160a01b039091169063aabd266890610286908f908e90600401611a1e565b60806040518083038186803b15801561029e57600080fd5b505afa1580156102b2573d6000803e3d6000fd5b505050506040513d601f19601f820116820180604052508101906102d69190611844565b50506040840151845160c001519193506103009250908e906328104d3160e11b9085908a8a610dc1565b9c9b505050505050505050505050565b606060405162461bcd60e51b815260040180806020018281038252602f815260200180611b29602f913960400191505060405180910390fd5b6001546060906001600160a01b0316331461036057fe5b6000546001600160a01b038a811691161461037757fe5b61037f611190565b600154604051631fb6491d60e11b81526001600160a01b0390911690633f6c923a906103b190879087906004016118d7565b60006040518083038186803b1580156103c957600080fd5b505afa1580156103dd573d6000803e3d6000fd5b505050506040513d6000823e601f3d908101601f191682016040526104059190810190611724565b80825260a0015161041590610c91565b60408301526001600160a01b03166020820152610434878901896113a5565b6001600160a01b0390811660808401521660608201819052301480610465575060808101516001600160a01b031630145b61046b57fe5b606084848080601f01602080910402602001604051908101604052809392919081815260200183838082843760009201919091525050506080840151919450506001600160a01b03163014156105f75760005b826040015160200151518110156105f15763b4b333c660e01b8d3085604001516020015184815181106104ed57fe5b6020908102919091018101515160408051600081529283019052610516939291604481016119aa565b60408051601f19818403018152918152602080830180516001600160e01b03166001600160e01b0319959095169490941790935260015460008054835191825294810192839052634329d29360e01b9092529194506001600160a01b0391821692634329d293926105909291169086908960248201611955565b600060405180830381600087803b1580156105aa57600080fd5b505af11580156105be573d6000803e3d6000fd5b505050506040513d6000823e601f3d908101601f191682016040526105e691908101906114c3565b5093506001016104be565b50610872565b60005b826040015160200151518110156107705782608001516001600160a01b0316836040015160200151828151811061062d57fe5b6020026020010151600001516001600160a01b0316141561064d57610768565b63b4b333c660e01b8d30856040015160200151848151811061066b57fe5b6020908102919091018101515160408051600081529283019052610694939291604481016119aa565b60408051601f19818403018152918152602080830180516001600160e01b03166001600160e01b0319959095169490941790935260015460008054835191825294810192839052634329d29360e01b9092529194506001600160a01b0391821692634329d2939261070e9291169086908960248201611955565b600060405180830381600087803b15801561072857600080fd5b505af115801561073c573d6000803e3d6000fd5b505050506040513d6000823e601f3d908101601f1916820160405261076491908101906114c3565b5093505b6001016105fa565b5060208281015160408051600081529283019052635a5999e360e11b9161079e918f913090604481016119aa565b60408051601f19818403018152918152602080830180516001600160e01b03166001600160e01b0319959095169490941790935260015460008054835191825294810192839052634329d29360e01b9092529193506001600160a01b0391821692634329d293926108189291169085908860248201611955565b600060405180830381600087803b15801561083257600080fd5b505af1158015610846573d6000803e3d6000fd5b505050506040513d6000823e601f3d908101601f1916820160405261086e91908101906114c3565b5092505b50509998505050505050505050565b606060405162461bcd60e51b8152600401808060200182810382526033815260200180611af66033913960400191505060405180910390fd5b604080516000808252602082019092526060919063317e182f60e11b906108ea90899089908990604481016119e8565b60408051601f19818403018152918152602080830180516001600160e01b03166001600160e01b0319959095169490941790935260015460008054835191825294810192839052634329d29360e01b9092529193506001600160a01b0391821692634329d293926109659291169085908989602483016118fe565b600060405180830381600087803b15801561097f57600080fd5b505af1158015610993573d6000803e3d6000fd5b505050506040513d6000823e601f3d908101601f191682016040526109bb91908101906114c3565b50979650505050505050565b6001546060906001600160a01b031633146109de57fe5b6000546001600160a01b038881169116146109f557fe5b60008054604051631557a4cd60e31b81526001600160a01b039091169063aabd266890610a28908c908b90600401611a1e565b60806040518083038186803b158015610a4057600080fd5b505afa158015610a54573d6000803e3d6000fd5b505050506040513d601f19601f82011682018060405250810190610a789190611844565b5050600b0b91505080604051602001610a919190611a53565b604051602081830303815290604052915050979650505050505050565b6001546060906001600160a01b03163314610ac557fe5b6000546001600160a01b038a8116911614610adc57fe5b610ae4611190565b600154604051631fb6491d60e11b81526001600160a01b0390911690633f6c923a90610b1690879087906004016118d7565b60006040518083038186803b158015610b2e57600080fd5b505afa158015610b42573d6000803e3d6000fd5b505050506040513d6000823e601f3d908101601f19168201604052610b6a9190810190611724565b80825260a00151610b7a90610c91565b60408301526001600160a01b03166020820152610b99878901896113a5565b6001600160a01b03908116608084015290811660608084018290528351015190911614610bc257fe5b60808101516001600160a01b03163014610bd857fe5b805160c00151610be457fe5b60008054604051631557a4cd60e31b81526001600160a01b039091169063aabd266890610c17908f908e90600401611a1e565b60806040518083038186803b158015610c2f57600080fd5b505afa158015610c43573d6000803e3d6000fd5b505050506040513d601f19601f82011682018060405250810190610c679190611844565b50506040840151845160c001519193506103009250908e9063317e182f60e11b9085908a8a610dc1565b6000610c9b6111cb565b600060608085806020019051810190610cb491906113dd565b80518251949950929650909450925014610cca57fe5b60ff83168452815167ffffffffffffffff81118015610ce857600080fd5b50604051908082528060200260200182016040528015610d2257816020015b610d0f6111e3565b815260200190600190039081610d075790505b50602085015260005b8251811015610db8576000828281518110610d4257fe5b602002602001015111610d5157fe5b6040518060400160405280848381518110610d6857fe5b60200260200101516001600160a01b03168152602001838381518110610d8a57fe5b602002602001015181525085602001518281518110610da557fe5b6020908102919091010152600101610d2b565b50505050915091565b60606000610dd28960200151611154565b905083838080601f01602080910402602001604051908101604052809392919081815260200183838082843760009201829052508054604051630602f7db60e01b815295975090946001600160a01b039091169350630602f7db9250610e4391508c906000198b0190600401611a1e565b60206040518083038186803b158015610e5b57600080fd5b505afa158015610e6f573d6000803e3d6000fd5b505050506040513d601f19601f82011682018060405250810190610e939190611701565b6000546040516346ccbfb760e11b81529192506001600160a01b031690638d997f6e90610ec6908c908590600401611a37565b60206040518083038186803b158015610ede57600080fd5b505afa158015610ef2573d6000803e3d6000fd5b505050506040513d601f19601f82011682018060405250810190610f16919061182c565b8a51606460ff9091169182028190049750908802600b0b05965060005b8a60200151518110156111385760008b602001518281518110610f5257fe5b6020026020010151905060008482602001518a0281610f6d57fe5b04905060008060009054906101000a90046001600160a01b03166001600160a01b0316630602f7db8e846040518363ffffffff1660e01b8152600401610fb4929190611a1e565b60206040518083038186803b158015610fcc57600080fd5b505afa158015610fe0573d6000803e3d6000fd5b505050506040513d601f19601f820116820180604052508101906110049190611701565b83519b8190039b9091506000908d908f9084846040519080825280601f01601f191660200182016040528015611041576020820181803683370190505b5060405160240161105594939291906119e8565b60408051601f19818403018152918152602080830180516001600160e01b03166001600160e01b0319959095169490941790935260015460008054835191825294810192839052634329d29360e01b9092529193506001600160a01b0391821692634329d293926110cf9291169085908d60248201611955565b600060405180830381600087803b1580156110e957600080fd5b505af11580156110fd573d6000803e3d6000fd5b505050506040513d6000823e601f3d908101601f1916820160405261112591908101906114c3565b5097505060019093019250610f33915050565b50600087600b0b121561114757fe5b5050979650505050505050565b6000805b825181101561118a5782818151811061116d57fe5b602002602001015160200151820191508080600101915050611158565b50919050565b6040518060a001604052806111a36111fa565b8152600060208201526040016111b76111cb565b815260006020820181905260409091015290565b60408051808201909152600081526060602082015290565b604080518082019091526000808252602082015290565b604080516101608101825260008082526020820181905291810182905260608082018390526080820183905260a082015260c0810182905260e081018290526101008101829052610120810182905261014081019190915290565b805161126081611ace565b919050565b600082601f830112611275578081fd5b8151602061128a61128583611a80565b611a5c565b82815281810190858301838502870184018810156112a6578586fd5b855b858110156112c4578151845292840192908401906001016112a8565b5090979650505050505050565b80516001600160e01b03198116811461126057600080fd5b60008083601f8401126112fa578182fd5b50813567ffffffffffffffff811115611311578182fd5b60208301915083602082850101111561132957600080fd5b9250929050565b600082601f830112611340578081fd5b815167ffffffffffffffff81111561135457fe5b611367601f8201601f1916602001611a5c565b81815284602083860101111561137b578283fd5b61138c826020830160208701611a9e565b949350505050565b805160ff8116811461126057600080fd5b600080604083850312156113b7578182fd5b82356113c281611ace565b915060208301356113d281611ace565b809150509250929050565b600080600080608085870312156113f2578182fd5b84516113fd81611ace565b9350602061140c868201611394565b9350604086015167ffffffffffffffff80821115611428578485fd5b818801915088601f83011261143b578485fd5b815161144961128582611a80565b81815284810190848601868402860187018d1015611465578889fd5b8895505b8386101561149057805161147c81611ace565b835260019590950194918601918601611469565b5060608b015190975094505050808311156114a9578384fd5b50506114b787828801611265565b91505092959194509250565b600080604083850312156114d5578182fd5b825167ffffffffffffffff808211156114ec578384fd5b6114f886838701611330565b9350602085015191508082111561150d578283fd5b5061151a85828601611330565b9150509250929050565b600080600080600080600060a0888a03121561153e578485fd5b873561154981611ace565b9650602088013561155981611ace565b955060408801359450606088013567ffffffffffffffff8082111561157c578485fd5b6115888b838c016112e9565b909650945060808a01359150808211156115a0578384fd5b506115ad8a828b016112e9565b989b979a50959850939692959293505050565b600080600080600080600080600060c08a8c0312156115dd578283fd5b89356115e881611ace565b985060208a01356115f881611ace565b975060408a0135965060608a013567ffffffffffffffff8082111561161b578485fd5b6116278d838e016112e9565b909850965060808c013591508082111561163f578485fd5b61164b8d838e016112e9565b909650945060a08c0135915080821115611663578384fd5b506116708c828d016112e9565b915080935050809150509295985092959850929598565b60008060008060006080868803121561169e578283fd5b85356116a981611ace565b945060208601356116b981611ace565b935060408601356116c981611ae6565b9250606086013567ffffffffffffffff8111156116e4578182fd5b6116f0888289016112e9565b969995985093965092949392505050565b600060208284031215611712578081fd5b815161171d81611ae6565b9392505050565b600060208284031215611735578081fd5b815167ffffffffffffffff8082111561174c578283fd5b8184019150610160808387031215611762578384fd5b61176b81611a5c565b905061177683611394565b815261178460208401611394565b60208201526040830151604082015261179f60608401611255565b60608201526117b0608084016112d1565b608082015260a0830151828111156117c6578485fd5b6117d287828601611330565b60a08301525060c083015160c082015260e083015160e0820152610100915081830151828201526101209150611809828401611255565b82820152610140915061181d828401611255565b91810191909152949350505050565b60006020828403121561183d578081fd5b5051919050565b60008060008060808587031215611859578182fd5b84519350602085015161186b81611ae6565b6040860151606090960151949790965092505050565b60008284528282602086013780602084860101526020601f19601f85011685010190509392505050565b600081518084526118c3816020860160208601611a9e565b601f01601f19169290920160200192915050565b60006020825261138c602083018486611881565b60006020825261171d60208301846118ab565b6001600160a01b0386168152608060208201819052600090611922908301876118ab565b828103604084015261193481876118ab565b90508281036060840152611949818587611881565b98975050505050505050565b6001600160a01b0385168152608060208201819052600090611979908301866118ab565b828103604084015261198b81866118ab565b9050828103606084015261199f81856118ab565b979650505050505050565b6001600160a01b0385811682528481166020830152831660408201526080606082018190526000906119de908301846118ab565b9695505050505050565b6001600160a01b03858116825284166020820152600b83900b60408201526080606082018190526000906119de908301846118ab565b6001600160a01b03929092168252602082015260400190565b6001600160a01b03929092168252600b0b602082015260400190565b90815260200190565b60405181810167ffffffffffffffff81118282101715611a7857fe5b604052919050565b600067ffffffffffffffff821115611a9457fe5b5060209081020190565b60005b83811015611ab9578181015183820152602001611aa1565b83811115611ac8576000848401525b50505050565b6001600160a01b0381168114611ae357600080fd5b50565b80600b0b8114611ae357600080fdfe556e737570706f727465642063616c6c6261636b202d20204265666f72652041677265656d656e74205465726d696e61746564556e737570706f727465642063616c6c6261636b202d204265666f72652041677265656d656e742043726561746564a264697066735822122057728ee36c3cc5c4719f46c50bb87309094dc6775f47bddab7dbebd9e1c5249764736f6c63430007060033",
  "immutableReferences": {},
  "source": "// SPDX-License-Identifier: AGPLv3\npragma solidity 0.7.6;\npragma experimental ABIEncoderV2;\n\nimport {\n    ISuperfluid,\n    ISuperToken,\n    SuperAppBase,\n    SuperAppDefinitions\n} from \"../apps/SuperAppBase.sol\";\nimport { IConstantFlowAgreementV1 } from \"../interfaces/agreements/IConstantFlowAgreementV1.sol\";\n\n\n/**\n * @dev Multi Flow (Super) App\n *\n * A super app that can split incoming flows to multiple outgoing flows.\n *\n * This is used for testing CFA callbacks logic.\n */\ncontract MultiFlowApp is SuperAppBase {\n\n    struct ReceiverData {\n        address to;\n        uint256 proportion;\n    }\n\n    struct Configuration {\n        uint8 ratioPct;\n        ReceiverData[] receivers;\n    }\n\n    IConstantFlowAgreementV1 private _cfa;\n    ISuperfluid private _host;\n\n    constructor(IConstantFlowAgreementV1 cfa, ISuperfluid superfluid) {\n        assert(address(cfa) != address(0));\n        assert(address(superfluid) != address(0));\n        _cfa = cfa;\n        _host = superfluid;\n\n        uint256 configWord =\n            SuperAppDefinitions.APP_LEVEL_FINAL |\n            SuperAppDefinitions.BEFORE_AGREEMENT_CREATED_NOOP |\n            SuperAppDefinitions.BEFORE_AGREEMENT_TERMINATED_NOOP;\n\n        _host.registerApp(configWord);\n    }\n\n    function _parseUserData(\n        bytes memory userData\n    )\n        private pure\n        returns (address sender, Configuration memory configuration)\n    {\n        // parse user data\n        uint8 ratioPct;\n        address[] memory receivers;\n        uint256[] memory proportions;\n        (sender, ratioPct, receivers, proportions) = abi.decode(\n            userData, (address, uint8, address[], uint256[]));\n        assert(receivers.length == proportions.length);\n\n        configuration.ratioPct = ratioPct;\n        configuration.receivers = new ReceiverData[](receivers.length);\n        for(uint256 i = 0; i < receivers.length; i++) {\n            assert(proportions[i] > 0);\n            configuration.receivers[i] = ReceiverData(receivers[i], proportions[i]);\n        }\n    }\n\n    function _sumProportions(ReceiverData[] memory receivers) internal pure returns(uint256 sum) {\n        for(uint256 i = 0; i < receivers.length; i++) {\n            sum += receivers[i].proportion;\n        }\n    }\n\n    function _updateMultiFlow(\n        Configuration memory configuration,\n        ISuperToken superToken,\n        bytes4 selector,\n        int96 flowRate,\n        uint256 appAllowanceGranted,\n        bytes calldata ctx\n    )\n        private\n        returns (bytes memory newCtx)\n    {\n        uint256 sum = _sumProportions(configuration.receivers);\n\n        newCtx = ctx;\n\n        // in case of mfa, we underutlize the app allowance for simplicity\n        int96 safeFlowRate = _cfa.getMaximumFlowRateFromDeposit(superToken, appAllowanceGranted - 1);\n        appAllowanceGranted = _cfa.getDepositRequiredForFlowRate(superToken, safeFlowRate);\n\n        // scale the flow rate and app allowance numbers\n        appAllowanceGranted = appAllowanceGranted * configuration.ratioPct / 100;\n        flowRate = flowRate * configuration.ratioPct / 100;\n\n        for(uint256 i = 0; i < configuration.receivers.length; i++) {\n            ReceiverData memory receiverData = configuration.receivers[i];\n            uint256 targetAllowance = appAllowanceGranted * receiverData.proportion / sum;\n            int96 targetFlowRate = _cfa.getMaximumFlowRateFromDeposit(\n                superToken,\n                targetAllowance\n            );\n            flowRate -= targetFlowRate;\n            bytes memory callData = abi.encodeWithSelector(\n                selector,\n                superToken,\n                receiverData.to,\n                targetFlowRate,\n                new bytes(0)\n            );\n            (newCtx, ) = _host.callAgreementWithContext(\n                _cfa,\n                callData,\n                new bytes(0), // user data\n                newCtx\n            );\n        }\n        assert(flowRate >= 0);\n    }\n\n    // this function is for testing purpose\n    function createFlow(\n        ISuperToken superToken,\n        address receiver,\n        int96 flowRate,\n        bytes calldata ctx\n    )\n        external\n        returns (bytes memory newCtx)\n    {\n        bytes memory callData = abi.encodeWithSelector(\n            _cfa.createFlow.selector,\n            superToken,\n            receiver,\n            flowRate,\n            new bytes(0));\n        (newCtx, ) = _host.callAgreementWithContext(\n            _cfa,\n            callData,\n            new bytes(0), // user data\n            ctx\n        );\n    }\n\n    struct StackVars {\n    \tISuperfluid.Context context;\n        address mfaSender;\n        Configuration configuration;\n        address flowSender;\n        address flowReceiver;\n    }\n\n    function afterAgreementCreated(\n        ISuperToken superToken,\n        address agreementClass,\n        bytes32 agreementId,\n        bytes calldata agreementData,\n        bytes calldata /*cbdata*/,\n        bytes calldata ctx\n    )\n        external override\n        onlyHost\n        returns(bytes memory newCtx)\n    {\n        assert(agreementClass == address(_cfa));\n        StackVars memory vars;\n\n        vars.context = _host.decodeCtx(ctx);\n        // parse user data\n        (vars.mfaSender, vars.configuration) = _parseUserData(vars.context.userData);\n        // validate the context\n        {\n            (vars.flowSender, vars.flowReceiver) = abi.decode(agreementData, (address, address));\n            assert(vars.flowSender == vars.context.msgSender);\n            assert(vars.flowReceiver == address(this));\n            assert(vars.context.appAllowanceGranted > 0);\n        }\n        int96 flowRate;\n        (,flowRate,,) = _cfa.getFlowByID(superToken, agreementId);\n        newCtx = _updateMultiFlow(\n            vars.configuration,\n            superToken,\n            _cfa.createFlow.selector,\n            flowRate,\n            vars.context.appAllowanceGranted,\n            ctx);\n    }\n\n    function beforeAgreementUpdated(\n        ISuperToken superToken,\n        address agreementClass,\n        bytes32 agreementId,\n        bytes calldata /*agreementData*/,\n        bytes calldata /*ctx*/\n    )\n        external view override\n        onlyHost\n        returns (bytes memory cbdata)\n    {\n        assert(agreementClass == address(_cfa));\n        (, int256 oldFlowRate, ,) = _cfa.getFlowByID(superToken, agreementId);\n        return abi.encode(oldFlowRate);\n    }\n\n    function afterAgreementUpdated(\n        ISuperToken superToken,\n        address agreementClass,\n        bytes32 agreementId,\n        bytes calldata agreementData,\n        bytes calldata /* cbdata */,\n        bytes calldata ctx\n    )\n        external override\n        onlyHost\n        returns (bytes memory newCtx)\n    {\n        assert(agreementClass == address(_cfa));\n        StackVars memory vars;\n\n        vars.context = _host.decodeCtx(ctx);\n        // parse user data\n        (vars.mfaSender, vars.configuration) = _parseUserData(vars.context.userData);\n        // validate the context\n        {\n            (vars.flowSender, vars.flowReceiver) = abi.decode(agreementData, (address, address));\n            assert(vars.flowSender == vars.context.msgSender);\n            assert(vars.flowReceiver == address(this));\n            assert(vars.context.appAllowanceGranted > 0);\n        }\n        int96 flowRate;\n        (,flowRate,,) = _cfa.getFlowByID(superToken, agreementId);\n        newCtx = _updateMultiFlow(\n            vars.configuration,\n            superToken,\n            _cfa.updateFlow.selector,\n            flowRate,\n            vars.context.appAllowanceGranted,\n            ctx);\n    }\n\n    function afterAgreementTerminated(\n        ISuperToken superToken,\n        address agreementClass,\n        bytes32 /*agreementId*/,\n        bytes calldata agreementData,\n        bytes calldata /*cbdata*/,\n        bytes calldata ctx\n    )\n\n        external override\n        onlyHost\n        returns (bytes memory newCtx)\n    {\n        assert(agreementClass == address(_cfa));\n        StackVars memory vars;\n\n        vars.context = _host.decodeCtx(ctx);\n\n        // parse user data\n        (vars.mfaSender, vars.configuration) = _parseUserData(vars.context.userData);\n        // validate the context\n        (vars.flowSender, vars.flowReceiver) = abi.decode(agreementData, (address, address));\n        assert(vars.flowSender == address(this) || vars.flowReceiver == address(this));\n\n        bytes memory callData;\n        newCtx = ctx;\n        if (vars.flowReceiver == address(this)) {\n            for(uint256 i = 0; i < vars.configuration.receivers.length; i++) {\n                callData = abi.encodeWithSelector(\n                    _cfa.deleteFlow.selector,\n                    superToken,\n                    address(this),\n                    vars.configuration.receivers[i].to,\n                    new bytes(0) //placeholder ctx\n                );\n                (newCtx, ) = _host.callAgreementWithContext(\n                    _cfa,\n                    callData,\n                    new bytes(0), // user data\n                    newCtx\n                );\n            }\n        } else /* if (vars.flowSender == address(this)) */ {\n            for(uint256 i = 0; i < vars.configuration.receivers.length; i++) {\n                // skip current closed flow\n                if (vars.configuration.receivers[i].to == vars.flowReceiver) continue;\n                // close the rest of the mfa receiver flows\n                callData = abi.encodeWithSelector(\n                    _cfa.deleteFlow.selector,\n                    superToken,\n                    address(this),\n                    vars.configuration.receivers[i].to,\n                    new bytes(0) //placeholder ctx\n                );\n                (newCtx, ) = _host.callAgreementWithContext(\n                    _cfa,\n                    callData,\n                    new bytes(0), // user data\n                    newCtx\n                );\n            }\n            // close the mfa sender flow\n            callData = abi.encodeWithSelector(\n                _cfa.deleteFlow.selector,\n                superToken,\n                vars.mfaSender,\n                address(this),\n                new bytes(0) //placeholder ctx\n            );\n            (newCtx, ) = _host.callAgreementWithContext(\n                _cfa,\n                callData,\n                new bytes(0), // user data\n                newCtx\n            );\n        }\n    }\n\n    modifier onlyHost() {\n        assert(msg.sender == address(_host));\n        _;\n    }\n}\n",
  "sourcePath": "/home/runner/work/protocol-monorepo/protocol-monorepo/packages/ethereum-contracts/contracts/test/MultiFlowApp.sol",
  "compiler": {
    "name": "solc",
    "version": "0.7.6+commit.7338295f.Emscripten.clang"
  },
  "schemaVersion": "3.4.4",
  "updatedAt": "2022-02-01T14:35:44.867Z",
  "devdoc": {
    "details": "Multi Flow (Super) App A super app that can split incoming flows to multiple outgoing flows. This is used for testing CFA callbacks logic.",
    "kind": "dev",
    "methods": {},
    "version": 1
  },
  "userdoc": {
    "kind": "user",
    "methods": {},
    "version": 1
  }
}