{
  "contractName": "Resolver",
  "abi": [
    {
      "inputs": [],
      "stateMutability": "nonpayable",
      "type": "constructor"
    },
    {
      "anonymous": false,
      "inputs": [
        {
          "indexed": true,
          "internalType": "bytes32",
          "name": "role",
          "type": "bytes32"
        },
        {
          "indexed": true,
          "internalType": "bytes32",
          "name": "previousAdminRole",
          "type": "bytes32"
        },
        {
          "indexed": true,
          "internalType": "bytes32",
          "name": "newAdminRole",
          "type": "bytes32"
        }
      ],
      "name": "RoleAdminChanged",
      "type": "event"
    },
    {
      "anonymous": false,
      "inputs": [
        {
          "indexed": true,
          "internalType": "bytes32",
          "name": "role",
          "type": "bytes32"
        },
        {
          "indexed": true,
          "internalType": "address",
          "name": "account",
          "type": "address"
        },
        {
          "indexed": true,
          "internalType": "address",
          "name": "sender",
          "type": "address"
        }
      ],
      "name": "RoleGranted",
      "type": "event"
    },
    {
      "anonymous": false,
      "inputs": [
        {
          "indexed": true,
          "internalType": "bytes32",
          "name": "role",
          "type": "bytes32"
        },
        {
          "indexed": true,
          "internalType": "address",
          "name": "account",
          "type": "address"
        },
        {
          "indexed": true,
          "internalType": "address",
          "name": "sender",
          "type": "address"
        }
      ],
      "name": "RoleRevoked",
      "type": "event"
    },
    {
      "anonymous": false,
      "inputs": [
        {
          "indexed": true,
          "internalType": "string",
          "name": "name",
          "type": "string"
        },
        {
          "indexed": false,
          "internalType": "address",
          "name": "target",
          "type": "address"
        }
      ],
      "name": "Set",
      "type": "event"
    },
    {
      "inputs": [],
      "name": "DEFAULT_ADMIN_ROLE",
      "outputs": [
        {
          "internalType": "bytes32",
          "name": "",
          "type": "bytes32"
        }
      ],
      "stateMutability": "view",
      "type": "function"
    },
    {
      "inputs": [
        {
          "internalType": "bytes32",
          "name": "role",
          "type": "bytes32"
        }
      ],
      "name": "getRoleAdmin",
      "outputs": [
        {
          "internalType": "bytes32",
          "name": "",
          "type": "bytes32"
        }
      ],
      "stateMutability": "view",
      "type": "function"
    },
    {
      "inputs": [
        {
          "internalType": "bytes32",
          "name": "role",
          "type": "bytes32"
        },
        {
          "internalType": "uint256",
          "name": "index",
          "type": "uint256"
        }
      ],
      "name": "getRoleMember",
      "outputs": [
        {
          "internalType": "address",
          "name": "",
          "type": "address"
        }
      ],
      "stateMutability": "view",
      "type": "function"
    },
    {
      "inputs": [
        {
          "internalType": "bytes32",
          "name": "role",
          "type": "bytes32"
        }
      ],
      "name": "getRoleMemberCount",
      "outputs": [
        {
          "internalType": "uint256",
          "name": "",
          "type": "uint256"
        }
      ],
      "stateMutability": "view",
      "type": "function"
    },
    {
      "inputs": [
        {
          "internalType": "bytes32",
          "name": "role",
          "type": "bytes32"
        },
        {
          "internalType": "address",
          "name": "account",
          "type": "address"
        }
      ],
      "name": "grantRole",
      "outputs": [],
      "stateMutability": "nonpayable",
      "type": "function"
    },
    {
      "inputs": [
        {
          "internalType": "bytes32",
          "name": "role",
          "type": "bytes32"
        },
        {
          "internalType": "address",
          "name": "account",
          "type": "address"
        }
      ],
      "name": "hasRole",
      "outputs": [
        {
          "internalType": "bool",
          "name": "",
          "type": "bool"
        }
      ],
      "stateMutability": "view",
      "type": "function"
    },
    {
      "inputs": [
        {
          "internalType": "bytes32",
          "name": "role",
          "type": "bytes32"
        },
        {
          "internalType": "address",
          "name": "account",
          "type": "address"
        }
      ],
      "name": "renounceRole",
      "outputs": [],
      "stateMutability": "nonpayable",
      "type": "function"
    },
    {
      "inputs": [
        {
          "internalType": "bytes32",
          "name": "role",
          "type": "bytes32"
        },
        {
          "internalType": "address",
          "name": "account",
          "type": "address"
        }
      ],
      "name": "revokeRole",
      "outputs": [],
      "stateMutability": "nonpayable",
      "type": "function"
    },
    {
      "inputs": [
        {
          "internalType": "string",
          "name": "name",
          "type": "string"
        },
        {
          "internalType": "address",
          "name": "target",
          "type": "address"
        }
      ],
      "name": "set",
      "outputs": [],
      "stateMutability": "nonpayable",
      "type": "function"
    },
    {
      "inputs": [
        {
          "internalType": "string",
          "name": "name",
          "type": "string"
        }
      ],
      "name": "get",
      "outputs": [
        {
          "internalType": "address",
          "name": "",
          "type": "address"
        }
      ],
      "stateMutability": "view",
      "type": "function"
    }
  ],
  "bytecode": "0x608060405234801561001057600080fd5b5061001c600033610021565b610126565b61002b828261002f565b5050565b6000828152602081815260409091206100519183906105a86100a2821b17901c565b1561002b5761005e6100c0565b6001600160a01b0316816001600160a01b0316837f2f8788117e7eff1d82e926ec794901d17c78024a50270940304540a733656f0d60405160405180910390a45050565b60006100b7836001600160a01b0384166100c4565b90505b92915050565b3390565b60006100d0838361010e565b610106575081546001818101845560008481526020808220909301849055845484825282860190935260409020919091556100ba565b5060006100ba565b60009081526001919091016020526040902054151590565b61094a806101356000396000f3fe608060405234801561001057600080fd5b506004361061009e5760003560e01c806391d148541161006657806391d14854146101db578063a217fddf1461021b578063a815ff1514610223578063ca15c8731461029c578063d547741f146102b95761009e565b8063248a9ca3146100a35780632f2ff15d146100d257806336568abe14610100578063693ec85e1461012c5780639010d07c146101b8575b600080fd5b6100c0600480360360208110156100b957600080fd5b50356102e5565b60408051918252519081900360200190f35b6100fe600480360360408110156100e857600080fd5b50803590602001356001600160a01b03166102fa565b005b6100fe6004803603604081101561011657600080fd5b50803590602001356001600160a01b0316610366565b61019c6004803603602081101561014257600080fd5b81019060208101813564010000000081111561015d57600080fd5b82018360208201111561016f57600080fd5b8035906020019184600183028401116401000000008311171561019157600080fd5b5090925090506103c7565b604080516001600160a01b039092168252519081900360200190f35b61019c600480360360408110156101ce57600080fd5b5080359060200135610402565b610207600480360360408110156101f157600080fd5b50803590602001356001600160a01b0316610421565b604080519115158252519081900360200190f35b6100c0610439565b6100fe6004803603604081101561023957600080fd5b81019060208101813564010000000081111561025457600080fd5b82018360208201111561026657600080fd5b8035906020019184600183028401116401000000008311171561028857600080fd5b9193509150356001600160a01b031661043e565b6100c0600480360360208110156102b257600080fd5b5035610538565b6100fe600480360360408110156102cf57600080fd5b50803590602001356001600160a01b031661054f565b60009081526020819052604090206002015490565b60008281526020819052604090206002015461031d906103186105bd565b610421565b6103585760405162461bcd60e51b815260040180806020018281038252602f815260200180610887602f913960400191505060405180910390fd5b61036282826105c1565b5050565b61036e6105bd565b6001600160a01b0316816001600160a01b0316146103bd5760405162461bcd60e51b815260040180806020018281038252602f8152602001806108e6602f913960400191505060405180910390fd5b610362828261062a565b6000600183836040518083838082843791909101948552505060405192839003602001909220546001600160a01b0316925050505b92915050565b600082815260208190526040812061041a9083610693565b9392505050565b600082815260208190526040812061041a908361069f565b600081565b61044b60006103186105bd565b610495576040805162461bcd60e51b815260206004820152601660248201527521b0b63632b91034b9903737ba1030b71030b236b4b760511b604482015290519081900360640190fd5b80600184846040518083838082843791909101948552505060405192839003602001832080546001600160a01b03959095166001600160a01b03199095169490941790935550849150839080838380828437604080519390910183900383206001600160a01b038816845290519095507f496595ced95720268cf8bc60bae3f35024ff2a130f73ac4e20f5c1eaca35db99945091829003602001925050a2505050565b60008181526020819052604081206103fc906106b4565b60008281526020819052604090206002015461056d906103186105bd565b6103bd5760405162461bcd60e51b81526004018080602001828103825260308152602001806108b66030913960400191505060405180910390fd5b600061041a836001600160a01b0384166106bf565b3390565b60008281526020819052604090206105d990826105a8565b15610362576105e66105bd565b6001600160a01b0316816001600160a01b0316837f2f8788117e7eff1d82e926ec794901d17c78024a50270940304540a733656f0d60405160405180910390a45050565b60008281526020819052604090206106429082610709565b156103625761064f6105bd565b6001600160a01b0316816001600160a01b0316837ff6391f5c32d9c69d2a47ea670b442974b53935d1edc7fd64eb21e047a839171b60405160405180910390a45050565b600061041a838361071e565b600061041a836001600160a01b038416610782565b60006103fc8261079a565b60006106cb8383610782565b610701575081546001818101845560008481526020808220909301849055845484825282860190935260409020919091556103fc565b5060006103fc565b600061041a836001600160a01b03841661079e565b815460009082106107605760405162461bcd60e51b81526004018080602001828103825260228152602001806108656022913960400191505060405180910390fd5b82600001828154811061076f57fe5b9060005260206000200154905092915050565b60009081526001919091016020526040902054151590565b5490565b6000818152600183016020526040812054801561085a57835460001980830191908101906000908790839081106107d157fe5b90600052602060002001549050808760000184815481106107ee57fe5b60009182526020808320909101929092558281526001898101909252604090209084019055865487908061081e57fe5b600190038181906000526020600020016000905590558660010160008781526020019081526020016000206000905560019450505050506103fc565b60009150506103fc56fe456e756d657261626c655365743a20696e646578206f7574206f6620626f756e6473416363657373436f6e74726f6c3a2073656e646572206d75737420626520616e2061646d696e20746f206772616e74416363657373436f6e74726f6c3a2073656e646572206d75737420626520616e2061646d696e20746f207265766f6b65416363657373436f6e74726f6c3a2063616e206f6e6c792072656e6f756e636520726f6c657320666f722073656c66a26469706673582212206ce015723b0984cf293d9ab7addbc7b7c27142deb6fbdc74d97b81a239e6f45464736f6c63430007060033",
  "immutableReferences": {},
  "source": "// SPDX-License-Identifier: AGPLv3\npragma solidity 0.7.6;\n\nimport { AccessControl } from \"@openzeppelin/contracts/access/AccessControl.sol\";\nimport { IResolver } from \"../interfaces/ux/IResolver.sol\";\n\n\n/**\n * @dev A simple implementation of IResolver using OZ AccessControl\n *\n * NOTE:\n * Relevant events for indexing:\n * - OZ Access Control events `RoleGranted`/`RoleRevoked`: admin add/remove\n * - IResolver event `Set`: resolver name updates\n */\ncontract Resolver is IResolver, AccessControl {\n\n    mapping(string => address) private _registry;\n\n    constructor() {\n        _setupRole(DEFAULT_ADMIN_ROLE, msg.sender);\n    }\n\n    function set(string calldata name, address target) external override {\n        require(hasRole(DEFAULT_ADMIN_ROLE, _msgSender()), \"Caller is not an admin\");\n        _registry[name] = target;\n        emit Set(name, target);\n    }\n\n    function get(string calldata name) external view override returns (address) {\n        return _registry[name];\n    }\n\n}\n",
  "sourcePath": "/home/runner/work/protocol-monorepo/protocol-monorepo/packages/ethereum-contracts/contracts/ux/Resolver.sol",
  "compiler": {
    "name": "solc",
    "version": "0.7.6+commit.7338295f.Emscripten.clang"
  },
  "schemaVersion": "3.4.4",
  "updatedAt": "2022-02-01T14:35:44.945Z",
  "devdoc": {
    "details": "A simple implementation of IResolver using OZ AccessControl NOTE: Relevant events for indexing: - OZ Access Control events `RoleGranted`/`RoleRevoked`: admin add/remove - IResolver event `Set`: resolver name updates",
    "kind": "dev",
    "methods": {
      "get(string)": {
        "details": "Get address by name."
      },
      "getRoleAdmin(bytes32)": {
        "details": "Returns the admin role that controls `role`. See {grantRole} and {revokeRole}. To change a role's admin, use {_setRoleAdmin}."
      },
      "getRoleMember(bytes32,uint256)": {
        "details": "Returns one of the accounts that have `role`. `index` must be a value between 0 and {getRoleMemberCount}, non-inclusive. Role bearers are not sorted in any particular way, and their ordering may change at any point. WARNING: When using {getRoleMember} and {getRoleMemberCount}, make sure you perform all queries on the same block. See the following https://forum.openzeppelin.com/t/iterating-over-elements-on-enumerableset-in-openzeppelin-contracts/2296[forum post] for more information."
      },
      "getRoleMemberCount(bytes32)": {
        "details": "Returns the number of accounts that have `role`. Can be used together with {getRoleMember} to enumerate all bearers of a role."
      },
      "grantRole(bytes32,address)": {
        "details": "Grants `role` to `account`. If `account` had not been already granted `role`, emits a {RoleGranted} event. Requirements: - the caller must have ``role``'s admin role."
      },
      "hasRole(bytes32,address)": {
        "details": "Returns `true` if `account` has been granted `role`."
      },
      "renounceRole(bytes32,address)": {
        "details": "Revokes `role` from the calling account. Roles are often managed via {grantRole} and {revokeRole}: this function's purpose is to provide a mechanism for accounts to lose their privileges if they are compromised (such as when a trusted device is misplaced). If the calling account had been granted `role`, emits a {RoleRevoked} event. Requirements: - the caller must be `account`."
      },
      "revokeRole(bytes32,address)": {
        "details": "Revokes `role` from `account`. If `account` had been granted `role`, emits a {RoleRevoked} event. Requirements: - the caller must have ``role``'s admin role."
      },
      "set(string,address)": {
        "details": "Set resolver address name."
      }
    },
    "version": 1
  },
  "userdoc": {
    "kind": "user",
    "methods": {},
    "version": 1
  }
}