{
  "contractName": "SelfDeletingFlowTestApp",
  "abi": [
    {
      "inputs": [
        {
          "internalType": "contract IConstantFlowAgreementV1",
          "name": "cfa",
          "type": "address"
        },
        {
          "internalType": "contract ISuperfluid",
          "name": "superfluid",
          "type": "address"
        }
      ],
      "stateMutability": "nonpayable",
      "type": "constructor"
    },
    {
      "inputs": [
        {
          "internalType": "contract ISuperToken",
          "name": "",
          "type": "address"
        },
        {
          "internalType": "address",
          "name": "",
          "type": "address"
        },
        {
          "internalType": "bytes32",
          "name": "",
          "type": "bytes32"
        },
        {
          "internalType": "bytes",
          "name": "",
          "type": "bytes"
        },
        {
          "internalType": "bytes",
          "name": "",
          "type": "bytes"
        },
        {
          "internalType": "bytes",
          "name": "",
          "type": "bytes"
        }
      ],
      "name": "afterAgreementTerminated",
      "outputs": [
        {
          "internalType": "bytes",
          "name": "",
          "type": "bytes"
        }
      ],
      "stateMutability": "nonpayable",
      "type": "function"
    },
    {
      "inputs": [
        {
          "internalType": "contract ISuperToken",
          "name": "",
          "type": "address"
        },
        {
          "internalType": "address",
          "name": "",
          "type": "address"
        },
        {
          "internalType": "bytes32",
          "name": "",
          "type": "bytes32"
        },
        {
          "internalType": "bytes",
          "name": "",
          "type": "bytes"
        },
        {
          "internalType": "bytes",
          "name": "",
          "type": "bytes"
        },
        {
          "internalType": "bytes",
          "name": "",
          "type": "bytes"
        }
      ],
      "name": "afterAgreementUpdated",
      "outputs": [
        {
          "internalType": "bytes",
          "name": "",
          "type": "bytes"
        }
      ],
      "stateMutability": "nonpayable",
      "type": "function"
    },
    {
      "inputs": [
        {
          "internalType": "contract ISuperToken",
          "name": "",
          "type": "address"
        },
        {
          "internalType": "address",
          "name": "",
          "type": "address"
        },
        {
          "internalType": "bytes32",
          "name": "",
          "type": "bytes32"
        },
        {
          "internalType": "bytes",
          "name": "",
          "type": "bytes"
        },
        {
          "internalType": "bytes",
          "name": "",
          "type": "bytes"
        }
      ],
      "name": "beforeAgreementCreated",
      "outputs": [
        {
          "internalType": "bytes",
          "name": "",
          "type": "bytes"
        }
      ],
      "stateMutability": "view",
      "type": "function"
    },
    {
      "inputs": [
        {
          "internalType": "contract ISuperToken",
          "name": "",
          "type": "address"
        },
        {
          "internalType": "address",
          "name": "",
          "type": "address"
        },
        {
          "internalType": "bytes32",
          "name": "",
          "type": "bytes32"
        },
        {
          "internalType": "bytes",
          "name": "",
          "type": "bytes"
        },
        {
          "internalType": "bytes",
          "name": "",
          "type": "bytes"
        }
      ],
      "name": "beforeAgreementTerminated",
      "outputs": [
        {
          "internalType": "bytes",
          "name": "",
          "type": "bytes"
        }
      ],
      "stateMutability": "view",
      "type": "function"
    },
    {
      "inputs": [
        {
          "internalType": "contract ISuperToken",
          "name": "",
          "type": "address"
        },
        {
          "internalType": "address",
          "name": "",
          "type": "address"
        },
        {
          "internalType": "bytes32",
          "name": "",
          "type": "bytes32"
        },
        {
          "internalType": "bytes",
          "name": "",
          "type": "bytes"
        },
        {
          "internalType": "bytes",
          "name": "",
          "type": "bytes"
        }
      ],
      "name": "beforeAgreementUpdated",
      "outputs": [
        {
          "internalType": "bytes",
          "name": "",
          "type": "bytes"
        }
      ],
      "stateMutability": "view",
      "type": "function"
    },
    {
      "inputs": [
        {
          "internalType": "contract ISuperToken",
          "name": "superToken",
          "type": "address"
        },
        {
          "internalType": "address",
          "name": "",
          "type": "address"
        },
        {
          "internalType": "bytes32",
          "name": "",
          "type": "bytes32"
        },
        {
          "internalType": "bytes",
          "name": "",
          "type": "bytes"
        },
        {
          "internalType": "bytes",
          "name": "",
          "type": "bytes"
        },
        {
          "internalType": "bytes",
          "name": "ctx",
          "type": "bytes"
        }
      ],
      "name": "afterAgreementCreated",
      "outputs": [
        {
          "internalType": "bytes",
          "name": "newCtx",
          "type": "bytes"
        }
      ],
      "stateMutability": "nonpayable",
      "type": "function"
    }
  ],
  "bytecode": "0x608060405234801561001057600080fd5b50604051610bc2380380610bc283398101604081905261002f916100e6565b6001600160a01b03821661003f57fe5b6001600160a01b03811661004f57fe5b600080546001600160a01b038085166001600160a01b03199283161790925560018054848416921691909117908190556040516315a722b960e31b8152643d0000000192919091169063ad3915c8906100ac90849060040161011f565b600060405180830381600087803b1580156100c657600080fd5b505af11580156100da573d6000803e3d6000fd5b50505050505050610140565b600080604083850312156100f8578182fd5b825161010381610128565b602084015190925061011481610128565b809150509250929050565b90815260200190565b6001600160a01b038116811461013d57600080fd5b50565b610a738061014f6000396000f3fe608060405234801561001057600080fd5b50600436106100625760003560e01c8063230dbd291461006757806330d9c9151461009057806353c11f99146100a35780635f9e7d77146100b6578063884d1f40146100c9578063d86ed3e5146100dc575b600080fd5b61007a61007536600461060a565b6100ef565b6040516100879190610834565b60405180910390f35b61007a61009e36600461056e565b610128565b61007a6100b136600461060a565b610161565b61007a6100c436600461056e565b61019a565b61007a6100d736600461056e565b6101d3565b61007a6100ea36600461060a565b61020c565b606060405162461bcd60e51b815260040180806020018281038252602e8152602001806109b0602e913960400191505060405180910390fd5b606060405162461bcd60e51b815260040180806020018281038252602f8152602001806109de602f913960400191505060405180910390fd5b606060405162461bcd60e51b8152600401808060200182810382526031815260200180610a0d6031913960400191505060405180910390fd5b606060405162461bcd60e51b815260040180806020018281038252603381526020018061094e6033913960400191505060405180910390fd5b606060405162461bcd60e51b815260040180806020018281038252602f815260200180610981602f913960400191505060405180910390fd5b606082828080601f0160208091040260200160405190810160405280939291908181526020018383808284376000920182905250600154604051631fb6491d60e11b815295965090946001600160a01b039091169350633f6c923a925061027a915087908790600401610805565b60006040518083038186803b15801561029257600080fd5b505afa1580156102a6573d6000803e3d6000fd5b505050506040513d6000823e601f3d908101601f191682016040526102ce91908101906106d1565b9050600160009054906101000a90046001600160a01b03166001600160a01b0316634329d29360008054906101000a90046001600160a01b031663b4b333c660e01b8e856060015130600067ffffffffffffffff8111801561032f57600080fd5b506040519080825280601f01601f19166020018201604052801561035a576020820181803683370190505b5060405160240161036e94939291906108a3565b60408051601f19818403018152918152602080830180516001600160e01b03166001600160e01b03199586161790528151600081529081019182905260e086901b90931690526103c39291876024820161084e565b600060405180830381600087803b1580156103dd57600080fd5b505af11580156103f1573d6000803e3d6000fd5b505050506040513d6000823e601f3d908101601f19168201604052610419919081019061050d565b509b9a5050505050505050505050565b805161043481610935565b919050565b80516001600160e01b03198116811461043457600080fd5b60008083601f840112610462578182fd5b50813567ffffffffffffffff811115610479578182fd5b60208301915083602082850101111561049157600080fd5b9250929050565b600082601f8301126104a8578081fd5b815167ffffffffffffffff8111156104bc57fe5b6104cf601f8201601f19166020016108e1565b8181528460208386010111156104e3578283fd5b6104f4826020830160208701610905565b949350505050565b805160ff8116811461043457600080fd5b6000806040838503121561051f578182fd5b825167ffffffffffffffff80821115610536578384fd5b61054286838701610498565b93506020850151915080821115610557578283fd5b5061056485828601610498565b9150509250929050565b600080600080600080600060a0888a031215610588578283fd5b873561059381610935565b965060208801356105a381610935565b955060408801359450606088013567ffffffffffffffff808211156105c6578485fd5b6105d28b838c01610451565b909650945060808a01359150808211156105ea578384fd5b506105f78a828b01610451565b989b979a50959850939692959293505050565b600080600080600080600080600060c08a8c031215610627578182fd5b893561063281610935565b985060208a013561064281610935565b975060408a0135965060608a013567ffffffffffffffff80821115610665578384fd5b6106718d838e01610451565b909850965060808c0135915080821115610689578384fd5b6106958d838e01610451565b909650945060a08c01359150808211156106ad578384fd5b506106ba8c828d01610451565b915080935050809150509295985092959850929598565b6000602082840312156106e2578081fd5b815167ffffffffffffffff808211156106f9578283fd5b818401915061016080838703121561070f578384fd5b610718816108e1565b9050610723836104fc565b8152610731602084016104fc565b60208201526040830151604082015261074c60608401610429565b606082015261075d60808401610439565b608082015260a083015182811115610773578485fd5b61077f87828601610498565b60a08301525060c083015160c082015260e083015160e08201526101009150818301518282015261012091506107b6828401610429565b8282015261014091506107ca828401610429565b91810191909152949350505050565b600081518084526107f1816020860160208601610905565b601f01601f19169290920160200192915050565b60006020825282602083015282846040840137818301604090810191909152601f909201601f19160101919050565b60006020825261084760208301846107d9565b9392505050565b6001600160a01b0385168152608060208201819052600090610872908301866107d9565b828103604084015261088481866107d9565b9050828103606084015261089881856107d9565b979650505050505050565b6001600160a01b0385811682528481166020830152831660408201526080606082018190526000906108d7908301846107d9565b9695505050505050565b60405181810167ffffffffffffffff811182821017156108fd57fe5b604052919050565b60005b83811015610920578181015183820152602001610908565b8381111561092f576000848401525b50505050565b6001600160a01b038116811461094a57600080fd5b5056fe556e737570706f727465642063616c6c6261636b202d20204265666f72652041677265656d656e74205465726d696e61746564556e737570706f727465642063616c6c6261636b202d204265666f72652041677265656d656e742075706461746564556e737570706f727465642063616c6c6261636b202d2041667465722041677265656d656e742055706461746564556e737570706f727465642063616c6c6261636b202d204265666f72652041677265656d656e742043726561746564556e737570706f727465642063616c6c6261636b202d2041667465722041677265656d656e74205465726d696e61746564a26469706673582212207d0bd56f98f9dfb75f6df9def5d12f3605da7c7e615ea22c226206485e7e1f8764736f6c63430007060033",
  "immutableReferences": {},
  "source": "// SPDX-License-Identifier: AGPLv3\npragma solidity 0.7.6;\npragma abicoder v2;\n\n\nimport {\n    ISuperfluid,\n    ISuperToken,\n    SuperAppBase,\n    SuperAppDefinitions\n} from \"../apps/SuperAppBase.sol\";\nimport { IConstantFlowAgreementV1 } from \"../interfaces/agreements/IConstantFlowAgreementV1.sol\";\n\n\n/**\n * @dev This is CFA SuperApp that maintains at most one inflw from a sender at any moment.\n *\n * This can test the deposit allowance logic in the deleteFlow as a recipient.\n */\ncontract ExclusiveInflowTestApp is SuperAppBase {\n\n    IConstantFlowAgreementV1 private _cfa;\n    ISuperfluid private _host;\n    address private _currentSender;\n\n    constructor(IConstantFlowAgreementV1 cfa, ISuperfluid superfluid) {\n        assert(address(cfa) != address(0));\n        assert(address(superfluid) != address(0));\n        _cfa = cfa;\n        _host = superfluid;\n\n        uint256 configWord =\n            SuperAppDefinitions.APP_LEVEL_FINAL\n            | SuperAppDefinitions.BEFORE_AGREEMENT_CREATED_NOOP\n            // | SuperAppDefinitions.AFTER_AGREEMENT_CREATED_NOOP\n            | SuperAppDefinitions.BEFORE_AGREEMENT_UPDATED_NOOP\n            | SuperAppDefinitions.AFTER_AGREEMENT_UPDATED_NOOP\n            | SuperAppDefinitions.BEFORE_AGREEMENT_TERMINATED_NOOP\n            // | SuperAppDefinitions.AFTER_AGREEMENT_TERMINATED_NOOP\n            ;\n\n        _host.registerApp(configWord);\n    }\n\n    function afterAgreementCreated(\n        ISuperToken superToken,\n        address /*agreementClass*/,\n        bytes32 /*agreementId*/,\n        bytes calldata /*agreementData*/,\n        bytes calldata /*cbdata*/,\n        bytes calldata ctx\n    )\n        external override\n        returns(bytes memory newCtx)\n    {\n        newCtx = ctx;\n        ISuperfluid.Context memory context = _host.decodeCtx(ctx);\n        if (_currentSender != address(0)) {\n            bytes memory callData = abi.encodeWithSelector(\n                _cfa.deleteFlow.selector,\n                superToken,\n                _currentSender,\n                address(this),\n                new bytes(0)\n            );\n            (newCtx, ) = _host.callAgreementWithContext(\n                _cfa,\n                callData,\n                new bytes(0), // user data\n                newCtx\n            );\n        }\n        _currentSender = context.msgSender;\n    }\n\n    function afterAgreementTerminated(\n        ISuperToken /*superToken*/,\n        address /*agreementClass*/,\n        bytes32 /*agreementId*/,\n        bytes calldata agreementData,\n        bytes calldata /*cbdata*/,\n        bytes calldata ctx\n    )\n        external override\n        returns(bytes memory newCtx)\n    {\n        (address flowSender, ) = abi.decode(agreementData, (address, address));\n        assert(flowSender == _currentSender);\n        _currentSender = address(0);\n        return ctx;\n    }\n\n}\n\n/**\n * @dev This is CFA SuperApp that refuses to close its outflow by its receiver.\n *\n * This test the logic that the app re-opens the same stream in the termination callback.\n * In reality, the app would have to fund the app with enough tokens to not to be jailed due\n * to low balance.\n */\ncontract NonClosableOutflowTestApp is SuperAppBase {\n\n    IConstantFlowAgreementV1 private _cfa;\n    ISuperfluid private _host;\n    address private _receiver;\n    int96 private _flowRate;\n\n    constructor(IConstantFlowAgreementV1 cfa, ISuperfluid superfluid) {\n        assert(address(cfa) != address(0));\n        assert(address(superfluid) != address(0));\n        _cfa = cfa;\n        _host = superfluid;\n\n        uint256 configWord =\n            SuperAppDefinitions.APP_LEVEL_FINAL\n            | SuperAppDefinitions.BEFORE_AGREEMENT_CREATED_NOOP\n            | SuperAppDefinitions.AFTER_AGREEMENT_CREATED_NOOP\n            | SuperAppDefinitions.BEFORE_AGREEMENT_UPDATED_NOOP\n            | SuperAppDefinitions.AFTER_AGREEMENT_UPDATED_NOOP\n            | SuperAppDefinitions.BEFORE_AGREEMENT_TERMINATED_NOOP\n            // | SuperAppDefinitions.AFTER_AGREEMENT_TERMINATED_NOOP\n            ;\n\n        _host.registerApp(configWord);\n    }\n\n    function setupOutflow(\n        ISuperToken superToken,\n        address receiver,\n        int96 flowRate\n    )\n        external\n    {\n        _receiver = receiver;\n        _flowRate = flowRate;\n        _host.callAgreement(\n            _cfa,\n            abi.encodeWithSelector(\n                _cfa.createFlow.selector,\n                superToken,\n                receiver,\n                flowRate,\n                new bytes(0)\n            ),\n            new bytes(0) // user data\n        );\n    }\n\n    function afterAgreementTerminated(\n        ISuperToken superToken,\n        address /*agreementClass*/,\n        bytes32 /*agreementId*/,\n        bytes calldata agreementData,\n        bytes calldata /*cbdata*/,\n        bytes calldata ctx\n    )\n        external override\n        returns(bytes memory newCtx)\n    {\n        (address flowSender, address flowReceiver) = abi.decode(agreementData, (address, address));\n        assert(flowSender == address(this));\n        assert(flowReceiver == _receiver);\n        // recreate the flow\n        (newCtx, ) = _host.callAgreementWithContext(\n            _cfa,\n            abi.encodeWithSelector(\n                _cfa.createFlow.selector,\n                superToken,\n                flowReceiver,\n                _flowRate,\n                new bytes(0)\n            ),\n            \"0x\",\n            ctx\n        );\n    }\n}\n\n/**\n * @dev This is CFA SuperApp that refuses to accept any opening flow without reverting them.\n */\ncontract SelfDeletingFlowTestApp is SuperAppBase {\n\n    IConstantFlowAgreementV1 private _cfa;\n    ISuperfluid private _host;\n    address private _receiver;\n    int96 private _flowRate;\n\n    constructor(IConstantFlowAgreementV1 cfa, ISuperfluid superfluid) {\n        assert(address(cfa) != address(0));\n        assert(address(superfluid) != address(0));\n        _cfa = cfa;\n        _host = superfluid;\n\n        uint256 configWord =\n            SuperAppDefinitions.APP_LEVEL_FINAL\n            | SuperAppDefinitions.BEFORE_AGREEMENT_CREATED_NOOP\n            // | SuperAppDefinitions.AFTER_AGREEMENT_CREATED_NOOP\n            | SuperAppDefinitions.BEFORE_AGREEMENT_UPDATED_NOOP\n            | SuperAppDefinitions.AFTER_AGREEMENT_UPDATED_NOOP\n            | SuperAppDefinitions.BEFORE_AGREEMENT_TERMINATED_NOOP\n            | SuperAppDefinitions.AFTER_AGREEMENT_TERMINATED_NOOP\n            ;\n\n        _host.registerApp(configWord);\n    }\n\n    function afterAgreementCreated(\n        ISuperToken superToken,\n        address /*agreementClass*/,\n        bytes32 /*agreementId*/,\n        bytes calldata /*agreementData*/,\n        bytes calldata /*cbdata*/,\n        bytes calldata ctx\n    )\n        external override\n        returns(bytes memory newCtx)\n    {\n        newCtx = ctx;\n        ISuperfluid.Context memory context = _host.decodeCtx(ctx);\n        (newCtx, ) = _host.callAgreementWithContext(\n            _cfa,\n            abi.encodeWithSelector(\n                _cfa.deleteFlow.selector,\n                superToken,\n                context.msgSender,\n                address(this),\n                new bytes(0)\n            ),\n            new bytes(0), // user data\n            newCtx\n        );\n    }\n}\n\n/**\n * @dev This is CFA SuperApp that closes an updated flow.\n */\ncontract ClosingOnUpdateFlowTestApp is SuperAppBase {\n\n    IConstantFlowAgreementV1 private _cfa;\n    ISuperfluid private _host;\n\n    constructor(IConstantFlowAgreementV1 cfa, ISuperfluid superfluid) {\n        assert(address(cfa) != address(0));\n        assert(address(superfluid) != address(0));\n        _cfa = cfa;\n        _host = superfluid;\n\n        uint256 configWord =\n            SuperAppDefinitions.APP_LEVEL_FINAL\n            | SuperAppDefinitions.BEFORE_AGREEMENT_CREATED_NOOP\n            | SuperAppDefinitions.AFTER_AGREEMENT_CREATED_NOOP\n            | SuperAppDefinitions.BEFORE_AGREEMENT_UPDATED_NOOP\n            // | SuperAppDefinitions.AFTER_AGREEMENT_UPDATED_NOOP\n            | SuperAppDefinitions.BEFORE_AGREEMENT_TERMINATED_NOOP\n            | SuperAppDefinitions.AFTER_AGREEMENT_TERMINATED_NOOP\n            ;\n\n        _host.registerApp(configWord);\n    }\n\n    function afterAgreementUpdated(\n        ISuperToken superToken,\n        address /*agreementClass*/,\n        bytes32 /*agreementId*/,\n        bytes calldata /*agreementData*/,\n        bytes calldata /*cbdata*/,\n        bytes calldata ctx\n    )\n        external override\n        returns(bytes memory newCtx)\n    {\n        newCtx = ctx;\n        ISuperfluid.Context memory context = _host.decodeCtx(ctx);\n        (newCtx, ) = _host.callAgreementWithContext(\n            _cfa,\n            abi.encodeWithSelector(\n                _cfa.deleteFlow.selector,\n                superToken,\n                context.msgSender,\n                address(this),\n                new bytes(0)\n            ),\n            new bytes(0), // user data\n            newCtx\n        );\n    }\n}\n\ncontract FlowExchangeTestApp is SuperAppBase {\n\n    IConstantFlowAgreementV1 private _cfa;\n    ISuperfluid private _host;\n    ISuperToken private _targetToken;\n\n    constructor(\n        IConstantFlowAgreementV1 cfa,\n        ISuperfluid superfluid,\n        ISuperToken targetToken) {\n        assert(address(cfa) != address(0));\n        assert(address(superfluid) != address(0));\n        _cfa = cfa;\n        _host = superfluid;\n        _targetToken = targetToken;\n\n        uint256 configWord =\n            SuperAppDefinitions.APP_LEVEL_FINAL\n            | SuperAppDefinitions.BEFORE_AGREEMENT_CREATED_NOOP\n            // | SuperAppDefinitions.AFTER_AGREEMENT_CREATED_NOOP\n            | SuperAppDefinitions.BEFORE_AGREEMENT_UPDATED_NOOP\n            | SuperAppDefinitions.AFTER_AGREEMENT_UPDATED_NOOP\n            | SuperAppDefinitions.BEFORE_AGREEMENT_TERMINATED_NOOP\n            | SuperAppDefinitions.AFTER_AGREEMENT_TERMINATED_NOOP\n            ;\n\n        _host.registerApp(configWord);\n    }\n\n    function afterAgreementCreated(\n        ISuperToken superToken,\n        address /*agreementClass*/,\n        bytes32 /*agreementId*/,\n        bytes calldata /*agreementData*/,\n        bytes calldata /*cbdata*/,\n        bytes calldata ctx\n    )\n        external override\n        returns(bytes memory newCtx)\n    {\n        newCtx = ctx;\n        ISuperfluid.Context memory context = _host.decodeCtx(ctx);\n        (,int96 flowRate,,) = _cfa.getFlow(superToken, context.msgSender, address(this));\n        (newCtx, ) = _host.callAgreementWithContext(\n            _cfa,\n            abi.encodeWithSelector(\n                _cfa.createFlow.selector,\n                _targetToken,\n                context.msgSender,\n                flowRate,\n                new bytes(0)\n            ),\n            new bytes(0), // user data\n            newCtx\n        );\n    }\n}\n",
  "sourcePath": "/home/runner/work/protocol-monorepo/protocol-monorepo/packages/ethereum-contracts/contracts/mocks/CFAAppMocks.sol",
  "compiler": {
    "name": "solc",
    "version": "0.7.6+commit.7338295f.Emscripten.clang"
  },
  "schemaVersion": "3.4.4",
  "updatedAt": "2022-02-01T14:35:44.465Z",
  "devdoc": {
    "details": "This is CFA SuperApp that refuses to accept any opening flow without reverting them.",
    "kind": "dev",
    "methods": {},
    "version": 1
  },
  "userdoc": {
    "kind": "user",
    "methods": {},
    "version": 1
  }
}