{
  "contractName": "SlotsBitmapLibrary",
  "abi": [
    {
      "inputs": [
        {
          "internalType": "contract ISuperfluidToken",
          "name": "token",
          "type": "ISuperfluidToken"
        },
        {
          "internalType": "address",
          "name": "account",
          "type": "address"
        },
        {
          "internalType": "uint256",
          "name": "bitmapStateSlotId",
          "type": "uint256"
        },
        {
          "internalType": "uint256",
          "name": "dataStateSlotIDStart",
          "type": "uint256"
        }
      ],
      "name": "listData",
      "outputs": [
        {
          "internalType": "uint32[]",
          "name": "slotIds",
          "type": "uint32[]"
        },
        {
          "internalType": "bytes32[]",
          "name": "dataList",
          "type": "bytes32[]"
        }
      ],
      "stateMutability": "view",
      "type": "function"
    }
  ],
  "bytecode": "0x610b03610026600b82828239805160001a60731461001957fe5b30600052607381538281f3fe730000000000000000000000000000000000000000301460806040526004361061004b5760003560e01c806306967a8c14610050578063a324701014610125578063a9472bf81461018d575b600080fd5b61008c6004803603608081101561006657600080fd5b506001600160a01b038135811691602081013590911690604081013590606001356101df565b604051808060200180602001838103835285818151815260200191508051906020019060200280838360005b838110156100d05781810151838201526020016100b8565b50505050905001838103825284818151815260200191508051906020019060200280838360005b8381101561010f5781810151838201526020016100f7565b5050505090500194505050505060405180910390f35b81801561013157600080fd5b50610174600480360360a081101561014857600080fd5b506001600160a01b0381358116916020810135909116906040810135906060810135906080013561052c565b6040805163ffffffff9092168252519081900360200190f35b81801561019957600080fd5b506101dd600480360360808110156101b057600080fd5b5080356001600160a01b03908116916020810135909116906040810135906060013563ffffffff16610886565b005b60408051634b61cc3360e01b81523060048201526001600160a01b03858116602483015260448201859052600160648301529151606092839260009291891691634b61cc33916084808201928692909190829003018186803b15801561024457600080fd5b505afa158015610258573d6000803e3d6000fd5b505050506040513d6000823e601f3d908101601f19168201604052602081101561028157600080fd5b8101908080516040519392919084600160201b8211156102a057600080fd5b9083019060208201858111156102b557600080fd5b82518660208202830111600160201b821117156102d157600080fd5b82525081516020918201928201910280838360005b838110156102fe5781810151838201526020016102e6565b5050505090500160405250505060008151811061031757fe5b60209081029190910101516040805161010080825261202082019092529192508160200160208202803683375050604080516101008082526120208201909252929550905060208201612000803683370190505091506000805b61010063ffffffff8216101561051a57600163ffffffff821684901c1661039757610512565b808583815181106103a457fe5b63ffffffff928316602091820292909201015260408051634b61cc3360e01b81523060048201526001600160a01b038b8116602483015292841689016044820152600160648201529051918b1691634b61cc3391608480820192600092909190829003018186803b15801561041857600080fd5b505afa15801561042c573d6000803e3d6000fd5b505050506040513d6000823e601f3d908101601f19168201604052602081101561045557600080fd5b8101908080516040519392919084600160201b82111561047457600080fd5b90830190602082018581111561048957600080fd5b82518660208202830111600160201b821117156104a557600080fd5b82525081516020918201928201910280838360005b838110156104d25781810151838201526020016104ba565b505050509050016040525050506000815181106104eb57fe5b60200260200101518483815181106104ff57fe5b6020026020010181815250508160010191505b600101610371565b50808452808352505094509492505050565b60408051634b61cc3360e01b81523060048201526001600160a01b03868116602483015260448201869052600160648301529151600092839290891691634b61cc33916084808201928692909190829003018186803b15801561058e57600080fd5b505afa1580156105a2573d6000803e3d6000fd5b505050506040513d6000823e601f3d908101601f1916820160405260208110156105cb57600080fd5b8101908080516040519392919084600160201b8211156105ea57600080fd5b9083019060208201858111156105ff57600080fd5b82518660208202830111600160201b8211171561061b57600080fd5b82525081516020918201928201910280838360005b83811015610648578181015183820152602001610630565b5050505090500160405250505060008151811061066157fe5b602002602001015160001c9050600091505b61010063ffffffff8316101561087c57600163ffffffff831682901c16610871576040805160018082528183019092526000916020808301908036833701905050905083816000815181106106c457fe5b602002602001018181525050876001600160a01b031663090c415e888563ffffffff168801846040518463ffffffff1660e01b815260040180846001600160a01b0316815260200183815260200180602001828103825283818151815260200191508051906020019060200280838360005b8381101561074e578181015183820152602001610736565b50505050905001945050505050600060405180830381600087803b15801561077557600080fd5b505af1158015610789573d6000803e3d6000fd5b505050508263ffffffff166001901b821760001b816000815181106107aa57fe5b602002602001018181525050876001600160a01b031663090c415e8888846040518463ffffffff1660e01b815260040180846001600160a01b0316815260200183815260200180602001828103825283818151815260200191508051906020019060200280838360005b8381101561082c578181015183820152602001610814565b50505050905001945050505050600060405180830381600087803b15801561085357600080fd5b505af1158015610867573d6000803e3d6000fd5b505050505061087c565b816001019150610673565b5095945050505050565b60408051634b61cc3360e01b81523060048201526001600160a01b03858116602483015260448201859052600160648301529151600092871691634b61cc339160848083019286929190829003018186803b1580156108e457600080fd5b505afa1580156108f8573d6000803e3d6000fd5b505050506040513d6000823e601f3d908101601f19168201604052602081101561092157600080fd5b8101908080516040519392919084600160201b82111561094057600080fd5b90830190602082018581111561095557600080fd5b82518660208202830111600160201b8211171561097157600080fd5b82525081516020918201928201910280838360005b8381101561099e578181015183820152602001610986565b505050509050016040525050506000815181106109b757fe5b60209081029190910181015160408051600180825281830190925291935060009282810190803683370190505090508263ffffffff166001901b19821660001b81600081518110610a0457fe5b602002602001018181525050856001600160a01b031663090c415e8686846040518463ffffffff1660e01b815260040180846001600160a01b0316815260200183815260200180602001828103825283818151815260200191508051906020019060200280838360005b83811015610a86578181015183820152602001610a6e565b50505050905001945050505050600060405180830381600087803b158015610aad57600080fd5b505af1158015610ac1573d6000803e3d6000fd5b5050505050505050505056fea2646970667358221220bf4d02d91b01af7f60686fc274c4d1334dbda19a38e5aca82e16771989bc2bd264736f6c63430007060033",
  "immutableReferences": {},
  "source": "// SPDX-License-Identifier: AGPLv3\npragma solidity 0.7.6;\n\nimport {\n    ISuperfluidToken\n} from \"../interfaces/agreements/IInstantDistributionAgreementV1.sol\";\n\n/**\n * @dev A library implements slots bitmap on Superfluid Token storage\n *\n * NOTE:\n * - A slots bitmap allows you to iterate through a list of data efficiently.\n * - A data slot can be enabled or disabled with the help of bitmap.\n * - MAX_NUM_SLOTS is 256 in this implementation (using one uint256)\n * - Superfluid token storage usage:\n *   - getAgreementStateSlot(bitmapStateSlotId) stores the bitmap of enabled data slots\n *   - getAgreementStateSlot(dataStateSlotIDStart + stotId) stores the data of the slot\n */\nlibrary SlotsBitmapLibrary {\n\n    uint32 internal constant _MAX_NUM_SLOTS = 256;\n\n    function findEmptySlotAndFill(\n        ISuperfluidToken token,\n        address account,\n        uint256 bitmapStateSlotId,\n        uint256 dataStateSlotIDStart,\n        bytes32 data\n    )\n        public\n        returns (uint32 slotId)\n    {\n        uint256 subsBitmap = uint256(token.getAgreementStateSlot(\n            address(this),\n            account,\n            bitmapStateSlotId, 1)[0]);\n        for (slotId = 0; slotId < _MAX_NUM_SLOTS; ++slotId) {\n            if ((uint256(subsBitmap >> slotId) & 1) == 0) {\n                // update slot data\n                bytes32[] memory slotData = new bytes32[](1);\n                slotData[0] = data;\n                token.updateAgreementStateSlot(\n                    account,\n                    dataStateSlotIDStart + slotId,\n                    slotData);\n                // update slot map\n                slotData[0] = bytes32(subsBitmap | (1 << uint256(slotId)));\n                token.updateAgreementStateSlot(\n                    account,\n                    bitmapStateSlotId,\n                    slotData);\n                // update the slots\n                break;\n            }\n        }\n    }\n\n    function clearSlot(\n        ISuperfluidToken token,\n        address account,\n        uint256 bitmapStateSlotId,\n        uint32 slotId\n    )\n        public\n    {\n        uint256 subsBitmap = uint256(token.getAgreementStateSlot(\n            address(this),\n            account,\n            bitmapStateSlotId, 1)[0]);\n        bytes32[] memory slotData = new bytes32[](1);\n        slotData[0] = bytes32(subsBitmap & ~(1 << uint256(slotId)));\n        // zero the data\n        token.updateAgreementStateSlot(\n            account,\n            bitmapStateSlotId,\n            slotData);\n    }\n\n    function listData(\n       ISuperfluidToken token,\n       address account,\n       uint256 bitmapStateSlotId,\n       uint256 dataStateSlotIDStart\n    )\n        public view\n        returns (\n            uint32[] memory slotIds,\n            bytes32[] memory dataList)\n    {\n        uint256 subsBitmap = uint256(token.getAgreementStateSlot(\n            address(this),\n            account,\n            bitmapStateSlotId, 1)[0]);\n\n        slotIds = new uint32[](_MAX_NUM_SLOTS);\n        dataList = new bytes32[](_MAX_NUM_SLOTS);\n        // read all slots\n        uint nSlots;\n        for (uint32 slotId = 0; slotId < _MAX_NUM_SLOTS; ++slotId) {\n            if ((uint256(subsBitmap >> slotId) & 1) == 0) continue;\n            slotIds[nSlots] = slotId;\n            dataList[nSlots] = token.getAgreementStateSlot(\n                address(this),\n                account,\n                dataStateSlotIDStart + slotId, 1)[0];\n            ++nSlots;\n        }\n        // resize memory arrays\n        assembly {\n            mstore(slotIds, nSlots)\n            mstore(dataList, nSlots)\n        }\n    }\n}\n",
  "sourcePath": "/home/runner/work/protocol-monorepo/protocol-monorepo/packages/ethereum-contracts/contracts/agreements/SlotsBitmapLibrary.sol",
  "compiler": {
    "name": "solc",
    "version": "0.7.6+commit.7338295f.Emscripten.clang"
  },
  "schemaVersion": "3.4.4",
  "updatedAt": "2022-02-01T14:35:44.306Z",
  "devdoc": {
    "details": "A library implements slots bitmap on Superfluid Token storage NOTE: - A slots bitmap allows you to iterate through a list of data efficiently. - A data slot can be enabled or disabled with the help of bitmap. - MAX_NUM_SLOTS is 256 in this implementation (using one uint256) - Superfluid token storage usage:   - getAgreementStateSlot(bitmapStateSlotId) stores the bitmap of enabled data slots   - getAgreementStateSlot(dataStateSlotIDStart + stotId) stores the data of the slot",
    "kind": "dev",
    "methods": {},
    "version": 1
  },
  "userdoc": {
    "kind": "user",
    "methods": {},
    "version": 1
  }
}