{
  "contractName": "SuperTokenFactoryHelper",
  "abi": [
    {
      "inputs": [
        {
          "internalType": "contract ISuperfluid",
          "name": "host",
          "type": "address"
        }
      ],
      "name": "create",
      "outputs": [
        {
          "internalType": "address",
          "name": "logic",
          "type": "address"
        }
      ],
      "stateMutability": "nonpayable",
      "type": "function"
    }
  ],
  "bytecode": "0x608060405234801561001057600080fd5b506154cd806100206000396000f3fe608060405234801561001057600080fd5b506004361061002b5760003560e01c80639ed9331814610030575b600080fd5b6100566004803603602081101561004657600080fd5b50356001600160a01b0316610072565b604080516001600160a01b039092168252519081900360200190f35b600081604051610081906100b5565b6001600160a01b03909116815260405190819003602001906000f0801580156100ae573d6000803e3d6000fd5b5092915050565b6153d5806100c38339019056fe60a060405234801561001057600080fd5b50604051620053d5380380620053d58339818101604052602081101561003557600080fd5b5051606081901b6001600160601b0319166080526001600160a01b031661532a620000ab600039806114bc528061155a528061160e52806116a9528061196d52806119a95280611b765280611df05280611f615280612165528061221652806122b152806129f55280612aa6525061532a6000f3fe608060405234801561001057600080fd5b506004361061030c5760003560e01c806362ad1b831161019d578063b84cdd4a116100e9578063d9d078d6116100a2578063ee719bc81161007c578063ee719bc81461101f578063fad8b32a14611027578063fc673c4f1461104d578063fe9d9303146111205761030c565b8063d9d078d614610f7b578063dd62ed3e14610fa7578063eb3537cc14610fd55761030c565b8063b84cdd4a14610dea578063bb0d196e14610e16578063c68d428314610e3c578063ca78946414610ef5578063cf97256d14610f21578063d95b637114610f4d5761030c565b806395d89b4111610156578063a1b2bf8b11610130578063a1b2bf8b14610cf7578063a3a7e7f314610d6c578063a457c2d714610d92578063a9059cbb14610dbe5761030c565b806395d89b4114610bb35780639bd9bbc614610bbb5780639d87674114610c3e5761030c565b806362ad1b83146109ef5780636c2d9f2f14610acd57806370a0823114610aff57806379359f6f14610b255780638ddd1c0f14610b4b578063959b8c3f14610b8d5761030c565b80632ec8eec71161025c578063469519541161021557806352d1902d116101ef57806352d1902d14610926578063556f0dc71461092e5780635b9d09cc1461093657806362aa5287146109b95761030c565b806346951954146108bc5780634b61cc33146108e257806350d75d251461091e5761030c565b80632ec8eec71461070d578063313ce56714610759578063386fa22114610777578063395093511461079d57806342fe0980146107c957806345977d031461089f5761030c565b806316d055d6116102c957806320bc4425116102a357806320bc44251461066457806323b872dd14610688578063245887fc146106be57806327048397146106ea5761030c565b806316d055d61461053d57806318160ddd146105795780631863e809146105935761030c565b806306e485381461031157806306fdde0314610369578063090c415e146103e6578063095ea7b31461046b57806311bcc81e146104ab57806312a6a3f8146104c8575b600080fd5b610319611195565b60408051602080825283518183015283519192839290830191858101910280838360005b8381101561035557818101518382015260200161033d565b505050509050019250505060405180910390f35b6103716111a6565b6040805160208082528351818301528351919283929083019185019080838360005b838110156103ab578181015183820152602001610393565b50505050905090810190601f1680156103d85780820380516001836020036101000a031916815260200191505b509250505060405180910390f35b610469600480360360608110156103fc57600080fd5b6001600160a01b0382351691602081013591810190606081016040820135600160201b81111561042b57600080fd5b82018360208201111561043d57600080fd5b803590602001918460208302840111600160201b8311171561045e57600080fd5b50909250905061123c565b005b6104976004803603604081101561048157600080fd5b506001600160a01b038135169060200135611320565b604080519115158252519081900360200190f35b610469600480360360208110156104c157600080fd5b5035611337565b610469600480360360408110156104de57600080fd5b81359190810190604081016020820135600160201b8111156104ff57600080fd5b82018360208201111561051157600080fd5b803590602001918460208302840111600160201b8311171561053257600080fd5b509092509050611365565b6104696004803603608081101561055357600080fd5b506001600160a01b038135811691602081013582169160408201351690606001356114ba565b610581611534565b60408051918252519081900360200190f35b610469600480360360e08110156105a957600080fd5b81359190810190604081016020820135600160201b8111156105ca57600080fd5b8201836020820111156105dc57600080fd5b803590602001918460018302840111600160201b831117156105fd57600080fd5b91908080601f016020809104026020016040519081016040528093929190818152602001838380828437600092019190915250929550506001600160a01b03833581169450602084013515159360408101359091169250606081013591506080013561153a565b61066c61196b565b604080516001600160a01b039092168252519081900360200190f35b6104976004803603606081101561069e57600080fd5b506001600160a01b0381358116916020810135909116906040013561198f565b610469600480360360408110156106d457600080fd5b506001600160a01b0381351690602001356119a7565b6104696004803603604081101561070057600080fd5b5080359060200135611a3d565b6107336004803603602081101561072357600080fd5b50356001600160a01b0316611b1e565b604080519485526020850193909352838301919091526060830152519081900360800190f35b610761611b3c565b6040805160ff9092168252519081900360200190f35b6103196004803603602081101561078d57600080fd5b50356001600160a01b0316611b41565b610497600480360360408110156107b357600080fd5b506001600160a01b038135169060200135611c86565b610469600480360360808110156107df57600080fd5b6001600160a01b038235169160ff60208201351691810190606081016040820135600160201b81111561081157600080fd5b82018360208201111561082357600080fd5b803590602001918460018302840111600160201b8311171561084457600080fd5b919390929091602081019035600160201b81111561086157600080fd5b82018360208201111561087357600080fd5b803590602001918460018302840111600160201b8311171561089457600080fd5b509092509050611cc1565b610469600480360360208110156108b557600080fd5b5035611db9565b610469600480360360208110156108d257600080fd5b50356001600160a01b0316611de5565b610319600480360360808110156108f857600080fd5b506001600160a01b03813581169160208101359091169060408101359060600135611e55565b61066c611ed3565b610581611edd565b610581611f01565b6104696004803603606081101561094c57600080fd5b6001600160a01b0382351691602081013591810190606081016040820135600160201b81111561097b57600080fd5b82018360208201111561098d57600080fd5b803590602001918460018302840111600160201b831117156109ae57600080fd5b509092509050611f06565b610469600480360360608110156109cf57600080fd5b506001600160a01b03813581169160208101359091169060400135611f5f565b610469600480360360a0811015610a0557600080fd5b6001600160a01b03823581169260208101359091169160408201359190810190608081016060820135600160201b811115610a3f57600080fd5b820183602082011115610a5157600080fd5b803590602001918460018302840111600160201b83111715610a7257600080fd5b919390929091602081019035600160201b811115610a8f57600080fd5b820183602082011115610aa157600080fd5b803590602001918460018302840111600160201b83111715610ac257600080fd5b509092509050611fd6565b61031960048036036060811015610ae357600080fd5b506001600160a01b0381351690602081013590604001356120a2565b61058160048036036020811015610b1557600080fd5b50356001600160a01b0316612111565b61049760048036036020811015610b3b57600080fd5b50356001600160a01b0316612139565b610469600480360360a0811015610b6157600080fd5b508035906001600160a01b03602082013581169160408101359091169060608101359060800135612145565b61046960048036036020811015610ba357600080fd5b50356001600160a01b031661262e565b61037161267f565b61046960048036036060811015610bd157600080fd5b6001600160a01b0382351691602081013591810190606081016040820135600160201b811115610c0057600080fd5b820183602082011115610c1257600080fd5b803590602001918460018302840111600160201b83111715610c3357600080fd5b5090925090506126e0565b61046960048036036060811015610c5457600080fd5b6001600160a01b0382351691602081013591810190606081016040820135600160201b811115610c8357600080fd5b820183602082011115610c9557600080fd5b803590602001918460018302840111600160201b83111715610cb657600080fd5b91908080601f016020809104026020016040519081016040528093929190818152602001838380828437600092019190915250929550612734945050505050565b61046960048036036040811015610d0d57600080fd5b81359190810190604081016020820135600160201b811115610d2e57600080fd5b820183602082011115610d4057600080fd5b803590602001918460208302840111600160201b83111715610d6157600080fd5b5090925090506127a8565b61046960048036036020811015610d8257600080fd5b50356001600160a01b03166128b7565b61049760048036036040811015610da857600080fd5b506001600160a01b0381351690602001356128cb565b61049760048036036040811015610dd457600080fd5b506001600160a01b03813516906020013561291a565b61049760048036036040811015610e0057600080fd5b506001600160a01b038135169060200135612928565b61049760048036036020811015610e2c57600080fd5b50356001600160a01b0316612972565b61046960048036036060811015610e5257600080fd5b6001600160a01b0382351691602081013591810190606081016040820135600160201b811115610e8157600080fd5b820183602082011115610e9357600080fd5b803590602001918460018302840111600160201b83111715610eb457600080fd5b91908080601f01602080910402602001604051908101604052809392919081815260200183838082843760009201919091525092955061297e945050505050565b61046960048036036040811015610f0b57600080fd5b506001600160a01b0381351690602001356129f3565b61046960048036036040811015610f3757600080fd5b506001600160a01b038135169060200135612a86565b61049760048036036040811015610f6357600080fd5b506001600160a01b0381358116916020013516612b96565b61049760048036036040811015610f9157600080fd5b506001600160a01b038135169060200135612ba4565b61058160048036036040811015610fbd57600080fd5b506001600160a01b0381358116916020013516612bbe565b61100160048036036040811015610feb57600080fd5b506001600160a01b038135169060200135612be9565b60408051938452602084019290925282820152519081900360600190f35b61066c612d32565b6104696004803603602081101561103d57600080fd5b50356001600160a01b0316612d41565b6104696004803603608081101561106357600080fd5b6001600160a01b0382351691602081013591810190606081016040820135600160201b81111561109257600080fd5b8201836020820111156110a457600080fd5b803590602001918460018302840111600160201b831117156110c557600080fd5b919390929091602081019035600160201b8111156110e257600080fd5b8201836020820111156110f457600080fd5b803590602001918460018302840111600160201b8311171561111557600080fd5b509092509050612d92565b6104696004803603604081101561113657600080fd5b81359190810190604081016020820135600160201b81111561115757600080fd5b82018360208201111561116957600080fd5b803590602001918460018302840111600160201b8311171561118a57600080fd5b509092509050612e50565b60606111a16012612ea0565b905090565b600f8054604080516020601f60026000196101006001881615020190951694909404938401819004810282018101909252828152606093909290918301828280156112325780601f1061120757610100808354040283529160200191611232565b820191906000526020600020905b81548152906001019060200180831161121557829003601f168201915b5050505050905090565b6040805133818301526001600160a01b03861660608201526080808201869052602080830191909152600e60a08301526d41677265656d656e74537461746560901b60c0808401919091528351808403909101815260e083018085528151918301919091206101009286028085018401909552858252936112d99385938892889283920190849080828437600092019190915250612f0692505050565b6040805185815290516001600160a01b0387169133917f30f416fa68fca014a0f334464c64b000ba53e99b6d2afdea9d5ca756372d59859181900360200190a35050505050565b600061132d338484612f38565b5060015b92915050565b6113623333836040518060200160405280600081525060405180602001604052806000815250613024565b50565b60408051338183018190526060808301879052602080840191909152600d60808401526c41677265656d656e744461746160981b60a0808501919091528451808503909101815260c0909301909352815191909201206113c5818461323f565b156114015760405162461bcd60e51b815260040180806020018281038252602a8152602001806152cb602a913960400191505060405180910390fd5b61143e81858580806020026020016040519081016040528093929190818152602001838360200280828437600092019190915250612f0692505050565b816001600160a01b03167f770ea40a13a4644573ed785e5c7116890709947918747febc5add46feb531e2d86868660405180848152602001806020018281038252848482818152602001925060200280828437600083820152604051601f909101601f1916909201829003965090945050505050a25050505050565b7f00000000000000000000000000000000000000000000000000000000000000006001600160a01b031633146115215760405162461bcd60e51b815260040180806020018281038252602b815260200180614fcd602b913960400191505060405180910390fd5b61152d84848484613273565b5050505050565b60035490565b60408051632329212160e21b815233600482015290516001600160a01b037f00000000000000000000000000000000000000000000000000000000000000001691638ca48484916024808301926020929190829003018186803b1580156115a057600080fd5b505afa1580156115b4573d6000803e3d6000fd5b505050506040513d60208110156115ca57600080fd5b50516116075760405162461bcd60e51b815260040180806020018281038252602781526020018061508e6027913960400191505060405180910390fd5b60008060007f00000000000000000000000000000000000000000000000000000000000000006001600160a01b031663289b3c0d6040518163ffffffff1660e01b815260040160206040518083038186803b15801561166557600080fd5b505afa158015611679573d6000803e3d6000fd5b505050506040513d602081101561168f57600080fd5b505160408051638369a0f160e01b81526001600160a01b037f0000000000000000000000000000000000000000000000000000000000000000811660048301523060248301527f9f60ae461adf056670e03ae602566409933242392cb06744f5747c9f38b05d096044830152915192935090831691638369a0f191606480820192602092909190829003018186803b15801561172a57600080fd5b505afa15801561173e573d6000803e3d6000fd5b505050506040513d602081101561175457600080fd5b50519250829150506001600160a01b03811661176d5750855b85156117bc5761179e61177f85613429565b6001600160a01b03831660009081526002602052604090205490613471565b6001600160a01b03821660009081526002602052604090205561184f565b6117e76117c885613429565b6001600160a01b03891660009081526002602052604090205490613471565b6001600160a01b0388166000908152600260205260409020556118358361182f61181087613429565b6001600160a01b038516600090815260026020526040902054906134d6565b906134d6565b6001600160a01b0382166000908152600260205260409020555b6001600160a01b0385166000908152600260205260409020546118729084613471565b6001600160a01b038087166000818152600260205260409020929092558816337fb8381a3ce157650e06186e3e8f4dd4dc29236f2688b6eed1893d0a60d7c6386f8c8a6118bf578b6118c1565b855b89898f60405180868152602001856001600160a01b0316815260200184815260200183815260200180602001828103825283818151815260200191508051906020019080838360005b8381101561192257818101518382015260200161190a565b50505050905090810190601f16801561194f5780820380516001836020036101000a031916815260200191505b50965050505050505060405180910390a4505050505050505050565b7f000000000000000000000000000000000000000000000000000000000000000090565b600061199d33858585613273565b90505b9392505050565b7f00000000000000000000000000000000000000000000000000000000000000006001600160a01b03163314611a0e5760405162461bcd60e51b815260040180806020018281038252602b815260200180614fcd602b913960400191505060405180910390fd5b611a393383836040518060200160405280600081525060405180602001604052806000815250613024565b5050565b60408051338183018190526060808301869052602080840191909152600d60808401526c41677265656d656e744461746160981b60a0808501919091528451808503909101815260c090930190935281519190920120611a9d818461323f565b611ad85760405162461bcd60e51b8152600401808060200182810382526029815260200180614ef76029913960400191505060405180910390fd5b611ae2818461353b565b60408051858152905133917f71a63dc095de07aa5512ad57a7596a39516317e316981a1cd71000057be1537b919081900360200190a250505050565b6000808042611b2d8582612be9565b91979096509094509092509050565b601290565b6001600160a01b0381811660009081526001602052604080822054815163c56a069d60e01b81529019600482015290516060937f0000000000000000000000000000000000000000000000000000000000000000169263c56a069d9260248082019391829003018186803b158015611bb857600080fd5b505afa158015611bcc573d6000803e3d6000fd5b505050506040513d6000823e601f3d908101601f191682016040526020811015611bf557600080fd5b8101908080516040519392919084600160201b821115611c1457600080fd5b908301906020820185811115611c2957600080fd5b82518660208202830111600160201b82111715611c4557600080fd5b82525081516020918201928201910280838360005b83811015611c72578181015183820152602001611c5a565b505050509050016040525050509050919050565b3360008181526011602090815260408083206001600160a01b0387168452909152812054909161132d918590611cbc9086613554565b612f38565b600054610100900460ff1680611cda5750611cda6135ae565b80611ce8575060005460ff16155b611d235760405162461bcd60e51b815260040180806020018281038252602e8152602001806150b5602e913960400191505060405180910390fd5b600054610100900460ff16158015611d4e576000805460ff1961ff0019909116610100171660011790555b600e80546001600160a01b0319166001600160a01b0389161760ff60a01b1916600160a01b60ff891602179055611d87600f8686614e5e565b50611d9460108484614e5e565b50611d9e306135bf565b8015611db0576000805461ff00191690555b50505050505050565b6113623333338460405180602001604052806000815250604051806020016040528060008152506136f9565b336001600160a01b037f00000000000000000000000000000000000000000000000000000000000000001614611e4c5760405162461bcd60e51b815260040180806020018281038252602581526020018061518d6025913960400191505060405180910390fd5b61136281613930565b604080516001600160a01b038087168284015285166060828101919091526080808301869052602080840191909152600e60a08401526d41677265656d656e74537461746560901b60c0808501919091528451808503909101815260e090930190935281519190920120611ec98184613a93565b9695505050505050565b60006111a1613b14565b7f6bfbb132610e56cb96575dba244667b9d6dbfeffe22b68a79fa16f2d18eb001990565b600190565b611f59333386866040518060200160405280600081525087878080601f0160208091040260200160405190810160405280939291908181526020018383808284376000920191909152506136f992505050565b50505050565b7f00000000000000000000000000000000000000000000000000000000000000006001600160a01b03163314611fc65760405162461bcd60e51b815260040180806020018281038252602b815260200180614fcd602b913960400191505060405180910390fd5b611fd1838383612f38565b505050565b33611fe36012828a613b39565b61201e5760405162461bcd60e51b81526004018080602001828103825260308152602001806150e36030913960400191505060405180910390fd5b6120988189898989898080601f01602080910402602001604051908101604052809392919081815260200183838082843760009201919091525050604080516020601f8d018190048102820181019092528b815292508b91508a908190840183828082843760009201919091525060019250613be2915050565b5050505050505050565b604080516001600160a01b0385168183015260608181018590526020808301829052600d60808401526c41677265656d656e744461746160981b60a0808501919091528451808503909101815260c0909301909352815191909201206121088184613a93565b95945050505050565b60008061211e8342612be9565b505090506000811261213057806119a0565b60009392505050565b60006113318242612ba4565b60408051632329212160e21b815233600482015290516001600160a01b037f00000000000000000000000000000000000000000000000000000000000000001691638ca48484916024808301926020929190829003018186803b1580156121ab57600080fd5b505afa1580156121bf573d6000803e3d6000fd5b505050506040513d60208110156121d557600080fd5b50516122125760405162461bcd60e51b815260040180806020018281038252602781526020018061508e6027913960400191505060405180910390fd5b60007f00000000000000000000000000000000000000000000000000000000000000006001600160a01b031663289b3c0d6040518163ffffffff1660e01b815260040160206040518083038186803b15801561226d57600080fd5b505afa158015612281573d6000803e3d6000fd5b505050506040513d602081101561229757600080fd5b505160408051638369a0f160e01b81526001600160a01b037f0000000000000000000000000000000000000000000000000000000000000000811660048301523060248301527f9f60ae461adf056670e03ae602566409933242392cb06744f5747c9f38b05d096044830152915192935060009291841691638369a0f191606480820192602092909190829003018186803b15801561233557600080fd5b505afa158015612349573d6000803e3d6000fd5b505050506040513d602081101561235f57600080fd5b505190506001600160a01b0381166123745750845b600061237f85613429565b905083612496576001600160a01b0382166000908152600260205260409020546123a99082613471565b6001600160a01b0380841660009081526002602052604080822093909355908816815220546123d890826134d6565b6001600160a01b038088166000818152600260209081526040918290209490945580518c8152938401899052805192861693919233927f8505c3d8f1f184f032cf0bc4cd80ee61c8b9d94f8907c3281bf0101a2610fe8092908290030190a4604080516001600160a01b038981168252602082018b90528183018890526000606083015291518285169289169133917f5f22b60e58b1d6de858bc27c48d5a4653e052da99e083c1d88bb8c58e1abc8ef9181900360800190a4612098565b60006124a185613429565b6001600160a01b0389166000908152600260205260409020549091506124c79083613471565b6001600160a01b03808a1660009081526002602052604080822093909355908516815220546124fc90829061182f90856134d6565b6001600160a01b03808516600090815260026020526040808220939093559089168152205461252b9082613471565b6001600160a01b038089166000818152600260209081526040918290209490945580518d81529384018a90528051928c1693919233927f8505c3d8f1f184f032cf0bc4cd80ee61c8b9d94f8907c3281bf0101a2610fe8092908290030190a46040805186815290516001600160a01b038516917fd6c9a04afc81e8c614310bbee6c9e84f5abe15b82038bf8347014ce0852e6ffd919081900360200190a2604080516001600160a01b038a81168252602082018c9052818301899052606082018890529151828616928a169133917f5f22b60e58b1d6de858bc27c48d5a4653e052da99e083c1d88bb8c58e1abc8ef9181900360800190a4505050505050505050565b3361263b60128284613c97565b806001600160a01b0316826001600160a01b03167ff4caeb2d6ca8932a215a353d0703c326ec2d81fc68170f320eb2ab49e9df61f960405160405180910390a35050565b60108054604080516020601f60026000196101006001881615020190951694909404938401819004810282018101909252828152606093909290918301828280156112325780601f1061120757610100808354040283529160200191611232565b611f593333868686868080601f01602080910402602001604051908101604052809392919081815260200183838082843760009201829052506040805160208101909152908152925060019150613be29050565b333014612788576040805162461bcd60e51b815260206004820152601d60248201527f5375706572546f6b656e3a206f6e6c792073656c6620616c6c6f776564000000604482015290519081900360640190fd5b604080516000815260208101909152611fd1903390859085908590613d76565b60408051338183018190526060808301879052602080840191909152600d60808401526c41677265656d656e744461746160981b60a0808501919091528451808503909101815260c0840180865281519183019190912060e092870280860184019096528682529294929361283b93859389928992839290910190849080828437600092019190915250612f0692505050565b336001600160a01b03167f0c4c547b3a4fcaa5be8353b3111472b124155bccc86de811d4a481c9e6e9faca86868660405180848152602001806020018281038252848482818152602001925060200280828437600083820152604051601f909101601f1916909201829003965090945050505050a25050505050565b611a393333836128c633612111565b613273565b600061132d3384611cbc856040518060600160405280602a8152602001615113602a91393360009081526011602090815260408083206001600160a01b038d1684529091529020549190613f38565b60006119a033338585613273565b6000806000806129388686612be9565b925092509250600061296382841161295157600061295c565b61295c838503613429565b8590613471565b60001315979650505050505050565b60006113318242612928565b3330146129d2576040805162461bcd60e51b815260206004820152601d60248201527f5375706572546f6b656e3a206f6e6c792073656c6620616c6c6f776564000000604482015290519081900360640190fd5b60408051600080825260208201909252611fd1913391869186918690613fcf565b7f00000000000000000000000000000000000000000000000000000000000000006001600160a01b03163314612a5a5760405162461bcd60e51b815260040180806020018281038252602b815260200180614fcd602b913960400191505060405180910390fd5b611a393383848460405180602001604052806000815250604051806020016040528060008152506136f9565b60408051632329212160e21b815233600482015290516001600160a01b037f00000000000000000000000000000000000000000000000000000000000000001691638ca48484916024808301926020929190829003018186803b158015612aec57600080fd5b505afa158015612b00573d6000803e3d6000fd5b505050506040513d6020811015612b1657600080fd5b5051612b535760405162461bcd60e51b815260040180806020018281038252602781526020018061508e6027913960400191505060405180910390fd5b6001600160a01b038216600090815260026020526040902054612b769082613471565b6001600160a01b0390921660009081526002602052604090209190915550565b60006119a060128484613b39565b600080612bb18484612be9565b5050600013949350505050565b6001600160a01b03918216600090815260116020908152604080832093909416825291909152205490565b6001600160a01b038216600090815260026020526040812054908080612c0e86611b41565b905060005b8151811015612d29576000806000848481518110612c2d57fe5b60200260200101516001600160a01b0316639b2e48bc308c8c6040518463ffffffff1660e01b815260040180846001600160a01b03168152602001836001600160a01b03168152602001828152602001935050505060606040518083038186803b158015612c9a57600080fd5b505afa158015612cae573d6000803e3d6000fd5b505050506040513d6060811015612cc457600080fd5b50805160208201516040909201519094509092509050612ce48783613554565b9650612cf08682613554565b9550612d18818311612d03576000612d0e565b612d0e828403613429565b61182f8a86613471565b97505060019092019150612c139050565b50509250925092565b600e546001600160a01b031690565b33612d4e601282846141a9565b806001600160a01b0316826001600160a01b03167f50546e66e5f44d728365dc3908c63bc5cfeeab470722c1677e3073a6ac294aa160405160405180910390a35050565b33612d9f60128289613b39565b612dda5760405162461bcd60e51b81526004018080602001828103825260308152602001806150e36030913960400191505060405180910390fd5b611db081888888888080601f01602080910402602001604051908101604052809392919081815260200183838082843760009201919091525050604080516020601f8c018190048102820181019092528a815292508a915089908190840183828082843760009201919091525061302492505050565b611fd133338585858080601f016020809104026020016040519081016040528093929190818152602001838380828437600092018290525060408051602081019091529081529250613024915050565b606081600001805480602002602001604051908101604052809291908181526020018280548015612efa57602002820191906000526020600020905b81546001600160a01b03168152600190910190602001808311612edc575b50505050509050919050565b60005b8151811015611fd1576000828281518110612f2057fe5b60209081029190910101518483015550600101612f09565b6001600160a01b038316612f7d5760405162461bcd60e51b81526004018080602001828103825260258152602001806150196025913960400191505060405180910390fd5b6001600160a01b038216612fc25760405162461bcd60e51b815260040180806020018281038252602381526020018061506b6023913960400191505060405180910390fd5b6001600160a01b03808416600081815260116020908152604080832094871680845294825291829020859055815185815291517f8c5be1e5ebec7d5bd14f71427d1e84f3dd0314c0f7b2291e5b200ac8c7c3b9259281900390910190a3505050565b600e546001600160a01b0316613081576040805162461bcd60e51b815260206004820152601f60248201527f5375706572546f6b656e3a206e6f20756e6465726c79696e6720746f6b656e00604482015290519081900360640190fd5b60008061308d8561427e565b9150915061309e8787838787613d76565b600e54604080516370a0823160e01b815230600482015290516000926001600160a01b0316916370a08231916024808301926020929190829003018186803b1580156130e957600080fd5b505afa1580156130fd573d6000803e3d6000fd5b505050506040513d602081101561311357600080fd5b5051600e5490915061312f906001600160a01b03168885614310565b600e54604080516370a0823160e01b815230600482015290516000926001600160a01b0316916370a08231916024808301926020929190829003018186803b15801561317a57600080fd5b505afa15801561318e573d6000803e3d6000fd5b505050506040513d60208110156131a457600080fd5b5051905060006131b48383614362565b90508085146131f45760405162461bcd60e51b815260040180806020018281038252603a815260200180614f6d603a913960400191505060405180910390fd5b6040805185815290516001600160a01b038b16917f3bc27981aebbb57f9247dc00fde9d6cd91e4b230083fec3238fedbcba1f9ab3d919081900360200190a250505050505050505050565b6000805b828110156132695783810154801561326057600192505050611331565b50600101613243565b5060009392505050565b60006001600160a01b0384166132ba5760405162461bcd60e51b8152600401808060200182810382526026815260200180614fa76026913960400191505060405180910390fd5b6001600160a01b0383166132ff5760405162461bcd60e51b815260040180806020018281038252602481526020018061513d6024913960400191505060405180910390fd5b60003390506133308186868660405180602001604052806000815250604051806020016040528060008152506143bf565b61335c8186868660405180602001604052806000815250604051806020016040528060008152506145eb565b846001600160a01b0316866001600160a01b0316146133ef576133ef8587611cbc866040518060600160405280602d81526020016151da602d9139601160008c6001600160a01b03166001600160a01b0316815260200190815260200160002060008d6001600160a01b03166001600160a01b0316815260200190815260200160002054613f389092919063ffffffff16565b61341d8186868660405180602001604052806000815250604051806020016040528060008152506000614777565b50600195945050505050565b6000600160ff1b821061346d5760405162461bcd60e51b81526004018080602001828103825260288152602001806151b26028913960400191505060405180910390fd5b5090565b60008282018183128015906134865750838112155b8061349b575060008312801561349b57508381125b6119a05760405162461bcd60e51b8152600401808060200182810382526021815260200180614ff86021913960400191505060405180910390fd5b60008183038183128015906134eb5750838113155b80613500575060008312801561350057508381135b6119a05760405162461bcd60e51b81526004018080602001828103825260248152602001806152336024913960400191505060405180910390fd5b60005b81811015611fd15760008382015560010161353e565b6000828201838110156119a0576040805162461bcd60e51b815260206004820152601b60248201527f536166654d6174683a206164646974696f6e206f766572666c6f770000000000604482015290519081900360640190fd5b60006135b9306149f2565b15905090565b604080516329965a1d60e01b81526001600160a01b03831660048201527fac7fbab5f54a3ca8194167523c6753bfeb96a445279294b6125b68cce217705460248201523060448201529051731820a4b7618bde71dce8cdc73aab6c95905fad24916329965a1d91606480830192600092919082900301818387803b15801561364657600080fd5b505af115801561365a573d6000803e3d6000fd5b5050604080516329965a1d60e01b81526001600160a01b03851660048201527faea199e31a596269b42cdafd93407f14436db6e4cad65417994c2eb37381e05a60248201523060448201529051731820a4b7618bde71dce8cdc73aab6c95905fad2493506329965a1d9250606480830192600092919082900301818387803b1580156136e557600080fd5b505af115801561152d573d6000803e3d6000fd5b600e546001600160a01b0316613756576040805162461bcd60e51b815260206004820152601f60248201527f5375706572546f6b656e3a206e6f20756e6465726c79696e6720746f6b656e00604482015290519081900360640190fd5b6000806137628561427e565b600e54604080516370a0823160e01b815230600482015290519395509193506000926001600160a01b03909116916370a08231916024808301926020929190829003018186803b1580156137b557600080fd5b505afa1580156137c9573d6000803e3d6000fd5b505050506040513d60208110156137df57600080fd5b5051600e549091506137fc906001600160a01b03168930866149f8565b600e54604080516370a0823160e01b815230600482015290516000926001600160a01b0316916370a08231916024808301926020929190829003018186803b15801561384757600080fd5b505afa15801561385b573d6000803e3d6000fd5b505050506040513d602081101561387157600080fd5b5051905060006138818284614362565b90508085146138c15760405162461bcd60e51b815260040180806020018281038252603a815260200180614f6d603a913960400191505060405180910390fd5b6138e48b8a868c6001600160a01b03168e6001600160a01b031614158b8b613fcf565b6040805185815290516001600160a01b038b16917f25ca84076773b0455db53621c459ddc84fe40840e4932a62706a032566f399df919081900360200190a25050505050505050505050565b600061393a613b14565b6001600160a01b03161415613996576040805162461bcd60e51b815260206004820152601d60248201527f5555505350726f786961626c653a206e6f742075706772616461626c65000000604482015290519081900360640190fd5b806001600160a01b03166352d1902d6040518163ffffffff1660e01b815260040160206040518083038186803b1580156139cf57600080fd5b505afa1580156139e3573d6000803e3d6000fd5b505050506040513d60208110156139f957600080fd5b5051613a03611edd565b14613a3f5760405162461bcd60e51b8152600401808060200182810382526023815260200180614f206023913960400191505060405180910390fd5b613a4881614a52565b7fe011bc04c286c344a8fcbb8de77f953da762c3e25d8cdea984147fc4168a5dcc613a71611edd565b604080519182526001600160a01b03841660208301528051918290030190a150565b60608167ffffffffffffffff81118015613aac57600080fd5b50604051908082528060200260200182016040528015613ad6578160200160208202803683370190505b50905060005b82811015613b0d57600081850154905080838381518110613af957fe5b602090810291909101015250600101613adc565b5092915050565b7f360894a13ba1a3210667c828492db98dca3e2076cc3735a920a3ca505d382bbc5490565b6000816001600160a01b0316836001600160a01b03161480613ba857506001600160a01b038316600090815260018501602052604090205460ff168015613ba857506001600160a01b03808316600090815260038601602090815260408083209387168352929052205460ff16155b8061199d57506001600160a01b03808316600090815260028601602090815260408083209387168352929052205460ff1690509392505050565b6001600160a01b038616613c275760405162461bcd60e51b8152600401808060200182810382526026815260200180614fa76026913960400191505060405180910390fd5b6001600160a01b038516613c6c5760405162461bcd60e51b815260040180806020018281038252602481526020018061513d6024913960400191505060405180910390fd5b613c7a8787878787876143bf565b613c888787878787876145eb565b611db087878787878787614777565b806001600160a01b0316826001600160a01b03161415613ce85760405162461bcd60e51b815260040180806020018281038252602d81526020018061503e602d913960400191505060405180910390fd5b6001600160a01b038116600090815260018401602052604090205460ff1615613d3f576001600160a01b0380831660009081526003850160209081526040808320938516835292905220805460ff19169055611fd1565b6001600160a01b0380831660009081526002850160209081526040808320938516835292905220805460ff19166001179055505050565b6001600160a01b038416613dbb5760405162461bcd60e51b81526004018080602001828103825260228152602001806152a96022913960400191505060405180910390fd5b613dca858560008686866143bf565b613dd48484614a76565b836001600160a01b0316856001600160a01b03167fa78a9be3a7b862d26933ad85fb11d80ef66b8f972d7cbba06621d583943a4098858585604051808481526020018060200180602001838103835285818151815260200191508051906020019080838360005b83811015613e53578181015183820152602001613e3b565b50505050905090810190601f168015613e805780820380516001836020036101000a031916815260200191505b50838103825284518152845160209182019186019080838360005b83811015613eb3578181015183820152602001613e9b565b50505050905090810190601f168015613ee05780820380516001836020036101000a031916815260200191505b509550505050505060405180910390a36040805184815290516000916001600160a01b038716917fddf252ad1be2c89b69c2b068fc378daa952ba7f163c4a11628f55a4df523b3ef9181900360200190a35050505050565b60008184841115613fc75760405162461bcd60e51b81526004018080602001828103825283818151815260200191508051906020019080838360005b83811015613f8c578181015183820152602001613f74565b50505050905090810190601f168015613fb95780820380516001836020036101000a031916815260200191505b509250505060405180910390fd5b505050900390565b6001600160a01b03851661402a576040805162461bcd60e51b815260206004820181905260248201527f5375706572546f6b656e3a206d696e7420746f207a65726f2061646472657373604482015290519081900360640190fd5b6140348585614b07565b6140448660008787868689614777565b846001600160a01b0316866001600160a01b03167f2fe5be0146f74c5bce36c0b80911af6c7d86ff27e89d5cfa61fc681327954e5d868585604051808481526020018060200180602001838103835285818151815260200191508051906020019080838360005b838110156140c35781810151838201526020016140ab565b50505050905090810190601f1680156140f05780820380516001836020036101000a031916815260200191505b50838103825284518152845160209182019186019080838360005b8381101561412357818101518382015260200161410b565b50505050905090810190601f1680156141505780820380516001836020036101000a031916815260200191505b509550505050505060405180910390a36040805185815290516001600160a01b038716916000917fddf252ad1be2c89b69c2b068fc378daa952ba7f163c4a11628f55a4df523b3ef9181900360200190a3505050505050565b6001600160a01b0381163314156141f15760405162461bcd60e51b815260040180806020018281038252602a815260200180614f43602a913960400191505060405180910390fd5b6001600160a01b038116600090815260018401602052604090205460ff161561424b576001600160a01b0380831660009081526003850160209081526040808320938516835292905220805460ff19166001179055611fd1565b6001600160a01b03918216600090815260029390930160209081526040808520929093168452529020805460ff19169055565b600e54600090819081906012600160a01b90910460ff1610156142c85750600e5460ff600160a01b909104811660120316600a0a8084816142bb57fe5b049250808302915061430a565b600e546012600160a01b90910460ff161115614303575050600e5460111960ff600160a01b90920482160116600a0a8281029150829061430a565b8391508192505b50915091565b604080516001600160a01b038416602482015260448082018490528251808303909101815260649091019091526020810180516001600160e01b031663a9059cbb60e01b179052611fd1908490614b5f565b6000828211156143b9576040805162461bcd60e51b815260206004820152601e60248201527f536166654d6174683a207375627472616374696f6e206f766572666c6f770000604482015290519081900360640190fd5b50900390565b6040805163555ddc6560e11b81526001600160a01b03871660048201527f29ddb589b1fb5fc7cf394961c1adf5f8c6454761adf795e67fe149f658abe89560248201529051600091731820a4b7618bde71dce8cdc73aab6c95905fad249163aabbb8ca91604480820192602092909190829003018186803b15801561444357600080fd5b505afa158015614457573d6000803e3d6000fd5b505050506040513d602081101561446d57600080fd5b505190506001600160a01b03811615611db057806001600160a01b03166375ab97828888888888886040518763ffffffff1660e01b815260040180876001600160a01b03168152602001866001600160a01b03168152602001856001600160a01b031681526020018481526020018060200180602001838103835285818151815260200191508051906020019080838360005b83811015614518578181015183820152602001614500565b50505050905090810190601f1680156145455780820380516001836020036101000a031916815260200191505b50838103825284518152845160209182019186019080838360005b83811015614578578181015183820152602001614560565b50505050905090810190601f1680156145a55780820380516001836020036101000a031916815260200191505b5098505050505050505050600060405180830381600087803b1580156145ca57600080fd5b505af11580156145de573d6000803e3d6000fd5b5050505050505050505050565b6145fe85856145f986613429565b614c10565b836001600160a01b0316856001600160a01b0316876001600160a01b03167f06b541ddaa720db2b10a4d0cdac39b8d360425fc073085fac19bc82614677987868686604051808481526020018060200180602001838103835285818151815260200191508051906020019080838360005b8381101561468757818101518382015260200161466f565b50505050905090810190601f1680156146b45780820380516001836020036101000a031916815260200191505b50838103825284518152845160209182019186019080838360005b838110156146e75781810151838201526020016146cf565b50505050905090810190601f1680156147145780820380516001836020036101000a031916815260200191505b509550505050505060405180910390a4836001600160a01b0316856001600160a01b03167fddf252ad1be2c89b69c2b068fc378daa952ba7f163c4a11628f55a4df523b3ef856040518082815260200191505060405180910390a3505050505050565b6040805163555ddc6560e11b81526001600160a01b03871660048201527fb281fc8c12954d22544db45de3159a39272895b169a852b314f9cc762e44c53b60248201529051600091731820a4b7618bde71dce8cdc73aab6c95905fad249163aabbb8ca91604480820192602092909190829003018186803b1580156147fb57600080fd5b505afa15801561480f573d6000803e3d6000fd5b505050506040513d602081101561482557600080fd5b505190506001600160a01b0381161561499e57806001600160a01b03166223de298989898989896040518763ffffffff1660e01b815260040180876001600160a01b03168152602001866001600160a01b03168152602001856001600160a01b031681526020018481526020018060200180602001838103835285818151815260200191508051906020019080838360005b838110156148cf5781810151838201526020016148b7565b50505050905090810190601f1680156148fc5780820380516001836020036101000a031916815260200191505b50838103825284518152845160209182019186019080838360005b8381101561492f578181015183820152602001614917565b50505050905090810190601f16801561495c5780820380516001836020036101000a031916815260200191505b5098505050505050505050600060405180830381600087803b15801561498157600080fd5b505af1158015614995573d6000803e3d6000fd5b50505050612098565b8115612098576149b6866001600160a01b03166149f2565b156120985760405162461bcd60e51b81526004018080602001828103825260288152602001806152816028913960400191505060405180910390fd5b3b151590565b604080516001600160a01b0380861660248301528416604482015260648082018490528251808303909101815260849091019091526020810180516001600160e01b03166323b872dd60e01b179052611f59908590614b5f565b7f360894a13ba1a3210667c828492db98dca3e2076cc3735a920a3ca505d382bbc55565b6000614a828342612be9565b50509050614a8f82613429565b811215614acd5760405162461bcd60e51b815260040180806020018281038252602c815260200180615161602c913960400191505060405180910390fd5b614ad961181083613429565b6001600160a01b038416600090815260026020526040902055600354614aff9083614362565b600355505050565b614b32614b1382613429565b6001600160a01b03841660009081526002602052604090205490613471565b6001600160a01b038316600090815260026020526040902055600354614b589082613554565b6003555050565b6000614bb4826040518060400160405280602081526020017f5361666545524332303a206c6f772d6c6576656c2063616c6c206661696c6564815250856001600160a01b0316614cd39092919063ffffffff16565b805190915015611fd157808060200190516020811015614bd357600080fd5b5051611fd15760405162461bcd60e51b815260040180806020018281038252602a815260200180615257602a913960400191505060405180910390fd5b6000614c1c8442612be9565b5050905081811215614c5f5760405162461bcd60e51b815260040180806020018281038252602c815260200180615207602c913960400191505060405180910390fd5b6001600160a01b038416600090815260026020526040902054614c8290836134d6565b6001600160a01b038086166000908152600260205260408082209390935590851681522054614cb19083613471565b6001600160a01b03909316600090815260026020526040902092909255505050565b606061199d848460008585614ce7856149f2565b614d38576040805162461bcd60e51b815260206004820152601d60248201527f416464726573733a2063616c6c20746f206e6f6e2d636f6e7472616374000000604482015290519081900360640190fd5b600080866001600160a01b031685876040518082805190602001908083835b60208310614d765780518252601f199092019160209182019101614d57565b6001836020036101000a03801982511681845116808217855250505050505090500191505060006040518083038185875af1925050503d8060008114614dd8576040519150601f19603f3d011682016040523d82523d6000602084013e614ddd565b606091505b5091509150614ded828286614df8565b979650505050505050565b60608315614e075750816119a0565b825115614e175782518084602001fd5b60405162461bcd60e51b8152602060048201818152845160248401528451859391928392604401919085019080838360008315613f8c578181015183820152602001613f74565b828054600181600116156101000203166002900490600052602060002090601f016020900481019282614e945760008555614eda565b82601f10614ead5782800160ff19823516178555614eda565b82800160010185558215614eda579182015b82811115614eda578235825591602001919060010190614ebf565b5061346d9291505b8082111561346d5760008155600101614ee256fe5375706572666c756964546f6b656e3a2061677265656d656e7420646f6573206e6f742065786973745555505350726f786961626c653a206e6f7420636f6d70617469626c65206c6f6769634552433737374f70657261746f72733a207265766f6b696e672073656c66206173206f70657261746f725375706572546f6b656e3a20696e666c6174696f6e6172792f6465666c6174696f6e61727920746f6b656e73206e6f7420737570706f727465645375706572546f6b656e3a207472616e736665722066726f6d207a65726f20616464726573735375706572666c756964546f6b656e3a204f6e6c7920686f737420636f6e747261637420616c6c6f7765645369676e6564536166654d6174683a206164646974696f6e206f766572666c6f775375706572546f6b656e3a20617070726f76652066726f6d207a65726f20616464726573734552433737374f70657261746f72733a20617574686f72697a696e672073656c66206173206f70657261746f725375706572546f6b656e3a20617070726f766520746f207a65726f20616464726573735375706572666c756964546f6b656e3a206f6e6c79206c6973746564206167726565656d656e74496e697469616c697a61626c653a20636f6e747261637420697320616c726561647920696e697469616c697a65645375706572546f6b656e3a2063616c6c6572206973206e6f7420616e206f70657261746f7220666f7220686f6c6465725375706572546f6b656e3a2064656372656173656420616c6c6f77616e63652062656c6f77207a65726f5375706572546f6b656e3a207472616e7366657220746f207a65726f20616464726573735375706572666c756964546f6b656e3a206275726e20616d6f756e7420657863656564732062616c616e63655375706572546f6b656e3a206f6e6c7920686f73742063616e2075706461746520636f646553616665436173743a2076616c756520646f65736e27742066697420696e20616e20696e743235365375706572546f6b656e3a207472616e7366657220616d6f756e74206578636565647320616c6c6f77616e63655375706572666c756964546f6b656e3a206d6f766520616d6f756e7420657863656564732062616c616e63655369676e6564536166654d6174683a207375627472616374696f6e206f766572666c6f775361666545524332303a204552433230206f7065726174696f6e20646964206e6f7420737563636565645375706572546f6b656e3a206e6f7420616e20455243373737546f6b656e73526563697069656e745375706572546f6b656e3a206275726e2066726f6d207a65726f20616464726573735375706572666c756964546f6b656e3a2061677265656d656e7420616c72656164792063726561746564a2646970667358221220197bcaa38abf24502ecf649b9f454361608f14262e539e8eec4cb0ce622ad54a64736f6c63430007060033a2646970667358221220d66dfe05259965ec14ac3de2d011e62e3065d1f784fa6c53238828489305bb8764736f6c63430007060033",
  "immutableReferences": {},
  "source": "// SPDX-License-Identifier: AGPLv3\npragma solidity 0.7.6;\n\nimport {\n    ISuperTokenFactory,\n    ISuperToken,\n    IERC20,\n    ERC20WithTokenInfo\n} from \"../interfaces/superfluid/ISuperTokenFactory.sol\";\n\nimport { ISuperfluid } from \"../interfaces/superfluid/ISuperfluid.sol\";\n\nimport { UUPSProxy } from \"../upgradability/UUPSProxy.sol\";\nimport { UUPSProxiable } from \"../upgradability/UUPSProxiable.sol\";\n\nimport { SuperToken } from \"../superfluid/SuperToken.sol\";\n\nimport { FullUpgradableSuperTokenProxy } from \"../tokens/FullUpgradableSuperTokenProxy.sol\";\n\nimport { Address } from \"@openzeppelin/contracts/utils/Address.sol\";\nimport { Create2 } from \"@openzeppelin/contracts/utils/Create2.sol\";\n\n\nabstract contract SuperTokenFactoryBase is\n    UUPSProxiable,\n    ISuperTokenFactory\n{\n\n    ISuperfluid immutable internal _host;\n\n    ISuperToken internal _superTokenLogic;\n\n    constructor(\n        ISuperfluid host\n    ) {\n        _host = host;\n    }\n\n    /// @dev ISuperTokenFactory.getHost implementation\n    function getHost()\n       external view\n       override(ISuperTokenFactory)\n       returns(address host)\n    {\n       return address(_host);\n    }\n\n    /**************************************************************************\n    * UUPSProxiable\n    **************************************************************************/\n    function initialize()\n        external override\n        initializer // OpenZeppelin Initializable\n    {\n        _updateSuperTokenLogic();\n    }\n\n    function proxiableUUID() public pure override returns (bytes32) {\n        return keccak256(\"org.superfluid-finance.contracts.SuperTokenFactory.implementation\");\n    }\n\n    function updateCode(address newAddress) external override {\n        require(msg.sender == address(_host), \"SuperTokenFactory: only host can update code\");\n        _updateCodeAddress(newAddress);\n        _updateSuperTokenLogic();\n    }\n\n    function _updateSuperTokenLogic() private {\n        // use external call to trigger the new code to update the super token logic contract\n        _superTokenLogic = SuperToken(this.createSuperTokenLogic(_host));\n        emit SuperTokenLogicCreated(_superTokenLogic);\n    }\n\n    /**************************************************************************\n    * ISuperTokenFactory\n    **************************************************************************/\n    function getSuperTokenLogic()\n        external view override\n        returns (ISuperToken)\n    {\n        return _superTokenLogic;\n    }\n\n    function createSuperTokenLogic(ISuperfluid host) external virtual returns (address logic);\n\n    function createERC20Wrapper(\n        IERC20 underlyingToken,\n        uint8 underlyingDecimals,\n        Upgradability upgradability,\n        string calldata name,\n        string calldata symbol\n    )\n        public override\n        returns (ISuperToken superToken)\n    {\n        require(address(underlyingToken) != address(0), \"SuperTokenFactory: zero address\");\n\n        if (upgradability == Upgradability.NON_UPGRADABLE) {\n            superToken = ISuperToken(this.createSuperTokenLogic(_host));\n        } else if (upgradability == Upgradability.SEMI_UPGRADABLE) {\n            UUPSProxy proxy = new UUPSProxy();\n            // initialize the wrapper\n            proxy.initializeProxy(address(_superTokenLogic));\n            superToken = ISuperToken(address(proxy));\n        } else /* if (type == Upgradability.FULL_UPGRADABE) */ {\n            FullUpgradableSuperTokenProxy proxy = new FullUpgradableSuperTokenProxy();\n            proxy.initialize();\n            superToken = ISuperToken(address(proxy));\n        }\n\n        // initialize the token\n        superToken.initialize(\n            underlyingToken,\n            underlyingDecimals,\n            name,\n            symbol\n        );\n\n        emit SuperTokenCreated(superToken);\n    }\n\n    function createERC20Wrapper(\n        ERC20WithTokenInfo underlyingToken,\n        Upgradability upgradability,\n        string calldata name,\n        string calldata symbol\n    )\n        external override\n        returns (ISuperToken superToken)\n    {\n        return createERC20Wrapper(\n            underlyingToken,\n            underlyingToken.decimals(),\n            upgradability,\n            name,\n            symbol\n        );\n    }\n\n    function initializeCustomSuperToken(\n        address customSuperTokenProxy\n    )\n        external override\n    {\n        // odd solidity stuff..\n        address payable a = address(uint160(customSuperTokenProxy));\n        UUPSProxy(a).initializeProxy(address(_superTokenLogic));\n\n        emit CustomSuperTokenCreated(ISuperToken(customSuperTokenProxy));\n    }\n\n}\n\n// spliting this off because the contract is getting bigger\ncontract SuperTokenFactoryHelper {\n    function create(ISuperfluid host)\n        external\n        returns (address logic)\n    {\n        return address(new SuperToken(host));\n    }\n}\n\ncontract SuperTokenFactory is SuperTokenFactoryBase\n{\n    SuperTokenFactoryHelper immutable private _helper;\n\n    constructor(\n        ISuperfluid host,\n        SuperTokenFactoryHelper helper\n    )\n        SuperTokenFactoryBase(host)\n        // solhint-disable-next-line no-empty-blocks\n    {\n        _helper = helper;\n    }\n\n    function createSuperTokenLogic(ISuperfluid host)\n        external override\n        returns (address logic)\n    {\n        return _helper.create(host);\n    }\n}\n",
  "sourcePath": "/home/runner/work/protocol-monorepo/protocol-monorepo/packages/ethereum-contracts/contracts/superfluid/SuperTokenFactory.sol",
  "compiler": {
    "name": "solc",
    "version": "0.7.6+commit.7338295f.Emscripten.clang"
  },
  "schemaVersion": "3.4.4",
  "updatedAt": "2022-02-01T14:35:44.805Z",
  "devdoc": {
    "kind": "dev",
    "methods": {},
    "version": 1
  },
  "userdoc": {
    "kind": "user",
    "methods": {},
    "version": 1
  }
}