{
  "contractName": "SuperfluidOwnableGovernance",
  "abi": [
    {
      "anonymous": false,
      "inputs": [
        {
          "indexed": true,
          "internalType": "contract ISuperfluid",
          "name": "host",
          "type": "address"
        },
        {
          "indexed": true,
          "internalType": "contract ISuperfluidToken",
          "name": "superToken",
          "type": "address"
        },
        {
          "indexed": false,
          "internalType": "bool",
          "name": "isKeySet",
          "type": "bool"
        },
        {
          "indexed": false,
          "internalType": "uint256",
          "name": "liquidationPeriod",
          "type": "uint256"
        }
      ],
      "name": "CFAv1LiquidationPeriodChanged",
      "type": "event"
    },
    {
      "anonymous": false,
      "inputs": [
        {
          "indexed": true,
          "internalType": "contract ISuperfluid",
          "name": "host",
          "type": "address"
        },
        {
          "indexed": true,
          "internalType": "contract ISuperfluidToken",
          "name": "superToken",
          "type": "address"
        },
        {
          "indexed": false,
          "internalType": "bytes32",
          "name": "key",
          "type": "bytes32"
        },
        {
          "indexed": false,
          "internalType": "bool",
          "name": "isKeySet",
          "type": "bool"
        },
        {
          "indexed": false,
          "internalType": "uint256",
          "name": "value",
          "type": "uint256"
        }
      ],
      "name": "ConfigChanged",
      "type": "event"
    },
    {
      "anonymous": false,
      "inputs": [
        {
          "indexed": true,
          "internalType": "address",
          "name": "previousOwner",
          "type": "address"
        },
        {
          "indexed": true,
          "internalType": "address",
          "name": "newOwner",
          "type": "address"
        }
      ],
      "name": "OwnershipTransferred",
      "type": "event"
    },
    {
      "anonymous": false,
      "inputs": [
        {
          "indexed": true,
          "internalType": "contract ISuperfluid",
          "name": "host",
          "type": "address"
        },
        {
          "indexed": true,
          "internalType": "contract ISuperfluidToken",
          "name": "superToken",
          "type": "address"
        },
        {
          "indexed": false,
          "internalType": "bool",
          "name": "isKeySet",
          "type": "bool"
        },
        {
          "indexed": false,
          "internalType": "address",
          "name": "rewardAddress",
          "type": "address"
        }
      ],
      "name": "RewardAddressChanged",
      "type": "event"
    },
    {
      "anonymous": false,
      "inputs": [
        {
          "indexed": true,
          "internalType": "contract ISuperfluid",
          "name": "host",
          "type": "address"
        },
        {
          "indexed": true,
          "internalType": "contract ISuperfluidToken",
          "name": "superToken",
          "type": "address"
        },
        {
          "indexed": false,
          "internalType": "bool",
          "name": "isKeySet",
          "type": "bool"
        },
        {
          "indexed": false,
          "internalType": "uint256",
          "name": "minimumDeposit",
          "type": "uint256"
        }
      ],
      "name": "SuperTokenMinimumDepositChanged",
      "type": "event"
    },
    {
      "anonymous": false,
      "inputs": [
        {
          "indexed": true,
          "internalType": "contract ISuperfluid",
          "name": "host",
          "type": "address"
        },
        {
          "indexed": true,
          "internalType": "contract ISuperfluidToken",
          "name": "superToken",
          "type": "address"
        },
        {
          "indexed": false,
          "internalType": "bool",
          "name": "isKeySet",
          "type": "bool"
        },
        {
          "indexed": false,
          "internalType": "address",
          "name": "forwarder",
          "type": "address"
        },
        {
          "indexed": false,
          "internalType": "bool",
          "name": "enabled",
          "type": "bool"
        }
      ],
      "name": "TrustedForwarderChanged",
      "type": "event"
    },
    {
      "inputs": [
        {
          "internalType": "contract ISuperfluid",
          "name": "host",
          "type": "address"
        },
        {
          "internalType": "address",
          "name": "factory",
          "type": "address"
        }
      ],
      "name": "authorizeAppFactory",
      "outputs": [],
      "stateMutability": "nonpayable",
      "type": "function"
    },
    {
      "inputs": [
        {
          "internalType": "contract ISuperfluid",
          "name": "host",
          "type": "address"
        },
        {
          "internalType": "contract ISuperToken[]",
          "name": "tokens",
          "type": "address[]"
        }
      ],
      "name": "batchUpdateSuperTokenLogic",
      "outputs": [],
      "stateMutability": "nonpayable",
      "type": "function"
    },
    {
      "inputs": [
        {
          "internalType": "contract ISuperfluid",
          "name": "host",
          "type": "address"
        },
        {
          "internalType": "contract ISuperToken[]",
          "name": "tokens",
          "type": "address[]"
        },
        {
          "internalType": "uint256[]",
          "name": "minimumDeposits",
          "type": "uint256[]"
        }
      ],
      "name": "batchUpdateSuperTokenMinimumDeposit",
      "outputs": [],
      "stateMutability": "nonpayable",
      "type": "function"
    },
    {
      "inputs": [
        {
          "internalType": "contract ISuperfluid",
          "name": "host",
          "type": "address"
        },
        {
          "internalType": "contract ISuperfluidToken",
          "name": "superToken",
          "type": "address"
        }
      ],
      "name": "clearCFAv1LiquidationPeriod",
      "outputs": [],
      "stateMutability": "nonpayable",
      "type": "function"
    },
    {
      "inputs": [
        {
          "internalType": "contract ISuperfluid",
          "name": "host",
          "type": "address"
        },
        {
          "internalType": "contract ISuperfluidToken",
          "name": "superToken",
          "type": "address"
        }
      ],
      "name": "clearRewardAddress",
      "outputs": [],
      "stateMutability": "nonpayable",
      "type": "function"
    },
    {
      "inputs": [
        {
          "internalType": "contract ISuperfluid",
          "name": "host",
          "type": "address"
        },
        {
          "internalType": "contract ISuperToken",
          "name": "superToken",
          "type": "address"
        }
      ],
      "name": "clearSuperTokenMinimumDeposit",
      "outputs": [],
      "stateMutability": "nonpayable",
      "type": "function"
    },
    {
      "inputs": [
        {
          "internalType": "contract ISuperfluid",
          "name": "host",
          "type": "address"
        },
        {
          "internalType": "contract ISuperfluidToken",
          "name": "superToken",
          "type": "address"
        },
        {
          "internalType": "address",
          "name": "forwarder",
          "type": "address"
        }
      ],
      "name": "clearTrustedForwarder",
      "outputs": [],
      "stateMutability": "nonpayable",
      "type": "function"
    },
    {
      "inputs": [
        {
          "internalType": "contract ISuperfluid",
          "name": "host",
          "type": "address"
        },
        {
          "internalType": "contract ISuperfluidToken",
          "name": "superToken",
          "type": "address"
        },
        {
          "internalType": "address",
          "name": "forwarder",
          "type": "address"
        }
      ],
      "name": "disableTrustedForwarder",
      "outputs": [],
      "stateMutability": "nonpayable",
      "type": "function"
    },
    {
      "inputs": [
        {
          "internalType": "contract ISuperfluid",
          "name": "host",
          "type": "address"
        },
        {
          "internalType": "contract ISuperfluidToken",
          "name": "superToken",
          "type": "address"
        },
        {
          "internalType": "address",
          "name": "forwarder",
          "type": "address"
        }
      ],
      "name": "enableTrustedForwarder",
      "outputs": [],
      "stateMutability": "nonpayable",
      "type": "function"
    },
    {
      "inputs": [
        {
          "internalType": "contract ISuperfluid",
          "name": "host",
          "type": "address"
        },
        {
          "internalType": "contract ISuperfluidToken",
          "name": "superToken",
          "type": "address"
        }
      ],
      "name": "getCFAv1LiquidationPeriod",
      "outputs": [
        {
          "internalType": "uint256",
          "name": "value",
          "type": "uint256"
        }
      ],
      "stateMutability": "view",
      "type": "function"
    },
    {
      "inputs": [
        {
          "internalType": "contract ISuperfluid",
          "name": "host",
          "type": "address"
        },
        {
          "internalType": "contract ISuperfluidToken",
          "name": "superToken",
          "type": "address"
        },
        {
          "internalType": "bytes32",
          "name": "key",
          "type": "bytes32"
        }
      ],
      "name": "getConfigAsAddress",
      "outputs": [
        {
          "internalType": "address",
          "name": "value",
          "type": "address"
        }
      ],
      "stateMutability": "view",
      "type": "function"
    },
    {
      "inputs": [
        {
          "internalType": "contract ISuperfluid",
          "name": "host",
          "type": "address"
        },
        {
          "internalType": "contract ISuperfluidToken",
          "name": "superToken",
          "type": "address"
        },
        {
          "internalType": "bytes32",
          "name": "key",
          "type": "bytes32"
        }
      ],
      "name": "getConfigAsUint256",
      "outputs": [
        {
          "internalType": "uint256",
          "name": "period",
          "type": "uint256"
        }
      ],
      "stateMutability": "view",
      "type": "function"
    },
    {
      "inputs": [
        {
          "internalType": "contract ISuperfluid",
          "name": "host",
          "type": "address"
        },
        {
          "internalType": "contract ISuperfluidToken",
          "name": "superToken",
          "type": "address"
        }
      ],
      "name": "getRewardAddress",
      "outputs": [
        {
          "internalType": "address",
          "name": "",
          "type": "address"
        }
      ],
      "stateMutability": "view",
      "type": "function"
    },
    {
      "inputs": [
        {
          "internalType": "contract ISuperfluid",
          "name": "host",
          "type": "address"
        },
        {
          "internalType": "contract ISuperfluidToken",
          "name": "superToken",
          "type": "address"
        }
      ],
      "name": "getSuperTokenMinimumDeposit",
      "outputs": [
        {
          "internalType": "uint256",
          "name": "value",
          "type": "uint256"
        }
      ],
      "stateMutability": "view",
      "type": "function"
    },
    {
      "inputs": [
        {
          "internalType": "contract ISuperfluid",
          "name": "host",
          "type": "address"
        },
        {
          "internalType": "address",
          "name": "factory",
          "type": "address"
        }
      ],
      "name": "isAuthorizedAppFactory",
      "outputs": [
        {
          "internalType": "bool",
          "name": "",
          "type": "bool"
        }
      ],
      "stateMutability": "view",
      "type": "function"
    },
    {
      "inputs": [
        {
          "internalType": "contract ISuperfluid",
          "name": "host",
          "type": "address"
        },
        {
          "internalType": "contract ISuperfluidToken",
          "name": "superToken",
          "type": "address"
        },
        {
          "internalType": "address",
          "name": "forwarder",
          "type": "address"
        }
      ],
      "name": "isTrustedForwarder",
      "outputs": [
        {
          "internalType": "bool",
          "name": "",
          "type": "bool"
        }
      ],
      "stateMutability": "view",
      "type": "function"
    },
    {
      "inputs": [],
      "name": "owner",
      "outputs": [
        {
          "internalType": "address",
          "name": "",
          "type": "address"
        }
      ],
      "stateMutability": "view",
      "type": "function"
    },
    {
      "inputs": [
        {
          "internalType": "contract ISuperfluid",
          "name": "host",
          "type": "address"
        },
        {
          "internalType": "address",
          "name": "agreementClass",
          "type": "address"
        }
      ],
      "name": "registerAgreementClass",
      "outputs": [],
      "stateMutability": "nonpayable",
      "type": "function"
    },
    {
      "inputs": [],
      "name": "renounceOwnership",
      "outputs": [],
      "stateMutability": "nonpayable",
      "type": "function"
    },
    {
      "inputs": [
        {
          "internalType": "contract ISuperfluid",
          "name": "host",
          "type": "address"
        },
        {
          "internalType": "address",
          "name": "newGov",
          "type": "address"
        }
      ],
      "name": "replaceGovernance",
      "outputs": [],
      "stateMutability": "nonpayable",
      "type": "function"
    },
    {
      "inputs": [
        {
          "internalType": "contract ISuperfluid",
          "name": "host",
          "type": "address"
        },
        {
          "internalType": "contract ISuperfluidToken",
          "name": "superToken",
          "type": "address"
        },
        {
          "internalType": "uint256",
          "name": "value",
          "type": "uint256"
        }
      ],
      "name": "setCFAv1LiquidationPeriod",
      "outputs": [],
      "stateMutability": "nonpayable",
      "type": "function"
    },
    {
      "inputs": [
        {
          "internalType": "contract ISuperfluid",
          "name": "host",
          "type": "address"
        },
        {
          "internalType": "contract ISuperfluidToken",
          "name": "superToken",
          "type": "address"
        },
        {
          "internalType": "address",
          "name": "rewardAddress",
          "type": "address"
        }
      ],
      "name": "setRewardAddress",
      "outputs": [],
      "stateMutability": "nonpayable",
      "type": "function"
    },
    {
      "inputs": [
        {
          "internalType": "contract ISuperfluid",
          "name": "host",
          "type": "address"
        },
        {
          "internalType": "contract ISuperfluidToken",
          "name": "superToken",
          "type": "address"
        },
        {
          "internalType": "uint256",
          "name": "value",
          "type": "uint256"
        }
      ],
      "name": "setSuperTokenMinimumDeposit",
      "outputs": [],
      "stateMutability": "nonpayable",
      "type": "function"
    },
    {
      "inputs": [
        {
          "internalType": "address",
          "name": "newOwner",
          "type": "address"
        }
      ],
      "name": "transferOwnership",
      "outputs": [],
      "stateMutability": "nonpayable",
      "type": "function"
    },
    {
      "inputs": [
        {
          "internalType": "contract ISuperfluid",
          "name": "host",
          "type": "address"
        },
        {
          "internalType": "address",
          "name": "factory",
          "type": "address"
        }
      ],
      "name": "unauthorizeAppFactory",
      "outputs": [],
      "stateMutability": "nonpayable",
      "type": "function"
    },
    {
      "inputs": [
        {
          "internalType": "contract ISuperfluid",
          "name": "host",
          "type": "address"
        },
        {
          "internalType": "address",
          "name": "hostNewLogic",
          "type": "address"
        },
        {
          "internalType": "address[]",
          "name": "agreementClassNewLogics",
          "type": "address[]"
        },
        {
          "internalType": "address",
          "name": "superTokenFactoryNewLogic",
          "type": "address"
        }
      ],
      "name": "updateContracts",
      "outputs": [],
      "stateMutability": "nonpayable",
      "type": "function"
    },
    {
      "inputs": [
        {
          "internalType": "contract ISuperfluid",
          "name": "host",
          "type": "address"
        },
        {
          "internalType": "bytes32",
          "name": "key",
          "type": "bytes32"
        }
      ],
      "name": "whiteListNewApp",
      "outputs": [],
      "stateMutability": "nonpayable",
      "type": "function"
    }
  ],
  "bytecode": "0x608060405234801561001057600080fd5b50600061001b61006a565b600080546001600160a01b0319166001600160a01b0383169081178255604051929350917f8be0079c531659141344cd1fd0a4f28419497f9722a3daafe3b4186f6b6457e0908290a35061006e565b3390565b61177d8061007d6000396000f3fe608060405234801561001057600080fd5b50600436106101a95760003560e01c80638369a0f1116100f95780638ecbd87b11610097578063cadf8f8511610071578063cadf8f8514610740578063e447cc1d1461076e578063f047a2d91461079c578063f2fde38b146107d4576101a9565b80638ecbd87b146106ac578063ab846f1a146106da578063af8f7a6114610712576101a9565b80638b93b3f5116100d35780638b93b3f5146106105780638ce933791461063e5780638da5cb5b146106765780638e6fce951461067e576101a9565b80638369a0f11461058a5780638a7ff2f7146105a05780638abe04e9146105ce576101a9565b8063427942a411610166578063715018a611610140578063715018a6146104cc5780637dce4f81146104d45780637f0558e41461050c57806380f70cba14610542576101a9565b8063427942a4146103d857806344864b251461046857806346bdec5414610496576101a9565b806317dcabbf146101ae57806319df62ab146101dc578063219644731461022657806325c955c3146102f4578063325529081461032257806342148deb1461035a575b600080fd5b6101da600480360360408110156101c457600080fd5b506001600160a01b0381351690602001356107fa565b005b61020a600480360360408110156101f257600080fd5b506001600160a01b038135811691602001351661080c565b604080516001600160a01b039092168252519081900360200190f35b6101da6004803603606081101561023c57600080fd5b6001600160a01b038235169190810190604081016020820135600160201b81111561026657600080fd5b82018360208201111561027857600080fd5b803590602001918460208302840111600160201b8311171561029957600080fd5b919390929091602081019035600160201b8111156102b657600080fd5b8201836020820111156102c857600080fd5b803590602001918460208302840111600160201b831117156102e957600080fd5b509092509050610840565b6101da6004803603604081101561030a57600080fd5b506001600160a01b03813581169160200135166108d1565b6101da6004803603606081101561033857600080fd5b506001600160a01b0381358116916020810135821691604090910135166108e5565b6101da6004803603604081101561037057600080fd5b6001600160a01b038235169190810190604081016020820135600160201b81111561039a57600080fd5b8201836020820111156103ac57600080fd5b803590602001918460208302840111600160201b831117156103cd57600080fd5b509092509050610961565b6101da600480360360808110156103ee57600080fd5b6001600160a01b038235811692602081013590911691810190606081016040820135600160201b81111561042157600080fd5b82018360208201111561043357600080fd5b803590602001918460208302840111600160201b8311171561045457600080fd5b9193509150356001600160a01b0316610a0a565b6101da6004803603604081101561047e57600080fd5b506001600160a01b0381358116916020013516610ba2565b6101da600480360360608110156104ac57600080fd5b506001600160a01b03813581169160208101359091169060400135610c18565b6101da610c90565b6101da600480360360608110156104ea57600080fd5b506001600160a01b038135811691602081013582169160409091013516610d4e565b6101da6004803603606081101561052257600080fd5b506001600160a01b03813581169160208101359091169060400135610dba565b6105786004803603606081101561055857600080fd5b506001600160a01b03813581169160208101359091169060400135610e32565b60408051918252519081900360200190f35b61020a6004803603606081101561055857600080fd5b610578600480360360408110156105b657600080fd5b506001600160a01b0381358116916020013516610ea3565b6105fc600480360360408110156105e457600080fd5b506001600160a01b0381358116916020013516610ed0565b604080519115158252519081900360200190f35b6101da6004803603604081101561062657600080fd5b506001600160a01b0381358116916020013516610ef0565b6101da6004803603606081101561065457600080fd5b506001600160a01b038135811691602081013582169160409091013516610f45565b61020a610fa7565b6105786004803603604081101561069457600080fd5b506001600160a01b0381358116916020013516610fb6565b6101da600480360360408110156106c257600080fd5b506001600160a01b0381358116916020013516610fe3565b6101da600480360360608110156106f057600080fd5b506001600160a01b038135811691602081013582169160409091013516611059565b6101da6004803603604081101561072857600080fd5b506001600160a01b03813581169160200135166110c0565b6101da6004803603604081101561075657600080fd5b506001600160a01b0381358116916020013516611136565b6101da6004803603604081101561078457600080fd5b506001600160a01b038135811691602001351661118f565b6105fc600480360360608110156107b257600080fd5b506001600160a01b038135811691602081013582169160409091013516611205565b6101da600480360360208110156107ea57600080fd5b50356001600160a01b0316611220565b610808826000836001611334565b5050565b600061083983837f9f60ae461adf056670e03ae602566409933242392cb06744f5747c9f38b05d09610e32565b9392505050565b82811461087e5760405162461bcd60e51b81526004018080602001828103825260258152602001806117236025913960400191505060405180910390fd5b60005b818110156108c9576108c18686868481811061089957fe5b905060200201356001600160a01b03168585858181106108b557fe5b90506020020135610dba565b600101610881565b505050505050565b6108088260006108e0846113e6565b61143b565b60408051600181526001600160a01b038381166020830152825181861693918716927f14e12f219a4f9023456dc7832e10119ab768b8ccefc8cb79bc6de0419781eeeb92908290030190a361095c83837f9f60ae461adf056670e03ae602566409933242392cb06744f5747c9f38b05d09846114eb565b505050565b8261096b816115a0565b60005b82811015610a0357846001600160a01b031663787afde785858481811061099157fe5b905060200201356001600160a01b03166040518263ffffffff1660e01b815260040180826001600160a01b03168152602001915050600060405180830381600087803b1580156109e057600080fd5b505af11580156109f4573d6000803e3d6000fd5b5050505080600101905061096e565b5050505050565b84610a14816115a0565b6001600160a01b03851615610a8b57856001600160a01b03166346951954866040518263ffffffff1660e01b815260040180826001600160a01b03168152602001915050600060405180830381600087803b158015610a7257600080fd5b505af1158015610a86573d6000803e3d6000fd5b505050505b60005b83811015610b2357866001600160a01b03166306cecba8868684818110610ab157fe5b905060200201356001600160a01b03166040518263ffffffff1660e01b815260040180826001600160a01b03168152602001915050600060405180830381600087803b158015610b0057600080fd5b505af1158015610b14573d6000803e3d6000fd5b50505050806001019050610a8e565b506001600160a01b038216156108c957856001600160a01b03166354fbc493836040518263ffffffff1660e01b815260040180826001600160a01b03168152602001915050600060405180830381600087803b158015610b8257600080fd5b505af1158015610b96573d6000803e3d6000fd5b50505050505050505050565b81610bac816115a0565b826001600160a01b0316637283100c836040518263ffffffff1660e01b815260040180826001600160a01b03168152602001915050600060405180830381600087803b158015610bfb57600080fd5b505af1158015610c0f573d6000803e3d6000fd5b50505050505050565b60408051600181526020810183905281516001600160a01b0380861693908716927f3cbad89c3bb0ff70e832f6d6fa458ff3f5487e8156ec52e8814c46c59e919289929081900390910190a361095c83837f1ca463a216b802472396d1b8a5b5b695d935b1d24311e89b020144e6613f15aa84611334565b610c98611617565b6001600160a01b0316610ca9610fa7565b6001600160a01b031614610d04576040805162461bcd60e51b815260206004820181905260248201527f4f776e61626c653a2063616c6c6572206973206e6f7420746865206f776e6572604482015290519081900360640190fd5b600080546040516001600160a01b03909116907f8be0079c531659141344cd1fd0a4f28419497f9722a3daafe3b4186f6b6457e0908390a3600080546001600160a01b0319169055565b610d638383610d5c8461161b565b6000611334565b60408051600181526001600160a01b0383811660208301526000828401529151828516928616917f168da2dec91b2e06e30d49955479383e76f71ba185807a8a5b75e2ed563e1d27919081900360600190a3505050565b60408051600181526020810183905281516001600160a01b0380861693908716927fc055c4a3853372c08a98805545379133f00f7261d956b9197729d67f37a82a53929081900390910190a361095c83837feae305fa863b373417e615b1044222e2806cefc7788d169ce6748a443c3f6cc484611334565b6001600160a01b03808416600090815260016020908152604080832093861683529281528282208483529052908120805460ff16610e9757506001600160a01b0384166000908152600160209081526040808320838052825280832085845290915290205b60010154949350505050565b600061083983837feae305fa863b373417e615b1044222e2806cefc7788d169ce6748a443c3f6cc4610e32565b6000610ee6836000610ee1856113e6565b610e32565b6001149392505050565b803b80610f2e5760405162461bcd60e51b81526004018080602001828103825260218152602001806116716021913960400191505060405180910390fd5b50610808826000610f3e846113e6565b6001611334565b6040805160008082526001600160a01b038481166020840152828401919091529151828516928616917f168da2dec91b2e06e30d49955479383e76f71ba185807a8a5b75e2ed563e1d27919081900360600190a361095c83836108e08461161b565b6000546001600160a01b031690565b600061083983837f1ca463a216b802472396d1b8a5b5b695d935b1d24311e89b020144e6613f15aa610e32565b604080516000808252602082015281516001600160a01b0380851693908616927fc055c4a3853372c08a98805545379133f00f7261d956b9197729d67f37a82a53929081900390910190a361080882827feae305fa863b373417e615b1044222e2806cefc7788d169ce6748a443c3f6cc461143b565b6110678383610f3e8461161b565b6040805160018082526001600160a01b038481166020840152828401919091529151828516928616917f168da2dec91b2e06e30d49955479383e76f71ba185807a8a5b75e2ed563e1d27919081900360600190a3505050565b604080516000808252602082015281516001600160a01b0380851693908616927f3cbad89c3bb0ff70e832f6d6fa458ff3f5487e8156ec52e8814c46c59e919289929081900390910190a361080882827f1ca463a216b802472396d1b8a5b5b695d935b1d24311e89b020144e6613f15aa61143b565b81611140816115a0565b826001600160a01b03166315a024e1836040518263ffffffff1660e01b815260040180826001600160a01b03168152602001915050600060405180830381600087803b158015610bfb57600080fd5b604080516000808252602082015281516001600160a01b0380851693908616927f14e12f219a4f9023456dc7832e10119ab768b8ccefc8cb79bc6de0419781eeeb929081900390910190a361080882827f9f60ae461adf056670e03ae602566409933242392cb06744f5747c9f38b05d0961143b565b60006112158484610ee18561161b565b600114949350505050565b611228611617565b6001600160a01b0316611239610fa7565b6001600160a01b031614611294576040805162461bcd60e51b815260206004820181905260248201527f4f776e61626c653a2063616c6c6572206973206e6f7420746865206f776e6572604482015290519081900360640190fd5b6001600160a01b0381166112d95760405162461bcd60e51b81526004018080602001828103825260268152602001806116926026913960400191505060405180910390fd5b600080546040516001600160a01b03808516939216917f8be0079c531659141344cd1fd0a4f28419497f9722a3daafe3b4186f6b6457e091a3600080546001600160a01b0319166001600160a01b0392909216919091179055565b8361133e816115a0565b604080518481526001602082015280820184905290516001600160a01b0380871692908816917f33afe19ae6902b933890ff48190fabdc4cf7f5ab499be9c4d9d98e3b4562e3909181900360600190a350604080518082018252600180825260208083019485526001600160a01b039788166000908152828252848120979098168852958652828720948752939094529093209151825460ff19169015151782559151910155565b6000816040516020018080602001836001600160a01b03168152602001828103825260398152602001806116b86039913960400192505050604051602081830303815290604052805190602001209050919050565b82611445816115a0565b604080518381526000602082018190528183015290516001600160a01b0380861692908716917f33afe19ae6902b933890ff48190fabdc4cf7f5ab499be9c4d9d98e3b4562e3909181900360600190a350604080518082018252600080825260208083018281526001600160a01b03978816835260018083528584209790981683529581528382209482529390935291209051815460ff19169015151781559051910155565b836114f5816115a0565b60408051848152600160208201526001600160a01b03848116828401529151828716928816917f33afe19ae6902b933890ff48190fabdc4cf7f5ab499be9c4d9d98e3b4562e390919081900360600190a35060408051808201825260018082526001600160a01b03938416602080840191825297851660009081528289528481209790951685529587528284209484529390955290209251835460ff19169015151783559051910155565b6115a8611617565b6001600160a01b03166115b9610fa7565b6001600160a01b031614611614576040805162461bcd60e51b815260206004820152601f60248201527f5346476f763a206f6e6c79206f776e657220697320617574686f72697a656400604482015290519081900360640190fd5b50565b3390565b6000816040516020018080602001836001600160a01b03168152602001828103825260328152602001806116f1603291396040019250505060405160208183030381529060405280519060200120905091905056fe5346476f763a20666163746f7279206d757374206265206120636f6e74726163744f776e61626c653a206e6577206f776e657220697320746865207a65726f20616464726573736f72672e7375706572666c7569642d66696e616e63652e7375706572666c7569642e61707057686974654c697374696e672e666163746f72796f72672e7375706572666c7569642d66696e616e63652e7375706572666c7569642e74727573746564466f727761726465725346476f763a2061727261797320617265206e6f74207468652073616d65206c656e677468a2646970667358221220b67ca1ecff014435dc5d105567d771483876c49246856bab09b172096693b3e064736f6c63430007060033",
  "immutableReferences": {},
  "source": "// SPDX-License-Identifier: AGPLv3\npragma solidity 0.7.6;\n\nimport {\n    ISuperfluid,\n    ISuperfluidToken\n} from \"../interfaces/superfluid/ISuperfluid.sol\";\nimport { SuperfluidGovernanceBase } from \"./SuperfluidGovernanceBase.sol\";\n\nimport { Ownable } from \"@openzeppelin/contracts/access/Ownable.sol\";\n\n\ncontract SuperfluidOwnableGovernance is\n    Ownable,\n    SuperfluidGovernanceBase\n{\n    function _requireAuthorised(ISuperfluid /*host*/)\n        internal view override\n    {\n        require(owner() == _msgSender(), \"SFGov: only owner is authorized\");\n    }\n}\n",
  "sourcePath": "/home/runner/work/protocol-monorepo/protocol-monorepo/packages/ethereum-contracts/contracts/gov/SuperfluidOwnableGovernance.sol",
  "compiler": {
    "name": "solc",
    "version": "0.7.6+commit.7338295f.Emscripten.clang"
  },
  "schemaVersion": "3.4.4",
  "updatedAt": "2022-02-01T14:35:44.336Z",
  "devdoc": {
    "kind": "dev",
    "methods": {
      "authorizeAppFactory(address,address)": {
        "details": "allows the given factory to register new apps without requiring onetime keys",
        "params": {
          "factory": "must be an initialized contract"
        }
      },
      "batchUpdateSuperTokenLogic(address,address[])": {
        "details": "Update supertoken logic contract to the latest that is managed by the super token factory"
      },
      "getConfigAsAddress(address,address,bytes32)": {
        "details": "Get configuration as address value"
      },
      "getConfigAsUint256(address,address,bytes32)": {
        "details": "Get configuration as uint256 value"
      },
      "isAuthorizedAppFactory(address,address)": {
        "details": "tells if the given factory is authorized to register apps"
      },
      "owner()": {
        "details": "Returns the address of the current owner."
      },
      "registerAgreementClass(address,address)": {
        "details": "Register a new agreement class"
      },
      "renounceOwnership()": {
        "details": "Leaves the contract without owner. It will not be possible to call `onlyOwner` functions anymore. Can only be called by the current owner. NOTE: Renouncing ownership will leave the contract without an owner, thereby removing any functionality that is only available to the owner."
      },
      "replaceGovernance(address,address)": {
        "details": "Replace the current governance with a new governance"
      },
      "transferOwnership(address)": {
        "details": "Transfers ownership of the contract to a new account (`newOwner`). Can only be called by the current owner."
      },
      "unauthorizeAppFactory(address,address)": {
        "details": "withdraws authorization from a factory to register new apps. Doesn't affect apps previously registered by the factory."
      },
      "updateContracts(address,address,address[],address)": {
        "details": "Update logics of the contracts NOTE: - Because they might have inter-dependencies, it is good to have one single function to update them all"
      },
      "whiteListNewApp(address,bytes32)": {
        "details": "Whitelist a new app using a onetime key",
        "params": {
          "key": "is a deployer specific hash key which can be used once to register an app NOTE: To generate the key, use the SuperfluidGovernanceConfigs.getAppRegistrationConfigKey offchain."
        }
      }
    },
    "version": 1
  },
  "userdoc": {
    "kind": "user",
    "methods": {},
    "version": 1
  }
}