{
  "contractName": "SuperfluidGovernanceIIProxy",
  "abi": [
    {
      "anonymous": false,
      "inputs": [
        {
          "indexed": true,
          "internalType": "address",
          "name": "previousOwner",
          "type": "address"
        },
        {
          "indexed": true,
          "internalType": "address",
          "name": "newOwner",
          "type": "address"
        }
      ],
      "name": "OwnershipTransferred",
      "type": "event"
    },
    {
      "stateMutability": "payable",
      "type": "fallback"
    },
    {
      "inputs": [
        {
          "internalType": "address",
          "name": "initialAddress",
          "type": "address"
        }
      ],
      "name": "initializeProxy",
      "outputs": [],
      "stateMutability": "nonpayable",
      "type": "function"
    },
    {
      "inputs": [],
      "name": "owner",
      "outputs": [
        {
          "internalType": "address",
          "name": "",
          "type": "address"
        }
      ],
      "stateMutability": "view",
      "type": "function"
    },
    {
      "inputs": [],
      "name": "renounceOwnership",
      "outputs": [],
      "stateMutability": "nonpayable",
      "type": "function"
    },
    {
      "inputs": [
        {
          "internalType": "address",
          "name": "newOwner",
          "type": "address"
        }
      ],
      "name": "transferOwnership",
      "outputs": [],
      "stateMutability": "nonpayable",
      "type": "function"
    },
    {
      "stateMutability": "payable",
      "type": "receive"
    }
  ],
  "bytecode": "0x608060405234801561001057600080fd5b50600061001b61006a565b600080546001600160a01b0319166001600160a01b0383169081178255604051929350917f8be0079c531659141344cd1fd0a4f28419497f9722a3daafe3b4186f6b6457e0908290a35061006e565b3390565b6104a98061007d6000396000f3fe6080604052600436106100435760003560e01c80634a0687ef1461005a578063715018a61461008d5780638da5cb5b146100a2578063f2fde38b146100d357610052565b3661005257610050610106565b005b610050610106565b34801561006657600080fd5b506100506004803603602081101561007d57600080fd5b50356001600160a01b0316610120565b34801561009957600080fd5b506100506101ec565b3480156100ae57600080fd5b506100b76102aa565b604080516001600160a01b039092168252519081900360200190f35b3480156100df57600080fd5b50610050600480360360208110156100f657600080fd5b50356001600160a01b03166102b9565b61010e61011e565b61011e6101196103cd565b6103dc565b565b6001600160a01b03811661017b576040805162461bcd60e51b815260206004820152601760248201527f5555505350726f78793a207a65726f2061646472657373000000000000000000604482015290519081900360640190fd5b6000610185610400565b6001600160a01b0316146101e0576040805162461bcd60e51b815260206004820152601e60248201527f5555505350726f78793a20616c726561647920696e697469616c697a65640000604482015290519081900360640190fd5b6101e981610425565b50565b6101f4610449565b6001600160a01b03166102056102aa565b6001600160a01b031614610260576040805162461bcd60e51b815260206004820181905260248201527f4f776e61626c653a2063616c6c6572206973206e6f7420746865206f776e6572604482015290519081900360640190fd5b600080546040516001600160a01b03909116907f8be0079c531659141344cd1fd0a4f28419497f9722a3daafe3b4186f6b6457e0908390a3600080546001600160a01b0319169055565b6000546001600160a01b031690565b6102c1610449565b6001600160a01b03166102d26102aa565b6001600160a01b03161461032d576040805162461bcd60e51b815260206004820181905260248201527f4f776e61626c653a2063616c6c6572206973206e6f7420746865206f776e6572604482015290519081900360640190fd5b6001600160a01b0381166103725760405162461bcd60e51b815260040180806020018281038252602681526020018061044e6026913960400191505060405180910390fd5b600080546040516001600160a01b03808516939216917f8be0079c531659141344cd1fd0a4f28419497f9722a3daafe3b4186f6b6457e091a3600080546001600160a01b0319166001600160a01b0392909216919091179055565b60006103d7610400565b905090565b3660008037600080366000845af43d6000803e8080156103fb573d6000f35b3d6000fd5b7f360894a13ba1a3210667c828492db98dca3e2076cc3735a920a3ca505d382bbc5490565b7f360894a13ba1a3210667c828492db98dca3e2076cc3735a920a3ca505d382bbc55565b339056fe4f776e61626c653a206e6577206f776e657220697320746865207a65726f2061646472657373a2646970667358221220630949cf86cf4e545ac972112a560a25bbbaeb5b304bd4f7f773e27fefd9ce7764736f6c63430007060033",
  "immutableReferences": {},
  "source": "// SPDX-License-Identifier: AGPLv3\npragma solidity 0.7.6;\n\nimport { UUPSProxy } from \"../upgradability/UUPSProxy.sol\";\nimport { Ownable } from \"@openzeppelin/contracts/access/Ownable.sol\";\nimport { UUPSProxiable } from \"../upgradability/UUPSProxiable.sol\";\nimport { SuperfluidGovernanceBase } from \"./SuperfluidGovernanceBase.sol\";\nimport { ISuperfluid } from \"../interfaces/superfluid/ISuperfluid.sol\";\n\n/**\n * @dev A proxy for governance which is both ownable and upgradable\n * IMPORTANT! Make sure the inheritance order remains in sync with the logic contract (Ownable first)!\n */\n// solhint-disable-next-line no-empty-blocks\ncontract SuperfluidGovernanceIIProxy is Ownable, UUPSProxy { }\n\ncontract SuperfluidGovernanceII is\n    Ownable,\n    UUPSProxiable,\n    SuperfluidGovernanceBase\n{\n    function _requireAuthorised() private view {\n        require(owner() == _msgSender(), \"SFGovII: only owner is authorized\");\n    }\n\n    /**************************************************************************\n    * UUPSProxiable\n    **************************************************************************/\n\n    // TODO: do we need initialize() here?\n\n    function proxiableUUID() public pure override returns (bytes32) {\n        return keccak256(\"org.superfluid-finance.contracts.SuperfluidGovernanceII.implementation\");\n    }\n\n    function updateCode(address newAddress)\n        external override\n    {\n        _requireAuthorised();\n        _updateCodeAddress(newAddress);\n    }\n\n    /**************************************************************************\n    * SuperfluidGovernanceBase\n    **************************************************************************/\n\n    function _requireAuthorised(ISuperfluid /*host*/)\n        internal view override\n    {\n        _requireAuthorised();\n    }\n}\n",
  "sourcePath": "/home/runner/work/protocol-monorepo/protocol-monorepo/packages/ethereum-contracts/contracts/gov/SuperfluidGovernanceII.sol",
  "compiler": {
    "name": "solc",
    "version": "0.7.6+commit.7338295f.Emscripten.clang"
  },
  "schemaVersion": "3.4.4",
  "updatedAt": "2022-02-01T14:35:44.335Z",
  "devdoc": {
    "details": "A proxy for governance which is both ownable and upgradable IMPORTANT! Make sure the inheritance order remains in sync with the logic contract (Ownable first)!",
    "kind": "dev",
    "methods": {
      "initializeProxy(address)": {
        "details": "Proxy initialization function.      This should only be called once and it is permission-less.",
        "params": {
          "initialAddress": "Initial logic contract code address to be used."
        }
      },
      "owner()": {
        "details": "Returns the address of the current owner."
      },
      "renounceOwnership()": {
        "details": "Leaves the contract without owner. It will not be possible to call `onlyOwner` functions anymore. Can only be called by the current owner. NOTE: Renouncing ownership will leave the contract without an owner, thereby removing any functionality that is only available to the owner."
      },
      "transferOwnership(address)": {
        "details": "Transfers ownership of the contract to a new account (`newOwner`). Can only be called by the current owner."
      }
    },
    "version": 1
  },
  "userdoc": {
    "kind": "user",
    "methods": {},
    "version": 1
  }
}