{
  "contractName": "SuperfluidGovernanceII",
  "abi": [
    {
      "anonymous": false,
      "inputs": [
        {
          "indexed": true,
          "internalType": "contract ISuperfluid",
          "name": "host",
          "type": "address"
        },
        {
          "indexed": true,
          "internalType": "contract ISuperfluidToken",
          "name": "superToken",
          "type": "address"
        },
        {
          "indexed": false,
          "internalType": "bool",
          "name": "isKeySet",
          "type": "bool"
        },
        {
          "indexed": false,
          "internalType": "uint256",
          "name": "liquidationPeriod",
          "type": "uint256"
        }
      ],
      "name": "CFAv1LiquidationPeriodChanged",
      "type": "event"
    },
    {
      "anonymous": false,
      "inputs": [
        {
          "indexed": false,
          "internalType": "bytes32",
          "name": "uuid",
          "type": "bytes32"
        },
        {
          "indexed": false,
          "internalType": "address",
          "name": "codeAddress",
          "type": "address"
        }
      ],
      "name": "CodeUpdated",
      "type": "event"
    },
    {
      "anonymous": false,
      "inputs": [
        {
          "indexed": true,
          "internalType": "contract ISuperfluid",
          "name": "host",
          "type": "address"
        },
        {
          "indexed": true,
          "internalType": "contract ISuperfluidToken",
          "name": "superToken",
          "type": "address"
        },
        {
          "indexed": false,
          "internalType": "bytes32",
          "name": "key",
          "type": "bytes32"
        },
        {
          "indexed": false,
          "internalType": "bool",
          "name": "isKeySet",
          "type": "bool"
        },
        {
          "indexed": false,
          "internalType": "uint256",
          "name": "value",
          "type": "uint256"
        }
      ],
      "name": "ConfigChanged",
      "type": "event"
    },
    {
      "anonymous": false,
      "inputs": [
        {
          "indexed": true,
          "internalType": "address",
          "name": "previousOwner",
          "type": "address"
        },
        {
          "indexed": true,
          "internalType": "address",
          "name": "newOwner",
          "type": "address"
        }
      ],
      "name": "OwnershipTransferred",
      "type": "event"
    },
    {
      "anonymous": false,
      "inputs": [
        {
          "indexed": true,
          "internalType": "contract ISuperfluid",
          "name": "host",
          "type": "address"
        },
        {
          "indexed": true,
          "internalType": "contract ISuperfluidToken",
          "name": "superToken",
          "type": "address"
        },
        {
          "indexed": false,
          "internalType": "bool",
          "name": "isKeySet",
          "type": "bool"
        },
        {
          "indexed": false,
          "internalType": "address",
          "name": "rewardAddress",
          "type": "address"
        }
      ],
      "name": "RewardAddressChanged",
      "type": "event"
    },
    {
      "anonymous": false,
      "inputs": [
        {
          "indexed": true,
          "internalType": "contract ISuperfluid",
          "name": "host",
          "type": "address"
        },
        {
          "indexed": true,
          "internalType": "contract ISuperfluidToken",
          "name": "superToken",
          "type": "address"
        },
        {
          "indexed": false,
          "internalType": "bool",
          "name": "isKeySet",
          "type": "bool"
        },
        {
          "indexed": false,
          "internalType": "uint256",
          "name": "minimumDeposit",
          "type": "uint256"
        }
      ],
      "name": "SuperTokenMinimumDepositChanged",
      "type": "event"
    },
    {
      "anonymous": false,
      "inputs": [
        {
          "indexed": true,
          "internalType": "contract ISuperfluid",
          "name": "host",
          "type": "address"
        },
        {
          "indexed": true,
          "internalType": "contract ISuperfluidToken",
          "name": "superToken",
          "type": "address"
        },
        {
          "indexed": false,
          "internalType": "bool",
          "name": "isKeySet",
          "type": "bool"
        },
        {
          "indexed": false,
          "internalType": "address",
          "name": "forwarder",
          "type": "address"
        },
        {
          "indexed": false,
          "internalType": "bool",
          "name": "enabled",
          "type": "bool"
        }
      ],
      "name": "TrustedForwarderChanged",
      "type": "event"
    },
    {
      "inputs": [
        {
          "internalType": "contract ISuperfluid",
          "name": "host",
          "type": "address"
        },
        {
          "internalType": "address",
          "name": "factory",
          "type": "address"
        }
      ],
      "name": "authorizeAppFactory",
      "outputs": [],
      "stateMutability": "nonpayable",
      "type": "function"
    },
    {
      "inputs": [
        {
          "internalType": "contract ISuperfluid",
          "name": "host",
          "type": "address"
        },
        {
          "internalType": "contract ISuperToken[]",
          "name": "tokens",
          "type": "address[]"
        }
      ],
      "name": "batchUpdateSuperTokenLogic",
      "outputs": [],
      "stateMutability": "nonpayable",
      "type": "function"
    },
    {
      "inputs": [
        {
          "internalType": "contract ISuperfluid",
          "name": "host",
          "type": "address"
        },
        {
          "internalType": "contract ISuperToken[]",
          "name": "tokens",
          "type": "address[]"
        },
        {
          "internalType": "uint256[]",
          "name": "minimumDeposits",
          "type": "uint256[]"
        }
      ],
      "name": "batchUpdateSuperTokenMinimumDeposit",
      "outputs": [],
      "stateMutability": "nonpayable",
      "type": "function"
    },
    {
      "inputs": [
        {
          "internalType": "contract ISuperfluid",
          "name": "host",
          "type": "address"
        },
        {
          "internalType": "contract ISuperfluidToken",
          "name": "superToken",
          "type": "address"
        }
      ],
      "name": "clearCFAv1LiquidationPeriod",
      "outputs": [],
      "stateMutability": "nonpayable",
      "type": "function"
    },
    {
      "inputs": [
        {
          "internalType": "contract ISuperfluid",
          "name": "host",
          "type": "address"
        },
        {
          "internalType": "contract ISuperfluidToken",
          "name": "superToken",
          "type": "address"
        }
      ],
      "name": "clearRewardAddress",
      "outputs": [],
      "stateMutability": "nonpayable",
      "type": "function"
    },
    {
      "inputs": [
        {
          "internalType": "contract ISuperfluid",
          "name": "host",
          "type": "address"
        },
        {
          "internalType": "contract ISuperToken",
          "name": "superToken",
          "type": "address"
        }
      ],
      "name": "clearSuperTokenMinimumDeposit",
      "outputs": [],
      "stateMutability": "nonpayable",
      "type": "function"
    },
    {
      "inputs": [
        {
          "internalType": "contract ISuperfluid",
          "name": "host",
          "type": "address"
        },
        {
          "internalType": "contract ISuperfluidToken",
          "name": "superToken",
          "type": "address"
        },
        {
          "internalType": "address",
          "name": "forwarder",
          "type": "address"
        }
      ],
      "name": "clearTrustedForwarder",
      "outputs": [],
      "stateMutability": "nonpayable",
      "type": "function"
    },
    {
      "inputs": [
        {
          "internalType": "contract ISuperfluid",
          "name": "host",
          "type": "address"
        },
        {
          "internalType": "contract ISuperfluidToken",
          "name": "superToken",
          "type": "address"
        },
        {
          "internalType": "address",
          "name": "forwarder",
          "type": "address"
        }
      ],
      "name": "disableTrustedForwarder",
      "outputs": [],
      "stateMutability": "nonpayable",
      "type": "function"
    },
    {
      "inputs": [
        {
          "internalType": "contract ISuperfluid",
          "name": "host",
          "type": "address"
        },
        {
          "internalType": "contract ISuperfluidToken",
          "name": "superToken",
          "type": "address"
        },
        {
          "internalType": "address",
          "name": "forwarder",
          "type": "address"
        }
      ],
      "name": "enableTrustedForwarder",
      "outputs": [],
      "stateMutability": "nonpayable",
      "type": "function"
    },
    {
      "inputs": [
        {
          "internalType": "contract ISuperfluid",
          "name": "host",
          "type": "address"
        },
        {
          "internalType": "contract ISuperfluidToken",
          "name": "superToken",
          "type": "address"
        }
      ],
      "name": "getCFAv1LiquidationPeriod",
      "outputs": [
        {
          "internalType": "uint256",
          "name": "value",
          "type": "uint256"
        }
      ],
      "stateMutability": "view",
      "type": "function"
    },
    {
      "inputs": [],
      "name": "getCodeAddress",
      "outputs": [
        {
          "internalType": "address",
          "name": "codeAddress",
          "type": "address"
        }
      ],
      "stateMutability": "view",
      "type": "function"
    },
    {
      "inputs": [
        {
          "internalType": "contract ISuperfluid",
          "name": "host",
          "type": "address"
        },
        {
          "internalType": "contract ISuperfluidToken",
          "name": "superToken",
          "type": "address"
        },
        {
          "internalType": "bytes32",
          "name": "key",
          "type": "bytes32"
        }
      ],
      "name": "getConfigAsAddress",
      "outputs": [
        {
          "internalType": "address",
          "name": "value",
          "type": "address"
        }
      ],
      "stateMutability": "view",
      "type": "function"
    },
    {
      "inputs": [
        {
          "internalType": "contract ISuperfluid",
          "name": "host",
          "type": "address"
        },
        {
          "internalType": "contract ISuperfluidToken",
          "name": "superToken",
          "type": "address"
        },
        {
          "internalType": "bytes32",
          "name": "key",
          "type": "bytes32"
        }
      ],
      "name": "getConfigAsUint256",
      "outputs": [
        {
          "internalType": "uint256",
          "name": "period",
          "type": "uint256"
        }
      ],
      "stateMutability": "view",
      "type": "function"
    },
    {
      "inputs": [
        {
          "internalType": "contract ISuperfluid",
          "name": "host",
          "type": "address"
        },
        {
          "internalType": "contract ISuperfluidToken",
          "name": "superToken",
          "type": "address"
        }
      ],
      "name": "getRewardAddress",
      "outputs": [
        {
          "internalType": "address",
          "name": "",
          "type": "address"
        }
      ],
      "stateMutability": "view",
      "type": "function"
    },
    {
      "inputs": [
        {
          "internalType": "contract ISuperfluid",
          "name": "host",
          "type": "address"
        },
        {
          "internalType": "contract ISuperfluidToken",
          "name": "superToken",
          "type": "address"
        }
      ],
      "name": "getSuperTokenMinimumDeposit",
      "outputs": [
        {
          "internalType": "uint256",
          "name": "value",
          "type": "uint256"
        }
      ],
      "stateMutability": "view",
      "type": "function"
    },
    {
      "inputs": [
        {
          "internalType": "contract ISuperfluid",
          "name": "host",
          "type": "address"
        },
        {
          "internalType": "address",
          "name": "factory",
          "type": "address"
        }
      ],
      "name": "isAuthorizedAppFactory",
      "outputs": [
        {
          "internalType": "bool",
          "name": "",
          "type": "bool"
        }
      ],
      "stateMutability": "view",
      "type": "function"
    },
    {
      "inputs": [
        {
          "internalType": "contract ISuperfluid",
          "name": "host",
          "type": "address"
        },
        {
          "internalType": "contract ISuperfluidToken",
          "name": "superToken",
          "type": "address"
        },
        {
          "internalType": "address",
          "name": "forwarder",
          "type": "address"
        }
      ],
      "name": "isTrustedForwarder",
      "outputs": [
        {
          "internalType": "bool",
          "name": "",
          "type": "bool"
        }
      ],
      "stateMutability": "view",
      "type": "function"
    },
    {
      "inputs": [],
      "name": "owner",
      "outputs": [
        {
          "internalType": "address",
          "name": "",
          "type": "address"
        }
      ],
      "stateMutability": "view",
      "type": "function"
    },
    {
      "inputs": [
        {
          "internalType": "contract ISuperfluid",
          "name": "host",
          "type": "address"
        },
        {
          "internalType": "address",
          "name": "agreementClass",
          "type": "address"
        }
      ],
      "name": "registerAgreementClass",
      "outputs": [],
      "stateMutability": "nonpayable",
      "type": "function"
    },
    {
      "inputs": [],
      "name": "renounceOwnership",
      "outputs": [],
      "stateMutability": "nonpayable",
      "type": "function"
    },
    {
      "inputs": [
        {
          "internalType": "contract ISuperfluid",
          "name": "host",
          "type": "address"
        },
        {
          "internalType": "address",
          "name": "newGov",
          "type": "address"
        }
      ],
      "name": "replaceGovernance",
      "outputs": [],
      "stateMutability": "nonpayable",
      "type": "function"
    },
    {
      "inputs": [
        {
          "internalType": "contract ISuperfluid",
          "name": "host",
          "type": "address"
        },
        {
          "internalType": "contract ISuperfluidToken",
          "name": "superToken",
          "type": "address"
        },
        {
          "internalType": "uint256",
          "name": "value",
          "type": "uint256"
        }
      ],
      "name": "setCFAv1LiquidationPeriod",
      "outputs": [],
      "stateMutability": "nonpayable",
      "type": "function"
    },
    {
      "inputs": [
        {
          "internalType": "contract ISuperfluid",
          "name": "host",
          "type": "address"
        },
        {
          "internalType": "contract ISuperfluidToken",
          "name": "superToken",
          "type": "address"
        },
        {
          "internalType": "address",
          "name": "rewardAddress",
          "type": "address"
        }
      ],
      "name": "setRewardAddress",
      "outputs": [],
      "stateMutability": "nonpayable",
      "type": "function"
    },
    {
      "inputs": [
        {
          "internalType": "contract ISuperfluid",
          "name": "host",
          "type": "address"
        },
        {
          "internalType": "contract ISuperfluidToken",
          "name": "superToken",
          "type": "address"
        },
        {
          "internalType": "uint256",
          "name": "value",
          "type": "uint256"
        }
      ],
      "name": "setSuperTokenMinimumDeposit",
      "outputs": [],
      "stateMutability": "nonpayable",
      "type": "function"
    },
    {
      "inputs": [
        {
          "internalType": "address",
          "name": "newOwner",
          "type": "address"
        }
      ],
      "name": "transferOwnership",
      "outputs": [],
      "stateMutability": "nonpayable",
      "type": "function"
    },
    {
      "inputs": [
        {
          "internalType": "contract ISuperfluid",
          "name": "host",
          "type": "address"
        },
        {
          "internalType": "address",
          "name": "factory",
          "type": "address"
        }
      ],
      "name": "unauthorizeAppFactory",
      "outputs": [],
      "stateMutability": "nonpayable",
      "type": "function"
    },
    {
      "inputs": [
        {
          "internalType": "contract ISuperfluid",
          "name": "host",
          "type": "address"
        },
        {
          "internalType": "address",
          "name": "hostNewLogic",
          "type": "address"
        },
        {
          "internalType": "address[]",
          "name": "agreementClassNewLogics",
          "type": "address[]"
        },
        {
          "internalType": "address",
          "name": "superTokenFactoryNewLogic",
          "type": "address"
        }
      ],
      "name": "updateContracts",
      "outputs": [],
      "stateMutability": "nonpayable",
      "type": "function"
    },
    {
      "inputs": [
        {
          "internalType": "contract ISuperfluid",
          "name": "host",
          "type": "address"
        },
        {
          "internalType": "bytes32",
          "name": "key",
          "type": "bytes32"
        }
      ],
      "name": "whiteListNewApp",
      "outputs": [],
      "stateMutability": "nonpayable",
      "type": "function"
    },
    {
      "inputs": [],
      "name": "proxiableUUID",
      "outputs": [
        {
          "internalType": "bytes32",
          "name": "",
          "type": "bytes32"
        }
      ],
      "stateMutability": "pure",
      "type": "function"
    },
    {
      "inputs": [
        {
          "internalType": "address",
          "name": "newAddress",
          "type": "address"
        }
      ],
      "name": "updateCode",
      "outputs": [],
      "stateMutability": "nonpayable",
      "type": "function"
    }
  ],
  "bytecode": "0x608060405234801561001057600080fd5b50600061001b61006a565b600080546001600160a01b0319166001600160a01b0383169081178255604051929350917f8be0079c531659141344cd1fd0a4f28419497f9722a3daafe3b4186f6b6457e0908290a35061006e565b3390565b611a088061007d6000396000f3fe608060405234801561001057600080fd5b50600436106101da5760003560e01c806380f70cba116101045780638e6fce95116100a2578063cadf8f8511610071578063cadf8f85146107a7578063e447cc1d146107d5578063f047a2d914610803578063f2fde38b1461083b576101da565b80638e6fce95146106e55780638ecbd87b14610713578063ab846f1a14610741578063af8f7a6114610779576101da565b80638abe04e9116100de5780638abe04e9146106355780638b93b3f5146106775780638ce93379146106a55780638da5cb5b146106dd576101da565b806380f70cba146105bb5780638369a0f1146105f15780638a7ff2f714610607576101da565b806344864b251161017c57806352d1902d1161014b57806352d1902d1461052b578063715018a6146105455780637dce4f811461054d5780637f0558e414610585576101da565b806344864b251461049957806346951954146104c757806346bdec54146104ed57806350d75d2514610523576101da565b806325c955c3116101b857806325c955c314610325578063325529081461035357806342148deb1461038b578063427942a414610409576101da565b806317dcabbf146101df57806319df62ab1461020d5780632196447314610257575b600080fd5b61020b600480360360408110156101f557600080fd5b506001600160a01b038135169060200135610861565b005b61023b6004803603604081101561022357600080fd5b506001600160a01b0381358116916020013516610873565b604080516001600160a01b039092168252519081900360200190f35b61020b6004803603606081101561026d57600080fd5b6001600160a01b038235169190810190604081016020820135600160201b81111561029757600080fd5b8201836020820111156102a957600080fd5b803590602001918460208302840111600160201b831117156102ca57600080fd5b919390929091602081019035600160201b8111156102e757600080fd5b8201836020820111156102f957600080fd5b803590602001918460208302840111600160201b8311171561031a57600080fd5b5090925090506108a7565b61020b6004803603604081101561033b57600080fd5b506001600160a01b0381358116916020013516610938565b61020b6004803603606081101561036957600080fd5b506001600160a01b03813581169160208101358216916040909101351661094c565b61020b600480360360408110156103a157600080fd5b6001600160a01b038235169190810190604081016020820135600160201b8111156103cb57600080fd5b8201836020820111156103dd57600080fd5b803590602001918460208302840111600160201b831117156103fe57600080fd5b5090925090506109c8565b61020b6004803603608081101561041f57600080fd5b6001600160a01b038235811692602081013590911691810190606081016040820135600160201b81111561045257600080fd5b82018360208201111561046457600080fd5b803590602001918460208302840111600160201b8311171561048557600080fd5b9193509150356001600160a01b0316610a71565b61020b600480360360408110156104af57600080fd5b506001600160a01b0381358116916020013516610c09565b61020b600480360360208110156104dd57600080fd5b50356001600160a01b0316610c7f565b61020b6004803603606081101561050357600080fd5b506001600160a01b03813581169160208101359091169060400135610c93565b61023b610d0b565b610533610d1a565b60408051918252519081900360200190f35b61020b610d3e565b61020b6004803603606081101561056357600080fd5b506001600160a01b038135811691602081013582169160409091013516610dfc565b61020b6004803603606081101561059b57600080fd5b506001600160a01b03813581169160208101359091169060400135610e68565b610533600480360360608110156105d157600080fd5b506001600160a01b03813581169160208101359091169060400135610ee0565b61023b600480360360608110156105d157600080fd5b6105336004803603604081101561061d57600080fd5b506001600160a01b0381358116916020013516610f51565b6106636004803603604081101561064b57600080fd5b506001600160a01b0381358116916020013516610f7e565b604080519115158252519081900360200190f35b61020b6004803603604081101561068d57600080fd5b506001600160a01b0381358116916020013516610f9e565b61020b600480360360608110156106bb57600080fd5b506001600160a01b038135811691602081013582169160409091013516610ff3565b61023b611055565b610533600480360360408110156106fb57600080fd5b506001600160a01b0381358116916020013516611064565b61020b6004803603604081101561072957600080fd5b506001600160a01b0381358116916020013516611091565b61020b6004803603606081101561075757600080fd5b506001600160a01b038135811691602081013582169160409091013516611107565b61020b6004803603604081101561078f57600080fd5b506001600160a01b038135811691602001351661116e565b61020b600480360360408110156107bd57600080fd5b506001600160a01b03813581169160200135166111e4565b61020b600480360360408110156107eb57600080fd5b506001600160a01b038135811691602001351661123d565b6106636004803603606081101561081957600080fd5b506001600160a01b0381358116916020810135821691604090910135166112b3565b61020b6004803603602081101561085157600080fd5b50356001600160a01b03166112ce565b61086f8260008360016113e2565b5050565b60006108a083837f9f60ae461adf056670e03ae602566409933242392cb06744f5747c9f38b05d09610ee0565b9392505050565b8281146108e55760405162461bcd60e51b815260040180806020018281038252602581526020018061198d6025913960400191505060405180910390fd5b60005b81811015610930576109288686868481811061090057fe5b905060200201356001600160a01b031685858581811061091c57fe5b90506020020135610e68565b6001016108e8565b505050505050565b61086f82600061094784611494565b6114e9565b60408051600181526001600160a01b038381166020830152825181861693918716927f14e12f219a4f9023456dc7832e10119ab768b8ccefc8cb79bc6de0419781eeeb92908290030190a36109c383837f9f60ae461adf056670e03ae602566409933242392cb06744f5747c9f38b05d0984611599565b505050565b826109d28161164e565b60005b82811015610a6a57846001600160a01b031663787afde78585848181106109f857fe5b905060200201356001600160a01b03166040518263ffffffff1660e01b815260040180826001600160a01b03168152602001915050600060405180830381600087803b158015610a4757600080fd5b505af1158015610a5b573d6000803e3d6000fd5b505050508060010190506109d5565b5050505050565b84610a7b8161164e565b6001600160a01b03851615610af257856001600160a01b03166346951954866040518263ffffffff1660e01b815260040180826001600160a01b03168152602001915050600060405180830381600087803b158015610ad957600080fd5b505af1158015610aed573d6000803e3d6000fd5b505050505b60005b83811015610b8a57866001600160a01b03166306cecba8868684818110610b1857fe5b905060200201356001600160a01b03166040518263ffffffff1660e01b815260040180826001600160a01b03168152602001915050600060405180830381600087803b158015610b6757600080fd5b505af1158015610b7b573d6000803e3d6000fd5b50505050806001019050610af5565b506001600160a01b0382161561093057856001600160a01b03166354fbc493836040518263ffffffff1660e01b815260040180826001600160a01b03168152602001915050600060405180830381600087803b158015610be957600080fd5b505af1158015610bfd573d6000803e3d6000fd5b50505050505050505050565b81610c138161164e565b826001600160a01b0316637283100c836040518263ffffffff1660e01b815260040180826001600160a01b03168152602001915050600060405180830381600087803b158015610c6257600080fd5b505af1158015610c76573d6000803e3d6000fd5b50505050505050565b610c87611652565b610c90816116b2565b50565b60408051600181526020810183905281516001600160a01b0380861693908716927f3cbad89c3bb0ff70e832f6d6fa458ff3f5487e8156ec52e8814c46c59e919289929081900390910190a36109c383837f1ca463a216b802472396d1b8a5b5b695d935b1d24311e89b020144e6613f15aa846113e2565b6000610d15611815565b905090565b7f42262e3b6ca1f8f82e158e1ac4ddf4e6273aa6499266ae17bcaceb238305423990565b610d4661183a565b6001600160a01b0316610d57611055565b6001600160a01b031614610db2576040805162461bcd60e51b815260206004820181905260248201527f4f776e61626c653a2063616c6c6572206973206e6f7420746865206f776e6572604482015290519081900360640190fd5b600080546040516001600160a01b03909116907f8be0079c531659141344cd1fd0a4f28419497f9722a3daafe3b4186f6b6457e0908390a3600080546001600160a01b0319169055565b610e118383610e0a8461183e565b60006113e2565b60408051600181526001600160a01b0383811660208301526000828401529151828516928616917f168da2dec91b2e06e30d49955479383e76f71ba185807a8a5b75e2ed563e1d27919081900360600190a3505050565b60408051600181526020810183905281516001600160a01b0380861693908716927fc055c4a3853372c08a98805545379133f00f7261d956b9197729d67f37a82a53929081900390910190a36109c383837feae305fa863b373417e615b1044222e2806cefc7788d169ce6748a443c3f6cc4846113e2565b6001600160a01b03808416600090815260016020908152604080832093861683529281528282208483529052908120805460ff16610f4557506001600160a01b0384166000908152600160209081526040808320838052825280832085845290915290205b60010154949350505050565b60006108a083837feae305fa863b373417e615b1044222e2806cefc7788d169ce6748a443c3f6cc4610ee0565b6000610f94836000610f8f85611494565b610ee0565b6001149392505050565b803b80610fdc5760405162461bcd60e51b81526004018080602001828103825260218152602001806118db6021913960400191505060405180910390fd5b5061086f826000610fec84611494565b60016113e2565b6040805160008082526001600160a01b038481166020840152828401919091529151828516928616917f168da2dec91b2e06e30d49955479383e76f71ba185807a8a5b75e2ed563e1d27919081900360600190a36109c383836109478461183e565b6000546001600160a01b031690565b60006108a083837f1ca463a216b802472396d1b8a5b5b695d935b1d24311e89b020144e6613f15aa610ee0565b604080516000808252602082015281516001600160a01b0380851693908616927fc055c4a3853372c08a98805545379133f00f7261d956b9197729d67f37a82a53929081900390910190a361086f82827feae305fa863b373417e615b1044222e2806cefc7788d169ce6748a443c3f6cc46114e9565b6111158383610fec8461183e565b6040805160018082526001600160a01b038481166020840152828401919091529151828516928616917f168da2dec91b2e06e30d49955479383e76f71ba185807a8a5b75e2ed563e1d27919081900360600190a3505050565b604080516000808252602082015281516001600160a01b0380851693908616927f3cbad89c3bb0ff70e832f6d6fa458ff3f5487e8156ec52e8814c46c59e919289929081900390910190a361086f82827f1ca463a216b802472396d1b8a5b5b695d935b1d24311e89b020144e6613f15aa6114e9565b816111ee8161164e565b826001600160a01b03166315a024e1836040518263ffffffff1660e01b815260040180826001600160a01b03168152602001915050600060405180830381600087803b158015610c6257600080fd5b604080516000808252602082015281516001600160a01b0380851693908616927f14e12f219a4f9023456dc7832e10119ab768b8ccefc8cb79bc6de0419781eeeb929081900390910190a361086f82827f9f60ae461adf056670e03ae602566409933242392cb06744f5747c9f38b05d096114e9565b60006112c38484610f8f8561183e565b600114949350505050565b6112d661183a565b6001600160a01b03166112e7611055565b6001600160a01b031614611342576040805162461bcd60e51b815260206004820181905260248201527f4f776e61626c653a2063616c6c6572206973206e6f7420746865206f776e6572604482015290519081900360640190fd5b6001600160a01b0381166113875760405162461bcd60e51b81526004018080602001828103825260268152602001806118fc6026913960400191505060405180910390fd5b600080546040516001600160a01b03808516939216917f8be0079c531659141344cd1fd0a4f28419497f9722a3daafe3b4186f6b6457e091a3600080546001600160a01b0319166001600160a01b0392909216919091179055565b836113ec8161164e565b604080518481526001602082015280820184905290516001600160a01b0380871692908816917f33afe19ae6902b933890ff48190fabdc4cf7f5ab499be9c4d9d98e3b4562e3909181900360600190a350604080518082018252600180825260208083019485526001600160a01b039788166000908152828252848120979098168852958652828720948752939094529093209151825460ff19169015151782559151910155565b6000816040516020018080602001836001600160a01b03168152602001828103825260398152602001806119226039913960400192505050604051602081830303815290604052805190602001209050919050565b826114f38161164e565b604080518381526000602082018190528183015290516001600160a01b0380861692908716917f33afe19ae6902b933890ff48190fabdc4cf7f5ab499be9c4d9d98e3b4562e3909181900360600190a350604080518082018252600080825260208083018281526001600160a01b03978816835260018083528584209790981683529581528382209482529390935291209051815460ff19169015151781559051910155565b836115a38161164e565b60408051848152600160208201526001600160a01b03848116828401529151828716928816917f33afe19ae6902b933890ff48190fabdc4cf7f5ab499be9c4d9d98e3b4562e390919081900360600190a35060408051808201825260018082526001600160a01b03938416602080840191825297851660009081528289528481209790951685529587528284209484529390955290209251835460ff19169015151783559051910155565b610c905b61165a61183a565b6001600160a01b031661166b611055565b6001600160a01b0316146116b05760405162461bcd60e51b81526004018080602001828103825260218152602001806119b26021913960400191505060405180910390fd5b565b60006116bc611815565b6001600160a01b03161415611718576040805162461bcd60e51b815260206004820152601d60248201527f5555505350726f786961626c653a206e6f742075706772616461626c65000000604482015290519081900360640190fd5b806001600160a01b03166352d1902d6040518163ffffffff1660e01b815260040160206040518083038186803b15801561175157600080fd5b505afa158015611765573d6000803e3d6000fd5b505050506040513d602081101561177b57600080fd5b5051611785610d1a565b146117c15760405162461bcd60e51b81526004018080602001828103825260238152602001806118b86023913960400191505060405180910390fd5b6117ca81611893565b7fe011bc04c286c344a8fcbb8de77f953da762c3e25d8cdea984147fc4168a5dcc6117f3610d1a565b604080519182526001600160a01b03841660208301528051918290030190a150565b7f360894a13ba1a3210667c828492db98dca3e2076cc3735a920a3ca505d382bbc5490565b3390565b6000816040516020018080602001836001600160a01b031681526020018281038252603281526020018061195b6032913960400192505050604051602081830303815290604052805190602001209050919050565b7f360894a13ba1a3210667c828492db98dca3e2076cc3735a920a3ca505d382bbc5556fe5555505350726f786961626c653a206e6f7420636f6d70617469626c65206c6f6769635346476f763a20666163746f7279206d757374206265206120636f6e74726163744f776e61626c653a206e6577206f776e657220697320746865207a65726f20616464726573736f72672e7375706572666c7569642d66696e616e63652e7375706572666c7569642e61707057686974654c697374696e672e666163746f72796f72672e7375706572666c7569642d66696e616e63652e7375706572666c7569642e74727573746564466f727761726465725346476f763a2061727261797320617265206e6f74207468652073616d65206c656e6774685346476f7649493a206f6e6c79206f776e657220697320617574686f72697a6564a2646970667358221220d98cafe9fa377a4ad3f6ae55c570636b9c1e14ae699d2bf12306845c3fdb5e2164736f6c63430007060033",
  "immutableReferences": {},
  "source": "// SPDX-License-Identifier: AGPLv3\npragma solidity 0.7.6;\n\nimport { UUPSProxy } from \"../upgradability/UUPSProxy.sol\";\nimport { Ownable } from \"@openzeppelin/contracts/access/Ownable.sol\";\nimport { UUPSProxiable } from \"../upgradability/UUPSProxiable.sol\";\nimport { SuperfluidGovernanceBase } from \"./SuperfluidGovernanceBase.sol\";\nimport { ISuperfluid } from \"../interfaces/superfluid/ISuperfluid.sol\";\n\n/**\n * @dev A proxy for governance which is both ownable and upgradable\n * IMPORTANT! Make sure the inheritance order remains in sync with the logic contract (Ownable first)!\n */\n// solhint-disable-next-line no-empty-blocks\ncontract SuperfluidGovernanceIIProxy is Ownable, UUPSProxy { }\n\ncontract SuperfluidGovernanceII is\n    Ownable,\n    UUPSProxiable,\n    SuperfluidGovernanceBase\n{\n    function _requireAuthorised() private view {\n        require(owner() == _msgSender(), \"SFGovII: only owner is authorized\");\n    }\n\n    /**************************************************************************\n    * UUPSProxiable\n    **************************************************************************/\n\n    // TODO: do we need initialize() here?\n\n    function proxiableUUID() public pure override returns (bytes32) {\n        return keccak256(\"org.superfluid-finance.contracts.SuperfluidGovernanceII.implementation\");\n    }\n\n    function updateCode(address newAddress)\n        external override\n    {\n        _requireAuthorised();\n        _updateCodeAddress(newAddress);\n    }\n\n    /**************************************************************************\n    * SuperfluidGovernanceBase\n    **************************************************************************/\n\n    function _requireAuthorised(ISuperfluid /*host*/)\n        internal view override\n    {\n        _requireAuthorised();\n    }\n}\n",
  "sourcePath": "/home/runner/work/protocol-monorepo/protocol-monorepo/packages/ethereum-contracts/contracts/gov/SuperfluidGovernanceII.sol",
  "compiler": {
    "name": "solc",
    "version": "0.7.6+commit.7338295f.Emscripten.clang"
  },
  "schemaVersion": "3.4.4",
  "updatedAt": "2022-02-01T14:35:44.333Z",
  "devdoc": {
    "kind": "dev",
    "methods": {
      "authorizeAppFactory(address,address)": {
        "details": "allows the given factory to register new apps without requiring onetime keys",
        "params": {
          "factory": "must be an initialized contract"
        }
      },
      "batchUpdateSuperTokenLogic(address,address[])": {
        "details": "Update supertoken logic contract to the latest that is managed by the super token factory"
      },
      "getCodeAddress()": {
        "details": "Get current implementation code address."
      },
      "getConfigAsAddress(address,address,bytes32)": {
        "details": "Get configuration as address value"
      },
      "getConfigAsUint256(address,address,bytes32)": {
        "details": "Get configuration as uint256 value"
      },
      "isAuthorizedAppFactory(address,address)": {
        "details": "tells if the given factory is authorized to register apps"
      },
      "owner()": {
        "details": "Returns the address of the current owner."
      },
      "proxiableUUID()": {
        "details": "Proxiable UUID marker function.      This would help to avoid wrong logic contract to be used for upgrading."
      },
      "registerAgreementClass(address,address)": {
        "details": "Register a new agreement class"
      },
      "renounceOwnership()": {
        "details": "Leaves the contract without owner. It will not be possible to call `onlyOwner` functions anymore. Can only be called by the current owner. NOTE: Renouncing ownership will leave the contract without an owner, thereby removing any functionality that is only available to the owner."
      },
      "replaceGovernance(address,address)": {
        "details": "Replace the current governance with a new governance"
      },
      "transferOwnership(address)": {
        "details": "Transfers ownership of the contract to a new account (`newOwner`). Can only be called by the current owner."
      },
      "unauthorizeAppFactory(address,address)": {
        "details": "withdraws authorization from a factory to register new apps. Doesn't affect apps previously registered by the factory."
      },
      "updateContracts(address,address,address[],address)": {
        "details": "Update logics of the contracts NOTE: - Because they might have inter-dependencies, it is good to have one single function to update them all"
      },
      "whiteListNewApp(address,bytes32)": {
        "details": "Whitelist a new app using a onetime key",
        "params": {
          "key": "is a deployer specific hash key which can be used once to register an app NOTE: To generate the key, use the SuperfluidGovernanceConfigs.getAppRegistrationConfigKey offchain."
        }
      }
    },
    "version": 1
  },
  "userdoc": {
    "kind": "user",
    "methods": {},
    "version": 1
  }
}