{
  "contractName": "SuperfluidLoader",
  "abi": [
    {
      "inputs": [
        {
          "internalType": "contract IResolver",
          "name": "resolver",
          "type": "address"
        }
      ],
      "stateMutability": "nonpayable",
      "type": "constructor"
    },
    {
      "inputs": [
        {
          "internalType": "string",
          "name": "releaseVersion",
          "type": "string"
        }
      ],
      "name": "loadFramework",
      "outputs": [
        {
          "components": [
            {
              "internalType": "contract ISuperfluid",
              "name": "superfluid",
              "type": "address"
            },
            {
              "internalType": "contract ISuperTokenFactory",
              "name": "superTokenFactory",
              "type": "address"
            },
            {
              "internalType": "contract ISuperAgreement",
              "name": "agreementCFAv1",
              "type": "address"
            },
            {
              "internalType": "contract ISuperAgreement",
              "name": "agreementIDAv1",
              "type": "address"
            }
          ],
          "internalType": "struct SuperfluidLoader.Framework",
          "name": "result",
          "type": "tuple"
        }
      ],
      "stateMutability": "view",
      "type": "function"
    }
  ],
  "bytecode": "0x60a060405234801561001057600080fd5b5060405161067b38038061067b83398101604081905261002f91610044565b60601b6001600160601b031916608052610072565b600060208284031215610055578081fd5b81516001600160a01b038116811461006b578182fd5b9392505050565b60805160601c6105ed61008e60003980606352506105ed6000f3fe608060405234801561001057600080fd5b506004361061002b5760003560e01c8063f490e2f014610030575b600080fd5b61004361003e36600461049b565b610059565b6040516100509190610564565b60405180910390f35b610061610437565b7f00000000000000000000000000000000000000000000000000000000000000006001600160a01b031663693ec85e6101036100bf6040518060400160405280600b81526020016a29bab832b933363ab4b21760a91b81525061034c565b6100fe87878080601f01602080910402602001604051908101604052809392919081815260200183838082843760009201919091525061034c92505050565b610371565b6040518263ffffffff1660e01b815260040161011f9190610511565b60206040518083038186803b15801561013757600080fd5b505afa15801561014b573d6000803e3d6000fd5b505050506040513d601f19601f8201168201806040525081019061016f9190610478565b6001600160a01b03168082526040805163398d76b760e11b8152905163731aed6e91600480820192602092909190829003018186803b1580156101b157600080fd5b505afa1580156101c5573d6000803e3d6000fd5b505050506040513d601f19601f820116820180604052508101906101e99190610478565b6001600160a01b0390811660208301528151604051635b69006f60e11b815291169063b6d200de9061023f907fa9214cc96615e0085d3bb077758db69497dc2dce3b2b1e97bc93c3d18d83efd390600401610508565b60206040518083038186803b15801561025757600080fd5b505afa15801561026b573d6000803e3d6000fd5b505050506040513d601f19601f8201168201806040525081019061028f9190610478565b6001600160a01b0390811660408084019190915282519051635b69006f60e11b815291169063b6d200de906102e8907f8aedc3b5d4bf031e11a7e2940f7251c005698405d58e02e1c247fed3b1b3a67490600401610508565b60206040518083038186803b15801561030057600080fd5b505afa158015610314573d6000803e3d6000fd5b505050506040513d601f19601f820116820180604052508101906103389190610478565b6001600160a01b0316606082015292915050565b61035461045e565b506040805180820190915281518152602082810190820152919050565b805182516060916000910167ffffffffffffffff8111801561039257600080fd5b506040519080825280601f01601f1916602001820160405280156103bd576020820181803683370190505b50905060006020820190506103db81866020015187600001516103f9565b8451602085015185516103f192840191906103f9565b509392505050565b5b60208110610419578151835260209283019290910190601f19016103fa565b905182516020929092036101000a6000190180199091169116179052565b60408051608081018252600080825260208201819052918101829052606081019190915290565b604051806040016040528060008152602001600081525090565b600060208284031215610489578081fd5b81516104948161059f565b9392505050565b600080602083850312156104ad578081fd5b823567ffffffffffffffff808211156104c4578283fd5b818501915085601f8301126104d7578283fd5b8135818111156104e5578384fd5b8660208285010111156104f6578384fd5b60209290920196919550909350505050565b90815260200190565b6000602080835283518082850152825b8181101561053d57858101830151858201604001528201610521565b8181111561054e5783604083870101525b50601f01601f1916929092016040019392505050565b81516001600160a01b039081168252602080840151821690830152604080840151821690830152606092830151169181019190915260800190565b6001600160a01b03811681146105b457600080fd5b5056fea26469706673582212207048a1773a39fd6ec91fcaa43f92f84168144a3b8bd3fef361ccaec96028952164736f6c63430007060033",
  "immutableReferences": {
    "34431": [
      {
        "length": 32,
        "start": 99
      }
    ]
  },
  "source": "// SPDX-License-Identifier: AGPLv3\npragma abicoder v2;\npragma solidity 0.7.6;\n\nimport { IResolver } from \"../interfaces/ux/IResolver.sol\";\nimport {\n    ISuperfluid,\n    ISuperTokenFactory,\n    ISuperAgreement\n} from \"../interfaces/superfluid/ISuperfluid.sol\";\n\nimport { Strings } from \"../libs/Strings.sol\";\n\n\n/**\n * @dev Superfluid Loader\n *\n * A on-chain utility contract for loading framework objects in one view function.\n *\n * NOTE:\n * Q: Why don't we just use https://www.npmjs.com/package/ethereum-multicall?\n * A: Well, no strong reason other than also allowing on-chain one view function loading.\n */\ncontract SuperfluidLoader {\n\n    IResolver private immutable _resolver;\n\n    struct Framework {\n        ISuperfluid superfluid;\n        ISuperTokenFactory superTokenFactory;\n        ISuperAgreement agreementCFAv1;\n        ISuperAgreement agreementIDAv1;\n    }\n\n    constructor(IResolver resolver) {\n        _resolver = resolver;\n    }\n\n    /**\n     * @dev Load framework objects\n     * @param releaseVersion Protocol release version of the deployment\n     */\n    function loadFramework(string calldata releaseVersion)\n        external view\n        returns (Framework memory result)\n    {\n        // load superfluid host contract\n        result.superfluid = ISuperfluid(_resolver.get(\n            Strings.concat(Strings.toSlice(\"Superfluid.\"), Strings.toSlice(releaseVersion))\n        ));\n        result.superTokenFactory = result.superfluid.getSuperTokenFactory();\n        result.agreementCFAv1 = result.superfluid.getAgreementClass(\n            keccak256(\"org.superfluid-finance.agreements.ConstantFlowAgreement.v1\")\n        );\n        result.agreementIDAv1 = result.superfluid.getAgreementClass(\n            keccak256(\"org.superfluid-finance.agreements.InstantDistributionAgreement.v1\")\n        );\n    }\n}\n",
  "sourcePath": "/home/runner/work/protocol-monorepo/protocol-monorepo/packages/ethereum-contracts/contracts/ux/SuperfluidLoader.sol",
  "compiler": {
    "name": "solc",
    "version": "0.7.6+commit.7338295f.Emscripten.clang"
  },
  "schemaVersion": "3.4.4",
  "updatedAt": "2022-02-01T14:35:44.951Z",
  "devdoc": {
    "details": "Superfluid Loader A on-chain utility contract for loading framework objects in one view function. NOTE: Q: Why don't we just use https://www.npmjs.com/package/ethereum-multicall? A: Well, no strong reason other than also allowing on-chain one view function loading.",
    "kind": "dev",
    "methods": {
      "loadFramework(string)": {
        "details": "Load framework objects",
        "params": {
          "releaseVersion": "Protocol release version of the deployment"
        }
      }
    },
    "version": 1
  },
  "userdoc": {
    "kind": "user",
    "methods": {},
    "version": 1
  }
}