{
  "contractName": "TestGovernance",
  "abi": [
    {
      "anonymous": false,
      "inputs": [
        {
          "indexed": true,
          "internalType": "contract ISuperfluid",
          "name": "host",
          "type": "address"
        },
        {
          "indexed": true,
          "internalType": "contract ISuperfluidToken",
          "name": "superToken",
          "type": "address"
        },
        {
          "indexed": false,
          "internalType": "bool",
          "name": "isKeySet",
          "type": "bool"
        },
        {
          "indexed": false,
          "internalType": "uint256",
          "name": "liquidationPeriod",
          "type": "uint256"
        }
      ],
      "name": "CFAv1LiquidationPeriodChanged",
      "type": "event"
    },
    {
      "anonymous": false,
      "inputs": [
        {
          "indexed": true,
          "internalType": "contract ISuperfluid",
          "name": "host",
          "type": "address"
        },
        {
          "indexed": true,
          "internalType": "contract ISuperfluidToken",
          "name": "superToken",
          "type": "address"
        },
        {
          "indexed": false,
          "internalType": "bytes32",
          "name": "key",
          "type": "bytes32"
        },
        {
          "indexed": false,
          "internalType": "bool",
          "name": "isKeySet",
          "type": "bool"
        },
        {
          "indexed": false,
          "internalType": "uint256",
          "name": "value",
          "type": "uint256"
        }
      ],
      "name": "ConfigChanged",
      "type": "event"
    },
    {
      "anonymous": false,
      "inputs": [
        {
          "indexed": true,
          "internalType": "address",
          "name": "previousOwner",
          "type": "address"
        },
        {
          "indexed": true,
          "internalType": "address",
          "name": "newOwner",
          "type": "address"
        }
      ],
      "name": "OwnershipTransferred",
      "type": "event"
    },
    {
      "anonymous": false,
      "inputs": [
        {
          "indexed": true,
          "internalType": "contract ISuperfluid",
          "name": "host",
          "type": "address"
        },
        {
          "indexed": true,
          "internalType": "contract ISuperfluidToken",
          "name": "superToken",
          "type": "address"
        },
        {
          "indexed": false,
          "internalType": "bool",
          "name": "isKeySet",
          "type": "bool"
        },
        {
          "indexed": false,
          "internalType": "address",
          "name": "rewardAddress",
          "type": "address"
        }
      ],
      "name": "RewardAddressChanged",
      "type": "event"
    },
    {
      "anonymous": false,
      "inputs": [
        {
          "indexed": true,
          "internalType": "contract ISuperfluid",
          "name": "host",
          "type": "address"
        },
        {
          "indexed": true,
          "internalType": "contract ISuperfluidToken",
          "name": "superToken",
          "type": "address"
        },
        {
          "indexed": false,
          "internalType": "bool",
          "name": "isKeySet",
          "type": "bool"
        },
        {
          "indexed": false,
          "internalType": "uint256",
          "name": "minimumDeposit",
          "type": "uint256"
        }
      ],
      "name": "SuperTokenMinimumDepositChanged",
      "type": "event"
    },
    {
      "anonymous": false,
      "inputs": [
        {
          "indexed": true,
          "internalType": "contract ISuperfluid",
          "name": "host",
          "type": "address"
        },
        {
          "indexed": true,
          "internalType": "contract ISuperfluidToken",
          "name": "superToken",
          "type": "address"
        },
        {
          "indexed": false,
          "internalType": "bool",
          "name": "isKeySet",
          "type": "bool"
        },
        {
          "indexed": false,
          "internalType": "address",
          "name": "forwarder",
          "type": "address"
        },
        {
          "indexed": false,
          "internalType": "bool",
          "name": "enabled",
          "type": "bool"
        }
      ],
      "name": "TrustedForwarderChanged",
      "type": "event"
    },
    {
      "inputs": [
        {
          "internalType": "contract ISuperfluid",
          "name": "host",
          "type": "address"
        },
        {
          "internalType": "address",
          "name": "factory",
          "type": "address"
        }
      ],
      "name": "authorizeAppFactory",
      "outputs": [],
      "stateMutability": "nonpayable",
      "type": "function"
    },
    {
      "inputs": [
        {
          "internalType": "contract ISuperfluid",
          "name": "host",
          "type": "address"
        },
        {
          "internalType": "contract ISuperToken[]",
          "name": "tokens",
          "type": "address[]"
        }
      ],
      "name": "batchUpdateSuperTokenLogic",
      "outputs": [],
      "stateMutability": "nonpayable",
      "type": "function"
    },
    {
      "inputs": [
        {
          "internalType": "contract ISuperfluid",
          "name": "host",
          "type": "address"
        },
        {
          "internalType": "contract ISuperToken[]",
          "name": "tokens",
          "type": "address[]"
        },
        {
          "internalType": "uint256[]",
          "name": "minimumDeposits",
          "type": "uint256[]"
        }
      ],
      "name": "batchUpdateSuperTokenMinimumDeposit",
      "outputs": [],
      "stateMutability": "nonpayable",
      "type": "function"
    },
    {
      "inputs": [
        {
          "internalType": "contract ISuperfluid",
          "name": "host",
          "type": "address"
        },
        {
          "internalType": "contract ISuperfluidToken",
          "name": "superToken",
          "type": "address"
        }
      ],
      "name": "clearCFAv1LiquidationPeriod",
      "outputs": [],
      "stateMutability": "nonpayable",
      "type": "function"
    },
    {
      "inputs": [
        {
          "internalType": "contract ISuperfluid",
          "name": "host",
          "type": "address"
        },
        {
          "internalType": "contract ISuperfluidToken",
          "name": "superToken",
          "type": "address"
        }
      ],
      "name": "clearRewardAddress",
      "outputs": [],
      "stateMutability": "nonpayable",
      "type": "function"
    },
    {
      "inputs": [
        {
          "internalType": "contract ISuperfluid",
          "name": "host",
          "type": "address"
        },
        {
          "internalType": "contract ISuperToken",
          "name": "superToken",
          "type": "address"
        }
      ],
      "name": "clearSuperTokenMinimumDeposit",
      "outputs": [],
      "stateMutability": "nonpayable",
      "type": "function"
    },
    {
      "inputs": [
        {
          "internalType": "contract ISuperfluid",
          "name": "host",
          "type": "address"
        },
        {
          "internalType": "contract ISuperfluidToken",
          "name": "superToken",
          "type": "address"
        },
        {
          "internalType": "address",
          "name": "forwarder",
          "type": "address"
        }
      ],
      "name": "clearTrustedForwarder",
      "outputs": [],
      "stateMutability": "nonpayable",
      "type": "function"
    },
    {
      "inputs": [
        {
          "internalType": "contract ISuperfluid",
          "name": "host",
          "type": "address"
        },
        {
          "internalType": "contract ISuperfluidToken",
          "name": "superToken",
          "type": "address"
        },
        {
          "internalType": "address",
          "name": "forwarder",
          "type": "address"
        }
      ],
      "name": "disableTrustedForwarder",
      "outputs": [],
      "stateMutability": "nonpayable",
      "type": "function"
    },
    {
      "inputs": [
        {
          "internalType": "contract ISuperfluid",
          "name": "host",
          "type": "address"
        },
        {
          "internalType": "contract ISuperfluidToken",
          "name": "superToken",
          "type": "address"
        },
        {
          "internalType": "address",
          "name": "forwarder",
          "type": "address"
        }
      ],
      "name": "enableTrustedForwarder",
      "outputs": [],
      "stateMutability": "nonpayable",
      "type": "function"
    },
    {
      "inputs": [
        {
          "internalType": "contract ISuperfluid",
          "name": "host",
          "type": "address"
        },
        {
          "internalType": "contract ISuperfluidToken",
          "name": "superToken",
          "type": "address"
        }
      ],
      "name": "getCFAv1LiquidationPeriod",
      "outputs": [
        {
          "internalType": "uint256",
          "name": "value",
          "type": "uint256"
        }
      ],
      "stateMutability": "view",
      "type": "function"
    },
    {
      "inputs": [
        {
          "internalType": "contract ISuperfluid",
          "name": "host",
          "type": "address"
        },
        {
          "internalType": "contract ISuperfluidToken",
          "name": "superToken",
          "type": "address"
        },
        {
          "internalType": "bytes32",
          "name": "key",
          "type": "bytes32"
        }
      ],
      "name": "getConfigAsAddress",
      "outputs": [
        {
          "internalType": "address",
          "name": "value",
          "type": "address"
        }
      ],
      "stateMutability": "view",
      "type": "function"
    },
    {
      "inputs": [
        {
          "internalType": "contract ISuperfluid",
          "name": "host",
          "type": "address"
        },
        {
          "internalType": "contract ISuperfluidToken",
          "name": "superToken",
          "type": "address"
        },
        {
          "internalType": "bytes32",
          "name": "key",
          "type": "bytes32"
        }
      ],
      "name": "getConfigAsUint256",
      "outputs": [
        {
          "internalType": "uint256",
          "name": "period",
          "type": "uint256"
        }
      ],
      "stateMutability": "view",
      "type": "function"
    },
    {
      "inputs": [
        {
          "internalType": "contract ISuperfluid",
          "name": "host",
          "type": "address"
        },
        {
          "internalType": "contract ISuperfluidToken",
          "name": "superToken",
          "type": "address"
        }
      ],
      "name": "getRewardAddress",
      "outputs": [
        {
          "internalType": "address",
          "name": "",
          "type": "address"
        }
      ],
      "stateMutability": "view",
      "type": "function"
    },
    {
      "inputs": [
        {
          "internalType": "contract ISuperfluid",
          "name": "host",
          "type": "address"
        },
        {
          "internalType": "contract ISuperfluidToken",
          "name": "superToken",
          "type": "address"
        }
      ],
      "name": "getSuperTokenMinimumDeposit",
      "outputs": [
        {
          "internalType": "uint256",
          "name": "value",
          "type": "uint256"
        }
      ],
      "stateMutability": "view",
      "type": "function"
    },
    {
      "inputs": [
        {
          "internalType": "contract ISuperfluid",
          "name": "host",
          "type": "address"
        },
        {
          "internalType": "address",
          "name": "factory",
          "type": "address"
        }
      ],
      "name": "isAuthorizedAppFactory",
      "outputs": [
        {
          "internalType": "bool",
          "name": "",
          "type": "bool"
        }
      ],
      "stateMutability": "view",
      "type": "function"
    },
    {
      "inputs": [
        {
          "internalType": "contract ISuperfluid",
          "name": "host",
          "type": "address"
        },
        {
          "internalType": "contract ISuperfluidToken",
          "name": "superToken",
          "type": "address"
        },
        {
          "internalType": "address",
          "name": "forwarder",
          "type": "address"
        }
      ],
      "name": "isTrustedForwarder",
      "outputs": [
        {
          "internalType": "bool",
          "name": "",
          "type": "bool"
        }
      ],
      "stateMutability": "view",
      "type": "function"
    },
    {
      "inputs": [],
      "name": "owner",
      "outputs": [
        {
          "internalType": "address",
          "name": "",
          "type": "address"
        }
      ],
      "stateMutability": "view",
      "type": "function"
    },
    {
      "inputs": [
        {
          "internalType": "contract ISuperfluid",
          "name": "host",
          "type": "address"
        },
        {
          "internalType": "address",
          "name": "agreementClass",
          "type": "address"
        }
      ],
      "name": "registerAgreementClass",
      "outputs": [],
      "stateMutability": "nonpayable",
      "type": "function"
    },
    {
      "inputs": [],
      "name": "renounceOwnership",
      "outputs": [],
      "stateMutability": "nonpayable",
      "type": "function"
    },
    {
      "inputs": [
        {
          "internalType": "contract ISuperfluid",
          "name": "host",
          "type": "address"
        },
        {
          "internalType": "address",
          "name": "newGov",
          "type": "address"
        }
      ],
      "name": "replaceGovernance",
      "outputs": [],
      "stateMutability": "nonpayable",
      "type": "function"
    },
    {
      "inputs": [
        {
          "internalType": "contract ISuperfluid",
          "name": "host",
          "type": "address"
        },
        {
          "internalType": "contract ISuperfluidToken",
          "name": "superToken",
          "type": "address"
        },
        {
          "internalType": "uint256",
          "name": "value",
          "type": "uint256"
        }
      ],
      "name": "setCFAv1LiquidationPeriod",
      "outputs": [],
      "stateMutability": "nonpayable",
      "type": "function"
    },
    {
      "inputs": [
        {
          "internalType": "contract ISuperfluid",
          "name": "host",
          "type": "address"
        },
        {
          "internalType": "contract ISuperfluidToken",
          "name": "superToken",
          "type": "address"
        },
        {
          "internalType": "address",
          "name": "rewardAddress",
          "type": "address"
        }
      ],
      "name": "setRewardAddress",
      "outputs": [],
      "stateMutability": "nonpayable",
      "type": "function"
    },
    {
      "inputs": [
        {
          "internalType": "contract ISuperfluid",
          "name": "host",
          "type": "address"
        },
        {
          "internalType": "contract ISuperfluidToken",
          "name": "superToken",
          "type": "address"
        },
        {
          "internalType": "uint256",
          "name": "value",
          "type": "uint256"
        }
      ],
      "name": "setSuperTokenMinimumDeposit",
      "outputs": [],
      "stateMutability": "nonpayable",
      "type": "function"
    },
    {
      "inputs": [
        {
          "internalType": "address",
          "name": "newOwner",
          "type": "address"
        }
      ],
      "name": "transferOwnership",
      "outputs": [],
      "stateMutability": "nonpayable",
      "type": "function"
    },
    {
      "inputs": [
        {
          "internalType": "contract ISuperfluid",
          "name": "host",
          "type": "address"
        },
        {
          "internalType": "address",
          "name": "factory",
          "type": "address"
        }
      ],
      "name": "unauthorizeAppFactory",
      "outputs": [],
      "stateMutability": "nonpayable",
      "type": "function"
    },
    {
      "inputs": [
        {
          "internalType": "contract ISuperfluid",
          "name": "host",
          "type": "address"
        },
        {
          "internalType": "address",
          "name": "hostNewLogic",
          "type": "address"
        },
        {
          "internalType": "address[]",
          "name": "agreementClassNewLogics",
          "type": "address[]"
        },
        {
          "internalType": "address",
          "name": "superTokenFactoryNewLogic",
          "type": "address"
        }
      ],
      "name": "updateContracts",
      "outputs": [],
      "stateMutability": "nonpayable",
      "type": "function"
    },
    {
      "inputs": [
        {
          "internalType": "contract ISuperfluid",
          "name": "host",
          "type": "address"
        },
        {
          "internalType": "bytes32",
          "name": "key",
          "type": "bytes32"
        }
      ],
      "name": "whiteListNewApp",
      "outputs": [],
      "stateMutability": "nonpayable",
      "type": "function"
    },
    {
      "inputs": [
        {
          "internalType": "contract ISuperfluid",
          "name": "host",
          "type": "address"
        },
        {
          "internalType": "address",
          "name": "rewardAddress",
          "type": "address"
        },
        {
          "internalType": "uint256",
          "name": "liquidationPeriod",
          "type": "uint256"
        },
        {
          "internalType": "address[]",
          "name": "trustedForwarders",
          "type": "address[]"
        }
      ],
      "name": "initialize",
      "outputs": [],
      "stateMutability": "nonpayable",
      "type": "function"
    }
  ],
  "bytecode": "0x608060405234801561001057600080fd5b50600061001b61006a565b600080546001600160a01b0319166001600160a01b0383169081178255604051929350917f8be0079c531659141344cd1fd0a4f28419497f9722a3daafe3b4186f6b6457e0908290a35061006e565b3390565b6118d18061007d6000396000f3fe608060405234801561001057600080fd5b50600436106101c45760003560e01c80638369a0f1116100f95780638ecbd87b11610097578063cadf8f8511610071578063cadf8f851461081c578063e447cc1d1461084a578063f047a2d914610878578063f2fde38b146108b0576101c4565b80638ecbd87b14610788578063ab846f1a146107b6578063af8f7a61146107ee576101c4565b80638b93b3f5116100d35780638b93b3f5146106ec5780638ce933791461071a5780638da5cb5b146107525780638e6fce951461075a576101c4565b80638369a0f1146106665780638a7ff2f71461067c5780638abe04e9146106aa576101c4565b806344864b251161016657806375d5755c1161014057806375d5755c146104ef5780637dce4f81146105b05780637f0558e4146105e857806380f70cba1461061e576101c4565b806344864b251461048357806346bdec54146104b1578063715018a6146104e7576101c4565b806325c955c3116101a257806325c955c31461030f578063325529081461033d57806342148deb14610375578063427942a4146103f3576101c4565b806317dcabbf146101c957806319df62ab146101f75780632196447314610241575b600080fd5b6101f5600480360360408110156101df57600080fd5b506001600160a01b0381351690602001356108d6565b005b6102256004803603604081101561020d57600080fd5b506001600160a01b03813581169160200135166108e8565b604080516001600160a01b039092168252519081900360200190f35b6101f56004803603606081101561025757600080fd5b6001600160a01b038235169190810190604081016020820135600160201b81111561028157600080fd5b82018360208201111561029357600080fd5b803590602001918460208302840111600160201b831117156102b457600080fd5b919390929091602081019035600160201b8111156102d157600080fd5b8201836020820111156102e357600080fd5b803590602001918460208302840111600160201b8311171561030457600080fd5b50909250905061091c565b6101f56004803603604081101561032557600080fd5b506001600160a01b03813581169160200135166109ad565b6101f56004803603606081101561035357600080fd5b506001600160a01b0381358116916020810135821691604090910135166109c1565b6101f56004803603604081101561038b57600080fd5b6001600160a01b038235169190810190604081016020820135600160201b8111156103b557600080fd5b8201836020820111156103c757600080fd5b803590602001918460208302840111600160201b831117156103e857600080fd5b509092509050610a3d565b6101f56004803603608081101561040957600080fd5b6001600160a01b038235811692602081013590911691810190606081016040820135600160201b81111561043c57600080fd5b82018360208201111561044e57600080fd5b803590602001918460208302840111600160201b8311171561046f57600080fd5b9193509150356001600160a01b0316610ae6565b6101f56004803603604081101561049957600080fd5b506001600160a01b0381358116916020013516610c7e565b6101f5600480360360608110156104c757600080fd5b506001600160a01b03813581169160208101359091169060400135610cf4565b6101f5610d6c565b6101f56004803603608081101561050557600080fd5b6001600160a01b03823581169260208101359091169160408201359190810190608081016060820135600160201b81111561053f57600080fd5b82018360208201111561055157600080fd5b803590602001918460208302840111600160201b8311171561057257600080fd5b919080806020026020016040519081016040528093929190818152602001838360200280828437600092019190915250929550610e2a945050505050565b6101f5600480360360608110156105c657600080fd5b506001600160a01b038135811691602081013582169160409091013516610ed6565b6101f5600480360360608110156105fe57600080fd5b506001600160a01b03813581169160208101359091169060400135610f42565b6106546004803603606081101561063457600080fd5b506001600160a01b03813581169160208101359091169060400135610fba565b60408051918252519081900360200190f35b6102256004803603606081101561063457600080fd5b6106546004803603604081101561069257600080fd5b506001600160a01b038135811691602001351661102b565b6106d8600480360360408110156106c057600080fd5b506001600160a01b0381358116916020013516611058565b604080519115158252519081900360200190f35b6101f56004803603604081101561070257600080fd5b506001600160a01b0381358116916020013516611078565b6101f56004803603606081101561073057600080fd5b506001600160a01b0381358116916020810135821691604090910135166110cd565b61022561112f565b6106546004803603604081101561077057600080fd5b506001600160a01b038135811691602001351661113e565b6101f56004803603604081101561079e57600080fd5b506001600160a01b038135811691602001351661116b565b6101f5600480360360608110156107cc57600080fd5b506001600160a01b0381358116916020810135821691604090910135166111e1565b6101f56004803603604081101561080457600080fd5b506001600160a01b0381358116916020013516611248565b6101f56004803603604081101561083257600080fd5b506001600160a01b03813581169160200135166112be565b6101f56004803603604081101561086057600080fd5b506001600160a01b0381358116916020013516611317565b6106d86004803603606081101561088e57600080fd5b506001600160a01b03813581169160208101358216916040909101351661138d565b6101f5600480360360208110156108c657600080fd5b50356001600160a01b03166113a8565b6108e48260008360016114bc565b5050565b600061091583837f9f60ae461adf056670e03ae602566409933242392cb06744f5747c9f38b05d09610fba565b9392505050565b82811461095a5760405162461bcd60e51b81526004018080602001828103825260258152602001806118776025913960400191505060405180910390fd5b60005b818110156109a55761099d8686868481811061097557fe5b905060200201356001600160a01b031685858581811061099157fe5b90506020020135610f42565b60010161095d565b505050505050565b6108e48260006109bc8461156e565b6115c3565b60408051600181526001600160a01b038381166020830152825181861693918716927f14e12f219a4f9023456dc7832e10119ab768b8ccefc8cb79bc6de0419781eeeb92908290030190a3610a3883837f9f60ae461adf056670e03ae602566409933242392cb06744f5747c9f38b05d0984611673565b505050565b82610a4781611728565b60005b82811015610adf57846001600160a01b031663787afde7858584818110610a6d57fe5b905060200201356001600160a01b03166040518263ffffffff1660e01b815260040180826001600160a01b03168152602001915050600060405180830381600087803b158015610abc57600080fd5b505af1158015610ad0573d6000803e3d6000fd5b50505050806001019050610a4a565b5050505050565b84610af081611728565b6001600160a01b03851615610b6757856001600160a01b03166346951954866040518263ffffffff1660e01b815260040180826001600160a01b03168152602001915050600060405180830381600087803b158015610b4e57600080fd5b505af1158015610b62573d6000803e3d6000fd5b505050505b60005b83811015610bff57866001600160a01b03166306cecba8868684818110610b8d57fe5b905060200201356001600160a01b03166040518263ffffffff1660e01b815260040180826001600160a01b03168152602001915050600060405180830381600087803b158015610bdc57600080fd5b505af1158015610bf0573d6000803e3d6000fd5b50505050806001019050610b6a565b506001600160a01b038216156109a557856001600160a01b03166354fbc493836040518263ffffffff1660e01b815260040180826001600160a01b03168152602001915050600060405180830381600087803b158015610c5e57600080fd5b505af1158015610c72573d6000803e3d6000fd5b50505050505050505050565b81610c8881611728565b826001600160a01b0316637283100c836040518263ffffffff1660e01b815260040180826001600160a01b03168152602001915050600060405180830381600087803b158015610cd757600080fd5b505af1158015610ceb573d6000803e3d6000fd5b50505050505050565b60408051600181526020810183905281516001600160a01b0380861693908716927f3cbad89c3bb0ff70e832f6d6fa458ff3f5487e8156ec52e8814c46c59e919289929081900390910190a3610a3883837f1ca463a216b802472396d1b8a5b5b695d935b1d24311e89b020144e6613f15aa846114bc565b610d7461176b565b6001600160a01b0316610d8561112f565b6001600160a01b031614610de0576040805162461bcd60e51b815260206004820181905260248201527f4f776e61626c653a2063616c6c6572206973206e6f7420746865206f776e6572604482015290519081900360640190fd5b600080546040516001600160a01b03909116907f8be0079c531659141344cd1fd0a4f28419497f9722a3daafe3b4186f6b6457e0908390a3600080546001600160a01b0319169055565b6001600160a01b038416610e3a57fe5b6002546001600160a01b031615610e4d57fe5b600280546001600160a01b0319166001600160a01b038681169190911791829055610e7b91166000856109c1565b600254610e93906001600160a01b0316600084610cf4565b60005b8151811015610adf576002548251610ece916001600160a01b031690600090859085908110610ec157fe5b60200260200101516111e1565b600101610e96565b610eeb8383610ee48461176f565b60006114bc565b60408051600181526001600160a01b0383811660208301526000828401529151828516928616917f168da2dec91b2e06e30d49955479383e76f71ba185807a8a5b75e2ed563e1d27919081900360600190a3505050565b60408051600181526020810183905281516001600160a01b0380861693908716927fc055c4a3853372c08a98805545379133f00f7261d956b9197729d67f37a82a53929081900390910190a3610a3883837feae305fa863b373417e615b1044222e2806cefc7788d169ce6748a443c3f6cc4846114bc565b6001600160a01b03808416600090815260016020908152604080832093861683529281528282208483529052908120805460ff1661101f57506001600160a01b0384166000908152600160209081526040808320838052825280832085845290915290205b60010154949350505050565b600061091583837feae305fa863b373417e615b1044222e2806cefc7788d169ce6748a443c3f6cc4610fba565b600061106e8360006110698561156e565b610fba565b6001149392505050565b803b806110b65760405162461bcd60e51b81526004018080602001828103825260218152602001806117c56021913960400191505060405180910390fd5b506108e48260006110c68461156e565b60016114bc565b6040805160008082526001600160a01b038481166020840152828401919091529151828516928616917f168da2dec91b2e06e30d49955479383e76f71ba185807a8a5b75e2ed563e1d27919081900360600190a3610a3883836109bc8461176f565b6000546001600160a01b031690565b600061091583837f1ca463a216b802472396d1b8a5b5b695d935b1d24311e89b020144e6613f15aa610fba565b604080516000808252602082015281516001600160a01b0380851693908616927fc055c4a3853372c08a98805545379133f00f7261d956b9197729d67f37a82a53929081900390910190a36108e482827feae305fa863b373417e615b1044222e2806cefc7788d169ce6748a443c3f6cc46115c3565b6111ef83836110c68461176f565b6040805160018082526001600160a01b038481166020840152828401919091529151828516928616917f168da2dec91b2e06e30d49955479383e76f71ba185807a8a5b75e2ed563e1d27919081900360600190a3505050565b604080516000808252602082015281516001600160a01b0380851693908616927f3cbad89c3bb0ff70e832f6d6fa458ff3f5487e8156ec52e8814c46c59e919289929081900390910190a36108e482827f1ca463a216b802472396d1b8a5b5b695d935b1d24311e89b020144e6613f15aa6115c3565b816112c881611728565b826001600160a01b03166315a024e1836040518263ffffffff1660e01b815260040180826001600160a01b03168152602001915050600060405180830381600087803b158015610cd757600080fd5b604080516000808252602082015281516001600160a01b0380851693908616927f14e12f219a4f9023456dc7832e10119ab768b8ccefc8cb79bc6de0419781eeeb929081900390910190a36108e482827f9f60ae461adf056670e03ae602566409933242392cb06744f5747c9f38b05d096115c3565b600061139d84846110698561176f565b600114949350505050565b6113b061176b565b6001600160a01b03166113c161112f565b6001600160a01b03161461141c576040805162461bcd60e51b815260206004820181905260248201527f4f776e61626c653a2063616c6c6572206973206e6f7420746865206f776e6572604482015290519081900360640190fd5b6001600160a01b0381166114615760405162461bcd60e51b81526004018080602001828103825260268152602001806117e66026913960400191505060405180910390fd5b600080546040516001600160a01b03808516939216917f8be0079c531659141344cd1fd0a4f28419497f9722a3daafe3b4186f6b6457e091a3600080546001600160a01b0319166001600160a01b0392909216919091179055565b836114c681611728565b604080518481526001602082015280820184905290516001600160a01b0380871692908816917f33afe19ae6902b933890ff48190fabdc4cf7f5ab499be9c4d9d98e3b4562e3909181900360600190a350604080518082018252600180825260208083019485526001600160a01b039788166000908152828252848120979098168852958652828720948752939094529093209151825460ff19169015151782559151910155565b6000816040516020018080602001836001600160a01b031681526020018281038252603981526020018061180c6039913960400192505050604051602081830303815290604052805190602001209050919050565b826115cd81611728565b604080518381526000602082018190528183015290516001600160a01b0380861692908716917f33afe19ae6902b933890ff48190fabdc4cf7f5ab499be9c4d9d98e3b4562e3909181900360600190a350604080518082018252600080825260208083018281526001600160a01b03978816835260018083528584209790981683529581528382209482529390935291209051815460ff19169015151781559051910155565b8361167d81611728565b60408051848152600160208201526001600160a01b03848116828401529151828716928816917f33afe19ae6902b933890ff48190fabdc4cf7f5ab499be9c4d9d98e3b4562e390919081900360600190a35060408051808201825260018082526001600160a01b03938416602080840191825297851660009081528289528481209790951685529587528284209484529390955290209251835460ff19169015151783559051910155565b6002546001600160a01b0382811691161461173f57fe5b61174761176b565b6001600160a01b031661175861112f565b6001600160a01b03161461176857fe5b50565b3390565b6000816040516020018080602001836001600160a01b0316815260200182810382526032815260200180611845603291396040019250505060405160208183030381529060405280519060200120905091905056fe5346476f763a20666163746f7279206d757374206265206120636f6e74726163744f776e61626c653a206e6577206f776e657220697320746865207a65726f20616464726573736f72672e7375706572666c7569642d66696e616e63652e7375706572666c7569642e61707057686974654c697374696e672e666163746f72796f72672e7375706572666c7569642d66696e616e63652e7375706572666c7569642e74727573746564466f727761726465725346476f763a2061727261797320617265206e6f74207468652073616d65206c656e677468a2646970667358221220154e706427a0a442d0db9303139b39010e5aeb6ad3c3452d71b4516250a88e7064736f6c63430007060033",
  "immutableReferences": {},
  "source": "// SPDX-License-Identifier: AGPLv3\npragma solidity 0.7.6;\n\nimport {\n    ISuperfluid,\n    ISuperfluidToken\n} from \"../interfaces/superfluid/ISuperfluid.sol\";\nimport { SuperfluidGovernanceBase } from \"../gov/SuperfluidGovernanceBase.sol\";\n\nimport { Ownable } from \"@openzeppelin/contracts/access/Ownable.sol\";\n\n\n/**\n * @dev A initializable version of the governance for testing purpose\n */\ncontract TestGovernance is\n    Ownable,\n    SuperfluidGovernanceBase\n{\n    ISuperfluid private _host;\n\n    function initialize(\n        ISuperfluid host,\n        address rewardAddress,\n        uint256 liquidationPeriod,\n        address[] memory trustedForwarders\n    )\n        external\n    {\n        // can initialize only once\n        assert(address(host) != address(0));\n        assert(address(_host) == address(0));\n\n        _host = host;\n\n        setRewardAddress(_host, ISuperfluidToken(address(0)), rewardAddress);\n\n        setCFAv1LiquidationPeriod(_host, ISuperfluidToken(address(0)), liquidationPeriod);\n\n        for (uint i = 0; i < trustedForwarders.length; ++i) {\n            enableTrustedForwarder(_host, ISuperfluidToken(address(0)), trustedForwarders[i]);\n        }\n    }\n\n    function _requireAuthorised(ISuperfluid host)\n        internal view override\n    {\n        assert(host == _host);\n        assert(owner() == _msgSender());\n    }\n}\n",
  "sourcePath": "/home/runner/work/protocol-monorepo/protocol-monorepo/packages/ethereum-contracts/contracts/test/TestGovernance.sol",
  "compiler": {
    "name": "solc",
    "version": "0.7.6+commit.7338295f.Emscripten.clang"
  },
  "schemaVersion": "3.4.4",
  "updatedAt": "2022-02-01T14:35:44.884Z",
  "devdoc": {
    "details": "A initializable version of the governance for testing purpose",
    "kind": "dev",
    "methods": {
      "authorizeAppFactory(address,address)": {
        "details": "allows the given factory to register new apps without requiring onetime keys",
        "params": {
          "factory": "must be an initialized contract"
        }
      },
      "batchUpdateSuperTokenLogic(address,address[])": {
        "details": "Update supertoken logic contract to the latest that is managed by the super token factory"
      },
      "getConfigAsAddress(address,address,bytes32)": {
        "details": "Get configuration as address value"
      },
      "getConfigAsUint256(address,address,bytes32)": {
        "details": "Get configuration as uint256 value"
      },
      "isAuthorizedAppFactory(address,address)": {
        "details": "tells if the given factory is authorized to register apps"
      },
      "owner()": {
        "details": "Returns the address of the current owner."
      },
      "registerAgreementClass(address,address)": {
        "details": "Register a new agreement class"
      },
      "renounceOwnership()": {
        "details": "Leaves the contract without owner. It will not be possible to call `onlyOwner` functions anymore. Can only be called by the current owner. NOTE: Renouncing ownership will leave the contract without an owner, thereby removing any functionality that is only available to the owner."
      },
      "replaceGovernance(address,address)": {
        "details": "Replace the current governance with a new governance"
      },
      "transferOwnership(address)": {
        "details": "Transfers ownership of the contract to a new account (`newOwner`). Can only be called by the current owner."
      },
      "unauthorizeAppFactory(address,address)": {
        "details": "withdraws authorization from a factory to register new apps. Doesn't affect apps previously registered by the factory."
      },
      "updateContracts(address,address,address[],address)": {
        "details": "Update logics of the contracts NOTE: - Because they might have inter-dependencies, it is good to have one single function to update them all"
      },
      "whiteListNewApp(address,bytes32)": {
        "details": "Whitelist a new app using a onetime key",
        "params": {
          "key": "is a deployer specific hash key which can be used once to register an app NOTE: To generate the key, use the SuperfluidGovernanceConfigs.getAppRegistrationConfigKey offchain."
        }
      }
    },
    "version": 1
  },
  "userdoc": {
    "kind": "user",
    "methods": {},
    "version": 1
  }
}