{
  "contractName": "TokenCustodian",
  "abi": [
    {
      "inputs": [],
      "stateMutability": "nonpayable",
      "type": "constructor"
    },
    {
      "anonymous": false,
      "inputs": [
        {
          "indexed": true,
          "internalType": "contract IERC777",
          "name": "token",
          "type": "address"
        },
        {
          "indexed": false,
          "internalType": "address",
          "name": "recipient",
          "type": "address"
        },
        {
          "indexed": false,
          "internalType": "uint256",
          "name": "amount",
          "type": "uint256"
        }
      ],
      "name": "CustodianDeposit",
      "type": "event"
    },
    {
      "anonymous": false,
      "inputs": [
        {
          "indexed": true,
          "internalType": "contract IERC777",
          "name": "token",
          "type": "address"
        },
        {
          "indexed": false,
          "internalType": "address",
          "name": "recipient",
          "type": "address"
        },
        {
          "indexed": false,
          "internalType": "uint256",
          "name": "amount",
          "type": "uint256"
        }
      ],
      "name": "CustodianWithdrawal",
      "type": "event"
    },
    {
      "inputs": [
        {
          "internalType": "contract IERC777",
          "name": "",
          "type": "address"
        },
        {
          "internalType": "address",
          "name": "",
          "type": "address"
        }
      ],
      "name": "balances",
      "outputs": [
        {
          "internalType": "uint256",
          "name": "",
          "type": "uint256"
        }
      ],
      "stateMutability": "view",
      "type": "function"
    },
    {
      "inputs": [
        {
          "internalType": "contract IERC777",
          "name": "token",
          "type": "address"
        },
        {
          "internalType": "address",
          "name": "recipient",
          "type": "address"
        }
      ],
      "name": "flush",
      "outputs": [],
      "stateMutability": "nonpayable",
      "type": "function"
    },
    {
      "inputs": [
        {
          "internalType": "address",
          "name": "",
          "type": "address"
        },
        {
          "internalType": "address",
          "name": "",
          "type": "address"
        },
        {
          "internalType": "address",
          "name": "",
          "type": "address"
        },
        {
          "internalType": "uint256",
          "name": "amount",
          "type": "uint256"
        },
        {
          "internalType": "bytes",
          "name": "userData",
          "type": "bytes"
        },
        {
          "internalType": "bytes",
          "name": "",
          "type": "bytes"
        }
      ],
      "name": "tokensReceived",
      "outputs": [],
      "stateMutability": "nonpayable",
      "type": "function"
    }
  ],
  "bytecode": "0x608060405234801561001057600080fd5b50604080516329965a1d60e01b815230600482018190527fb281fc8c12954d22544db45de3159a39272895b169a852b314f9cc762e44c53b602483015260448201529051731820a4b7618bde71dce8cdc73aab6c95905fad24916329965a1d91606480830192600092919082900301818387803b15801561009057600080fd5b505af11580156100a4573d6000803e3d6000fd5b50505050610399806100b76000396000f3fe608060405234801561001057600080fd5b50600436106100405760003560e01c806223de29146100455780639cfddc3614610131578063c23f001f1461015f575b600080fd5b61012f600480360360c081101561005b57600080fd5b6001600160a01b03823581169260208101358216926040820135909216916060820135919081019060a08101608082013564010000000081111561009e57600080fd5b8201836020820111156100b057600080fd5b803590602001918460018302840111640100000000831117156100d257600080fd5b9193909290916020810190356401000000008111156100f057600080fd5b82018360208201111561010257600080fd5b8035906020019184600183028401116401000000008311171561012457600080fd5b50909250905061019f565b005b61012f6004803603604081101561014757600080fd5b506001600160a01b038135811691602001351661022b565b61018d6004803603604081101561017557600080fd5b506001600160a01b0381358116916020013516610349565b60408051918252519081900360200190f35b336000858560208110156101b257600080fd5b506001600160a01b0383811660008181526020818152604080832095359094168083529481529083902080548c01905582518481529081018b9052825193945090927f9318b8aa904a44e8e096d937e3ff0488521fd9ce8db68cb8b120e2a08cbc02a1929181900390910190a250505050505050505050565b6001600160a01b03808316600090815260208181526040808320938516835292905220548015610344576001600160a01b03808416600081815260208181526040808320948716808452949091528082208290558051634decdde360e11b815260048101949094526024840185905260606044850152600360648501526203078360ec1b6084850152519192639bd9bbc69260a4808301939282900301818387803b1580156102d957600080fd5b505af11580156102ed573d6000803e3d6000fd5b50505050826001600160a01b03167f6ee58811e1c06f9971bf4c156175fabb19413d8a51841c2231beee4f3c04e73f838360405180836001600160a01b031681526020018281526020019250505060405180910390a25b505050565b60006020818152928152604080822090935290815220548156fea2646970667358221220ac76f679eda8e88d260e275c730b7563f4f952fc4093ca279d821003daeef16a64736f6c63430007060033",
  "immutableReferences": {},
  "source": "// SPDX-License-Identifier: AGPLv3\npragma solidity 0.7.6;\n\nimport { IERC777 } from \"@openzeppelin/contracts/token/ERC777/IERC777.sol\";\nimport { IERC1820Registry } from \"@openzeppelin/contracts/introspection/IERC1820Registry.sol\";\nimport { IERC777Recipient } from \"@openzeppelin/contracts/token/ERC777/IERC777Recipient.sol\";\n\n// contract which takes custody of funds which couldn't be sent to the designated recipient\ncontract TokenCustodian is IERC777Recipient {\n    IERC1820Registry constant internal _ERC1820_REGISTRY =\n    IERC1820Registry(0x1820a4B7618BdE71Dce8cdc73aAB6C95905faD24);\n    mapping(IERC777 => mapping(address => uint256)) public balances;\n\n    constructor() {\n        _ERC1820_REGISTRY.setInterfaceImplementer(address(this), keccak256(\"ERC777TokensRecipient\"), address(this));\n    }\n\n    event CustodianDeposit(IERC777 indexed token, address recipient, uint256 amount);\n    event CustodianWithdrawal(IERC777 indexed token, address recipient, uint256 amount);\n\n    // transfers tokens it has in custody for the given recipient to it\n    function flush(IERC777 token, address recipient) public {\n        uint256 amount = balances[token][recipient];\n        if (amount > 0) {\n            balances[token][recipient] = 0;\n            // solhint-disable-next-line check-send-result\n            token.send(recipient, amount, \"0x0\");\n            emit CustodianWithdrawal(token, recipient, amount);\n        }\n    }\n\n    // ============ IERC777Recipient ============\n\n    // interface through which ERC777 tokens are deposited to this contract.\n    // requires userData to contain an abi-encoded address which designates the recipient for which the deposit is made.\n    function tokensReceived(\n        address /*operator*/,\n        address /*from*/,\n        address /*to*/,\n        uint256 amount,\n        bytes calldata userData,\n        bytes calldata /*operatorData*/\n    ) override external {\n        IERC777 token = IERC777(msg.sender);\n        // note: if userData is not set or not decodable as address, this will revert\n        address recipient = abi.decode(userData, (address));\n        balances[token][recipient] += amount;\n        emit CustodianDeposit(token, recipient, amount);\n        // note: anybody could call this function and store balance entries. We can just ignore that, does no harm.\n    }\n}\n",
  "sourcePath": "/home/runner/work/protocol-monorepo/protocol-monorepo/packages/ethereum-contracts/contracts/utils/TokenCustodian.sol",
  "compiler": {
    "name": "solc",
    "version": "0.7.6+commit.7338295f.Emscripten.clang"
  },
  "schemaVersion": "3.4.4",
  "updatedAt": "2022-02-01T14:35:44.943Z",
  "devdoc": {
    "kind": "dev",
    "methods": {},
    "version": 1
  },
  "userdoc": {
    "kind": "user",
    "methods": {},
    "version": 1
  }
}